:100000000C94A3010C94D4010C94D4010C94D4014D
:100010000C94D4010C94D4010C94D4010C94D4010C
:100020000C94D4010C94A00A0C94A00A0C94A00A7D
:100030000C94D4010C944F030C94D4010C94D4016F
:100040000C94D4010C94D2080C94D4010C94D401D7
:100050000C94D4010C94D4010C94D4010C94D30DC1
:100060000C94D4010C94C0040C9496040C94D40108
:100070000C94D4010C94D4010C94D4010C94D401AC
:100080000C94D4010C94D4010C94D4010C94D4019C
:100090000C94D4010C94D4010C94D4010C94860BD0
:1000A0000C94D4010C94D4010C94D4010C94D4017C
:1000B0000C94D4010C94D4010C94D4010C94350606
:1000C0000C94D4010C94D4010C94D4010C946C04C1
:1000D0000C9442040C94D4010C9418040C94EE0378
:1000E0000C94D4017C078107860790079A071308B0
:1000F000A407AC07B407BE07C807D207E107EB07A0
:100100001308F507FF070908D30CD60CC50CC90C5A
:10011000CF0C0D0DDA0CDE0CE40CE80CEC0CF20C40
:10012000F60CFA0C0D0D000D040D080D0C94D60CF8
:100130000C9471050C94040D0C94DD020C94E107F1
:100140000C94E80C0C9486070C947C070C943508EE
:100150000C94F60C0C94DE0C0C940D0D0C94DA0C33
:100160000C944B020C9429020C94EA040C9486051E
:100170000C94C90C0C94BE070C9496020C94DC0AE7
:100180000C94B4070C94320B0C942E030C9490072F
:100190000C9410060C94F5070C94FF070C94C807F8
:1001A0000C946B050C94D6010C941A020C94EC0C74
:1001B0000C94AB0E0C94E40C0C9409080C94EB0A10
:1001C0000C94F20C0C94EB070C94FA0A0C949A071A
:1001D0000C942C030C941D0E0C94A4070C94DD0AB3
:1001E0000C94AC070C9481070C94D30C0C943D0236
:1001F0000C94020B0C946A050C94DB110C949B0577
:100200000C9415120C94FA0C0C94000D0C94080D1F
:100210000C94D2070C9413080C94C50C0C94CF0CBE
:1002200002000020002300260029002C002F0032AD
:100230000000010000030106010901000021002463
:100240000027002A002D00300033000101000004C7
:100250000107010A0100002200250028002B002EC2
:10026000003100340002010000050108010B010506
:10027000050505070508080808020202020A0A081F
:100280000804040404010101010101010103030345
:100290000303030303040707070C0C0C0C0C0C0CE2
:1002A0000C0202020206060606060606060B0B0BE9
:1002B0000B0B0B0B0B010210202008081020401024
:1002C000204080020102010804020101020408101A
:1002D0002040808040201008040201800402018038
:1002E0004020100804020108040201010204081061
:1002F000204080010204081020408000000A0B0208
:10030000090C0D0E080703040100000000000000A6
:1003100000000000000000000000000000000000DD
:10032000000000000000001211100000000000009A
:1003300000000000000000000000000000000000BD
:1003400000001512DB1111241FBECFEFD1E2DEBF7A
:10035000CDBF00E00CBF12E0A0E0B2E0ECE1F2E3C0
:1003600000E00BBF02C007900D92A837B107D9F784
:1003700027E0A8E7B2E001C01D92A936B207E1F775
:1003800011E0C2EAD1E000E006C021970109802F08
:10039000FE010E94AF15C13AD10780E00807A9F716
:1003A0000E94B60E0C94FC180C940000CF92DF92C1
:1003B000EF92FF920F931F93CF93DF936C017A011B
:1003C0008B01C0E0D0E0CE15DF0589F0D8016D913A
:1003D0008D01D601ED91FC910190F081E02DC601D7
:1003E0001995892B11F47E0102C02196ECCFC7012B
:1003F000DF91CF911F910F91FF90EF90DF90CF9001
:100400000895FC01A089B1898C91A689B78982FDE4
:100410000FC09C91818D8F5F8F73228D821749F061
:10042000218DDF01A20FB11D5D969C93818F0895F0
:100430008C910895FC01538D448D252F30E0842F3D
:1004400090E0821B930B541710F0CF9608950197FC
:100450000895FC01918D828D981761F0828DDF01E6
:10046000A80FB11D5D968C91928D9F5F9F73928FA7
:1004700090E008958FEF9FEF0895FC01918D828D9C
:10048000981731F0828DE80FF11D858D90E0089569
:100490008FEF9FEF0895FC01918D228D892F90E0C1
:1004A000805C9F4F821B91098F73992708958FE07D
:1004B00093E00E944B0221E0892B09F420E0822F77
:1004C00008958CEA93E00E944B0221E0892B09F405
:1004D00020E0822F089589E494E00E944B0221E0FD
:1004E000892B09F420E0822F0895FC01848DDF011F
:1004F000A80FB11DA35ABF4F2C91848D90E0019697
:100500008F739927848FA689B7892C93A089B18985
:100510008C9180648C93938D848D981306C002888F
:10052000F389E02D80818F7D80830895EF92FF9283
:100530000F931F93CF93DF93EC0181E0888F9B8D06
:100540008C8D981305C0E889F989808185FD24C0C8
:10055000F62E0B8D10E00F5F1F4F0F731127E02E4B
:100560008C8DE8120CC00FB607FCFACFE889F98928
:10057000808185FFF5CFCE010E947502F1CF8B8D72
:10058000FE01E80FF11DE35AFF4FF0820B8FEA895D
:10059000FB898081806207C0EE89FF896083E889DA
:1005A000F98980818064808381E090E0DF91CF9140
:1005B0001F910F91FF90EF900895CF93DF93EC017F
:1005C000888D8823C9F0EA89FB89808185FD05C073
:1005D000A889B9898C9186FD0FC00FB607FCF5CFAD
:1005E000808185FFF2CFA889B9898C9185FFEDCFF5
:1005F000CE010E947502E7CFDF91CF91089580E090
:1006000090E0892B21F00E946B02811119C080E0DB
:1006100090E0892B41F080E090E0892B21F00E944E
:100620000000811110C00E94610281110FC080E0A2
:1006300090E0892B81F00E94570281110AC0089531
:100640000E940000E4CF0E940000EDCF0E946E05E2
:10065000EECF0C94000008950E94E7180F931F93AB
:10066000CF93DF93EC01122F202FE881F981369789
:10067000808191818C0F9D1F0E949B051A83E881C8
:10068000F981369780819181C80FD91F8FEF93E050
:100690009F878E87DF91CF911F910F9108951F92B1
:1006A0000F920FB60F9211240BB60F922F933F9318
:1006B0004F935F936F937F938F939F93AF93BF936A
:1006C000EF93FF9380917B0290917C02A0917D0239
:1006D000B0917E02892B8A2B8B2B59F180917A0263
:1006E000E0917802F091790290818927808380914E
:1006F0007B0290917C02A0917D02B0917E0218163F
:1007000019061A061B060CF056C080917B029091C8
:100710007C02A0917D02B0917E020197A109B109EE
:1007200080937B0290937C02A0937D02B0937E0223
:1007300042C080910002E0E2F2E0E4919FEF9093EA
:100740000002E230C9F050F4EE2399F0E13081F577
:1007500090916F009D7F90936F002AC0E43019F153
:10076000E0F0E53029F5909173009D7F9093730040
:100770001FC010926E001CC0909170009D7F9093DE
:10078000700091E09093B0009091B100987F9460D8
:100790009093B1001092B3000BC0909171009D7FB7
:1007A0009093710005C0909172009D7F90937200AC
:1007B00060E00E940E0DFF91EF91BF91AF919F916C
:1007C0008F917F916F915F914F913F912F910F90FA
:1007D0000BBE0F900FBE0F901F9018951F920F9297
:1007E0000FB60F9211240BB60F922F933F934F9396
:1007F0005F936F937F938F939F93AF93BF93EF9389
:10080000FF938FE093E00E947502FF91EF91BF91FB
:10081000AF919F918F917F916F915F914F913F9198
:100820002F910F900BBE0F900FBE0F901F90189539
:100830001F920F920FB60F9211240BB60F922F93A7
:100840003F934F935F936F937F938F939F93AF9358
:10085000BF93EF93FF938FE093E00E940102FF911B
:10086000EF91BF91AF919F918F917F916F915F9128
:100870004F913F912F910F900BBE0F900FBE0F9095
:100880001F9018951F920F920FB60F9211240BB65E
:100890000F922F933F934F935F936F937F938F9319
:1008A0009F93AF93BF93EF93FF938CEA93E00E94E3
:1008B0007502FF91EF91BF91AF919F918F917F91C1
:1008C0006F915F914F913F912F910F900BBE0F90C1
:1008D0000FBE0F901F9018951F920F920FB60F9298
:1008E00011240BB60F922F933F934F935F936F9307
:1008F0007F938F939F93AF93BF93EF93FF938CEA74
:1009000093E00E940102FF91EF91BF91AF919F91FF
:100910008F917F916F915F914F913F912F910F90A8
:100920000BBE0F900FBE0F901F9018951F920F9245
:100930000FB60F9211240BB60F922F933F934F9344
:100940005F936F937F938F939F93AF93BF93EF9337
:10095000FF9389E494E00E947502FF91EF91BF91AB
:10096000AF919F918F917F916F915F914F913F9147
:100970002F910F900BBE0F900FBE0F901F901895E8
:100980001F920F920FB60F9211240BB60F922F9356
:100990003F934F935F936F937F938F939F93AF9307
:1009A000BF93EF93FF9389E494E00E940102FF91CB
:1009B000EF91BF91AF919F918F917F916F915F91D7
:1009C0004F913F912F910F900BBE0F900FBE0F9044
:1009D0001F901895DF92EF92FF920F931F93CF9382
:1009E000DF93CDB7DEB7EE970FB6F894DEBF0FBE3C
:1009F000CDBF8C017B01D42E8FEF840FD801ED91F8
:100A0000FC91823020F40480F581E02D05C0411175
:100A100005C00280F381E02DC8011995D801ED9140
:100A2000FC910084F185E02D20E041E0B701C80190
:100A30001995B5E0DB1609F43FC0D801ED91FC91A2
:100A40000280F381E02DC8011995B2E0DB1234C0B9
:100A5000D801ED91FC910084F185E02D20E041E08A
:100A6000BE016F5F7F4FC801199540E0D8011C9609
:100A70008C91481708F5842F90E0880F991FF70193
:100A8000E80FF91F21E030E02C0F3D1F820F931F6C
:100A9000D8011E962D913C911F97DC018D919C9160
:100AA000B901681B790BCB0120813181820F931F23
:100AB000918380834F5FDACFEE960FB6F894DEBF56
:100AC0000FBECDBFDF91CF911F910F91FF90EF909F
:100AD000DF900895089580E090E00895E0E0F0E070
:100AE0001994CF93DF93FC0185858F3F61F0EF016F
:100AF00061E00E943E0D61E08D850E940E0D8BE14C
:100B000093E00197F1F7DF91CF910895CF93DF93B1
:100B1000FC0185858F3F61F0EF0161E00E943E0D91
:100B200060E08D850E940E0D8BE193E00197F1F757
:100B3000DF91CF910895EF92FF920F931F93CF9380
:100B4000DF931F92CDB7DEB77C018B01FC011382CE
:100B50001282158214821782168211861086118ADB
:100B6000108A403218F08FE1848702C0FC0144876C
:100B7000F70182859385892B11F080E00DC0F70184
:100B8000848590E029830E94D116F701938782879C
:100B90002981892B91F714C0F7019485891778F47E
:100BA000482F50E0F801E40FF51F9081F7016285AE
:100BB0007385FB01E40FF51F90838F5FEDCF2587D1
:100BC0000F90DF91CF911F910F91FF90EF900895BB
:100BD000FC01248131E03093DF0220930103109265
:100BE000E002109202038485682B83E093E00E9468
:100BF000320B0C94BB090F931F93CF938C01C62F1C
:100C000064600E94E8056C2F6B7FC8010E94E805B4
:100C100083EC90E00197F1F7CF911F910F91089528
:100C20000F931F93CF93DF938C01C62FD62FD07FC6
:100C3000D1606D2F0E94E8056D2FC8010E94FB0551
:100C400080E1C89FB0011124C62FC1606C2FC8017C
:100C50000E94E8056C2FC8010E94FB0581E090E02E
:100C6000DF91CF911F910F9108951F920F920FB6B0
:100C70000F9211240BB60F922F933F934F935F93D4
:100C80006F937F938F939F93AF93BF93CF93DF9394
:100C9000EF93FF932091E70430E0F901E550FD4F19
:100CA0008491F901EB54FD4FD491F901E159FD4FC5
:100CB000C491CC23A1F081110E94B80CEC2FF0E07C
:100CC000EE0FFF1FEF5DFD4FA591B491EC91ED2369
:100CD00031E020E009F430E0832F922F02C080E061
:100CE00090E02091EB043091EC042F5F3F4F309364
:100CF000EC042093EB042091EA04253618F026E05A
:100D00002093E6042091E6042430D9F128F422301F
:100D100069F02330D9F060C0253009F453C0263083
:100D200009F05AC021E02093B70553C0009709F09D
:100D300053C02091EB043091EC042436310508F4C3
:100D400043C01092B7051092EA041DC0813091058E
:100D500009F042C0E091EA0421E02E0F2093EA045A
:100D6000F0E02091EB043091EC04EE0FFF1FEA510C
:100D7000FB4F308727831092EC041092EB0424E0A1
:100D800029C00097B9F4E091EA0421E02E0F2093E6
:100D9000EA04F0E02091EB043091EC04EE0FFF1F29
:100DA000EA51FB4F308727831092EC041092EB043A
:100DB00023E010C02091EB043091EC04253631057E
:100DC00058F007C0009741F41092EC041092EB0425
:100DD00003C025E02093E6042091E9042223B9F022
:100DE000892B51F48091E804882321F08091E80454
:100DF00061E009C02F9A0BC08091E804882331F08C
:100E00008091E80460E00E940E0D01C02F98FF91D0
:100E1000EF91DF91CF91BF91AF919F918F917F9192
:100E20006F915F914F913F912F910F900BBE0F905B
:100E30000FBE0F901F9018958F929F92AF92BF9206
:100E4000CF92DF92EF92FF920F931F93CF93DF9396
:100E5000EC016A017B0120E030E04FE753E4C70179
:100E6000B6010E949B144B015C0120E030E0A90117
:100E70000E94CC1618161CF4C501B40103C0C501AC
:100E8000B40190580E9496168B0120E030E0A90131
:100E9000C701B6010E94CC16181614F460E001C018
:100EA00061E089810E940E0D0F3F110509F014F4D5
:100EB000112702C00FEF10E0C88161E08C2F0E9463
:100EC0003E0D0115110509F4B1C00F3F110509F4DC
:100ED000AFC0EC2FF0E0E550FD4FE4914E2F50E015
:100EE000FA013197E231F10508F09DC08827EE58EC
:100EF000FF4F8F4F0C94AF1584B5806884BD07BD3C
:100F0000A7C084B5806284BD08BDA2C08091800066
:100F1000806880938000109389000093880098C0B7
:100F20008091800080628093800010938B000093FA
:100F30008A008EC08091800088608093800010932A
:100F40008D0000938C0084C08091B00080688093F5
:100F5000B0000093B3007CC08091B00080628093A9
:100F6000B0000093B40074C08091900080688093BA
:100F7000900010939900009398006AC080919000AF
:100F800080628093900010939B0000939A0060C051
:100F90008091900088608093900010939D00009352
:100FA0009C0056C08091A00080688093A000809132
:100FB000A0008F7B8093A0001093A9000093A8004D
:100FC00047C08091A00080628093A0001093AB0086
:100FD0000093AA003DC08091A00088608093A0008B
:100FE0001093AD000093AC0033C080912001806865
:100FF00080932001109329010093280129C080913A
:10100000200180628093200110932B0100932A011C
:101010001FC08091200188608093200110932D01D2
:1010200000932C0115C00038110514F460E001C0D4
:1010300061E08C2FDF91CF911F910F91FF90EF9086
:10104000DF90CF90BF90AF909F908F900C940E0D3B
:10105000DF91CF911F910F91FF90EF90DF90CF9094
:10106000BF90AF909F908F9008958F929F92AF9274
:10107000BF92CF92DF92EF92FF920F931F93CF9385
:10108000DF93CDB7DEB7A1970FB6F894DEBF0FBEE2
:10109000CDBF8EE30E947A0D8C016C01990FEE0892
:1010A000FF08F7FE2BC0E0914904F0914A0401903B
:1010B000F081E02D6DE289E494E019952227332731
:1010C000A9012C193D094E095F0919A2CE0181968B
:1010D0007C019AE0892E912CA12CB12CCA01B90176
:1010E000A50194010E945915605DF70162937F018B
:1010F000211531054105510589F71AC0A70196014F
:1011000019A2CE0181967C018AE0882E912CA12C17
:10111000B12CCA01B901A50194010E945915605D65
:10112000F70162937F01211531054105510589F7CA
:10113000C7010E94A9098FE692E00E94A9090F3415
:101140001240ECF040E050E0BA0187EF96E00E94D8
:101150001C0740E050E060E070E889EF96E00E94F4
:101160001C0782E792E00E94A9098FE692E00E94A4
:10117000A90960E177E280E090E00E94990DA196D4
:101180000FB6F894DEBF0FBECDBFDF91CF911F9198
:101190000F91FF90EF90DF90CF90BF90AF909F9016
:1011A0008F9008951F920F920FB60F9211240BB6D5
:1011B0000F922F933F934F935F936F937F938F93F0
:1011C0009F93AF93BF93EF93FF938091B30287FFF9
:1011D00005C0109285001092840016C02091B302C1
:1011E000022E000C330B8091F40590E0281739078C
:1011F0005CF43091B30225E03203F0011124E8548D
:10120000FA4F808186FD15C08091B3028F5F809375
:10121000B3022091B302022E000C330B8091F4052F
:1012200090E02817390794F48091B3028C302CF1A8
:101230000DC03091B3023203F0011124E854FA4F8B
:10124000808160E08F730E940E0DDECF809184005C
:101250009091850084349C4918F480E49CE905C091
:1012600080918400909185000496909389008093EA
:1012700088008FEF8093B3022AC040918400509180
:1012800085003091B30225E03203F0011124E854C7
:10129000FA4F81819281840F951F909389008093EA
:1012A00088003091B3023203F0011124E854FA4F60
:1012B000808186FF0CC03091B3023203F00111240B
:1012C000E854FA4F808161E08F730E940E0DFF9108
:1012D000EF91BF91AF919F918F917F916F915F91AE
:1012E0004F913F912F910F900BBE0F900FBE0F901B
:1012F0001F9018958EBD00000DB407FEFDCF8EB572
:101300000895E9E4F4E0A089B18982E08C93A48592
:10131000B5851C92A685B7858FEC8C93108EA48919
:10132000B58986E08C93A289B3898C9180618C9376
:10133000A289B3898C9188608C93A289B3898C919E
:1013400080688C930288F389E02D80818F7D808373
:101350000895009769F0FC0101900020E9F73197AA
:10136000AF01481B590BBC0189E494E00C94D601F1
:1013700080E090E0089520910203909101032132D2
:1013800008F04AC08091DE028111FCCF32E0309338
:10139000DE0231E03093DD023FEF3093DC02109249
:1013A000DB022093DA02A1EEB2E04AEB52E0FA014E
:1013B0003E2F341B321718F43D913193F9CF109220
:1013C000B9022091B902990F922B9093B902909192
:1013D000B802913061F41092B8029091B9029093E2
:1013E000BB009091BC0093FDF8CF95EC01C095EE49
:1013F0009093BC009091DE029230E1F39091DC0278
:101400009F3F79F08091DC02803241F08091DC02D4
:10141000803331F084E005C081E003C082E001C088
:1014200083E01092E002109202031092DF0208950E
:10143000EF92FF921F93CF93DF931F92CDB7DEB74A
:10144000162F9EEDE92E96E0F92ED7011C969C9161
:101450001C9721E02093DF02909301031092E00299
:10146000109202031A960D90BC91A02DED91FC9163
:1014700011970190F081E02D682FCD0179831995A6
:10148000F70182859385DC01ED91FC910190F0815B
:10149000E02D7981672F1995F70182859385DC010D
:1014A000ED91FC910190F081E02D612F19950F9045
:1014B000DF91CF911F91FF90EF900C94BB09809129
:1014C000F5058823E1F12FB7F8948091B40290914B
:1014D000B502A091B602B091B7022FBF4091F605B8
:1014E0005091F7056091F8057091F905841B950BF3
:1014F000A60BB70B4091FA055091FB056091FC05D6
:101500007091FD0584179507A607B707C0F02FB7A0
:10151000F8948091B4029091B502A091B602B09176
:10152000B7022FBF8093F6059093F705A093F805B7
:10153000B093F905E091FE05F091FF051994089527
:101540001F920F920FB60F9211240F900FBE0F90A3
:101550001F90189585ED8093BC008091BC0084FDA0
:10156000FCCF1092DE02089540914007262F30E014
:10157000240F311D21323105DCF42091DE022430AC
:10158000C9F4FC0180E090E0861758F430914007E0
:101590002191DC01A25EB84FA30FB11D2C930196DF
:1015A000F3CF80914007680F6093400780E0089573
:1015B00081E0089582E00895089581E090E03091FF
:1015C000180720911707321710F480E090E09195EA
:1015D00081959109089580911807909117078917AF
:1015E00030F48F5F8093180780E090E008958FEFCC
:1015F0009FEF08958091170790E020911807821BB4
:1016000091090895CF92DF92EF92FF920F931F936B
:10161000CF93DF937C01262F972F8A018091DF02E1
:10162000882391F0C62FD72F6E01C40ED51ECC157E
:10163000DD0571F06991D701ED91FC910190F08188
:10164000E02DC7011995F3CF642F822F0E94B40AB1
:10165000C801DF91CF911F910F91FF90EF90DF9024
:10166000CF900895CF93DF931F92CDB7DEB76983F4
:101670002091DF022223D1F020910203203240F09A
:1016800021E030E0FC013383228380E090E015C04C
:101690008091E002E82FF0E0EF51FD4F99819083B7
:1016A0008F5F8093E0028093020305C061E0CE016A
:1016B00001960E94B40A81E090E00F90DF91CF91F3
:1016C00008953FB7F89480911A0790911B07A09155
:1016D0001C07B0911D0726B5A89B05C02F3F19F028
:1016E0000196A11DB11D3FBFBA2FA92F982F8827A2
:1016F000820F911DA11DB11DBC01CD0142E0660FFD
:10170000771F881F991F4A95D1F708951F920F924E
:101710000FB60F9211240BB60F922F933F934F9356
:101720005F936F937F938F939F93AF93BF93EF9349
:10173000FF938091B900887F803609F49CC068F5DA
:10174000883209F45BC090F4803109F454C038F455
:10175000882309F4F6C0883009F44DC0F6C08831FA
:1017600009F44CC0803209F45DC0EFC0803409F444
:1017700068C048F4803309F455C0883309F0E5C0E7
:101780008093DC02D8C0803509F44FC0883509F455
:101790005DC0883409F0D9C0D6C0883909F4C7C003
:1017A000A8F4883709F467C038F4883609F463C0B0
:1017B000803709F460C0C9C0883809F4B8C08039DE
:1017C00009F45FC0803809F0C0C05BC0803B09F4F9
:1017D00086C038F4803A09F466C0883A09F47FC0BC
:1017E000B4C0803C09F4A7C0883C09F4A4C0883B7D
:1017F00009F48AC0AAC08091B90210C09091DB029E
:101800008091DA02981770F5E091DB0281E08E0F8B
:101810008093DB02F0E0E654FD4F80818093BB00B3
:1018200085EC86C08093DC028EC0E091DB0281E013
:101830008E0F8093DB028091BB00F0E0E654FD4FF9
:1018400080839091DB028091DA026EC0E091DB022E
:1018500081E08E0F8093DB028091BB00F0E0E654C4
:10186000FD4F80838091DD0281116DC081E0809306
:10187000B80284EA61C083E08093DE0210926407BC
:10188000CFCF80916407803208F051C0E0916407A7
:1018900081E08E0F809364078091BB00F0E0EC5BE9
:1018A000F84F8083BDCF85EC8093BC001092DE02A0
:1018B00080916407803230F4E0916407F0E0EC5BE3
:1018C000F84F10826091640770E0E0914207F09158
:1018D000430784E497E019951092640736C084E0CA
:1018E0008093DE021092410710924007E0913E077C
:1018F000F0913F07199580914007811105C081E063
:101900008093400710921E07E091410781E08E0FFF
:1019100080934107F0E0E25EF84F80818093BB0046
:101920009091410780914007981708F479CF85E896
:101930008093BC000AC085EC8093BC001092DE024C
:1019400004C01092DC020E94AA0AFF91EF91BF919D
:10195000AF919F918F917F916F915F914F913F9147
:101960002F910F900BBE0F900FBE0F901F901895E8
:1019700090E0FC013197E231F10508F04EC0882774
:10198000EC57FF4F8F4F0C94AF15809180008F77ED
:1019900003C0809180008F7D8093800008958091A6
:1019A0008000877FF9CF84B58F7702C084B58F7DA3
:1019B00084BD08958091B0008F7703C08091B000FE
:1019C0008F7D8093B0000895809190008F7707C03D
:1019D000809190008F7D03C080919000877F8093DD
:1019E000900008958091A0008F7707C08091A0009B
:1019F0008F7D03C08091A000877F8093A000089511
:101A0000809120018F7707C0809120018F7D03C0D6
:101A100080912001877F8093200108951F93CF93A9
:101A2000DF93282F30E0F901E550FD4F8491F90153
:101A3000EB54FD4FD491F901E159FD4FC491CC23F2
:101A4000C9F0162F81110E94B80CEC2FF0E0EE0FB8
:101A5000FF1FEB5AFD4FA591B4918FB7F894111168
:101A600005C09C91ED2FE095E92302C0EC91ED2B90
:101A7000EC938FBFDF91CF911F910895CF93DF93A8
:101A800090E0FC01EB54FD4F2491FC01E159FD4F26
:101A90008491882361F190E0880F991FFC01E55C37
:101AA000FD4FC591D491FC01EB5AFD4FA591B49126
:101AB000611109C09FB7F89488812095822388839B
:101AC000EC912E230BC0623061F49FB7F8943881FB
:101AD000822F809583238883EC912E2B2C939FBF9C
:101AE00006C08FB7F894E8812E2B28838FBFDF9133
:101AF000CF910895863308F0865390917B00282F6C
:101B00002870977F922B90937B00877080648093DE
:101B10007C0080917A00806480937A0080917A00C2
:101B200086FDFCCF809178002091790090E0922B87
:101B300008958F929F92AF92BF92CF92DF92EF92D1
:101B4000FF926B017C010E94610B4B015C01C1148F
:101B5000D104E104F104F1F00E94610BDC01CB013E
:101B600088199909AA09BB09883E9340A105B105C6
:101B700070F321E0C21AD108E108F10888EE880E5E
:101B800083E0981EA11CB11CC114D104E104F1042E
:101B900019F7DDCFFF90EF90DF90CF90BF90AF901F
:101BA0009F908F9008951F920F920FB60F9211245D
:101BB0002F933F938F939F93AF93BF938091B402E2
:101BC0009091B502A091B602B091B7023091190779
:101BD00023E0230F2D3720F40196A11DB11D05C070
:101BE00026E8230F0296A11DB11D209319078093AB
:101BF000B4029093B502A093B602B093B70280915D
:101C00001A0790911B07A0911C07B0911D07019620
:101C1000A11DB11D80931A0790931B07A0931C0769
:101C2000B0931D07BF91AF919F918F913F912F91DD
:101C30000F900FBE0F901F901895AF92BF92CF924A
:101C4000DF92EF92FF920F931F93CF93DF931F9238
:101C50001F92CDB7DEB75C017B01FC01A081B18191
:101C60001697ED91FC911197E80FF91F82859385E6
:101C7000892B09F463C0822FED91FC911197EA0D35
:101C8000FB1D9485891748F4F701E80FF11DE80F53
:101C9000F11D11821082840FEFCFC12CF5018281DA
:101CA000C81650F5D22ED501ED91FC9136970190D2
:101CB000F081E02DEA0DFB1D8485D816D8F40D2D9A
:101CC00010E00284F385E02DE00FF11F80812A836C
:101CD00049830E947A0D000F111FF701E00FF11FD9
:101CE00060817181860F971F918380834981D40E13
:101CF0002A81D9CFC394D2CF008111810650110916
:101D0000D801ED91FC91EA0DFB1D84852817B0F4F4
:101D1000F701E20FF11DE20FF11DD50112966C9152
:101D200070E0DB01B595A795808191818A0F9B1F9B
:101D30000E94871571836083240FE2CF0F900F906C
:101D4000DF91CF911F910F91FF90EF90DF90CF9097
:101D5000BF90AF900895DC01ED91FC913E9701900A
:101D6000F081E02D8E0F9F1F0C941D0ECF93DF93FB
:101D700000D000D0CDB7DEB7789484B5826084BD42
:101D800084B5816084BD85B5826085BD85B581607F
:101D900085BD80916E00816080936E0010928100FD
:101DA00080918100826080938100809181008160B8
:101DB0008093810080918000816080938000809179
:101DC000B10084608093B1008091B0008160809305
:101DD000B000809191008260809391008091910089
:101DE0008160809391008091900081608093900049
:101DF0008091A10082608093A1008091A100816008
:101E00008093A1008091A00081608093A0008091C8
:101E10002101826080932101809121018160809362
:101E200021018091200181608093200180917A00BE
:101E3000846080937A0080917A00826080937A0037
:101E400080917A00816080937A0080917A00806826
:101E500080937A001092C1000E94810961E0809114
:101E6000DF060E943E0D60E08091DF060E940E0DAD
:101E700060E08091DE060E943E0D83E093E0909347
:101E8000E9068093E806109218071092170710923F
:101E9000E002109202031092DE0281E08093DD02E4
:101EA0001092B80261E084E10E940E0D61E085E1CC
:101EB0000E940E0D8091B9008E7F8093B9008091B1
:101EC000B9008D7F8093B90088E48093B80085E4E1
:101ED0008093BC0080E090E1A0E0B0E08093EB064E
:101EE0009093EC06A093ED06B093EE068AE090E0A6
:101EF000A0E0B0E08093EF069093F006A093F10687
:101F0000B093F20680E090E0A0E0B0E48093F306A6
:101F10009093F406A093F506B093F60660E070E1A6
:101F200085E00E94180A6FE979E380E00E94180AB0
:101F30008BEF96E09E838D83C12CD12CE12CF12C6C
:101F400014EA212E12E0312E0AEE402E02E0502E2D
:101F50008BECA82E87E0B82E9BE8892E99249394C9
:101F6000D701A252B94F3D0114969C911497129635
:101F70008C9186010252194FF801818F928F61E096
:101F80000E943E0D61E0D8015A968C910E943E0D50
:101F9000F30190858681AD81BE818C93F801968F87
:101FA00061E00E943E0D60E0D8015E968C910E9437
:101FB0003E0D61E0ED81FE8180810E940E0D1FB714
:101FC000F89480917F02811125C0F1018491F20182
:101FD0009491E82FF0E0EE0FFF1FE55CFD4FA59117
:101FE000B4918C91982321F461E085E30E940E0D59
:101FF00061E085E30E943E0D8CB580618CBD8CB59F
:1020000080648CBD61E084E30E943E0D61E083E367
:102010000E943E0D80917F028F5F80937F021FBFE1
:10202000C5010197F1F760E0AD81BE818C910E94FE
:102030000E0D88E80E947A0983E00E947A0961E027
:10204000ED81FE8180810E940E0DC5010197F1F79F
:1020500060E0AD81BE818C910E940E0D88E90E94E6
:102060007A0980E00E947A0980E00E947A0980E083
:102070000E947A0980E00E947A0961E0ED81FE8188
:1020800080810E940E0DC4010197F1F760E0AD81DF
:10209000BE818C910E940E0D80EE0E947A0961E053
:1020A000ED81FE8180810E940E0DF2E0CF0ED11CE9
:1020B0008D819E8102969E838D83EA94EF2821F084
:1020C000EE24E394F12C4CCF73E0E72E77E0F72E6B
:1020D00014E01E0D60E0D7018D917D010E943E0D40
:1020E0001E11F8CF02E117E02FE0822E27E0922E9A
:1020F00035E0C32E4CE0E42E52E0B52E62E0D62E41
:10210000D80CF4013897F080F40180818C3008F00D
:1021100046C061E08F2D0E943E0DD4018C91C89E77
:10212000F0011124E854FA4F9F2D9F732081207CE9
:10213000F22EF92AF082138214826E2D0E947B15F2
:10214000BCE08B9FA001112420E030E0B901640FB6
:10215000751FC69EF001C79EF00D1124E854FA4F7A
:10216000908196FD12C02F5F3F4F2C30310571F7E3
:1021700081110BC010928000B092810010928500F6
:1021800010928400B6BAB0926F00D401EC91CE9E4A
:10219000F0011124E854FA4F808180648083F401B7
:1021A0003297908132978081F80131978083F801CE
:1021B000908360E00E943E0D61E0D8018C910E9406
:1021C0003E0D60E0F80180810E940E0DFFEF8F1A36
:1021D0009F0A0E5F1F4FD81094CFF89410922001E1
:1021E00089E08093210180E293E09093290180931C
:1021F0002801109225011092240182E0809373003F
:1022000078948093E6041092EA048091E70460E0F9
:102210000E943E0D0E9481090E945F0A41E060E831
:1022200072E083E096E00E94EA0400E812E094E69F
:10223000A92EB12CC12CD12CE12CF12C0E945F0ACB
:10224000D8018D919C918D32914048F0F801B18276
:10225000A082FFEFEF1AFF0ACA0CDB1C03C0D801F3
:102260001D921C920E5F1F4FB4E6AB0EB11CE4E84A
:10227000AE16E3E0BE0611F7E114F10431F0C60139
:10228000B7010E949B157B0102C0E12CF12C80E973
:10229000682E82E0782E83010E945F0AD8018D911A
:1022A0009D918D018D939C93B2E00A391B07A1F794
:1022B000F0929102E0929002C12CD12C760146015D
:1022C00057010E945F0AF301819191913F010097AC
:1022D000C1F0BC01990F880B990B0E943C149B0123
:1022E000AC01C501B4010E94B8154B015C0120E0AE
:1022F00030E040E85FE3C701B6010E94B8156B010A
:102300007C01FAE96F16F2E07F06D9F620E030E0B2
:10231000A901C701B6010E94CC1618164CF4A701FA
:102320009601C501B4010E9424169B01AC0103C0B3
:1023300020E030E0A9018091900290919102BC01CF
:10234000990F880B990B29833A834B835C830E94F6
:102350003C1429813A814B815C810E94B71520E0B1
:1023600030E04AEF53E40E9424166B017C012DEC0F
:102370003CEC4CEC5EE30E94B815AB01BC0187EF6E
:1023800096E00E941C07A70196016DEC7CEC8CEC9A
:102390009EE30E94B715AB01BC01705889EF96E02F
:1023A0000E941C0762E370E080E090E00E94990DBB
:1023B0000E94FF0231CF87E492E090930106809360
:1023C000000687E392E090930406809303068091D1
:1023D0000D0690910E06009711F00E9466178091ED
:1023E000070690910806009711F00E9466178091E9
:1023F0000B0690910C06009711F00E9466178091D1
:10240000050690910606009711F00E9466178091CC
:10241000090690910A06009711F00E9466178091B4
:102420001506909116060C9466170F9310920603EA
:102430001092050388EE93E0A0E0B0E080930703DC
:1024400090930803A0930903B0930A0323E132E0B9
:10245000309304032093030310921203109211038C
:102460008093130390931403A0931503B093160362
:1024700025E232E03093100320930F0345E351E04F
:1024800050931C0340931B0344E351E050931E03FD
:1024900040931D0340E351E05093200340931F03FA
:1024A00041E351E0509322034093210342E351E082
:1024B000509324034093230346E351E050932603B3
:1024C00040932503109228031092290310922A03A7
:1024D00010922B031092AF031092AE038093B003BF
:1024E0009093B103A093B203B093B3033093AD03C1
:1024F0002093AC0345ED50E05093B9034093B803EB
:1025000044ED50E05093BB034093BA0340ED50E0DC
:102510005093BD034093BC0341ED50E05093BF0383
:102520004093BE0342ED50E05093C1034093C0037B
:1025300046ED50E05093C3034093C2031092C5038D
:102540001092C6031092C7031092C80310924C0455
:1025500010924B0480934D0490934E04A0934F042B
:10256000B093500430934A042093490485EC90E0E2
:10257000909356048093550484EC90E09093580413
:102580008093570480EC90E090935A048093590410
:1025900081EC90E090935C0480935B0482EC90E08B
:1025A00090935E0480935D0486EC90E090936004C9
:1025B00080935F041092620410926304109264048A
:1025C0001092650486E38093FF0687E380930007FB
:1025D00088E38093010789E3809302078BE180936E
:1025E00003078DE1809304078AE1809305078CE15E
:1025F0008093060784E08093070787E080930807AD
:102600001092090784EB80930A0786E180930B07F9
:1026100088E180930C0787E180930D0789E180931F
:102620000E07E091F405EC3020F08FEF80930F0758
:1026300010C081E08E0F8093F405E0930F0725E032
:10264000E29FF0011124E854FA4F88EB9BE092835B
:102650008183E091F405EC3020F08FEF8093100738
:1026600010C081E08E0F8093F405E093100785E0A1
:10267000E89FF0011124E854FA4F88EB9BE0928325
:1026800081838CE08093DE0684E28093DF0686E01F
:102690008093E00685E08093E1068FE18093E20677
:1026A0008EE18093E30683E28093E40682E28093E6
:1026B000E50685E48093E60684E48093E70680E4FB
:1026C0008093EA061092EF061092F0061092F1063F
:1026D0001092F2061092F3061092F4061092F5068C
:1026E0001092F606E0E2F6E08FEF9FEFDC01128237
:1026F00013821482158216821782108611868387B0
:102700009487A587B6878787908BA18BB28B12861B
:1027100011821082739626E0EE3DF20741F78DE0BC
:1027200090E00E94D116FC011382128287E692E0AB
:1027300091838083118687E2848384E1828784E0A9
:1027400083871486F0931D06E0931C0610921E06E4
:1027500010921F0685E28093E7041092E90410921C
:10276000160610921506109218061092170610926F
:102770001A061092190661E070E080E090E00E9475
:10278000FE17009791F0909316068093150610920D
:102790001806109217062091190630911A06232B5D
:1027A00009F05FC0FC0110825CC080911506909119
:1027B0001606009711F00E946617109216061092E6
:1027C000150610921A061092190610921806109209
:1027D000170610920606109205061092080610922F
:1027E000070610920A061092090610920C06109223
:1027F0000B0610920E0610920D0687E492E090935D
:1028000001068093000689E592E090930406809388
:10281000030602E024E048E061E072E080E096E038
:102820000E942E0381E08093F5051092F605109228
:10283000F7051092F8051092F90588EE93E0A0E0F4
:10284000B0E08093FA059093FB05A093FC05B0934C
:10285000FD0585E398E09093FF058093FE050F91B9
:10286000089510921A061092190661E772E00E940C
:10287000F518AFCFE89409C097FB3EF4909580958A
:10288000709561957F4F8F4F9F4F9923A9F0F92F36
:1028900096E9BB279395F695879577956795B795B4
:1028A000F111F8CFFAF4BB0F11F460FF1BC06F5F9A
:1028B0007F4F8F4F9F4F16C0882311F096E911C0AC
:1028C000772321F09EE8872F762F05C0662371F0CD
:1028D00096E8862F70E060E02AF09A95660F771FE1
:1028E000881FDAF7880F9695879597F90895990FBD
:1028F0000008550FAA0BE0E8FEEF16161706E807CA
:10290000F907C0F012161306E407F50798F0621BEA
:10291000730B840B950B39F40A2661F0232B242BBF
:10292000252B21F408950A2609F4A140A6958FEFDE
:10293000811D811D08950E94AE140C941F150E94E4
:10294000111538F00E94181520F0952311F00C9401
:1029500008150C940E1511240C9453150E94301573
:1029600070F3959FC1F3950F50E0551F629FF001E2
:10297000729FBB27F00DB11D639FAA27F00DB11DFB
:10298000AA1F649F6627B00DA11D661F829F222784
:10299000B00DA11D621F739FB00DA11D621F839F0B
:1029A000A00D611D221F749F3327A00D611D231FE1
:1029B000849F600D211D822F762F6A2F11249F572F
:1029C00050409AF0F1F088234AF0EE0FFF1FBB1F32
:1029D000661F771F881F91505040A9F79E3F5105F1
:1029E00080F00C9408150C9453155F3FE4F3983E67
:1029F000D4F3869577956795B795F795E7959F5F9B
:102A0000C1F7FE2B880F911D9695879597F908952C
:102A100097F99F6780E870E060E008959FEF80EC91
:102A2000089500240A941616170618060906089534
:102A300000240A9412161306140605060895092E9A
:102A40000394000C11F4882352F0BB0F40F4BF2B09
:102A500011F460FF04C06F5F7F4F8F4F9F4F089549
:102A600057FD9058440F551F59F05F3F71F047953F
:102A7000880F97FB991F61F09F3F79F08795089524
:102A8000121613061406551FF2CF4695F1DF08C043
:102A9000161617061806991FF1CF86957105610560
:102AA00008940895E894BB2766277727CB0197F908
:102AB0000895A1E21A2EAA1BBB1BFD010DC0AA1F7F
:102AC000BB1FEE1FFF1FA217B307E407F50720F097
:102AD000A21BB30BE40BF50B661F771F881F991F12
:102AE0001A9469F760957095809590959B01AC015B
:102AF000BD01CF010895991B79E004C0991F961775
:102B000008F0961B881F7A95C9F780950895AA1B2F
:102B1000BB1B51E107C0AA1FBB1FA617B70710F0C8
:102B2000A61BB70B881F991F5A95A9F780959095FA
:102B3000BC01CD01089597FB072E16F4009407D031
:102B400077FD09D00E94871507FC05D03EF49095CB
:102B500081959F4F0895709561957F4F0895EE0F71
:102B6000FF1F881F8BBF0790F691E02D19945058D6
:102B7000BB27AA270E94CF150C941F150E94111580
:102B800038F00E94181520F039F49F3F19F426F40C
:102B90000C940E150EF4E095E7FB0C940815E92F44
:102BA0000E94301558F3BA17620773078407950718
:102BB00020F079F4A6F50C9452150EF4E0950B2E46
:102BC000BA2FA02D0B01B90190010C01CA01A0017F
:102BD0001124FF27591B99F0593F50F4503E68F1DA
:102BE0001A16F040A22F232F342F4427585FF3CF1B
:102BF000469537952795A795F0405395C9F77EF4EC
:102C00001F16BA0B620B730B840BBAF09150A1F034
:102C1000FF0FBB1F661F771F881FC2F70EC0BA0FBA
:102C2000621F731F841F48F4879577956795B79542
:102C3000F7959E3F08F0B0CF9395880F08F099273D
:102C4000EE0F9795879508950E9438160C941F15DE
:102C50000E94181558F00E94111540F029F45F3FAA
:102C600029F00C94081551110C9453150C940E1561
:102C70000E94301568F39923B1F3552391F3951B06
:102C8000550BBB27AA2762177307840738F09F5F8D
:102C90005F4F220F331F441FAA1FA9F335D00E2EFA
:102CA0003AF0E0E832D091505040E695001CCAF767
:102CB0002BD0FE2F29D0660F771F881FBB1F26172A
:102CC00037074807AB07B0E809F0BB0B802DBF0101
:102CD000FF2793585F4F3AF09E3F510578F00C94D0
:102CE00008150C9453155F3FE4F3983ED4F3869592
:102CF00077956795B795F7959F5FC9F7880F911DF1
:102D00009695879597F90895E1E0660F771F881FDC
:102D1000BB1F621773078407BA0720F0621B730B8F
:102D2000840BBA0BEE1F88F7E09508950E949D165C
:102D30006894B1110C94531508950E94381588F0C9
:102D40009F5798F0B92F9927B751B0F0E1F0660F6F
:102D5000771F881F991F1AF0BA95C9F714C0B130B0
:102D600091F00E945215B1E008950C945215672F0E
:102D7000782F8827B85F39F0B93FCCF386957795DF
:102D80006795B395D9F73EF49095809570956195C8
:102D90007F4F8F4F9F4F08950E94771408F48FEF55
:102DA0000895CF93DF938230910510F482E090E094
:102DB000E0916707F091680720E030E0C0E0D0E0E4
:102DC000309711F14081518148175907C0F04817D9
:102DD000590761F482819381209719F09B838A833C
:102DE0002BC0909368078093670726C02115310593
:102DF00019F04217530718F49A01BE01DF01EF01E1
:102E00000280F381E02DDCCF2115310509F1281B6B
:102E1000390B2430310590F412968D919C911397C3
:102E20006115710521F0FB019383828304C09093A7
:102E3000680780936707FD01329644C0FD01E20FE9
:102E4000F31F81939193225031092D933C933AC003
:102E50002091650730916607232B41F420910B02E6
:102E600030910C0230936607209365072091090288
:102E700030910A022115310541F42DB73EB740913A
:102E80000D0250910E02241B350BE0916507F09165
:102E90006607E217F307A0F42E1B3F0B281739072C
:102EA00078F0AC014E5F5F4F2417350748F04E0FA6
:102EB0005F1F50936607409365078193919302C00B
:102EC000E0E0F0E0CF01DF91CF9108950F931F93E1
:102ED000CF93DF93009709F48CC0FC0132971382E3
:102EE000128200916707109168070115110581F49E
:102EF00020813181820F931F2091650730916607F1
:102F00002817390779F5F0936607E093650771C0D4
:102F1000D80140E050E0AE17BF0750F412962D9153
:102F20003C911397AD012115310509F1D901F3CF7A
:102F30009D01DA013383228360817181860F971F9F
:102F40008217930769F4EC0128813981260F371F16
:102F50002E5F3F4F318320838A819B8193838283BD
:102F6000452B29F4F0936807E093670742C0139656
:102F7000FC93EE931297ED01499159919E01240F14
:102F8000351FE217F30771F480819181840F951F3B
:102F9000029611969C938E938281938113969C93B3
:102FA0008E931297E0E0F0E0D80112968D919C91FB
:102FB0001397009719F0F8018C01F6CF8D919C9131
:102FC00098012E5F3F4F820F931F2091650730912C
:102FD00066072817390769F4309729F410926807B3
:102FE0001092670702C01382128210936607009343
:102FF0006507DF91CF911F910F9108956F927F9296
:103000008F929F92AF92BF92CF92DF92EF92FF92F8
:103010000F931F93CF93DF93EC01009789F4CB01BB
:10302000DF91CF911F910F91FF90EF90DF90CF90A4
:10303000BF90AF909F908F907F906F900C94D1161F
:10304000FC01E60FF71F9C0122503109E217F3073C
:1030500008F4ACC0D9010D911C9111970617170700
:10306000B0F00530110508F49FC0C8010497861719
:10307000970708F499C002501109061B170B01931A
:1030800011936D937C93CF010E9466178DC05B01F5
:10309000A01AB10A4C01800E911EA0916707B09151
:1030A000680740E050E0E12CF12C109709F44AC089
:1030B000A815B905D1F56D907C901197630182E058
:1030C000C80ED11CCA14DB0480F1A3014A195B09A4
:1030D0006A0182E0C80ED11C1296BC90129713961A
:1030E000AC91B5E0CB16D10440F0B282A3835183FA
:1030F0004083D9016D937C930AC00E5F1F4FC301BB
:10310000800F911FF90191838083EB2DFA2FE11439
:10311000F10431F0D7011396FC93EE93129744C05B
:10312000F0936807E09367073FC08D919C911197DA
:103130004817590708F4AC017D0112960D90BC9117
:10314000A02DB3CF809165079091660788159905EA
:10315000E1F446175707C8F48091090290910A02DA
:10316000009741F48DB79EB740910D0250910E0229
:10317000841B950BE817F907C8F4F0936607E093F2
:103180006507F901718360830FC0CB010E94D116DE
:103190007C01009759F0A801BE010E94EC18CE01F5
:1031A0000E946617C70104C0CE0102C080E090E013
:1031B000DF91CF911F910F91FF90EF90DF90CF9013
:1031C000BF90AF909F908F907F906F90089581E017
:1031D00090E0F8940C94FC18FB01DC0102C0019013
:1031E0000D9241505040D8F70895FB01DC01019049
:1031F0000D920020E1F7089511E0C2EAD1E000E06D
:1032000006C0802FFE010E94AF152196011DC33A12
:0C321000D10780E00807A9F7F894FFCF71
:10321C00FF000102030405060700006907200000F7
:10322C00000000320B020B6B05DC0AFA0AEB0ADD1C
:10323C000A000000009602D6011A02DD024B022998
:10324C00023D0200000000EA04860571059B052C76
:10325C00030300000000002E031D0EFDFF00000004
:10326C000000000000FDFF0000EA04860571059BCC
:10327C0005AB0E000000001006D6016B056A050DAB
:08328C000A0053544F500000EA
:00000001FF
