:100000000C946F010C94A0010C94A0010C94A0011D
:100010000C94A0010C94A0010C94A0010C94A001DC
:100020000C94A0010C945A0A0C945A0A0C945A0A83
:100030000C94A0010C949C060C94A0010C94A001BB
:100040000C94A0010C941E090C94A0010C94A00126
:100050000C94A0010C94A0010C94A0010C945206E5
:100060000C94A0010C940D080C94E3070C94A001CF
:100070000C94A0010C94A0010C94A0010C94A0017C
:100080000C94A0010C94A0010C94A0010C94A0016C
:100090000C94A0010C94A0010C94A0010C94640A8F
:1000A0000C94A0010C94A0010C94A0010C94A0014C
:1000B0000C94A0010C94A0010C94A0010C9437089E
:1000C0000C94A0010C94A0010C94A0010C94B9070D
:1000D0000C948F070C94A0010C9465070C943B07BB
:1000E0000C94A00152025502440248024E028C02B6
:1000F00059025D02630267026B02710275027902A6
:100100008C027F02830287020C945A040C94D8015B
:100110000C9483020C9471020C948C020C942706AC
:100120000C9476030C9454030C946B020C9401030E
:100130000C94D1010C9452020C94B2040C94700DE6
:100140000C94CB010C94D1050C9479020C94960B71
:100150000C94AA0D0C9463020C945D020C947F0223
:100160000C94C1030C94D8050C9475020C944E02A7
:100170000C94240C0C9445030C9468030C944802D2
:100180000C9486040C94DA050C94D2050C94550258
:100190000C94D5050C9408040C94AC050C946702DF
:1001A0000C9459020C94CA010C94CE010C94870251
:1001B0000C9444020C940802000020002300260046
:1001C00029002C002F00320000010000030106016D
:1001D000090100002100240027002A002D00300022
:1001E000330001010000040107010A01020000229E
:1001F00000250028002B002E0031003400020100F1
:1002000000050108010B010505050507050808089B
:1002100008020202020A0A08080404040401010197
:10022000010101010103030303030303030407079F
:10023000070C0C0C0C0C0C0C0C020202020606063D
:1002400006060606060B0B0B0B0B0B0B0B01021025
:1002500020200808102040102040800201020108E0
:100260000402010102040810204080804020100890
:1002700004020180040201804020100804020108E9
:100280000402010102040810204080010204081049
:1002900020408000000A0B02090C0D0E0807030421
:1002A000010000000000000000000000000000004D
:1002B000000000000000000000000000000000122C
:1002C000111000000000000000000000000000000D
:1002D00000000000000000000000AA0D700D1124B5
:1002E0001FBECFEFD1E2DEBFCDBF00E00CBF12E0FA
:1002F000A0E0B2E0ECEBF4E200E00BBF02C007903C
:100300000D92A237B107D9F727E0A2E7B2E001C00A
:100310001D92A735B207E1F711E0CEE6D1E000E08B
:1003200006C021970109802FFE010E941910CD36C9
:10033000D10780E00807A9F70E942F0C0C944C12FB
:100340000C9400004091ED02262F30E0240F311D67
:1003500021323105DCF42091EF022430C9F4FC0194
:1003600080E090E0861758F43091ED022191DC0195
:10037000A353BD4FA30FB11D2C930196F3CF8091D2
:10038000ED02680F6093ED0280E0089581E008952A
:1003900082E0089508958FEF9FEF08958FEF9FEF0C
:1003A00008958091CC0290E09195819591090895EE
:1003B000CF92DF92EF92FF920F931F93CF93DF9331
:1003C0007C01262F972F8A018091CB02882391F000
:1003D000C62FD72F6E01C40ED51ECC15DD0571F0CA
:1003E0006991D701ED91FC910190F081E02DC70159
:1003F0001995F3CF642F822F0E94A201C801DF91CB
:10040000CF911F910F91FF90EF90DF90CF900895C3
:10041000CF93DF931F92CDB7DEB769832091CB02D4
:100420002223D1F02091CA02203240F021E030E0B6
:10043000FC013383228380E090E015C08091C902E3
:10044000E82FF0E0E755FD4F998190838F5F80930F
:10045000C9028093CA0205C061E0CE0101960E94E4
:10046000A20181E090E00F90DF91CF91089590E09C
:10047000FC013197E231F10508F04EC08827EE58B3
:10048000FF4F8F4F0C941910809180008F7703C01D
:10049000809180008F7D80938000089580918000FE
:1004A000877FF9CF84B58F7702C084B58F7D84BDF7
:1004B00008958091B0008F7703C08091B0008F7D48
:1004C0008093B0000895809190008F7707C080914D
:1004D00090008F7D03C080919000877F8093900073
:1004E00008958091A0008F7707C08091A0008F7D34
:1004F00003C08091A000877F8093A0000895809121
:1005000020018F7707C0809120018F7D03C08091EB
:100510002001877F8093200108951F93CF93DF935D
:10052000282F30E0F901ED56FD4F8491F901E35B8E
:10053000FD4FD491F901E95FFD4FC491CC23C9F07F
:10054000162F81110E943702EC2FF0E0EE0FFF1FF3
:10055000E351FE4FA591B4918FB7F894111105C0E6
:100560009C91ED2FE095E92302C0EC91ED2BEC93EB
:100570008FBFDF91CF911F910895863308F0865386
:1005800090917B00282F2870977F922B90937B006F
:100590008770806480937C0080917A00806480936F
:1005A0007A0080917A0086FDFCCF809178002091BE
:1005B000790090E0922B08953FB7F8948091A502BE
:1005C0009091A602A091A702B091A80226B5A89B7F
:1005D00005C02F3F19F00196A11DB11D3FBFBA2FD5
:1005E000A92F982F8827820F911DA11DB11DBC0135
:1005F000CD0142E0660F771F881F991F4A95D1F7FA
:100600000895CF92DF92EF92FF920F931F93CF93B3
:10061000DF936C017A018B01C0E0D0E0CE15DF05DD
:1006200089F0D8016D918D01D601ED91FC91019079
:10063000F081E02DC6011995892B11F47E0102C0CD
:100640002196ECCFC701DF91CF911F910F91FF90C1
:10065000EF90DF90CF900895FC01A089B1898C9133
:10066000A689B78982FD0FC09C91818D8F5F8F73A2
:10067000228D821749F0218DDF01A20FB11D5D96F9
:100680009C93818F08958C910895FC01538D448D26
:10069000252F30E0842F90E0821B930B541710F02D
:1006A000CF96089501970895FC01918D828D98173A
:1006B00061F0828DDF01A80FB11D5D968C91928D46
:1006C0009F5F9F73928F90E008958FEF9FEF089543
:1006D000FC01918D828D981731F0828DE80FF11D0C
:1006E000858D90E008958FEF9FEF0895FC01918D27
:1006F000228D892F90E0805C9F4F821B91098F7320
:100700009927089585E293E00E94760321E0892BE2
:1007100009F420E0822F089582EC93E00E94760392
:1007200021E0892B09F420E0822F08958FE594E0E1
:100730000E94760321E0892B09F420E0822F08959E
:10074000FC01848DDF01A80FB11DA35ABF4F2C916E
:10075000848D90E001968F739927848FA689B7893D
:100760002C93A089B1898C9180648C93938D848D16
:10077000981306C00288F389E02D80818F7D8083E5
:100780000895EF92FF920F931F93CF93DF93EC01A5
:1007900081E0888F9B8D8C8D981305C0E889F9893D
:1007A000808185FD24C0F62E0B8D10E00F5F1F4F5A
:1007B0000F731127E02E8C8DE8120CC00FB607FCCA
:1007C000FACFE889F989808185FFF5CFCE010E94B3
:1007D000A003F1CF8B8DFE01E80FF11DE35AFF4F0F
:1007E000F0820B8FEA89FB898081806207C0EE89E5
:1007F000FF896083E889F98980818064808381E052
:1008000090E0DF91CF911F910F91FF90EF900895AD
:10081000CF93DF93EC01888D8823C9F0EA89FB89A7
:10082000808185FD05C0A889B9898C9186FD0FC09E
:100830000FB607FCF5CF808185FFF2CFA889B98973
:100840008C9185FFEDCFCE010E94A003E7CFDF9111
:10085000CF910895E0E0F0E0199480E090E0892BDA
:1008600021F00E949603811119C080E090E0892B4D
:1008700041F080E090E0892B21F00E94000081117E
:1008800010C00E948C0381110FC080E090E0892B82
:1008900081F00E94820381110AC008950E94000025
:1008A000E4CF0E940000EDCF0E942A04EECF0C940A
:1008B00000000895FC0125852F3F39F130E0F90152
:1008C000E35BFD4F4491F901E95FFD4F2491222341
:1008D00099F030E0220F331FF901EE52FE4FA5913F
:1008E000B491F901E351FE4F259134912FB7F8945B
:1008F000EC91E42BEC932FBFFC0161E085850E9415
:100900008D028BE193E00197F1F70895FC012585B5
:100910002F3F39F130E0F901E35BFD4F4491F901DC
:10092000E95FFD4F2491222399F030E0220F331F1D
:10093000F901EE52FE4FA591B491F901E351FE4F3A
:10094000259134912FB7F894EC91E42BEC932FBFC1
:10095000FC0160E085850E948D028BE193E00197A8
:10096000F1F70895DF92EF92FF920F931F93CF93C9
:10097000DF93CDB7DEB7EE970FB6F894DEBF0FBEAC
:10098000CDBF8C017B01D42E8FEF840FD801ED9168
:10099000FC91823020F40480F581E02D05C04111E6
:1009A00005C00280F381E02DC8011995D801ED91B1
:1009B000FC910084F185E02D20E041E0B701C80101
:1009C0001995B5E0DB1609F43FC0D801ED91FC9113
:1009D0000280F381E02DC8011995B2E0DB1234C02A
:1009E000D801ED91FC910084F185E02D20E041E0FB
:1009F000BE016F5F7F4FC801199540E0D8011C967A
:100A00008C91481708F5842F90E0880F991FF70103
:100A1000E80FF91F21E030E02C0F3D1F820F931FDC
:100A2000D8011E962D913C911F97DC018D919C91D0
:100A3000B901681B790BCB0120813181820F931F93
:100A4000918380834F5FDACFEE960FB6F894DEBFC6
:100A50000FBECDBFDF91CF911F910F91FF90EF900F
:100A6000DF900895CF93FC01C48121E02093CB0255
:100A7000C0938B021092C9021092CA028485682B1F
:100A800089E193E00E9408028091CA02813208F055
:100A900046C09091EF029111FCCF92E09093EF024B
:100AA00091E09093F1029FEF9093EE021092130366
:100AB00080931203A9EAB2E022EF32E0F9019E2FFF
:100AC000921B981718F49D919193F9CF10921403EB
:100AD00080911403CC0FC82BC09314038091F002B3
:100AE000813061F41092F002809114038093BB0076
:100AF0008091BC0083FDF8CF85EC01C085EE80932A
:100B0000BC008091EF028230E1F38091EE028F3FD2
:100B100031F08091EE02803211F08091EE0210925D
:100B2000C9021092CA021092CB02CF9108950F937E
:100B30001F93CF938C01C62F64600E9432056C2FE7
:100B40006B7FC8010E94320583EC90E00197F1F7BA
:100B5000CF911F910F9108950F931F93CF93DF9320
:100B60008C01C62FD62FD07FD1606D2F0E94320509
:100B70006D2FC8010E94970580E1C89FB001112424
:100B8000C62FC1606C2FC8010E9432056C2FC801AE
:100B90000E94970581E090E0DF91CF911F910F9126
:100BA0000895089580E090E0089586E30C94BD02D6
:100BB0000E943712EF92FF920F931F93CF93DF9310
:100BC0001F92CDB7DEB77C018B01FC01138212822C
:100BD000158214821782168211861086118A108A55
:100BE000403218F08FE1848702C0FC014487F7018E
:100BF00082859385892B11F080E00DC0F7018485F3
:100C000090E029830E942110F70193878287298130
:100C1000892B91F714C0F7019485891778F4482F30
:100C200050E0F801E40FF51F9081F70162857385AC
:100C3000FB01E40FF51F90838F5FEDCF25870F90A9
:100C4000DF91CF911F910F91FF90EF9008950F9337
:100C50001F93CF93DF93EC01122F202FE881F981AE
:100C60003697808191818C0F9D1F0E94DA051A832F
:100C7000E881F981369780819181C80FD91F8FEF64
:100C800093E09F878E87DF91CF911F910F910895F9
:100C900085ED8093BC008091BC0084FDFCCF109258
:100CA000EF0208951F920F920FB60F9211242F9307
:100CB0003F938F939F93AF93BF9380911503909130
:100CC0001603A0911703B09118033091A40223E0FA
:100CD000230F2D3720F40196A11DB11D05C026E874
:100CE000230F0296A11DB11D2093A402809315032A
:100CF00090931603A0931703B09318038091A50255
:100D00009091A602A091A702B091A8020196A11D00
:100D1000B11D8093A5029093A602A093A702B09361
:100D2000A802BF91AF919F918F913F912F910F900A
:100D30000FBE0F901F9018951F920F920FB60F9233
:100D400011240BB60F922F933F934F935F936F93A2
:100D50007F938F939F93AF93BF93EF93FF93809174
:100D6000900290919102A0919202B0919302892BEE
:100D70008A2B8B2B59F180918F02E0918D02F0919B
:100D80008E029081892780838091900290919102B8
:100D9000A0919202B0919302181619061A061B062A
:100DA0000CF056C08091900290919102A091920215
:100DB000B09193020197A109B10980939002909399
:100DC0009102A0939202B093930242C080910002DC
:100DD000ECEEF1E0E4919FEF90930002E230C9F075
:100DE00050F4EE2399F0E13081F590916F009D7FF2
:100DF00090936F002AC0E43019F1E0F0E53029F556
:100E0000909173009D7F909373001FC010926E00AD
:100E10001CC0909170009D7F9093700091E0909322
:100E2000B0009091B100987F94609093B1001092BF
:100E3000B3000BC0909171009D7F9093710005C02D
:100E4000909172009D7F9093720060E00E948D02ED
:100E5000FF91EF91BF91AF919F918F917F916F9192
:100E60005F914F913F912F910F900BBE0F900FBE4E
:100E70000F901F9018951F920F920FB60F9211248A
:100E80000BB60F922F933F934F935F936F937F9384
:100E90008F939F93AF93BF93EF93FF9385E293E07C
:100EA0000E94A003FF91EF91BF91AF919F918F910D
:100EB0007F916F915F914F913F912F910F900BBE5A
:100EC0000F900FBE0F901F9018951F920F920FB6A4
:100ED0000F9211240BB60F922F933F934F935F9372
:100EE0006F937F938F939F93AF93BF93EF93FF93F2
:100EF00085E293E00E942C03FF91EF91BF91AF91A7
:100F00009F918F917F916F915F914F913F912F9121
:100F10000F900BBE0F900FBE0F901F9018951F9251
:100F20000F920FB60F9211240BB60F922F933F938F
:100F30004F935F936F937F938F939F93AF93BF93E1
:100F4000EF93FF9382EC93E00E94A003FF91EF9157
:100F5000BF91AF919F918F917F916F915F914F91D1
:100F60003F912F910F900BBE0F900FBE0F901F90CF
:100F700018951F920F920FB60F9211240BB60F9275
:100F80002F933F934F935F936F937F938F939F9391
:100F9000AF93BF93EF93FF9382EC93E00E942C03F7
:100FA000FF91EF91BF91AF919F918F917F916F9141
:100FB0005F914F913F912F910F900BBE0F900FBEFD
:100FC0000F901F9018951F920F920FB60F92112439
:100FD0000BB60F922F933F934F935F936F937F9333
:100FE0008F939F93AF93BF93EF93FF938FE594E01D
:100FF0000E94A003FF91EF91BF91AF919F918F91BC
:101000007F916F915F914F913F912F910F900BBE08
:101010000F900FBE0F901F9018951F920F920FB652
:101020000F9211240BB60F922F933F934F935F9320
:101030006F937F938F939F93AF93BF93EF93FF93A0
:101040008FE594E00E942C03FF91EF91BF91AF9147
:101050009F918F917F916F915F914F913F912F91D0
:101060000F900BBE0F900FBE0F901F9018951F9200
:101070000F920FB60F9211240BB60F922F933F933E
:101080004F935F936F937F938F939F93AF93BF9390
:10109000CF93DF93EF93FF932091FD0430E0F901AC
:1010A000ED56FD4F8491F901E35BFD4FD491F901B9
:1010B000E95FFD4FC491CC23A1F081110E9437025A
:1010C000EC2FF0E0EE0FFF1FE854FE4FA591B49116
:1010D000EC91ED2331E020E009F430E0832F922FF2
:1010E00002C080E090E020910105309102052F5F61
:1010F0003F4F3093020520930105209100052536CE
:1011000018F026E02093FC042091FC042430D9F14F
:1011100028F4223069F02330D9F060C0253009F47A
:1011200053C0263009F05AC021E02093CD0553C0AA
:10113000009709F053C02091010530910205243633
:10114000310508F443C01092CD05109200051DC072
:101150008130910509F042C0E091000521E02E0F99
:1011600020930005F0E02091010530910205EE0F7B
:10117000FF1FE450FB4F3087278310920205109227
:10118000010524E029C00097B9F4E091000521E0B1
:101190002E0F20930005F0E020910105309102050B
:1011A000EE0FFF1FE450FB4F30872783109202059C
:1011B0001092010523E010C0209101053091020535
:1011C0002536310558F007C0009741F4109202050A
:1011D0001092010503C025E02093FC042091FF0438
:1011E0002223B9F0892B51F48091FE04882321F049
:1011F0008091FE0461E009C02F9A0BC08091FE042B
:10120000882331F08091FE0460E00E948D0201C0CD
:101210002F98FF91EF91DF91CF91BF91AF919F9167
:101220008F917F916F915F914F913F912F910F908F
:101230000BBE0F900FBE0F901F9018951F920F922C
:101240000FB60F9211240BB60F922F933F934F932B
:101250005F936F937F938F939F93AF93BF93EF931E
:10126000FF9380918C0287FF05C010928500109239
:10127000840016C020918C02022E000C330B80914A
:101280000A0690E0281739075CF430918C0225E0BB
:101290003203F0011124E253FA4F808186FD15C01C
:1012A00080918C028F5F80938C0220918C02022EA1
:1012B000000C330B80910A0690E02817390794F44C
:1012C00080918C028C302CF10DC030918C02320355
:1012D000F0011124E253FA4F808160E08F730E9485
:1012E0008D02DECF809184009091850084349C49EA
:1012F00018F480E49CE905C08091840090918500F9
:10130000049690938900809388008FEF80938C02DD
:101310002AC0409184005091850030918C0225E0D4
:101320003203F0011124E253FA4F81819281840F3C
:10133000951F909389008093880030918C0232032E
:10134000F0011124E253FA4F808186FF0CC03091E6
:101350008C023203F0011124E253FA4F808161E0E4
:101360008F730E948D02FF91EF91BF91AF919F917A
:101370008F917F916F915F914F913F912F910F903E
:101380000BBE0F900FBE0F901F901895009769F03D
:10139000FC0101900020E9F73197AF01481B590B80
:1013A000BC018FE594E00C94010380E090E0089587
:1013B0008F929F92AF92BF920F931F93CF93DF9321
:1013C000CDB7DEB7A1970FB6F894DEBF0FBECDBF85
:1013D00019A2423008F44AE08E010F5D1F4F842E9F
:1013E000912CA12CB12CA50194010E94CF0FE62FC6
:1013F000B901CA0101501109EA3014F4E05D01C0DD
:10140000E95CD801EC93232B242B252B61F7C80131
:101410000E94C609A1960FB6F894DEBF0FBECDBFDD
:10142000DF91CF911F910F91BF90AF909F908F90C0
:10143000089580910B068823E1F12FB7F8948091ED
:10144000150390911603A0911703B09118032FBFB5
:1014500040910C0650910D0660910E0670910F069A
:10146000841B950BA60BB70B4091100650911106EB
:10147000609112067091130684179507A607B707A7
:10148000C0F02FB7F8948091150390911603A091A6
:101490001703B09118032FBF80930C0690930D068D
:1014A000A0930E06B0930F06E0911406F091150676
:1014B000199408951F920F920FB60F9211240F9056
:1014C0000FBE0F901F9018951F920F920FB60F929C
:1014D00011240BB60F922F933F934F935F936F930B
:1014E0007F938F939F93AF93BF93EF93FF938091DD
:1014F000B900887F803609F49CC068F5883209F409
:101500005BC090F4803109F454C038F4882309F4A6
:10151000F6C0883009F44DC0F6C0883109F44CC0DB
:10152000803209F45DC0EFC0803409F468C048F42B
:10153000803309F455C0883309F0E5C08093EE028A
:10154000D8C0803509F44FC0883509F45DC08834AF
:1015500009F0D9C0D6C0883909F4C7C0A8F48837C3
:1015600009F467C038F4883609F463C0803709F499
:1015700060C0C9C0883809F4B8C0803909F45FC0B8
:10158000803809F0C0C05BC0803B09F486C038F4E5
:10159000803A09F466C0883A09F47FC0B4C0803C40
:1015A00009F4A7C0883C09F4A4C0883B09F48AC0A8
:1015B000AAC08091140310C090911303809112036C
:1015C000981770F5E091130381E08E0F8093130359
:1015D000F0E0EE50FD4F80818093BB0085EC86C02B
:1015E0008093EE028EC0E091130381E08E0F809312
:1015F00013038091BB00F0E0EE50FD4F808390918B
:101600001303809112036EC0E091130381E08E0FEB
:10161000809313038091BB00F0E0EE50FD4F808378
:101620008091F10281116DC081E08093F00284EA23
:1016300061C083E08093EF0210925007CFCF80917A
:101640005007803208F051C0E091500781E08E0FC2
:10165000809350078091BB00F0E0E05DF84F8083FD
:10166000BDCF85EC8093BC001092EF0280915007B3
:10167000803230F4E0915007F0E0E05DF84F1082E6
:101680006091500770E0E0912E07F0912F0780E302
:1016900097E019951092500736C084E08093EF02CE
:1016A00010922D071092ED02E0912B07F0912C077C
:1016B00019958091ED02811105C081E08093ED02C2
:1016C0001092CD02E0912D0781E08E0F80932D07BF
:1016D000F0E0E353FD4F80818093BB0090912D0794
:1016E0008091ED02981708F479CF85E88093BC00CB
:1016F0000AC085EC8093BC001092EF0204C01092E7
:10170000EE020E944806FF91EF91BF91AF919F9129
:101710008F917F916F915F914F913F912F910F909A
:101720000BBE0F900FBE0F901F901895AF92BF92F7
:10173000CF92DF92EF92FF920F931F93CF93DF939D
:101740001F921F92CDB7DEB75C017B01FC01A08127
:10175000B1811697ED91FC911197E80FF91F8285E1
:101760009385892B09F463C0822FED91FC91119729
:10177000EA0DFB1D9485891748F4F701E80FF11D68
:10178000E80FF11D11821082840FEFCFC12CF501FB
:101790008281C81650F5D22ED501ED91FC91369775
:1017A0000190F081E02DEA0DFB1D8485D816D8F458
:1017B0000D2D10E00284F385E02DE00FF11F8081F4
:1017C0002A8349830E94BD02000F111FF701E00F19
:1017D000F11F60817181860F971F918380834981FA
:1017E000D40E2A81D9CFC394D2CF00811181065063
:1017F0001109D801ED91FC91EA0DFB1D8485281794
:10180000B0F4F701E20FF11DE20FF11DD5011296C0
:101810006C9170E0DB01B595A795808191818A0F6D
:101820009B1F0E94F10F71836083240FE2CF0F9002
:101830000F90DF91CF911F910F91FF90EF90DF906C
:10184000CF90BF90AF900895DC01ED91FC913E9751
:101850000190F081E02D8E0F9F1F0C94960B7894D1
:1018600084B5826084BD84B5816084BD85B58260A5
:1018700085BD85B5816085BD80916E008160809356
:101880006E001092810080918100826080938100BF
:1018900080918100816080938100809180008160CF
:1018A000809380008091B10084608093B10080912A
:1018B000B00081608093B00080919100826080933D
:1018C00091008091910081608093910080919000BF
:1018D0008160809390008091A10082608093A1003C
:1018E0008091A10081608093A1008091A00081601F
:1018F0008093A000809121018260809321018091DA
:101900002101816080932101809120018160809379
:10191000200180917A00846080937A0080917A001F
:10192000826080937A0080917A00816080937A004F
:1019300080917A00806880937A001092C100E091D3
:101940006F04F091700482E08083E0916B04F09169
:101950006C041082E0916D04F0916E048FEC808332
:1019600010927704E0917304F091740486E0808310
:10197000E0917104F0917204808180618083E09134
:101980007104F0917204808188608083E091710419
:10199000F0917204808180688083E0917104F091FD
:1019A000720480818F7D80830E94190A41E064E97E
:1019B00072E089E196E00E94B20404E912E0C0E01E
:1019C000D0E0C12CD12CE12CF12C0E94190AF80195
:1019D00080819181CC59DF4F8D32914040F0D1838D
:1019E000C0838FEFE81AF80ACC0EDD1E02C0118208
:1019F00010820E5F1F4F6081718180E090E04AE0AD
:101A00000E94D809E0915F04F09160040190F08198
:101A1000E02D69E08FE594E01995C032B3E0DB0773
:101A2000A1F68FE692E00E94C609E114F10451F09C
:101A3000C601B7010E9405106B0122ECC21A21E019
:101A4000D20A02C0C12CD12C0D2C000CEE08FF08CC
:101A5000F7FE14C0E0915F04F09160040190F08102
:101A6000E02D6DE28FE594E0199566277727CB018D
:101A70006C197D098E099F094AE003C04AE0C7013D
:101A8000B6010E94D8098FE692E00E94C6090E9422
:101A9000DC024B015C018AEFC82ED12CE12CF12C29
:101AA0000E94DC02DC01CB0188199909AA09BB0953
:101AB000883E9340A105B10558F081E0C81AD108CD
:101AC000E108F108A8EE8A0EA3E09A1EA11CB11C41
:101AD000C114D104E104F10419F70E942D0464CF6C
:101AE00087E492E0909317068093160687E392E0CE
:101AF00090931A06809319068091230690912406EC
:101B0000009711F00E94B61080911D0690911E065C
:101B1000009711F00E94B610809121069091220644
:101B2000009711F00E94B61080911B0690911C0640
:101B3000009711F00E94B61080911F069091200628
:101B4000009711F00E94B61080912B0690912C0600
:101B50000C94B6100F9310921C0310921B0388EE86
:101B600093E0A0E0B0E080931D0390931E03A09348
:101B70001F03B093200323E132E030931A03209334
:101B8000190310922803109227038093290390933E
:101B90002A03A0932B03B0932C0325E232E0309369
:101BA00026032093250345E351E0509332034093ED
:101BB000310344E351E0509334034093330340E353
:101BC00051E0509336034093350341E351E0509385
:101BD00038034093370342E351E050933A03409374
:101BE000390346E351E050933C0340933B0310928A
:101BF0003E0310923F031092400310924103109253
:101C0000C5031092C4038093C6039093C703A093A7
:101C1000C803B093C9033093C3032093C20345EDB7
:101C200050E05093CF034093CE0344ED50E05093E7
:101C3000D1034093D00340ED50E05093D303409341
:101C4000D20341ED50E05093D5034093D40342EDCD
:101C500050E05093D7034093D60346ED50E05093A5
:101C6000D9034093D8031092DB031092DC03109247
:101C7000DD031092DE0310926204109261048093DF
:101C8000630490936404A0936504B0936604309356
:101C9000600420935F0485EC90E090936C04809343
:101CA0006B0484EC90E090936E0480936D0480EC60
:101CB00090E09093700480936F0481EC90E0909397
:101CC00072048093710482EC90E09093740480938A
:101CD000730486EC90E090937604809375041092E0
:101CE00078041092790410927A0410927B0486E3AF
:101CF0008093150787E38093160788E3809317077F
:101D000089E3809318078BE1809319078DE1809315
:101D10001A078AE180931B078CE180931C0784E0FB
:101D200080931D0787E080931E0710921F0784EBA6
:101D30008093200786E18093210788E18093220722
:101D400087E18093230789E180932407E0910A06C5
:101D5000EC3020F08FEF8093250710C081E08E0FCC
:101D600080930A06E093250725E0E29FF001112405
:101D7000E253FA4F88EB9BE092838183E0910A065D
:101D8000EC3020F08FEF8093260710C081E08E0F9B
:101D900080930A06E093260785E0E89FF00111246E
:101DA000E253FA4F88EB9BE0928381838CE080932F
:101DB000F40684E28093F50686E08093F60685E0DB
:101DC0008093F7068FE18093F8068EE18093F90601
:101DD00083E28093FA0682E28093FB0685E4809397
:101DE000FC0684E48093FD0680E480930007109253
:101DF0000507109206071092070710920807109225
:101E0000090710920A0710920B0710920C07E6E3DD
:101E1000F6E08FEF9FEFDC011282138214821582AD
:101E2000168217821086118683879487A587B687C6
:101E30008787908BA18BB28B12861182108273964A
:101E400026E0E43FF20741F78DE090E00E94211088
:101E5000FC011382128287E692E0918380831186CF
:101E600087E2848384E1828784E083871486F09309
:101E70003306E0933206109234061092350685E25E
:101E80008093FD041092FF0410922C0610922B06F2
:101E900010922E0610922D061092300610922F06E8
:101EA00061E070E080E090E00E944E11009791F0B8
:101EB00090932C0680932B0610922E0610922D06DE
:101EC00020912F0630913006232B09F05FC0FC01D2
:101ED00010825CC080912B0690912C06009711F027
:101EE0000E94B61010922C0610922B06109230060B
:101EF00010922F0610922E0610922D0610921C069C
:101F000010921B0610921E0610921D0610922006BB
:101F100010921F061092220610922106109224069B
:101F20001092230687E492E090931706809316069A
:101F300089E592E090931A068093190602E024E066
:101F400048E061E072E086E196E00E94270681E0C9
:101F500080930B0610920C0610920D0610920E063E
:101F600010920F0684E195E0A0E0B0E080931006A7
:101F700090931106A0931206B093130685ED95E099
:101F800090931506809314060F91089510923006D1
:101F900010922F0661E772E00E944512AFCFA1E2D6
:101FA0001A2EAA1BBB1BFD010DC0AA1FBB1FEE1FD3
:101FB000FF1FA217B307E407F50720F0A21BB30B1E
:101FC000E40BF50B661F771F881F991F1A9469F79A
:101FD00060957095809590959B01AC01BD01CF01F6
:101FE0000895AA1BBB1B51E107C0AA1FBB1FA61760
:101FF000B70710F0A61BB70B881F991F5A95A9F7B2
:1020000080959095BC01CD01089597FB072E16F49D
:10201000009407D077FD09D00E94F10F07FC05D08E
:102020003EF4909581959F4F0895709561957F4FEF
:102030000895EE0FFF1F881F8BBF0790F691E02DCC
:102040001994CF93DF938230910510F482E090E0F1
:10205000E0915507F091560720E030E0C0E0D0E075
:10206000309711F14081518148175907C0F0481746
:10207000590761F482819381209719F09B838A83A9
:102080002BC0909356078093550726C02115310524
:1020900019F04217530718F49A01BE01DF01EF014E
:1020A0000280F381E02DDCCF2115310509F1281BD9
:1020B000390B2430310590F412968D919C91139731
:1020C0006115710521F0FB019383828304C0909315
:1020D000560780935507FD01329644C0FD01E20F7B
:1020E000F31F81939193225031092D933C933AC071
:1020F0002091530730915407232B41F420910B0278
:1021000030910C0230935407209353072091090219
:1021100030910A022115310541F42DB73EB74091A7
:102120000D0250910E02241B350BE0915307F091E4
:102130005407E217F307A0F42E1B3F0B28173907AB
:1021400078F0AC014E5F5F4F2417350748F04E0F13
:102150005F1F50935407409353078193919302C09C
:10216000E0E0F0E0CF01DF91CF9108950F931F934E
:10217000CF93DF93009709F48CC0FC013297138250
:10218000128200915507109156070115110581F42F
:1021900020813181820F931F209153073091540782
:1021A0002817390779F5F0935407E093530771C066
:1021B000D80140E050E0AE17BF0750F412962D91C1
:1021C0003C911397AD012115310509F1D901F3CFE8
:1021D0009D01DA013383228360817181860F971F0D
:1021E0008217930769F4EC0128813981260F371F84
:1021F0002E5F3F4F318320838A819B81938382832B
:10220000452B29F4F0935607E093550742C01396E7
:10221000FC93EE931297ED01499159919E01240F81
:10222000351FE217F30771F480819181840F951FA8
:10223000029611969C938E938281938113969C9320
:102240008E931297E0E0F0E0D80112968D919C9168
:102250001397009719F0F8018C01F6CF8D919C919E
:1022600098012E5F3F4F820F931F209153073091AB
:1022700054072817390769F4309729F41092560744
:102280001092550702C013821282109354070093D4
:102290005307DF91CF911F910F9108956F927F9215
:1022A0008F929F92AF92BF92CF92DF92EF92FF9266
:1022B0000F931F93CF93DF93EC01009789F4CB0129
:1022C000DF91CF911F910F91FF90EF90DF90CF9012
:1022D000BF90AF909F908F907F906F900C94211043
:1022E000FC01E60FF71F9C0122503109E217F307AA
:1022F00008F4ACC0D9010D911C911197061717076E
:10230000B0F00530110508F49FC0C8010497861786
:10231000970708F499C002501109061B170B019387
:1023200011936D937C93CF010E94B6108DC05B0119
:10233000A01AB10A4C01800E911EA0915507B091D0
:10234000560740E050E0E12CF12C109709F44AC008
:10235000A815B905D1F56D907C901197630182E0C5
:10236000C80ED11CCA14DB0480F1A3014A195B0911
:102370006A0182E0C80ED11C1296BC901297139687
:10238000AC91B5E0CB16D10440F0B282A383518367
:102390004083D9016D937C930AC00E5F1F4FC30128
:1023A000800F911FF90191838083EB2DFA2FE114A7
:1023B000F10431F0D7011396FC93EE93129744C0C9
:1023C000F0935607E09355073FC08D919C9111976C
:1023D0004817590708F4AC017D0112960D90BC9185
:1023E000A02DB3CF8091530790915407881599057C
:1023F000E1F446175707C8F48091090290910A0248
:10240000009741F48DB79EB740910D0250910E0296
:10241000841B950BE817F907C8F4F0935407E09371
:102420005307F901718360830FC0CB010E94211013
:102430007C01009759F0A801BE010E943C12CE0118
:102440000E94B610C70104C0CE0102C080E090E037
:10245000DF91CF911F910F91FF90EF90DF90CF9080
:10246000BF90AF909F908F907F906F90089581E084
:1024700090E0F8940C944C12FB01DC0102C0019036
:102480000D9241505040D8F70895FB01DC010190B6
:102490000D920020E1F7089511E0CEE6D1E000E0D2
:1024A00006C0802FFE010E9419102196011DCF3613
:0C24B000D10780E00807A9F7F894FFCFDF
:1024BC00FF00010203040506070000570720000077
:1024CC000000000802D801D205CA01D101CE01CB0F
:1024DC000100000000C10301034503080476035406
:1024EC0003680300000000B20486045A04DA05D81D
:1024FC00050300000000002706960BFDFF000000FE
:10250C000000000000FDFF0000B20486045A04DA4B
:10251C0005240C00000000AC050103D205D1050D0B
:02252C000A00A3
:00000001FF
