:100000000C9497010C94C8010C94C8010C94C8017D
:100010000C94C8010C94C8010C94C8010C94C8013C
:100020000C94C8010C948D0B0C948D0B0C948D0BBF
:100030000C94C8010C94A1080C94C8010C94C8013C
:100040000C94C8010C9474040C94C8010C94C8015D
:100050000C94C8010C94C8010C94C8010C94570866
:100060000C94C8010C94100A0C94E6090C94C80175
:100070000C94C8010C94C8010C94C8010C94C801DC
:100080000C94C8010C94C8010C94C8010C94C801CC
:100090000C94C8010C94C8010C94C8010C94970BE3
:1000A0000C94C8010C94C8010C94C8010C94C801AC
:1000B0000C94C8010C94C8010C94C8010C94510212
:1000C0000C94C8010C94C8010C94C8010C94BC0990
:1000D0000C9492090C94C8010C9468090C943E0984
:1000E0000C94C801700375037A0384038E0307041C
:1000F0009803A003A803B203BC03C603D503DF0320
:100100000704E903F303FD03110B140B030B070BA7
:100110000D0B4B0B180B1C0B220B260B2A0B300B59
:10012000340B380B4B0B3E0B420B460B0C94A003CD
:100130000C942A100C94030B0C946F0A0C942A0B49
:100140000C94460B0C941C0B0C94420B0C940D0B52
:100150000C94CA010C94220B0C94380B0C944B0B8E
:100160000C946D0A0C948E030C940A020C940702F2
:100170000C94BC030C9406020C9410080C94070B0E
:100180000C9484030C94140B0C94260B0C94810790
:100190000C94FD030C9470030C949A0A0C94F303D2
:1001A0000C9407040C94DF030C94300B0C94340B68
:1001B0000C9498030C9472070C94B2030C9495075A
:1001C0000C94A8030C94C70A0C94110B0C94D5033F
:1001D0000C947A030C9429040C9448070C94EB12A9
:1001E0000C94180B0C946C0A0C943E0B0C94E903C1
:1001F0000C94920A0C947E0A0C94C6030C946E0A1A
:100200000C9475030C94C3070200002100240027FE
:10021000002A002D00300033000101000004010716
:10022000010A0100002200250028002B002E0031C9
:1002300000340002010000050108010B010000204C
:10024000002300260029002C002F003200000100AE
:100250000003010601090105050505070508080851
:1002600008020202020A0A08080404040401010147
:10027000010101010103030303030303030407074F
:10028000070C0C0C0C0C0C0C0C02020202060606ED
:1002900006060606060B0B0B0B0B0B0B0B010210D5
:1002A0002020080810204010204080020102010890
:1002B0000402010102040810204080804020100840
:1002C0000402018004020180402010080402010899
:1002D00004020101020408102040800102040810F9
:1002E00020408000000A0B02090C0D0E08070304D1
:1002F00001000000000000000000000000000000FD
:1003000000000000000000000000000000000012DB
:1003100011100000000000000000000000000000BC
:1003200000000000000000000000EB122A10112461
:100330001FBECFEFD1E2DEBFCDBF00E00CBF12E0A9
:10034000A0E0B2E0E4E2F3E300E00BBF02C00790FC
:100350000D92A437B107D9F727E0A4E7B2E001C0B6
:100360001D92A435B207E1F711E0C6E9D1E000E043
:1003700006C021970109802FFE010E944316C5394E
:10038000D10780E00807A9F70E9430100C9480196B
:100390000C940000FC01918D228D892F90E0805CEF
:1003A0009F4F821B91098F7399270895E0E0F0E039
:1003B000199480E090E0892B21F00E94B907811107
:1003C00019C080E090E0892B41F080E090E0892B1B
:1003D00021F00E940000811110C00E94AF0781111E
:1003E0000FC080E090E0892B81F00E94A507811169
:1003F0000AC008950E940000E4CF0E940000EDCFE3
:100400000E94D601EECF0C9400000895089580E07C
:1004100090E008950F931F93CF93DF938C01C62F25
:10042000D62FD07FD1606D2F0E944C0B6D2FC8014D
:100430000E945F0B80E1C89FB0011124C62FC160EC
:100440006C2FC8010E944C0B6C2FC8010E945F0BDF
:1004500081E090E0DF91CF911F910F910895FC0111
:10046000848DDF01A80FB11DA35ABF4F2C91848D3D
:1004700090E001968F739927848FA689B7892C9372
:10048000A089B1898C91837080648C93938D848DC5
:10049000981306C00288F389E02D80818F7D8083C8
:1004A00008951F920F920FB60F9211240BB60F9260
:1004B0002F933F934F935F936F937F938F939F936C
:1004C000AF93BF93EF93FF93809137050E94C90CC0
:1004D00020913B0530913C052F5F3F4F30933C0509
:1004E00020933B0590913A05953618F096E090934D
:1004F0003605909136059430C9F128F4923069F0B0
:100500009330D1F05EC0953009F451C0963009F0B7
:1005100058C091E09093070651C0811152C02091BC
:100520003B0530913C052436310508F442C0109259
:10053000070610923A051CC0813009F042C0E091D4
:100540003A0591E09E0F90933A05F0E020913B052B
:1005500030913C05EE0FFF1FEA5CFA4F308727838E
:1005600010923C0510923B0594E029C0811117C000
:10057000E0913A0591E09E0F90933A05F0E02091CA
:100580003B0530913C05EE0FFF1FEA5CFA4F3087C8
:10059000278310923C0510923B0593E010C02091F8
:1005A0003B0530913C052536310558F007C08111D7
:1005B00008C010923C0510923B0503C095E0909353
:1005C0003605909139059923B9F081110AC08091BF
:1005D0003805882321F08091380561E009C02F9A01
:1005E0000BC080913805882331F08091380560E098
:1005F0000E94F20C01C02F98FF91EF91BF91AF9133
:100600009F918F917F916F915F914F913F912F912A
:100610000F900BBE0F900FBE0F901F9018958F92EA
:100620009F92AF92BF92CF92DF92EF92FF920F9381
:100630001F93CF93DF938C016A017B0120E030E0B0
:100640004FE753E4C701B6010E9457154B015C0107
:1006500020E030E0A9010E94601718161CF4C501C3
:10066000B40103C0C501B40190580E942A17EB01E0
:1006700020E030E0A901C701B6010E9460171816FA
:1006800014F460E001C061E0F80181810E94F20C85
:10069000CF3FD10509F014F4DD2702C0CFEFD0E041
:1006A000F801108161E0812F0E94210D209709F44B
:1006B000B1C0CF3FD10509F4AFC0E12FF0E0ED515B
:1006C000FD4FE4918E2F90E0FC013197E231F1056E
:1006D00008F09DC08827EE58FF4F8F4F0C944316AB
:1006E00084B5806884BDC7BDA7C084B5806284BD61
:1006F000C8BDA2C080918000806880938000D093A4
:100700008900C093880098C08091800080628093A7
:100710008000D0938B00C0938A008EC080918000AF
:10072000886080938000D0938D00C0938C0084C03B
:100730008091B00080688093B000C093B3007CC00B
:100740008091B00080628093B000C093B40074C008
:1007500080919000806880939000D0939900C0931E
:1007600098006AC080919000806280939000D0933E
:100770009B00C0939A0060C0809190008860809335
:100780009000D0939D00C0939C0056C08091A00023
:1007900080688093A0008091A0008F7B8093A00050
:1007A000D093A900C093A80047C08091A0008062A8
:1007B0008093A000D093AB00C093AA003DC080916D
:1007C000A00088608093A000D093AD00C093AC00DF
:1007D00033C080912001806880932001D09329014B
:1007E000C093280129C0809120018062809320015C
:1007F000D0932B01C0932A011FC0809120018860F3
:1008000080932001D0932D01C0932C0115C0C038D6
:10081000D10514F460E001C061E0812FDF91CF9138
:100820001F910F91FF90EF90DF90CF90BF90AF900E
:100830009F908F900C94F20CDF91CF911F910F91AC
:10084000FF90EF90DF90CF90BF90AF909F908F90F0
:100850000895CF93DF9380917B00877F80937B0007
:1008600081E480937C0080917A00806480937A0098
:1008700080917A0086FDFCCFC0917800809179004C
:10088000D0E0D82BBE010D2E000C880B990BD7FFA2
:1008900003C00E94350F03C04AE00E94F40E8FE3AC
:1008A00092E00E94D40EC738D140DCF040E050E026
:1008B000BA0180E796E00E940F0340E050E060E05C
:1008C00070E882E796E00E940F0382E492E00E94C3
:1008D000E60E60E177E280E090E0DF91CF910C944A
:1008E0005D0DDF91CF9108951F920F920FB60F9279
:1008F00011240BB60F922F933F934F935F936F93F7
:100900007F938F939F93AF93BF93EF93FF938091C8
:100910008D0287FF05C0109285001092840016C0DA
:1009200020918D02022E000C330B8091440690E042
:10093000281739075CF430918D0225E03203F0016D
:100940001124E85FF94F808186FD15C080918D02EA
:100950008F5F80938D0220918D02022E000C330B4D
:100960008091440690E02817390794F480918D0215
:100970008C302CF10DC030918D023203F001112426
:10098000E85FF94F808160E08F730E94F20CDECF48
:10099000809184009091850084349C4918F480E40F
:1009A0009CE905C080918400909185000496909305
:1009B0008900809388008FEF80938D022AC0409138
:1009C00084005091850030918D0225E03203F001C2
:1009D0001124E85FF94F81819281840F951F9093D4
:1009E00089008093880030918D023203F001112438
:1009F000E85FF94F808186FF0CC030918D02320391
:100A0000F0011124E85FF94F808161E08F730E944B
:100A1000F20CFF91EF91BF91AF919F918F917F91D8
:100A20006F915F914F913F912F910F900BBE0F905F
:100A30000FBE0F901F9018958EBD00000DB407FEDD
:100A4000FDCF8EB50895CF93DF93EC0160E08881F0
:100A50000E94F20C88E90E941C0580E00E941C059F
:100A600080E00E941C0580E00E941C0580E00E943E
:100A70001C0561E088810E94F20C8BE891E00197EF
:100A8000F1F760E088810E94F20C80EE0E941C0564
:100A900061E08881DF91CF910C94F20CAF92BF920C
:100AA000CF92DF92EF92FF920F931F93CF93DF933A
:100AB000CDB7DEB760970FB6F894DEBF0FBECDBFDF
:100AC0005C0160E0FC0180810E94F20C80E60E94E3
:100AD0001C058E010F5F1F4F7E01F1E1EF0EF11C2F
:100AE000680180E00E941C0590E0A0E0B0E0F60103
:100AF00081939193A193B1936F01EE15FF0589F74F
:100B000061E0F50180810E94F20C80E090E0DC0160
:100B1000F80141915191619171918F01BA2FA92FE3
:100B2000982F8827840F951FA61FB71FEE15FF0566
:100B300079F79C01AD0166277727CB01621B730B08
:100B4000840B950B60960FB6F894DEBF0FBECDBF39
:100B5000DF91CF911F910F91FF90EF90DF90CF9099
:100B6000BF90AF900895823020F087E492E00C941B
:100B7000E60E813009F4705890E0880F991F805973
:100B8000994F0C940F03823040F089E592E00E9467
:100B9000E60E60E070E0CB01089581110CC084E79F
:100BA00096E00E944E0590958095709561957F4FD7
:100BB0008F4F9F4F089586E796E00C944E054F9215
:100BC0005F926F927F928F929F92AF92BF92CF92DD
:100BD000DF92EF92FF920F931F93CF93DF93CDB7E6
:100BE000DEB72A970FB6F894DEBF0FBECDBF162F23
:100BF0007A878987092F29013A0180E00E94C3057D
:100C00000E94E90F84E796E00E94230586E796E0BC
:100C10000E942305E12CF12C0E94E90FB7010F2C53
:100C2000000C880B990B0E94F814212F3A854985F6
:100C3000502F0E94571520E030E040E251E40E941E
:100C4000B8164B015C01AB01BC0180E796E00E9445
:100C50000F03B501A40181E00E94B3056AE070E0D2
:100C600080E090E00E945D0D8FEFE81AF80A8BE0BB
:100C7000E816F10489F620E030E0A901612F7A85B9
:100C80008985902F0E94F11487FD08C0C12EDA8457
:100C9000E984F02E812C912C54012EC060E070E08C
:100CA000CB01A30192010E94601787FF04C08AE074
:100CB000E82EF12C9CC060E570E080E090E00E949E
:100CC0005D0D0E94E90F80E00E94C3056B017C016D
:100CD00081E00E94C305C701B6010E94F81426EC0A
:100CE0003DE744E75EE30E94571520E030E048E42A
:100CF00055E40E94B816D5CFA3019201C501B401F5
:100D00000E94F11418169CF20E94E90F412F5A8597
:100D10006985702F80E796E00E940F03A601B70156
:100D200081E00E94B30560E570E080E090E00E9401
:100D30005D0D80E00E94C3050E94F8146B017C01E8
:100D400086E796E00E944E050E94F81469837A8334
:100D50008B839C8326EC3DE744E75EE3C701B60145
:100D60000E94571520E030E048E455E40E94B81690
:100D70004B015C012DEC3CEC4CE45FE369817A8132
:100D80008B819C810E945715A70196010E944B16EA
:100D90002CEA35EC47E257E30E9457156D837E83BA
:100DA0008F83988729813A814B815C81C701B60185
:100DB0000E944B162AE037ED43EA5DE30E94B81625
:100DC00027E137EB41E559E30E9457159B01AC0140
:100DD0006D817E818F8198850E944C16212F3A85E6
:100DE0004985502F0E944C166B017C0185CFB701BD
:100DF0000F2C000C880B990B0E94F814212F3A85B8
:100E00004985502F0E94571520E030E040E251E420
:100E10000E94B8164B015C010E94E90FB501A401C4
:100E200080E796E00E940F03B501A40181E00E94D3
:100E3000B3056AE070E080E090E00E945D0D81E023
:100E4000E81AF108A0F640E050E0BA0180E796E029
:100E50000E940F0340E050E060E070E882E796E017
:100E60002A960FB6F894DEBF0FBECDBFDF91CF91AB
:100E70001F910F91FF90EF90DF90CF90BF90AF90B8
:100E80009F908F907F906F905F904F900C940F0386
:100E9000CF92DF92EF92FF920F931F93CF93DF9346
:100EA0006C017A018B01C0E0D0E0CE15DF0581F046
:100EB000D8016D918D01D601ED91FC910190F081E9
:100EC000E02DC6011995892B11F02196EECF7E01F8
:100ED000C701DF91CF911F910F91FF90EF90DF90AD
:100EE000CF900895FC01538D448D252F30E0842F41
:100EF00090E0821B930B541710F0CF960895019742
:100F00000895FC01918D828D981761F0828DDF012B
:100F1000A80FB11D5D968C91928D9F5F9F73928FEC
:100F200090E008958FEF9FEF0895FC01918D828DE1
:100F3000981731F0828DE80FF11D858D90E00895AE
:100F40008FEF9FEF08950E946B198FE593E00E9449
:100F5000CA0121E0892B09F420E0822F08958CEF4B
:100F600093E00E94CA0121E0892B09F420E0822F3E
:100F7000089589E994E00E94CA0121E0892B09F4CF
:100F800020E0822F0895EF92FF920F931F93CF934B
:100F9000DF93EC0181E0888F9B8D8C8D981305C0C9
:100FA000E889F989808185FD26C0F62E0B8D10E039
:100FB0000F5F1F4F0F731127E02E8C8DE8120CC0AE
:100FC0000FB607FCFACFE889F989808185FFF5CF54
:100FD000CE010E942F02F1CF8B8DFE01E80FF11D93
:100FE000E35AFF4FF0829FB7F8940B8FEA89FB8991
:100FF000808180620AC09FB7F894EE89FF89608380
:10100000E889F98980818370806480839FBF81E053
:1010100090E0DF91CF911F910F91FF90EF90089595
:10102000CF93DF93EC01888D8823C9F0EA89FB898F
:10103000808185FD05C0A889B9898C9186FD0FC086
:101040000FB607FCF5CF808185FFF2CFA889B9895B
:101050008C9185FFEDCFCE010E942F02E7CFDF916B
:10106000CF9108953FB7F8948091950290919602A0
:10107000A0919702B091980226B5A89B05C02F3F7A
:1010800019F00196A11DB11D3FBFBA2FA92F982FAE
:101090008827820F911DA11DB11DBC01CD0142E029
:1010A000660F771F881F991F4A95D1F708951F92E1
:1010B0000F920FB60F9211242F933F938F939F930C
:1010C000AF93BF938091040390910503A091060311
:1010D000B09107033091940223E0230F2D3720F4C1
:1010E0000196A11DB11D05C026E8230F0296A11D82
:1010F000B11D209394028093040390930503A09361
:101100000603B09307038091950290919602A091F7
:101110009702B09198020196A11DB11D809395028E
:1011200090939602A0939702B0939802BF91AF91CB
:101130009F918F913F912F910F900FBE0F901F9015
:1011400018951F920F920FB60F9211240BB60F92A3
:101150002F933F934F935F936F937F938F939F93BF
:10116000AF93BF93EF93FF9380918F029091900282
:10117000A0919102B0919202892B8A2B8B2B49F17D
:1011800090918E02809100008927809300008091C9
:101190008F0290919002A0919102B0919202181644
:1011A00019061A061B060CF056C080918F0290910A
:1011B0009002A0919102B09192020197A109B10908
:1011C00080938F0290939002A0939102B093920229
:1011D00042C080910002E8E0F2E0E4919FEF90933A
:1011E0000002E230C9F050F4EE2399F0E13081F5CD
:1011F00090916F009D7F90936F002AC0E43019F1A9
:10120000E0F0E53029F5909173009D7F9093730095
:101210001FC010926E001CC0909170009D7F909333
:10122000700091E09093B0009091B100987F94602D
:101230009093B1001092B3000BC0909171009D7F0C
:101240009093710005C0909172009D7F9093720001
:1012500060E00E94F20CFF91EF91BF91AF919F91DE
:101260008F917F916F915F914F913F912F910F904F
:101270000BBE0F900FBE0F901F9018951F920F92EC
:101280000FB60F9211240BB60F922F933F934F93EB
:101290005F936F937F938F939F93AF93BF93EF93DE
:1012A000FF938FE593E00E942F02FF91EF91BF9192
:1012B000AF919F918F917F916F915F914F913F91EE
:1012C0002F910F900BBE0F900FBE0F901F9018958F
:1012D0001F920F920FB60F9211240BB60F922F93FD
:1012E0003F934F935F936F937F938F939F93AF93AE
:1012F000BF93EF93FF938FE593E00E94740BFF91F0
:10130000EF91BF91AF919F918F917F916F915F917D
:101310004F913F912F910F900BBE0F900FBE0F90EA
:101320001F9018951F920F920FB60F9211240BB6B3
:101330000F922F933F934F935F936F937F938F936E
:101340009F93AF93BF93EF93FF938CEF93E00E9433
:101350002F02FF91EF91BF91AF919F918F917F915C
:101360006F915F914F913F912F910F900BBE0F9016
:101370000FBE0F901F9018951F920F920FB60F92ED
:1013800011240BB60F922F933F934F935F936F935C
:101390007F938F939F93AF93BF93EF93FF938CEFC4
:1013A00093E00E94740BFF91EF91BF91AF919F91D9
:1013B0008F917F916F915F914F913F912F910F90FE
:1013C0000BBE0F900FBE0F901F9018951F920F929B
:1013D0000FB60F9211240BB60F922F933F934F939A
:1013E0005F936F937F938F939F93AF93BF93EF938D
:1013F000FF9389E994E00E942F02FF91EF91BF9142
:10140000AF919F918F917F916F915F914F913F919C
:101410002F910F900BBE0F900FBE0F901F9018953D
:101420001F920F920FB60F9211240BB60F922F93AB
:101430003F934F935F936F937F938F939F93AF935C
:10144000BF93EF93FF9389E994E00E94740BFF919F
:10145000EF91BF91AF919F918F917F916F915F912C
:101460004F913F912F910F900BBE0F900FBE0F9099
:101470001F90189585ED8093BC008091BC0084FD81
:10148000FCCF10922E0308954091DF02262F30E00A
:10149000240F311D21323105DCF420912E0324303C
:1014A000C9F4FC0180E090E0861758F43091DF0227
:1014B0002191DC01A154BD4FA30FB11D2C930196C6
:1014C000F3CF8091DF02680F6093DF0280E0089520
:1014D00081E0089582E00895089508950895E091C7
:1014E0009A0280919902E81730F4F0E0E156FD4F3E
:1014F000808190E008958FEF9FEF089590919A0278
:1015000080919902981750F4E92FF0E0E156FD4FD1
:10151000208130E09F5F90939A0202C02FEF3FEF4F
:10152000C90108958091990290E020919A02821B4E
:1015300091090895CF92DF92EF92FF920F931F933C
:10154000CF93DF937C01CB018A0120912F032223CB
:1015500089F0EB016B01C40ED51ECC15DD0569F0D9
:101560006991D701ED91FC910190F081E02DC701C7
:101570001995F3CF642F0E94440AC801DF91CF91DF
:101580001F910F91FF90EF90DF90CF900895CF9330
:10159000DF931F92CDB7DEB7698320912F032223FB
:1015A000D1F020915203203240F021E030E0FC01E4
:1015B0003383228380E090E015C080913003E82FD0
:1015C000F0E0EF5CFC4F998190838F5F8093300354
:1015D0008093520305C061E0CE0101960E94440A47
:1015E00081E090E00F90DF91CF91089590E0FC01B1
:1015F0003197E231F10508F04EC08827EC57FF4FD4
:101600008F4F0C944316809180008F7703C0809198
:1016100080008F7D80938000089580918000877F77
:10162000F9CF84B58F7702C084B58F7D84BD0895CE
:101630008091B0008F7703C08091B0008F7D809340
:10164000B0000895809190008F7707C0809190003E
:101650008F7D03C080919000877F809390000895D4
:101660008091A0008F7707C08091A0008F7D03C07C
:101670008091A000877F8093A00008958091200131
:101680008F7707C0809120018F7D03C0809120015A
:10169000877F809320010895FC01248131E03093FD
:1016A0002F0320935103109230031092520384852C
:1016B000682B83E593E00E94C70A0C94560F0F93A2
:1016C0001F93CF938C01C62F64600E944C0B6C2F2C
:1016D0006B7FC8010E944C0B83EC90E00197F1F7FF
:1016E000CF911F910F910895FC01A089B1898C9130
:1016F000A689B78982FD0FC09C91818D8F5F8F7302
:10170000228D821749F0218DDF01A20FB11D5D9658
:101710009C93818F08958C9108951F920F920FB61C
:101720000F9211240F900FBE0F901F9018951F92CB
:101730000F920FB60F9211240BB60F922F933F9377
:101740004F935F936F937F938F939F93AF93BF93C9
:10175000EF93FF938091B900887F803609F49CC095
:1017600068F5883209F45BC090F4803109F454C004
:1017700038F4882309F4F6C0883009F44DC0F6C067
:10178000883109F44CC0803209F45DC0EFC0803468
:1017900009F468C048F4803309F455C0883309F06F
:1017A000E5C080932C03D8C0803509F44FC088353C
:1017B00009F45DC0883409F0D9C0D6C0883909F46D
:1017C000C7C0A8F4883709F467C038F4883609F42C
:1017D00063C0803709F460C0C9C0883809F4B8C054
:1017E000803909F45FC0803809F0C0C05BC0803B1D
:1017F00009F486C038F4803A09F466C0883A09F4DE
:101800007FC0B4C0803C09F4A7C0883C09F4A4C0E0
:10181000883B09F48AC0AAC08091090310C0909146
:101820002B0380912A03981770F5E0912B0381E038
:101830008E0F80932B03F0E0E65FFC4F8081809356
:10184000BB0085EC86C080932C038EC0E0912B03F7
:1018500081E08E0F80932B038091BB00F0E0E65F68
:10186000FC4F808390912B0380912A036EC0E091FE
:101870002B0381E08E0F80932B038091BB00F0E05F
:10188000E65FFC4F808380912D0381116DC081E064
:101890008093080384EA61C083E080932E03109252
:1018A0000103CFCF80910103803208F051C0E09155
:1018B000010381E08E0F809301038091BB00F0E073
:1018C000EF51FD4F8083BDCF85EC8093BC0010921B
:1018D0002E0380910103803230F4E0910103F0E0A7
:1018E000EF51FD4F10826091010370E0E0919D0285
:1018F000F0919E0281EE92E019951092010336C09C
:1019000084E080932E031092E0021092DF02E091B7
:101910009B02F0919C0219958091DF02811105C014
:1019200081E08093DF021092BF02E091E00281E04B
:101930008E0F8093E002F0E0E154FD4F80818093B0
:10194000BB009091E0028091DF02981708F479CFF4
:1019500085E88093BC000AC085EC8093BC0010929F
:101960002E0304C010922C030E943A0AFF91EF91BB
:10197000BF91AF919F918F917F916F915F914F91A7
:101980003F912F910F900BBE0F900FBE0F901F90A5
:101990001895CF93DF93282F30E0F901ED51FD4FDB
:1019A0008491F901E356FD4FD491F901E95AFD4FB5
:1019B000C491CC2391F081110E94F60AEC2FF0E043
:1019C000EE0FFF1FE35CFD4FA591B491EC91ED2369
:1019D00081E090E021F480E002C080E090E0DF91BF
:1019E000CF9108951F93CF93DF93282F30E0F90113
:1019F000ED51FD4F8491F901E356FD4FD491F9016A
:101A0000E95AFD4FC491CC23C1F0162F81110E94D9
:101A1000F60AEC2FF0E0EE0FFF1FED5DFD4FA591F4
:101A2000B4919FB7F894111104C08C91D095D8232C
:101A300002C0EC91DE2BDC939FBFDF91CF911F9111
:101A40000895CF93DF9390E0FC01E356FD4F24917E
:101A5000FC01E95AFD4F8491882361F190E0880FE1
:101A6000991FFC01E75FFD4FC591D491FC01ED5D2D
:101A7000FD4FA591B491611109C09FB7F894888179
:101A8000209582238883EC912E230BC0623061F471
:101A90009FB7F8948881322F309583238883EC9107
:101AA0002E2B2C939FBF06C08FB7F894E8812E2B66
:101AB00028838FBFDF91CF9108958F929F92AF922D
:101AC000BF92CF92DF92EF92FF926B017C010E9456
:101AD00032084B015C01C114D104E104F104F1F0BE
:101AE0000E943208DC01CB0188199909AA09BB09B7
:101AF000883E9340A105B10570F321E0C21AD108D8
:101B0000E108F10888EE880E83E0981EA11CB11C44
:101B1000C114D104E104F10419F7DDCFFF90EF9077
:101B2000DF90CF90BF90AF909F908F9008954F928D
:101B30005F926F927F928F929F92AF92BF92CF925D
:101B4000DF92EF92FF92CF93DF93CDB7DEB72A9764
:101B50000FB6F894DEBF0FBECDBF6B017C0149010B
:101B60005A0184E796E00E94230586E796E00E94EA
:101B700023052BED3FE049E450E4C501B4010E9488
:101B8000571520E030E044E353E40E94B816A70163
:101B900096010E9457152B013C0126EA3BE944E4DB
:101BA0005EE3C501B4010E944C162BED3FE049E411
:101BB00050E40E94571520E030E044E353E40E94D3
:101BC000B816A70196010E9457154B015C012DEC38
:101BD0003CEC4CEC5EE3C301B2010E945715A50139
:101BE00094010E94B8166D837E838F83988720E0CE
:101BF00030E0A901C701B6010E94F11487FF04C0BB
:101C000081E089871A8603C0198681E08A874DECB6
:101C10005CEC6CEC7EE389850E94B3054D815E81AE
:101C20006F8178858A850E94B30520E030E048E422
:101C300055E4C301B2010E94571520E030E040E8AE
:101C400050E40E9457150E942A179B0177FF04C099
:101C500022273327261B370BB901330F880B990B2B
:101C60000E94F8146B017C0120E030E048E455E468
:101C7000C501B4010E94571520E030E040E850E46F
:101C80000E9457150E942A179B0177FF04C0222744
:101C90003327261B370BB901330F880B990B0E9492
:101CA000F8144B015C0129813A814B815C81C501AB
:101CB000B4010E946017181664F56AE070E080E0D5
:101CC00090E00E945D0D0E94E90F89850E94C30586
:101CD0002B013C018A850E94C3050E94F8149B01D8
:101CE000AC01C701B6010E94F11418164CF4C301EF
:101CF000B2010E94F81469837A838B839C83D3CFCB
:101D000020E030E040E85FE3C501B4010E944C16DA
:101D1000F2CF40E050E0BA0180E796E00E940F0366
:101D200040E050E060E070E882E796E02A960FB667
:101D3000F894DEBF0FBECDBFDF91CF91FF90EF9043
:101D4000DF90CF90BF90AF909F908F907F906F90DB
:101D50005F904F900C940F03E9E9F4E0A089B189FA
:101D600082E08C93A485B5851C92A685B7858FECFF
:101D70008C93108EA489B58986E08C93A289B3894F
:101D80008C9180618C93A289B3898C9188608C93AB
:101D9000A289B3898C9180688C930288F389E02DA5
:101DA00080818F7D80830895009769F0FC01019008
:101DB0000020E9F73197AF01481B590BBC0189E9B5
:101DC00094E00C94480780E090E00895CF93DF936F
:101DD0000E94D40EEC018FE392E00E94D40E8C0F8F
:101DE0009D1FDF91CF9108958F929F92AF92BF92E6
:101DF0000F931F93CF93DF93CDB7DEB7A1970FB6A5
:101E0000F894DEBF0FBECDBF19A2423008F44AE0FD
:101E10008E010F5D1F4F842E912CA12CB12CA5019A
:101E200094010E941516E62FB901CA01015011094B
:101E3000EA3014F4E05D01C0E95CD801EC93232B97
:101E4000242B252B61F7C8010E94D40EA1960FB652
:101E5000F894DEBF0FBECDBFDF91CF911F910F91E0
:101E6000BF90AF909F908F900895CF92DF92EF92A6
:101E7000FF92CF93DF936B017C016DE289E994E0DF
:101E80000E94C307EC0166277727CB016C197D09F7
:101E90008E099F094AE00E94F40E8C0F9D1FDF916E
:101EA000CF91FF90EF90DF90CF9008953091520343
:101EB000313208F04BC080912E038111FCCF9091FC
:101EC000510322E020932E0321E020932D032FEFD6
:101ED00020932C0310922B0330932A03E1E3F3E0C9
:101EE000AAE0B3E020E0321721F041914D932F5F3B
:101EF000FACF1092090320910903990F922B909326
:101F0000090390910803913061F4109208039091B5
:101F100009039093BB009091BC0093FDF8CF95EC22
:101F200001C095EE9093BC0090912E039230E1F3A6
:101F300090912C039F3F79F080912C03803241F0E7
:101F400080912C03803331F084E005C081E003C030
:101F500082E001C083E0109230031092520310928D
:101F60002F0308950F931F93CF93DF93162F072FFF
:101F7000C7E5D6E09C8521E020932F039093510381
:101F80001092300310925203AA85BB85ED91FC910B
:101F900011970190F081E02D682FCD0119958A8568
:101FA0009B85DC01ED91FC910190F081E02D602F8B
:101FB00019958A859B85DC01ED91FC910190F0815A
:101FC000E02D612F1995DF91CF911F910F910C9406
:101FD000560F809145068823E1F12FB7F894809140
:101FE000040390910503A0910603B09107032FBF4E
:101FF0004091460650914706609148067091490607
:10200000841B950BA60BB70B40914A0650914B06CB
:1020100060914C0670914D0684179507A607B70787
:10202000C0F02FB7F8948091040390910503A0911C
:102030000603B09107032FBF80934606909347068F
:10204000A0934806B0934906E0914E06F0914F06E2
:102050001994089580915006909151060C94FD17A3
:10206000789484B5826084BD84B5816084BD85B573
:10207000826085BD85B5816085BD80916E0081607F
:1020800080936E0010928100809181008260809325
:102090008100809181008160809381008091800027
:1020A0008160809380008091B10084608093B10052
:1020B0008091B00081608093B00080919100826037
:1020C0008093910080919100816080939100809134
:1020D00090008160809390008091A1008260809345
:1020E000A1008091A10081608093A1008091A00057
:1020F00081608093A0008091210182608093210102
:102100008091210181608093210180912001816073
:102110008093200180917A00846080937A0080917E
:102120007A00826080937A0080917A008160809347
:102130007A0080917A00806880937A001092C100C2
:102140000E94AC0E61E0809158060E94210D60E073
:10215000809158060E94F20C60E0809157060E9420
:10216000210D83E593E090936206809361061092BF
:102170009A02109299021092300310925203109218
:102180002E0381E080932D031092080361E084E127
:102190000E94F20C61E085E10E94F20C8091B9008E
:1021A0008E7F8093B9008091B9008D7F8093B900B4
:1021B00088E48093B80085E48093BC008CE69AE0C4
:1021C00090939C0280939B028DE69AE090939E02EE
:1021D00080939D0280E090E1A0E0B0E080936406EF
:1021E00090936506A0936606B09367068AE090E038
:1021F000A0E0B0E08093680690936906A0936A0619
:10220000B0936B0680E090E0A0E0B0E480936C06B1
:1022100090936D06A0936E06B0936F0660E070E138
:1022200085E00E94B20F6FE979E380E00E94B20F6F
:10223000C7E5D6E08E0142E0742E5CE8A52E52E0A0
:10224000B52E62ED862E62E0962E7BECE72E77E0CF
:10225000F72EF80194818281898F9A8F61E00E9424
:10226000210D61E08A8D0E94210DF8019085868103
:102270006E01FDE1CF0ED11C8D8F9E8F61E00E941B
:10228000210D60E08E8D0E94210D61E08D8D0E94F8
:10229000F20C6FB6F89480919302811126C0F5017B
:1022A0008491F4012491E82FF0E0EE0FFF1FE75F27
:1022B000FD4FA591B4919C91822F892321F461E077
:1022C00085E30E94F20C61E085E30E94210D8CB54C
:1022D00080618CBD8CB580648CBD61E084E30E941C
:1022E000210D61E083E30E94210D809193028F5FB5
:1022F000809393026FBEC7010197F1F760E08D8D67
:102300000E94F20C88E80E941C0583E00E941C05D4
:1023100061E08D8D0E94F20CC7010197F1F7C601B3
:102320000E9423057A940F5F1F4F2296711091CF60
:102330000CE716E0C0E8D6E060E0F80181918F017B
:102340000E94210DC017D107B9F708E716E085E014
:10235000E82E9CE0C92E22E0D22EF9908F818C309D
:1023600008F044C061E08F2D0E94210D8F81E89E0E
:10237000F0011124E85FF94F9F2D9F732081207C8D
:10238000F22EF92AF082138214826C2D0E943716E5
:10239000FCE08F9FA001112420E030E0BA01620F21
:1023A000731FE69EF001E79EF00D1124E85FF94FE0
:1023B000908196FD12C02F5F3F4F2C30310571F791
:1023C00081110BC010928000D09281001092850084
:1023D00010928400D6BAD0926F00EF81EE9EF00189
:1023E0001124E85FF94F8081806480839D818B8117
:1023F000F801828B938B60E00E94210D61E0F8016F
:1024000083890E94210D60E0F80183890E94F20C0B
:102410000E5F1F4FF6E0C238DF0709F09ECFF89439
:102420001092200189E08093210180E293E0909353
:10243000290180932801109225011092240182E045
:102440008093730078948093360510923A058091BA
:10245000370560E00E94210D8DE692E00E94E60EB5
:1024600085E20E94C90C892BE1F46AE070E080E00B
:1024700090E00E945D0D0E94E90F85E20E94C90C68
:10248000BC01990F880B990B97FF03C00E94350F71
:1024900003C04AE00E94F40E8FE392E00E94D40E43
:1024A000DFCF68E57BE180E090E00E945D0D0E9457
:1024B000AC0E8FB7F8948090040390900503A09021
:1024C0000603B09007038FBF2AE939E949E95EEBBB
:1024D000CA01B9010E94DF058FB7F894C0900403C8
:1024E000D0900503E0900603F09007038FBFC81853
:1024F000D908EA08FB082DEC3CEC4CE45DE36AE902
:1025000079E989E99EE30E94DF0568EE73E080E0E7
:1025100090E00E945D0D0E94E90F2DEC3CEC4CE434
:102520005DEB6AE979E989E99EEB0E94DF0568EED7
:1025300073E080E090E00E945D0D21EEC2162EE275
:10254000D206E104F10440F22DEC3CEC4CEC5DE3EE
:102550006AE979E989E99EE30E94DF052DEC3CEC0C
:102560004CEC5DE360E070E080EA92EC0E94970D35
:1025700026EF38E24CE55FE360E070E084EB92E444
:102580000E94970D26EF38E24CE55FE360E070E0D3
:1025900084EB92E40E94970D26EF38E24CE55FE36E
:1025A00060E070E084EB92E40E94970D26EF38E241
:1025B0004CE55FE360E070E08AEA92E40E94970DE8
:1025C0000E94E90F62E370E080E090E00E945D0D00
:1025D0000E94D9016ECF109256031092550388EED7
:1025E00093E0A0E0B0E08093570390935803A0934A
:1025F0005903B0935A0323E132E0309354032093FC
:1026000053031092620310926103809363039093CB
:102610006403A0936503B093660325E232E0309330
:10262000600320935F0345E351E050936C034093B4
:102630006B0344E351E050936E0340936D0340E31A
:1026400051E05093700340936F0341E351E0509386
:1026500072034093710342E351E05093740340933B
:10266000730346E351E05093760340937503109251
:1026700078031092790310927A0310927B031092E0
:10268000FF031092FE038093000490930104A09333
:102690000204B09303043093FD032093FC0345ED43
:1026A00050E0509309044093080444ED50E05093E7
:1026B0000B0440930A0440ED50E050930D04409306
:1026C0000C0441ED50E050930F0440930E0442ED92
:1026D00050E0509311044093100446ED50E05093A5
:1026E00013044093120410921504109216041092D1
:1026F00017041092180410929C0410929B0480936B
:102700009D0490939E04A0939F04B093A0043093E3
:102710009A042093990485EC90E09093A60480930A
:10272000A50484EC90E09093A8048093A70480EC27
:1027300090E09093AA048093A90481EC90E0909398
:10274000AC048093AB0482EC90E09093AE04809351
:10275000AD0486EC90E09093B0048093AF041092A7
:10276000B2041092B3041092B4041092B504809194
:10277000070290910802A0910902B0910A02809389
:10278000780690937906A0937A06B0937B068091A1
:102790000B0290910C02A0910D02B0910E02809359
:1027A0007C0690937D06A0937E06B0937F0684E01E
:1027B0008093800687E0809381061092820684EBE6
:1027C0008093830686E18093840688E18093850662
:1027D00087E18093860689E180938706E09144062D
:1027E000EC3020F08FEF8093880610C081E08E0FD0
:1027F00080934406E093880685E0E89FF001112469
:10280000E85FF94F88EB9BE092838183E091440677
:10281000EC3020F08FEF8093890610C081E08E0F9E
:1028200080934406E093890685E0E89FF001112437
:10283000E85FF94F88EB9BE0928381838CE0809383
:10284000570684E28093580686E08093590685E017
:1028500080935A068FE180935B068EE180935C063D
:1028600083E280935D0682E280935E0685E4809336
:102870005F0684E48093600680E480936306109290
:1028800068061092690610926A0610926B06109202
:102890006C0610926D0610926E0610926F06E2E9B9
:1028A000F6E020E537E08FEF9FEFDC011282138224
:1028B0001482158216821782108611868387948768
:1028C000A587B6878787908BA18BB28B12861182E2
:1028D000108273962E173F0749F78DE090E00E9413
:1028E0006517FC011382128287E392E09183808353
:1028F000118687E2848384E1828784E0838714865B
:10290000F0938F06E0938E06109290061092910637
:1029100085E2809337051092390510925106109286
:1029200050061092530610925206109255061092BD
:10293000540661E070E080E090E00E948618009705
:1029400089F090935106809350061092530610928E
:1029500052062091540630915506232BA9F5FC010F
:10296000108232C08091500690915106009711F06C
:102970000E94FD17109251061092500610925506B3
:1029800010925406109253061092520681E08093E2
:10299000450610924606109247061092480610927D
:1029A000490688EE93E0A0E0B0E080934A06909359
:1029B0004B06A0934C06B0934D0689E294E09093A9
:1029C0004F0680934E0608951092550610925406B5
:1029D00061E472E080915006909151060E9479194D
:1029E000D5CF0E94331508F481E00895E89409C01A
:1029F00097FB3EF490958095709561957F4F8F4F32
:102A00009F4F9923A9F0F92F96E9BB279395F69547
:102A1000879577956795B795F111F8CFFAF4BB0FC5
:102A200011F460FF1BC06F5F7F4F8F4F9F4F16C029
:102A3000882311F096E911C0772321F09EE8872FB3
:102A4000762F05C0662371F096E8862F70E060E06F
:102A50002AF09A95660F771F881FDAF7880F9695E8
:102A6000879597F90895990F0008550FAA0BE0E88C
:102A7000FEEF16161706E807F907C0F01216130640
:102A8000E407F50798F0621B730B840B950B39F480
:102A90000A2661F0232B242B252B21F408950A26E6
:102AA00009F4A140A6958FEF811D811D08950E9414
:102AB0006A150C94DB150E94CD1538F00E94D415D0
:102AC00020F0952311F00C94C4150C94CA15112410
:102AD0000C940F160E94EC1570F3959FC1F3950F9F
:102AE00050E0551F629FF001729FBB27F00DB11D92
:102AF000639FAA27F00DB11DAA1F649F6627B00D22
:102B0000A11D661F829F2227B00DA11D621F739F0A
:102B1000B00DA11D621F839FA00D611D221F749F18
:102B20003327A00D611D231F849F600D211D822F5F
:102B3000762F6A2F11249F5750409AF0F1F0882386
:102B40004AF0EE0FFF1FBB1F661F771F881F9150B3
:102B50005040A9F79E3F510580F00C94C4150C9489
:102B60000F165F3FE4F3983ED4F38695779567950B
:102B7000B795F795E7959F5FC1F7FE2B880F911DDD
:102B80009695879597F9089597F99F6780E870E083
:102B900060E008959FEF80EC089500240A941616D3
:102BA000170618060906089500240A94121613063B
:102BB000140605060895092E0394000C11F48823C9
:102BC00052F0BB0F40F4BF2B11F460FF04C06F5FE5
:102BD0007F4F8F4F9F4F089557FD9058440F551FBB
:102BE00059F05F3F71F04795880F97FB991F61F08F
:102BF0009F3F79F087950895121613061406551F06
:102C0000F2CF4695F1DF08C0161617061806991F71
:102C1000F1CF86957105610508940895E894BB2766
:102C200066277727CB0197F90895A1E21A2EAA1BF0
:102C3000BB1BFD010DC0AA1FBB1FEE1FFF1FA2176C
:102C4000B307E407F50720F0A21BB30BE40BF50B69
:102C5000661F771F881F991F1A9469F760957095F2
:102C6000809590959B01AC01BD01CF010895991B02
:102C700079E004C0991F961708F0961B881F7A9573
:102C8000C9F780950895EE0FFF1F881F8BBF07902F
:102C9000F691E02D19945058BB27AA270E9463167D
:102CA0000C94DB150E94CD1538F00E94D41520F04D
:102CB00039F49F3F19F426F40C94CA150EF4E095EC
:102CC000E7FB0C94C415E92F0E94EC1558F3BA17D2
:102CD000620773078407950720F079F4A6F50C9432
:102CE0000E160EF4E0950B2EBA2FA02D0B01B90194
:102CF00090010C01CA01A0011124FF27591B99F072
:102D0000593F50F4503E68F11A16F040A22F232F7D
:102D1000342F4427585FF3CF469537952795A795CD
:102D2000F0405395C9F77EF41F16BA0B620B730B74
:102D3000840BBAF09150A1F0FF0FBB1F661F771FE5
:102D4000881FC2F70EC0BA0F621F731F841F48F49A
:102D5000879577956795B795F7959E3F08F0B0CF23
:102D60009395880F08F09927EE0F9795879508950A
:102D70000E94CC160C94DB150E94D41558F00E94CA
:102D8000CD1540F029F45F3F29F00C94C415511182
:102D90000C940F160C94CA150E94EC1568F3992335
:102DA000B1F3552391F3951B550BBB27AA27621747
:102DB0007307840738F09F5F5F4F220F331F441F54
:102DC000AA1FA9F335D00E2E3AF0E0E832D0915088
:102DD0005040E695001CCAF72BD0FE2F29D0660F75
:102DE000771F881FBB1F261737074807AB07B0E8B8
:102DF00009F0BB0B802DBF01FF2793585F4F3AF0BE
:102E00009E3F510578F00C94C4150C940F165F3F4B
:102E1000E4F3983ED4F3869577956795B795F79543
:102E20009F5FC9F7880F911D9695879597F908952B
:102E3000E1E0660F771F881FBB1F621773078407C7
:102E4000BA0720F0621B730B840BBA0BEE1F88F7D6
:102E5000E09508950E9431176894B1110C940F16F3
:102E600008950E94F41588F09F5798F0B92F99277C
:102E7000B751B0F0E1F0660F771F881F991F1AF065
:102E8000BA95C9F714C0B13091F00E940E16B1E0A6
:102E900008950C940E16672F782F8827B85F39F0A5
:102EA000B93FCCF3869577956795B395D9F73EF4FE
:102EB00090958095709561957F4F8F4F9F4F0895A6
:102EC0000E94331508F48FEF08950F931F93CF934B
:102ED000DF938230910510F482E090E0E091520798
:102EE000F091530720E030E0A0E0B0E0309719F116
:102EF000408151810281138148175907C8F0841716
:102F0000950769F4109731F012960C931297139667
:102F10001C9327C0009352071093530722C021151A
:102F2000310519F04217530718F49A01BD01EF015A
:102F3000DF01F801DBCF21153105F9F0281B390B32
:102F40002430310580F48A819B816115710521F05F
:102F5000FB019383828304C09093530780935207AD
:102F6000FE01329644C0FE01E20FF31F819391935C
:102F700022503109398328833AC02091500730917B
:102F80005107232B41F42091030230910402309326
:102F90005107209350072091010230910202211520
:102FA000310541F42DB73EB740910502509106021C
:102FB000241B350BE0915007F0915107E217F307FE
:102FC000A0F42E1B3F0B2817390778F0AC014E5F99
:102FD0005F4F2417350748F04E0F5F1F509351077E
:102FE000409350078193919302C0E0E0F0E0CF015D
:102FF000DF91CF911F910F910895CF93DF930097A9
:1030000009F481C0FC01329713821282A091520709
:10301000B0915307109781F420813181820F931F63
:1030200020915007309151072817390751F5F09337
:103030005107E093500767C0ED0120E030E0CE1764
:10304000DF0740F44A815B819E0141155105F1F093
:10305000EA01F5CFD383C28340815181840F951F4C
:10306000C817D90759F488819981840F951F029652
:10307000918380838A819B8193838283211531058B
:1030800029F4F0935307E09352073DC0E901FB8315
:10309000EA8349915991C40FD51FEC17FD0761F4DC
:1030A00080819181840F951F0296E901998388831D
:1030B000828193819B838A83E0E0F0E012968D9178
:1030C0009C911397009719F0FD01DC01F7CF8D91CA
:1030D0009C9111979D012E5F3F4F820F931F20916E
:1030E0005007309151072817390769F4309729F4B0
:1030F000109253071092520702C013821282B093AB
:103100005107A0935007DF91CF9108956F927F925E
:103110008F929F92AF92BF92CF92DF92EF92FF92E7
:103120000F931F93CF93DF93009789F4CB01DF9127
:10313000CF911F910F91FF90EF90DF90CF90BF90B4
:10314000AF909F908F907F906F900C946517FC01CB
:10315000E60FF71F9C0122503109E217F30708F42C
:10316000A9C0EC01D9010D911C9111970617170701
:10317000B0F00530110508F49BC0C801049786170C
:10318000970708F495C002501109061B170B01930D
:1031900011936D937C93CF010E94FD1789C05B0151
:1031A000A01AB10A4C01800E911EA0915207B09155
:1031B0005307612C712CE12CF12C109709F446C0B7
:1031C0008D919C911197A815B905B1F56C0142E05C
:1031D000C40ED11CCA14DB0478F14C018A189B0878
:1031E000640142E0C40ED11C1296BC901297139653
:1031F000AC91B5E0CB16D10440F0B282A3839182AA
:103200008082D9016D937C9309C00E5F1F4F800FA0
:10321000911FF90191838083EB2DFA2FE114F104C2
:1032200031F0D7011396FC93EE93129741C0F093BF
:103230005307E09352073CC06816790608F43C0136
:103240007D0112960D90BC91A02DB7CF80915007B3
:103250009091510788169906E1F466167706C8F42E
:103260008091010290910202009741F48DB79EB7C0
:103270004091050250910602841B950BE817F9074F
:10328000C8F4F0935107E0935007F901718360830C
:103290000FC0CB010E9465177C01009759F0A8016F
:1032A000BE010E947019CE010E94FD17C70104C023
:1032B000CE0102C080E090E0DF91CF911F910F918D
:1032C000FF90EF90DF90CF90BF90AF909F908F9046
:1032D0007F906F90089581E090E0F8940C948019AD
:1032E000FB01DC0102C001900D9241505040D8F723
:1032F0000895FB01DC0101900D920020E1F7089593
:1033000011E0C6E9D1E000E006C0802FFE010E9476
:1033100043162196011DC739D10780E00807A9F798
:04332000F894FFCF4F
:10332400FF000054078000363738391B1D1A1C0073
:10333400000000C70A9A0A07026E0A920A7E0A6F00
:103344000A00000000C307480772071008CA018179
:10335400079507000000000A024807070206020D4D
:103364000A0053544F5000496E76616C6964206DB5
:103374006F746F722069642100496E76616C6964B0
:1033840020656E636F646572206964210053746103
:04339400727400004F
:00000001FF
