:100000000C94A3010C94D4010C94D4010C94D4014D
:100010000C94D4010C94D4010C94D4010C94D4010C
:100020000C94D4010C94070C0C94070C0C94070C42
:100030000C94D4010C94CB080C94D4010C94D401EE
:100040000C94D4010C944D0B0C94D4010C94D40159
:100050000C94D4010C94D4010C94D4010C94810818
:100060000C94D4010C943C0A0C94120A0C94D40104
:100070000C94D4010C94D4010C94D4010C94D401AC
:100080000C94D4010C94D4010C94D4010C94D4019C
:100090000C94D4010C94D4010C94D4010C94110C44
:1000A0000C94D4010C94D4010C94D4010C94D4017C
:1000B0000C94D4010C94D4010C94D4010C94660AD1
:1000C0000C94D4010C94D4010C94D4010C94E80940
:1000D0000C94BE090C94D4010C9494090C946A09F4
:1000E0000C94D4018602890278027C028202C0024A
:1000F0008D02910297029B029F02A502A902AD0206
:10010000C002B302B702BB020E061306180622068F
:100110002C06A50636063E06460650065A06640616
:1001200073067D06A506870691069B060C949B0226
:100130000C94A5020C9420040C940E060C94040557
:100140000C9405020C9450060C9418060C94820230
:100150000C9446060C94CB0E0C9441070C94670744
:100160000C94AB030C94B7020C946B040C94DA0758
:100170000C947D060C943C020C94BB020C94A902D6
:100180000C948D020C9487060C94FE010C940202D0
:100190000C9486020C94B2040C9413060C943E0644
:1001A0000C945A060C94FE030C9422060C947C02C8
:1001B0000C942C060C946C070C9436060C94D10D00
:1001C0000C9473060C9466070C9491060C949B0691
:1001D0000C94050F0C9412040C94B3020C94970227
:1001E0000C94C0020C940C020C94FF010C9491022C
:1001F0000C94430D0C94B9070C9489020C9464067A
:100200000C9478020C949F020C94AD020C946A0733
:100210000C9419050C94EF030C942E050C94A50670
:10022000000020002300260029002C002F003200AF
:100230000001000003010601090102000021002461
:100240000027002A002D00300033000101000004C7
:100250000107010A0100002200250028002B002EC2
:10026000003100340002010000050108010B010506
:10027000050505070508080808020202020A0A081F
:100280000804040404010101010101010103030345
:100290000303030303040707070C0C0C0C0C0C0CE2
:1002A0000C0202020206060606060606060B0B0BE9
:1002B0000B0B0B0B0B010210202008081020401024
:1002C000204080020102010804020101020408101A
:1002D0002040808040201008040201800402018038
:1002E0004020100804020108040201010204081061
:1002F000204080010204081020408000000A0B0208
:10030000090C0D0E080703040100000000000000A6
:1003100000000000000000000000000000000000DD
:10032000000000000000001211100000000000009A
:1003300000000000000000000000000000000000BD
:100340000000050FCB0E11241FBECFEFD1E2DEBFA0
:10035000CDBF00E00CBF12E0A0E0B2E0E4E8F9E2BB
:1003600000E00BBF02C007900D92A837B107D9F784
:1003700027E0A8E7B2E001C01D92AD34B207E1F773
:1003800011E0C2EAD1E000E006C021970109802F08
:10039000FE010E944212C13AD10780E00807A9F786
:1003A0000E94DC0D0C94B0140C9400004091E70204
:1003B000262F30E0240F311D21323105DCF420914D
:1003C000E9022430C9F4FC0180E090E0861758F47B
:1003D0003091E7022191DC01A953BD4FA30FB11D5C
:1003E0002C930196F3CF8091E702680F6093E702A8
:1003F00080E0089581E0089582E0089508958FEFE8
:100400009FEF08958FEF9FEF08958091C60290E0CF
:100410009195819591090895CF92DF92EF92FF9285
:100420000F931F93CF93DF937C01262F972F8A0181
:100430008091C502882391F0C62FD72F6E01C40E7C
:10044000D51ECC15DD0571F06991D701ED91FC91B8
:100450000190F081E02DC7011995F3CF642F822F11
:100460000E94D601C801DF91CF911F910F91FF909B
:10047000EF90DF90CF900895CF93DF931F92CDB789
:10048000DEB769832091C5022223D1F02091C402F6
:10049000203240F021E030E0FC013383228380E011
:1004A00090E015C08091C302E82FF0E0ED55FD4FBC
:1004B000998190838F5F8093C3028093C40205C0AB
:1004C00061E0CE0101960E94D60181E090E00F909C
:1004D000DF91CF91089590E0FC013197E231F10571
:1004E00008F04EC08827EE58FF4F8F4F0C944212F1
:1004F000809180008F7703C0809180008F7D8093F2
:100500008000089580918000877FF9CF84B58F7730
:1005100002C084B58F7D84BD08958091B0008F772F
:1005200003C08091B0008F7D8093B00008958091CA
:1005300090008F7707C0809190008F7D03C08091DD
:100540009000877F8093900008958091A0008F771E
:1005500007C08091A0008F7D03C08091A000877F9D
:100560008093A0000895809120018F7707C080912B
:1005700020018F7D03C080912001877F809320011F
:1005800008951F93CF93DF93282F30E0F901E550B2
:10059000FD4F8491F901EB54FD4FD491F901E159DC
:1005A000FD4FC491CC23C9F0162F81110E946B021C
:1005B000EC2FF0E0EE0FFF1FEB5AFD4FA591B49129
:1005C0008FB7F894111105C09C91ED2FE095E923A8
:1005D00002C0EC91ED2BEC938FBFDF91CF911F9177
:1005E0000895CF93DF9390E0FC01EB54FD4F2491ED
:1005F000FC01E159FD4F8491882361F190E0880F5F
:10060000991FFC01E55CFD4FC591D491FC01EB5AAB
:10061000FD4FA591B491611109C09FB7F8948881ED
:10062000209582238883EC912E230BC0623061F4E5
:100630009FB7F8943881822F809583238883EC912B
:100640002E2B2C939FBF06C08FB7F894E8812E2BDA
:1006500028838FBFDF91CF910895863308F08653AA
:1006600090917B00282F2870977F922B90937B008E
:100670008770806480937C0080917A00806480938E
:100680007A0080917A0086FDFCCF809178002091DD
:10069000790090E0922B08953FB7F89480919F02E3
:1006A0009091A002A091A102B091A20226B5A89BB0
:1006B00005C02F3F19F00196A11DB11D3FBFBA2FF4
:1006C000A92F982F8827820F911DA11DB11DBC0154
:1006D000CD0142E0660F771F881F991F4A95D1F719
:1006E00008958F929F92AF92BF92CF92DF92EF9236
:1006F000FF926B017C010E944C034B015C01C11411
:10070000D104E104F104F1F00E944C03DC01CB01BF
:1007100088199909AA09BB09883E9340A105B1052A
:1007200070F321E0C21AD108E108F10888EE880EC2
:1007300083E0981EA11CB11CC114D104E104F10492
:1007400019F7DDCFFF90EF90DF90CF90BF90AF9083
:100750009F908F900895CF92DF92EF92FF920F9328
:100760001F93CF93DF936C017A018B01C0E0D0E03F
:10077000CE15DF0589F0D8016D918D01D601ED917F
:10078000FC910190F081E02DC6011995892B11F49F
:100790007E0102C02196ECCFC701DF91CF911F915E
:1007A0000F91FF90EF90DF90CF900895FC01A0890A
:1007B000B1898C91A689B78982FD0FC09C91818DEA
:1007C0008F5F8F73228D821749F0218DDF01A20F79
:1007D000B11D5D969C93818F08958C910895FC01C5
:1007E000538D448D252F30E0842F90E0821B930B96
:1007F000541710F0CF96089501970895FC01918D3C
:10080000828D981761F0828DDF01A80FB11D5D9672
:100810008C91928D9F5F9F73928F90E008958FEFE0
:100820009FEF0895FC01918D828D981731F0828D94
:10083000E80FF11D858D90E008958FEF9FEF0895EB
:10084000FC01918D228D892F90E0805C9F4F821B4F
:1008500091098F73992708958BE193E00E942004FA
:1008600021E0892B09F420E0822F089588EB93E0A2
:100870000E94200421E0892B09F420E0822F0895B2
:1008800085E594E00E94200421E0892B09F420E012
:10089000822F0895FC01848DDF01A80FB11DA35A9A
:1008A000BF4F2C91848D90E001968F739927848F90
:1008B000A689B7892C93A089B1898C9180648C9387
:1008C000938D848D981306C00288F389E02D808172
:1008D0008F7D80830895EF92FF920F931F93CF93A4
:1008E000DF93EC0181E0888F9B8D8C8D981305C080
:1008F000E889F989808185FD24C0F62E0B8D10E0F2
:100900000F5F1F4F0F731127E02E8C8DE8120CC064
:100910000FB607FCFACFE889F989808185FFF5CF0A
:10092000CE010E944A04F1CF8B8DFE01E80FF11D2C
:10093000E35AFF4FF0820B8FEA89FB898081806246
:1009400007C0EE89FF896083E889F9898081806426
:10095000808381E090E0DF91CF911F910F91FF9014
:10096000EF900895CF93DF93EC01888D8823C9F031
:10097000EA89FB89808185FD05C0A889B9898C91A8
:1009800086FD0FC00FB607FCF5CF808185FFF2CF43
:10099000A889B9898C9185FFEDCFCE010E944A04C8
:1009A000E7CFDF91CF910895E0E0F0E0199480E087
:1009B00090E0892B21F00E944004811119C080E051
:1009C00090E0892B41F080E090E0892B21F00E949B
:1009D0000000811110C00E94360481110FC080E018
:1009E00090E0892B81F00E942C0481110AC00895A7
:1009F0000E940000E4CF0E940000EDCF0E94D404CA
:100A0000EECF0C9400000895CF93DF93FC01858511
:100A10008F3F61F0EF0161E00E94F10261E08D859E
:100A20000E94C1028BE193E00197F1F7DF91CF9132
:100A30000895CF93DF93FC0185858F3F61F0EF012F
:100A400061E00E94F10260E08D850E94C1028BE1AD
:100A500093E00197F1F7DF91CF910895DF92EF9244
:100A6000FF920F931F93CF93DF93CDB7DEB7EE972F
:100A70000FB6F894DEBF0FBECDBF8C017B01D42E24
:100A80008FEF840FD801ED91FC91823020F4048027
:100A9000F581E02D05C0411105C00280F381E02DF4
:100AA000C8011995D801ED91FC910084F185E02DE4
:100AB00020E041E0B701C8011995B5E0DB1609F463
:100AC0003FC0D801ED91FC910280F381E02DC80177
:100AD0001995B2E0DB1234C0D801ED91FC9100848D
:100AE000F185E02D20E041E0BE016F5F7F4FC8013E
:100AF000199540E0D8011C968C91481708F5842F71
:100B000090E0880F991FF701E80FF91F21E030E00E
:100B10002C0F3D1F820F931FD8011E962D913C91E3
:100B20001F97DC018D919C91B901681B790BCB015A
:100B300020813181820F931F918380834F5FDACFB1
:100B4000EE960FB6F894DEBF0FBECDBFDF91CF910A
:100B50001F910F91FF90EF90DF9008958F929F92D9
:100B6000AF92BF92CF92DF92EF92FF920F931F93BB
:100B7000CF93DF93EC016A017B0120E030E04FE787
:100B800053E4C701B6010E944E114B015C0120E005
:100B900030E0A9010E94801218161CF4C501B401AE
:100BA00003C0C501B40190580E944A128B0120E095
:100BB00030E0A901C701B6010E948012181614F492
:100BC00060E001C061E089810E94C1020F3F110510
:100BD00009F014F4112702C00FEF10E0C88161E0A2
:100BE0008C2F0E94F1020115110509F4B1C00F3FCD
:100BF000110509F4AFC0EC2FF0E0E550FD4FE49192
:100C00004E2F50E0FA013197E231F10508F09DC016
:100C10008827EC57FF4F8F4F0C94421284B58068A1
:100C200084BD07BDA7C084B5806284BD08BDA2C0D5
:100C300080918000806880938000109389000093E9
:100C4000880098C08091800080628093800010931B
:100C50008B0000938A008EC0809180008860809312
:100C6000800010938D0000938C0084C08091B000B0
:100C700080688093B0000093B3007CC08091B00086
:100C800080628093B0000093B40074C080919000A3
:100C900080688093900010939900009398006AC038
:100CA0008091900080628093900010939B0000934D
:100CB0009A0060C0809190008860809390001093AB
:100CC0009D0000939C0056C08091A0008068809396
:100CD000A0008091A0008F7B8093A0001093A900BA
:100CE0000093A80047C08091A00080628093A0007C
:100CF0001093AB000093AA003DC08091A0008860D3
:100D00008093A0001093AD000093AC0033C080919D
:100D1000200180688093200110932901009328010D
:100D200029C08091200180628093200110932B01C3
:100D300000932A011FC080912001886080932001C8
:100D400010932D0100932C0115C00038110514F4E7
:100D500060E001C061E08C2FDF91CF911F910F9176
:100D6000FF90EF90DF90CF90BF90AF909F908F90CB
:100D70000C94C102DF91CF911F910F91FF90EF90E2
:100D8000DF90CF90BF90AF909F908F900895CF93BA
:100D9000FC01C48121E02093C502C093910210920E
:100DA000C3021092C4028485682B8FE093E00E94F6
:100DB0003C028091C402813208F046C09091E90261
:100DC0009111FCCF92E09093E90291E09093EB02B5
:100DD0009FEF9093E80210920D0380930C03A3EA17
:100DE000B2E02CEE32E0F9019E2F921B981718F416
:100DF0009D919193F9CF10920E0380910E03CC0F29
:100E0000C82BC0930E038091EA02813061F41092E6
:100E1000EA0280910E038093BB008091BC0083FDA9
:100E2000F8CF85EC01C085EE8093BC008091E9028B
:100E30008230E1F38091E8028F3F31F08091E80247
:100E4000803211F08091E8021092C3021092C40225
:100E50001092C502CF9108950F931F93CF938C01E9
:100E6000C62F64600E94C7066C2F6B7FC8010E946A
:100E7000C70683EC90E00197F1F7CF911F910F9196
:100E800008950F931F93CF93DF938C01C62FD62F16
:100E9000D07FD1606D2F0E94C7066D2FC8010E94C0
:100EA0002C0780E1C89FB0011124C62FC1606C2FB0
:100EB000C8010E94C7066C2FC8010E942C0781E060
:100EC00090E0DF91CF911F910F910895089580E0F8
:100ED00090E008950E949B14EF92FF920F931F934E
:100EE000CF93DF931F92CDB7DEB77C018B01FC015E
:100EF000138212821582148217821682118610863E
:100F0000118A108A403218F08FE1848702C0FC01F8
:100F10004487F70182859385892B11F080E00DC00D
:100F2000F701848590E029830E948512F701938759
:100F300082872981892B91F714C0F701948589173D
:100F400078F4482F50E0F801E40FF51F9081F70185
:100F500062857385FB01E40FF51F90838F5FEDCFF2
:100F600025870F90DF91CF911F910F91FF90EF9008
:100F700008950F931F93CF93DF93EC01122F202F2F
:100F8000E881F9813697808191818C0F9D1F0E94A5
:100F90006C071A83E881F981369780819181C80FA7
:100FA000D91F8FEF93E09F878E87DF91CF911F919D
:100FB0000F9108958F929F92AF92BF92CF92DF923E
:100FC000EF92FF920F931F93CF93DF93CDB7DEB7CE
:100FD000A1970FB6F894DEBF0FBECDBF86E30E9487
:100FE0002D038C016C01990FEE08FF08F7FE2BC052
:100FF000E0915504F09156040190F081E02D6DE2EE
:1010000085E594E0199522273327A9012C193D097C
:101010004E095F0919A2CE0181967C019AE0892EC2
:10102000912CA12CB12CCA01B901A50194010E94F7
:101030000C12605DF70162937F01211531054105B6
:10104000510589F71AC0A701960119A2CE01819610
:101050007C018AE0882E912CA12CB12CCA01B90107
:10106000A50194010E940C12605DF70162937F015B
:10107000211531054105510589F7C7010E94F50B7E
:101080008FE692E00E94F50B01391140ECF040E050
:1010900050E0BA0183E097E00E94AE0540E050E0E6
:1010A00060E070E885E097E00E94AE0582E792E09C
:1010B0000E94F50B8FE692E00E94F50B60E177E26B
:1010C00080E090E00E947103A1960FB6F894DEBF15
:1010D0000FBECDBFDF91CF911F910F91FF90EF9089
:1010E000DF90CF90BF90AF909F908F90089585ED47
:1010F0008093BC008091BC0084FDFCCF1092E9027B
:1011000008951F920F920FB60F9211242F933F93C1
:101110008F939F93AF93BF9380919B0290919C027A
:10112000A0919D02B0919E0230919A0223E0230F7C
:101130002D3720F40196A11DB11D05C026E8230F0F
:101140000296A11DB11D20939A0280939B02909359
:101150009C02A0939D02B0939E0280919F02909169
:10116000A002A091A102B091A2020196A11DB11D01
:1011700080939F029093A002A093A102B093A20239
:10118000BF91AF919F918F913F912F910F900FBE83
:101190000F901F9018951F920F920FB60F92112467
:1011A0000BB60F922F933F934F935F936F937F9361
:1011B0008F939F93AF93BF93EF93FF93809196028A
:1011C00090919702A0919802B0919902892B8A2B55
:1011D0008B2B59F180919502E0919302F09194024A
:1011E0009081892780838091960290919702A091A7
:1011F0009802B0919902181619061A061B060CF0EF
:1012000056C08091960290919702A0919802B09159
:1012100099020197A109B1098093960290939702D0
:10122000A0939802B093990242C080910002EAE331
:10123000F2E0E4919FEF90930002E230C9F050F4A5
:10124000EE2399F0E13081F590916F009D7F9093AE
:101250006F002AC0E43019F1E0F0E53029F59091F3
:1012600073009D7F909373001FC010926E001CC08E
:10127000909170009D7F9093700091E09093B000EA
:101280009091B100987F94609093B1001092B30058
:101290000BC0909171009D7F9093710005C090915B
:1012A00072009D7F9093720060E00E94C102FF91E6
:1012B000EF91BF91AF919F918F917F916F915F91CE
:1012C0004F913F912F910F900BBE0F900FBE0F903B
:1012D0001F9018951F920F920FB60F9211240BB604
:1012E0000F922F933F934F935F936F937F938F93BF
:1012F0009F93AF93BF93EF93FF938BE193E00E9493
:101300004A04FF91EF91BF91AF919F918F917F918F
:101310006F915F914F913F912F910F900BBE0F9066
:101320000FBE0F901F9018951F920F920FB60F923D
:1013300011240BB60F922F933F934F935F936F93AC
:101340007F938F939F93AF93BF93EF93FF938BE123
:1013500093E00E94D603FF91EF91BF91AF919F91CF
:101360008F917F916F915F914F913F912F910F904E
:101370000BBE0F900FBE0F901F9018951F920F92EB
:101380000FB60F9211240BB60F922F933F934F93EA
:101390005F936F937F938F939F93AF93BF93EF93DD
:1013A000FF9388EB93E00E944A04FF91EF91BF9175
:1013B000AF919F918F917F916F915F914F913F91ED
:1013C0002F910F900BBE0F900FBE0F901F9018958E
:1013D0001F920F920FB60F9211240BB60F922F93FC
:1013E0003F934F935F936F937F938F939F93AF93AD
:1013F000BF93EF93FF9388EB93E00E94D603FF9196
:10140000EF91BF91AF919F918F917F916F915F917C
:101410004F913F912F910F900BBE0F900FBE0F90E9
:101420001F9018951F920F920FB60F9211240BB6B2
:101430000F922F933F934F935F936F937F938F936D
:101440009F93AF93BF93EF93FF9385E594E00E9442
:101450004A04FF91EF91BF91AF919F918F917F913E
:101460006F915F914F913F912F910F900BBE0F9015
:101470000FBE0F901F9018951F920F920FB60F92EC
:1014800011240BB60F922F933F934F935F936F935B
:101490007F938F939F93AF93BF93EF93FF9385E5D4
:1014A00094E00E94D603FF91EF91BF91AF919F917D
:1014B0008F917F916F915F914F913F912F910F90FD
:1014C0000BBE0F900FBE0F901F9018951F920F929A
:1014D0000FB60F9211240BB60F922F933F934F9399
:1014E0005F936F937F938F939F93AF93BF93CF93AC
:1014F000DF93EF93FF932091F30430E0F901E5507F
:10150000FD4F8491F901EB54FD4FD491F901E1595C
:10151000FD4FC491CC23A1F081110E946B02EC2FEE
:10152000F0E0EE0FFF1FE05EFD4FA591B491EC914E
:10153000ED2331E020E009F430E0832F922F02C048
:1015400080E090E02091F7043091F8042F5F3F4F46
:101550003093F8042093F7042091F604253618F010
:1015600026E02093F2042091F2042430D9F128F4EB
:10157000223069F02330D9F060C0253009F453C01F
:10158000263009F05AC021E02093C30553C00097CC
:1015900009F053C02091F7043091F8042436310546
:1015A00008F443C01092C3051092F6041DC08130A8
:1015B000910509F042C0E091F60421E02E0F20933E
:1015C000F604F0E02091F7043091F804EE0FFF1FCD
:1015D000EE50FB4F308727831092F8041092F704E7
:1015E00024E029C00097B9F4E091F60421E02E0F21
:1015F0002093F604F0E02091F7043091F804EE0F08
:10160000FF1FEE50FB4F308727831092F804109293
:10161000F70423E010C02091F7043091F804253638
:10162000310558F007C0009741F41092F804109269
:10163000F70403C025E02093F2042091F50422234F
:10164000B9F0892B51F48091F404882321F0809122
:10165000F40461E009C02F9A0BC08091F404882340
:1016600031F08091F40460E00E94C10201C02F9823
:10167000FF91EF91DF91CF91BF91AF919F918F91AA
:101680007F916F915F914F913F912F910F900BBE82
:101690000F900FBE0F901F9018951F920F920FB6CC
:1016A0000F9211240BB60F922F933F934F935F939A
:1016B0006F937F938F939F93AF93BF93EF93FF931A
:1016C0008091920287FF05C01092850010928400DD
:1016D00016C020919202022E000C330B809100065E
:1016E00090E0281739075CF43091920225E032032C
:1016F000F0011124EC53FA4F808186FD15C08091D2
:1017000092028F5F8093920220919202022E000C2F
:10171000330B8091000690E02817390794F48091EC
:1017200092028C302CF10DC0309192023203F00104
:101730001124EC53FA4F808160E08F730E94C10244
:10174000DECF809184009091850084349C4918F408
:1017500080E49CE905C08091840090918500049606
:1017600090938900809388008FEF809392022AC023
:1017700040918400509185003091920225E032031F
:10178000F0011124EC53FA4F81819281840F951F4F
:101790009093890080938800309192023203F00187
:1017A0001124EC53FA4F808186FF0CC030919202D5
:1017B0003203F0011124EC53FA4F808161E08F7302
:1017C0000E94C102FF91EF91BF91AF919F918F91C4
:1017D0007F916F915F914F913F912F910F900BBE31
:1017E0000F900FBE0F901F901895009769F0FC01A5
:1017F00001900020E9F73197AF01481B590BBC015C
:1018000085E594E00C94AB0380E090E008951F928E
:101810000F920FB60F9211240F900FBE0F901F90D2
:1018200018951F920F920FB60F9211240BB60F92BC
:101830002F933F934F935F936F937F938F939F93D8
:10184000AF93BF93EF93FF938091B900887F803669
:1018500009F49CC068F5883209F45BC090F48031CB
:1018600009F454C038F4882309F4F6C0883009F428
:101870004DC0F6C0883109F44CC0803209F45DC017
:10188000EFC0803409F468C048F4803309F455C0CF
:10189000883309F0E5C08093E802D8C0803509F4A8
:1018A0004FC0883509F45DC0883409F0D9C0D6C06E
:1018B000883909F4C7C0A8F4883709F467C038F438
:1018C000883609F463C0803709F460C0C9C088381D
:1018D00009F4B8C0803909F45FC0803809F0C0C08D
:1018E0005BC0803B09F486C038F4803A09F466C0D6
:1018F000883A09F47FC0B4C0803C09F4A7C0883C92
:1019000009F4A4C0883B09F48AC0AAC080910E03E0
:1019100010C090910D0380910C03981770F5E09121
:101920000D0381E08E0F80930D03F0E0E451FD4F35
:1019300080818093BB0085EC86C08093E8028EC0D6
:10194000E0910D0381E08E0F80930D038091BB0029
:10195000F0E0E451FD4F808390910D0380910C03E2
:101960006EC0E0910D0381E08E0F80930D03809196
:10197000BB00F0E0E451FD4F80838091EB028111C8
:101980006DC081E08093EA0284EA61C083E08093C5
:10199000E90210924607CFCF80914607803208F0C7
:1019A00051C0E091460781E08E0F809346078091F9
:1019B000BB00F0E0EA5DF84F8083BDCF85EC8093FB
:1019C000BC001092E90280914607803230F4E09129
:1019D0004607F0E0EA5DF84F10826091460770E03C
:1019E000E0912407F091250786E297E0199510927F
:1019F000460736C084E08093E902109223071092D4
:101A0000E702E0912107F091220719958091E70202
:101A1000811105C081E08093E7021092C702E09136
:101A2000230781E08E0F80932307F0E0E953FD4FF9
:101A300080818093BB00909123078091E7029817E3
:101A400008F479CF85E88093BC000AC085EC8093C8
:101A5000BC001092E90204C01092E8020E947708CC
:101A6000FF91EF91BF91AF919F918F917F916F9176
:101A70005F914F913F912F910F900BBE0F900FBE32
:101A80000F901F901895AF92BF92CF92DF92EF9276
:101A9000FF920F931F93CF93DF931F921F92CDB7A7
:101AA000DEB75C017B01FC01A081B1811697ED914D
:101AB000FC911197E80FF91F82859385892B09F412
:101AC00063C0822FED91FC911197EA0DFB1D948567
:101AD000891748F4F701E80FF11DE80FF11D118295
:101AE0001082840FEFCFC12CF5018281C81650F50A
:101AF000D22ED501ED91FC9136970190F081E02D29
:101B0000EA0DFB1D8485D816D8F40D2D10E0028453
:101B1000F385E02DE00FF11F80812A8349830E9425
:101B20002D03000F111FF701E00FF11F608171817C
:101B3000860F971F918380834981D40E2A81D9CF44
:101B4000C394D2CF0081118106501109D801ED91C3
:101B5000FC91EA0DFB1D84852817B0F4F701E20F14
:101B6000F11DE20FF11DD50112966C9170E0DB01C1
:101B7000B595A795808191818A0F9B1F0E942E1297
:101B800071836083240FE2CF0F900F90DF91CF918C
:101B90001F910F91FF90EF90DF90CF90BF90AF908B
:101BA0000895DC01ED91FC913E970190F081E02DCC
:101BB0008E0F9F1F0C94430D789484B5826084BD72
:101BC00084B5816084BD85B5826085BD85B5816041
:101BD00085BD80916E00816080936E0010928100BF
:101BE000809181008260809381008091810081607A
:101BF000809381008091800081608093800080913B
:101C0000B10084608093B1008091B00081608093C6
:101C1000B00080919100826080939100809191004A
:101C2000816080939100809190008160809390000A
:101C30008091A10082608093A1008091A1008160C9
:101C40008093A1008091A00081608093A00080918A
:101C50002101826080932101809121018160809324
:101C600021018091200181608093200180917A0080
:101C7000846080937A0080917A00826080937A00F9
:101C800080917A00816080937A0080917A008068E8
:101C900080937A001092C100E0916504F09166048F
:101CA00082E08083E0916104F09162041082E0910F
:101CB0006304F09164048FEC808310926D04E091D2
:101CC0006904F0916A0486E08083E0916704F091F2
:101CD0006804808180618083E0916704F0916804EA
:101CE000808188608083E0916704F091680480813E
:101CF00080688083E0916704F091680480818F7D23
:101D0000808380910106882321F12FB7F894809178
:101D10009B0290919C02A0919D02B0919E022FBFC8
:101D200040910206509103066091040670910506E9
:101D3000841B950BA60BB70B409106065091070626
:101D4000609108067091090684179507A607B707E2
:101D500048F46AEF70E080E090E00E9471030E9416
:101D6000D704CFCF2FB7F89480919B0290919C021B
:101D7000A0919D02B0919E022FBF80930206909386
:101D80000306A0930406B0930506E0910A06F091BD
:101D90000B061995DECF87E492E090930D068093B1
:101DA0000C0687E392E09093100680930F068091D3
:101DB000190690911A06009711F00E941A1380914B
:101DC000130690911406009711F00E941A13809147
:101DD000170690911806009711F00E941A1380912F
:101DE000110690911206009711F00E941A1380912B
:101DF000150690911606009711F00E941A13809113
:101E00002106909122060C941A130F93109212033C
:101E10001092110388EE93E0A0E0B0E080931303EA
:101E200090931403A0931503B093160323E132E0BB
:101E30003093100320930F0310921E0310921D0382
:101E400080931F0390932003A0932103B093220358
:101E500025E232E030931C0320931B0345E351E05D
:101E6000509328034093270344E351E050932A03FF
:101E70004093290340E351E050932C0340932B03FC
:101E800041E351E050932E0340932D0342E351E090
:101E90005093300340932F0346E351E050933203B5
:101EA000409331031092340310923503109236039D
:101EB000109237031092BB031092BA038093BC03B5
:101EC0009093BD03A093BE03B093BF033093B903B7
:101ED0002093B80345ED50E05093C5034093C403ED
:101EE00044ED50E05093C7034093C60340ED50E0EB
:101EF0005093C9034093C80341ED50E05093CB0386
:101F00004093CA0342ED50E05093CD034093CC037D
:101F100046ED50E05093CF034093CE031092D1038F
:101F20001092D2031092D3031092D403109258044B
:101F3000109257048093590490935A04A0935B0421
:101F4000B0935C04309356042093550485EC90E0E4
:101F5000909362048093610484EC90E09093640415
:101F60008093630480EC90E0909366048093650412
:101F700081EC90E0909368048093670482EC90E099
:101F800090936A048093690486EC90E090936C04CB
:101F900080936B0410926E0410926F041092700480
:101FA0001092710486E380930B0787E380930C07FC
:101FB00088E380930D0789E380930E078BE180937C
:101FC0000F078DE1809310078AE1809311078CE160
:101FD0008093120784E08093130787E080931407AF
:101FE0001092150784EB8093160786E180931707FC
:101FF00088E18093180787E18093190789E180932E
:102000001A07E0910006EC3020F08FEF80931B0759
:1020100010C081E08E0F80930006E0931B0725E03F
:10202000E29FF0011124EC53FA4F88EB9BE092837E
:102030008183E0910006EC3020F08FEF80931C0745
:1020400010C081E08E0F80930006E0931C0785E0AE
:10205000E89FF0011124EC53FA4F88EB9BE0928348
:1020600081838CE08093EA0684E28093EB0686E02D
:102070008093EC0685E08093ED068FE18093EE0679
:102080008EE18093EF0683E28093F00682E28093F4
:10209000F10685E48093F20684E48093F30680E4FD
:1020A0008093F6061092FB061092FC061092FD0635
:1020B0001092FE061092FF06109200071092010780
:1020C00010920207ECE2F6E08FEF9FEFDC01128244
:1020D00013821482158216821782108611868387D6
:1020E0009487A587B6878787908BA18BB28B128642
:1020F00011821082739626E0EA3EF20741F78DE0E6
:1021000090E00E948512FC011382128287E692E021
:1021100091838083118687E2848384E1828784E0CF
:1021200083871486F0932906E093280610922A06E6
:1021300010922B0685E28093F3041092F50410921E
:102140002206109221061092240610922306109265
:1021500026061092250661E070E080E090E00E9483
:10216000B213009791F0909322068093210610926B
:102170002406109223062091250630912606232B53
:1021800009F05FC0FC0110825CC080912106909133
:102190002206009711F00E941A1310922206109244
:1021A00021061092260610922506109224061092FF
:1021B0002306109212061092110610921406109225
:1021C0001306109216061092150610921806109219
:1021D000170610921A061092190687E492E090935F
:1021E0000D0680930C0689E592E09093100680938B
:1021F0000F0602E024E048E061E072E08CE096E047
:102200000E94B90781E080930106109202061092A5
:102210000306109204061092050684E195E0A0E002
:10222000B0E08093060690930706A0930806B0934B
:1022300009068AED97E090930B0680930A060F91AA
:102240000895109226061092250661E772E00E941A
:10225000A914AFCF990F0008550FAA0BE0E8FEEFC5
:1022600016161706E807F907C0F012161306E4075A
:10227000F50798F0621B730B840B950B39F40A2653
:1022800061F0232B242B252B21F408950A2609F431
:10229000A140A6958FEF811D811D08950E946111B7
:1022A0000C94D2110E94C41138F00E94CB1120F07E
:1022B000952311F00C94BB110C94C11111240C94B2
:1022C00006120E94E31170F3959FC1F3950F50E041
:1022D000551F629FF001729FBB27F00DB11D639FD8
:1022E000AA27F00DB11DAA1F649F6627B00DA11D7E
:1022F000661F829F2227B00DA11D621F739FB00D24
:10230000A11D621F839FA00D611D221F749F332793
:10231000A00D611D231F849F600D211D822F762F2C
:102320006A2F11249F5750409AF0F1F088234AF009
:10233000EE0FFF1FBB1F661F771F881F9150504075
:10234000A9F79E3F510580F00C94BB110C94061226
:102350005F3FE4F3983ED4F3869577956795B795FC
:10236000F795E7959F5FC1F7FE2B880F911D969516
:10237000879597F9089597F99F6780E870E060E086
:1023800008959FEF80EC089500240A94161617060E
:1023900018060906089500240A9412161306140656
:1023A00005060895092E0394000C11F4882352F0B9
:1023B000BB0F40F4BF2B11F460FF04C06F5F7F4F71
:1023C0008F4F9F4F089557FD9058440F551F59F058
:1023D0005F3F71F04795880F97FB991F61F09F3F12
:1023E00079F087950895121613061406551FF2CF3B
:1023F0004695F1DF08C0161617061806991FF1CF8B
:1024000086957105610508940895E894BB276627B1
:102410007727CB0197F90895A1E21A2EAA1BBB1BBF
:10242000FD010DC0AA1FBB1FEE1FFF1FA217B307A0
:10243000E407F50720F0A21BB30BE40BF50B661FB6
:10244000771F881F991F1A9469F76095709580957A
:1024500090959B01AC01BD01CF010895AA1BBB1B48
:1024600051E107C0AA1FBB1FA617B70710F0A61B94
:10247000B70B881F991F5A95A9F780959095BC01B5
:10248000CD010895EE0FFF1F881F8BBF0790F691B7
:10249000E02D19940E9451126894B1110C94061207
:1024A00008950E94EB1188F09F5798F0B92F992753
:1024B000B751B0F0E1F0660F771F881F991F1AF02F
:1024C000BA95C9F714C0B13091F00E940512B1E07D
:1024D00008950C940512672F782F8827B85F39F07C
:1024E000B93FCCF3869577956795B395D9F73EF4C8
:1024F00090958095709561957F4F8F4F9F4F089570
:102500000E942A1108F48FEF0895CF93DF93823051
:10251000910510F482E090E0E0914B07F0914C07B8
:1025200020E030E0C0E0D0E0309711F140815181EF
:1025300048175907C0F04817590761F48281938101
:10254000209719F09B838A832BC090934C0780932C
:102550004B0726C02115310519F04217530718F40F
:102560009A01BE01DF01EF010280F381E02DDCCF93
:102570002115310509F1281B390B2430310590F460
:1025800012968D919C9113976115710521F0FB01B5
:102590009383828304C090934C0780934B07FD0183
:1025A000329644C0FD01E20FF31F819391932250B4
:1025B00031092D933C933AC02091490730914A0745
:1025C000232B41F420910B0230910C0230934A07E7
:1025D000209349072091090230910A022115310503
:1025E00041F42DB73EB740910D0250910E02241BCD
:1025F000350BE0914907F0914A07E217F307A0F481
:102600002E1B3F0B2817390778F0AC014E5F5F4F48
:102610002417350748F04E0F5F1F50934A07409329
:1026200049078193919302C0E0E0F0E0CF01DF9190
:10263000CF9108950F931F93CF93DF93009709F4E1
:102640008CC0FC0132971382128200914B071091CB
:102650004C070115110581F420813181820F931FF0
:102660002091490730914A072817390779F5F093E7
:102670004A07E093490771C0D80140E050E0AE1727
:10268000BF0750F412962D913C911397AD0121157F
:10269000310509F1D901F3CF9D01DA01338322839A
:1026A00060817181860F971F8217930769F4EC018F
:1026B00028813981260F371F2E5F3F4F31832083BA
:1026C0008A819B8193838283452B29F4F0934C0765
:1026D000E0934B0742C01396FC93EE931297ED01E3
:1026E000499159919E01240F351FE217F30771F4A8
:1026F00080819181840F951F029611969C938E93F1
:102700008281938113969C938E931297E0E0F0E080
:10271000D80112968D919C911397009719F0F801AA
:102720008C01F6CF8D919C9198012E5F3F4F820FC7
:10273000931F2091490730914A072817390769F4F8
:10274000309729F410924C0710924B0702C0138265
:10275000128210934A0700934907DF91CF911F918E
:102760000F9108956F927F928F929F92AF92BF9236
:10277000CF92DF92EF92FF920F931F93CF93DF934D
:10278000EC01009789F4CB01DF91CF911F910F915C
:10279000FF90EF90DF90CF90BF90AF909F908F9081
:1027A0007F906F900C948512FC01E60FF71F9C013F
:1027B00022503109E217F30708F4ACC0D9010D919A
:1027C0001C91119706171707B0F00530110508F492
:1027D0009FC0C80104978617970708F499C0025054
:1027E0001109061B170B019311936D937C93CF0175
:1027F0000E941A138DC05B01A01AB10A4C01800E11
:10280000911EA0914B07B0914C0740E050E0E12CA5
:10281000F12C109709F44AC0A815B905D1F56D90AF
:102820007C901197630182E0C80ED11CCA14DB04AE
:1028300080F1A3014A195B096A0182E0C80ED11C2C
:102840001296BC9012971396AC91B5E0CB16D104BA
:1028500040F0B282A38351834083D9016D937C936E
:102860000AC00E5F1F4FC301800F911FF9019183B2
:102870008083EB2DFA2FE114F10431F0D701139688
:10288000FC93EE93129744C0F0934C07E0934B07F0
:102890003FC08D919C9111974817590708F4AC01DE
:1028A0007D0112960D90BC91A02DB3CF8091490768
:1028B00090914A0788159905E1F446175707C8F41F
:1028C0008091090290910A02009741F48DB79EB75A
:1028D00040910D0250910E02841B950BE817F907E9
:1028E000C8F4F0934A07E0934907F90171836083C4
:1028F0000FC0CB010E9485127C01009759F0A801FE
:10290000BE010E94A014CE010E941A13C70104C088
:10291000CE0102C080E090E0DF91CF911F910F9136
:10292000FF90EF90DF90CF90BF90AF909F908F90EF
:102930007F906F90089581E090E0F8940C94B0142B
:10294000FB01DC0102C001900D9241505040D8F7CC
:102950000895FB01DC0101900D920020E1F708953C
:1029600011E0C2EAD1E000E006C0802FFE010E9423
:1029700042122196011DC33AD10780E00807A9F74A
:04298000F894FFCFF9
:10298400FF000102030405060700004D07200000B4
:102994000000003C020C026707FE0105020202FF70
:1029A40001000000006B04AB03EF03B2042004FE3B
:1029B400031204000000002E05190504056C076AC3
:1029C40007030000000000B907430DFDFF000000ED
:1029D4000000000000FDFF00002E05190504056C31
:1029E40007D10D000000004107AB03670766070D20
:0829F4000A0053544F5000008B
:00000001FF
