:100000000C9497010C94C8010C94C8010C94C8017D
:100010000C94C8010C94C8010C94C8010C94C8013C
:100020000C94C8010C94C10C0C94C10C0C94C10C20
:100030000C94C8010C9432080C94C8010C94C801AB
:100040000C94C8010C9474040C94C8010C94C8015D
:100050000C94C8010C94C8010C94C8010C94CB0EEC
:100060000C94C8010C94A1090C9477090C94C80154
:100070000C94C8010C94C8010C94C8010C94C801DC
:100080000C94C8010C94C8010C94C8010C94C801CC
:100090000C94C8010C94C8010C94C8010C94CB0CAE
:1000A0000C94C8010C94C8010C94C8010C94C801AC
:1000B0000C94C8010C94C8010C94C8010C94510212
:1000C0000C94C8010C94C8010C94C8010C944D09FF
:1000D0000C9423090C94C8010C94F9080C94CF08D3
:1000E0000C94C801700375037A0384038E0307041C
:1000F0009803A003A803B203BC03C603D503DF0320
:100100000704E903F303FD03330C360C250C290C1B
:100110002F0C6D0C3A0C3E0C440C480C4C0C520C41
:10012000560C5A0C6D0C600C640C680C0C94A003FB
:100130000C94150F0C94330C0C94CA010C948E0B78
:100140000C945A0C0C94360C0C94560C0C948E0394
:100150000C940A020C9407020C94BC030C94060243
:100160000C9410080C9484030C94250C0C948107B7
:100170000C94FD030C9470030C94A00B0C94E90BED
:100180000C94F3030C9407040C94900B0C94DF0371
:100190000C948F0B0C9498030C94B40B0C94720772
:1001A0000C94B2030C9495070C943E0C0C94A80389
:1001B0000C94680C0C943A0C0C944C0C0C94480C59
:1001C0000C94910B0C94290C0C94D5030C94600C9A
:1001D0000C94640C0C946D0C0C947A030C9429040C
:1001E0000C9448070C942F0C0C94E9030C94BC0B52
:1001F0000C94440C0C94520C0C94F9110C94C603FE
:100200000C9475030C94C3070200002100240027FE
:10021000002A002D00300033000101000004010716
:10022000010A0100002200250028002B002E0031C9
:1002300000340002010000050108010B010000204C
:10024000002300260029002C002F003200000100AE
:100250000003010601090105050505070508080851
:1002600008020202020A0A08080404040401010147
:10027000010101010103030303030303030407074F
:10028000070C0C0C0C0C0C0C0C02020202060606ED
:1002900006060606060B0B0B0B0B0B0B0B010210D5
:1002A0002020080810204010204080020102010890
:1002B0000402010102040810204080804020100840
:1002C0000402018004020180402010080402010899
:1002D00004020101020408102040800102040810F9
:1002E00020408000000A0B02090C0D0E08070304D1
:1002F00001000000000000000000000000000000FD
:1003000000000000000000000000000000000012DB
:1003100011100000000000000000000000000000BC
:1003200000000000000000000000F911150F11246A
:100330001FBECFEFD1E2DEBFCDBF00E00CBF12E0A9
:10034000A0E0B2E0E0E4F1E300E00BBF02C0079000
:100350000D92A437B107D9F727E0A4E7B2E001C0B6
:100360001D92A435B207E1F711E0C6E9D1E000E043
:1003700006C021970109802FFE010E945115C53941
:10038000D10780E00807A9F70E941B0F0C948E1874
:100390000C940000FC01918D228D892F90E0805CEF
:1003A0009F4F821B91098F7399270895E0E0F0E039
:1003B000199480E090E0892B21F00E94B907811107
:1003C00019C080E090E0892B41F080E090E0892B1B
:1003D00021F00E940000811110C00E94AF0781111E
:1003E0000FC080E090E0892B81F00E94A507811169
:1003F0000AC008950E940000E4CF0E940000EDCFE3
:100400000E94D601EECF0C9400000895089580E07C
:1004100090E008950F931F93CF93DF938C01C62F25
:10042000D62FD07FD1606D2F0E94490B6D2FC80150
:100430000E94930C80E1C89FB0011124C62FC160B7
:100440006C2FC8010E94490B6C2FC8010E94930CAD
:1004500081E090E0DF91CF911F910F910895FC0111
:10046000848DDF01A80FB11DA35ABF4F2C91848D3D
:1004700090E001968F739927848FA689B7892C9372
:10048000A089B1898C91837080648C93938D848DC5
:10049000981306C00288F389E02D80818F7D8083C8
:1004A00008951F920F920FB60F9211240BB60F9260
:1004B0002F933F934F935F936F937F938F939F936C
:1004C000AF93BF93EF93FF938091C6040E94FD0DFD
:1004D0002091CA043091CB042F5F3F4F3093CB045F
:1004E0002093CA049091C904953618F096E0909331
:1004F000C5049091C5049430C9F128F4923069F094
:100500009330D1F05EC0953009F451C0963009F0B7
:1005100058C091E09093960551C0811152C020912E
:10052000CA043091CB042436310508F442C010923D
:1005300096051092C9041CC0813009F042C0E091B8
:10054000C90491E09E0F9093C904F0E02091CA0481
:100550003091CB04EE0FFF1FEB53FB4F3087278307
:100560001092CB041092CA0494E029C0811117C0E4
:10057000E091C90491E09E0F9093C904F0E02091AE
:10058000CA043091CB04EE0FFF1FEB53FB4F3087B3
:1005900027831092CB041092CA0493E010C02091DC
:1005A000CA043091CB042536310558F007C08111BB
:1005B00008C01092CB041092CA0403C095E0909337
:1005C000C5049091C8049923B9F081110AC08091A3
:1005D000C704882321F08091C70461E009C02F9AE5
:1005E0000BC08091C704882331F08091C70460E07C
:1005F0000E94260E01C02F98FF91EF91BF91AF91FD
:100600009F918F917F916F915F914F913F912F912A
:100610000F900BBE0F900FBE0F901F9018958F92EA
:100620009F92AF92BF92CF92DF92EF92FF920F9381
:100630001F93CF93DF938C016A017B0120E030E0B0
:100640004FE753E4C701B6010E9465144B015C01FA
:1006500020E030E0A9010E946E1618161CF4C501B6
:10066000B40103C0C501B40190580E943816EB01D3
:1006700020E030E0A901C701B6010E946E161816ED
:1006800014F460E001C061E0F80181810E94260E4F
:10069000CF3FD10509F014F4DD2702C0CFEFD0E041
:1006A000F801108161E0812F0E94550E209709F416
:1006B000B1C0CF3FD10509F4AFC0E12FF0E0ED515B
:1006C000FD4FE4918E2F90E0FC013197E231F1056E
:1006D00008F09DC08827EE58FF4F8F4F0C9451159E
:1006E00084B5806884BDC7BDA7C084B5806284BD61
:1006F000C8BDA2C080918000806880938000D093A4
:100700008900C093880098C08091800080628093A7
:100710008000D0938B00C0938A008EC080918000AF
:10072000886080938000D0938D00C0938C0084C03B
:100730008091B00080688093B000C093B3007CC00B
:100740008091B00080628093B000C093B40074C008
:1007500080919000806880939000D0939900C0931E
:1007600098006AC080919000806280939000D0933E
:100770009B00C0939A0060C0809190008860809335
:100780009000D0939D00C0939C0056C08091A00023
:1007900080688093A0008091A0008F7B8093A00050
:1007A000D093A900C093A80047C08091A0008062A8
:1007B0008093A000D093AB00C093AA003DC080916D
:1007C000A00088608093A000D093AD00C093AC00DF
:1007D00033C080912001806880932001D09329014B
:1007E000C093280129C0809120018062809320015C
:1007F000D0932B01C0932A011FC0809120018860F3
:1008000080932001D0932D01C0932C0115C0C038D6
:10081000D10514F460E001C061E0812FDF91CF9138
:100820001F910F91FF90EF90DF90CF90BF90AF900E
:100830009F908F900C94260EDF91CF911F910F9176
:10084000FF90EF90DF90CF90BF90AF909F908F90F0
:100850000895CF93DF9380917B00877F80937B0007
:1008600081E480937C0080917A00806480937A0098
:1008700080917A0086FDFCCFC0917800809179004C
:10088000D0E0D82BBE010D2E000C880B990BD7FFA2
:1008900003C00E94B00A03C04AE00E946F0A8FE3BF
:1008A00092E00E944F0AC738D140DCF040E050E0AF
:1008B000BA018FEF95E00E940F0340E050E060E046
:1008C00070E881E096E00E940F0382E492E00E94CB
:1008D000610A60E177E280E090E0DF91CF910C94D3
:1008E000910EDF91CF9108951F920F920FB60F9244
:1008F00011240BB60F922F933F934F935F936F93F7
:100900007F938F939F93AF93BF93EF93FF938091C8
:100910008D0287FF05C0109285001092840016C0DA
:1009200020918D02022E000C330B8091D30590E0B4
:10093000281739075CF430918D0225E03203F0016D
:100940001124E956FA4F808186FD15C080918D02F1
:100950008F5F80938D0220918D02022E000C330B4D
:100960008091D30590E02817390794F480918D0287
:100970008C302CF10DC030918D023203F001112426
:10098000E956FA4F808160E08F730E94260EDECF19
:10099000809184009091850084349C4918F480E40F
:1009A0009CE905C080918400909185000496909305
:1009B0008900809388008FEF80938D022AC0409138
:1009C00084005091850030918D0225E03203F001C2
:1009D0001124E956FA4F81819281840F951F9093DB
:1009E00089008093880030918D023203F001112438
:1009F000E956FA4F808186FF0CC030918D02320398
:100A0000F0011124E956FA4F808161E08F730E9452
:100A1000260EFF91EF91BF91AF919F918F917F91A2
:100A20006F915F914F913F912F910F900BBE0F905F
:100A30000FBE0F901F9018958EBD00000DB407FEDD
:100A4000FDCF8EB50895CF93DF93EC0160E08881F0
:100A50000E94260E88E90E941C0580E00E941C0569
:100A600080E00E941C0580E00E941C0580E00E943E
:100A70001C0561E088810E94260E8BE891E00197B9
:100A8000F1F760E088810E94260E80EE0E941C052E
:100A900061E08881DF91CF910C94260EAF92BF92D6
:100AA000CF92DF92EF92FF920F931F93CF93DF933A
:100AB000CDB7DEB760970FB6F894DEBF0FBECDBFDF
:100AC0005C0160E0FC0180810E94260E80E60E94AD
:100AD0001C058E010F5F1F4F7E01F1E1EF0EF11C2F
:100AE000680180E00E941C0590E0A0E0B0E0F60103
:100AF00081939193A193B1936F01EE15FF0589F74F
:100B000061E0F50180810E94260E80E090E0DC012A
:100B1000F80141915191619171918F01BA2FA92FE3
:100B2000982F8827840F951FA61FB71FEE15FF0566
:100B300079F79C01AD0166277727CB01621B730B08
:100B4000840B950B60960FB6F894DEBF0FBECDBF39
:100B5000DF91CF911F910F91FF90EF90DF90CF9099
:100B6000BF90AF900895823020F087E492E00C941B
:100B7000610A813009F4705890E0880F991F815004
:100B80009A4F0C940F03823040F089E592E00E9466
:100B9000610A60E070E0CB01089581110CC083E030
:100BA00096E00E944E0590958095709561957F4FD7
:100BB0008F4F9F4F089585E096E00C944E054F921D
:100BC0005F926F927F928F929F92AF92BF92CF92DD
:100BD000DF92EF92FF920F931F93CF93DF93CDB7E6
:100BE000DEB72A970FB6F894DEBF0FBECDBF162F23
:100BF0007A878987092F29013A0180E00E94C3057D
:100C00000E94080B83E096E00E94230585E096E0B1
:100C10000E942305E12CF12C0E94080BB7010F2C38
:100C2000000C880B990B0E940614212F3A854985E8
:100C3000502F0E94651420E030E040E251E40E9411
:100C4000C6154B015C01AB01BC018FEF95E00E9422
:100C50000F03B501A40181E00E94B3056AE070E0D2
:100C600080E090E00E94910E8FEFE81AF80A8BE086
:100C7000E816F10489F620E030E0A901612F7A85B9
:100C80008985902F0E94FF1387FD08C0C12EDA844A
:100C9000E984F02E812C912C54012EC060E070E08C
:100CA000CB01A30192010E946E1687FF04C08AE067
:100CB000E82EF12C9CC060E570E080E090E00E949E
:100CC000910E0E94080B80E00E94C3056B017C011D
:100CD00081E00E94C305C701B6010E94061426ECFC
:100CE0003DE744E75EE30E94651420E030E048E41D
:100CF00055E40E94C615D5CFA3019201C501B401E8
:100D00000E94FF1318169CF20E94080B412F5A856F
:100D10006985702F8FEF95E00E940F03A601B70140
:100D200081E00E94B30560E570E080E090E00E9401
:100D3000910E80E00E94C3050E9406146B017C01A5
:100D400085E096E00E944E050E94061469837A832E
:100D50008B839C8326EC3DE744E75EE3C701B60145
:100D60000E94651420E030E048E455E40E94C61576
:100D70004B015C012DEC3CEC4CE45FE369817A8132
:100D80008B819C810E946514A70196010E945915D0
:100D90002CEA35EC47E257E30E9465146D837E83AD
:100DA0008F83988729813A814B815C81C701B60185
:100DB0000E9459152AE037ED43EA5DE30E94C6150B
:100DC00027E137EB41E559E30E9465149B01AC0133
:100DD0006D817E818F8198850E945A15212F3A85D9
:100DE0004985502F0E945A156B017C0185CFB701B0
:100DF0000F2C000C880B990B0E940614212F3A85AA
:100E00004985502F0E94651420E030E040E251E413
:100E10000E94C6154B015C010E94080BB501A4019C
:100E20008FEF95E00E940F03B501A40181E00E94BD
:100E3000B3056AE070E080E090E00E94910E81E0EE
:100E4000E81AF108A0F640E050E0BA018FEF95E013
:100E50000E940F0340E050E060E070E881E096E01F
:100E60002A960FB6F894DEBF0FBECDBFDF91CF91AB
:100E70001F910F91FF90EF90DF90CF90BF90AF90B8
:100E80009F908F907F906F905F904F900C940F0386
:100E9000CF92DF92EF92FF920F931F93CF93DF9346
:100EA0006C017A018B01C0E0D0E0CE15DF0581F046
:100EB000D8016D918D01D601ED91FC910190F081E9
:100EC000E02DC6011995892B11F02196EECF7E01F8
:100ED000C701DF91CF911F910F91FF90EF90DF90AD
:100EE000CF900895FC01538D448D252F30E0842F41
:100EF00090E0821B930B541710F0CF960895019742
:100F00000895FC01918D828D981761F0828DDF012B
:100F1000A80FB11D5D968C91928D9F5F9F73928FEC
:100F200090E008958FEF9FEF0895FC01918D828DE1
:100F3000981731F0828DE80FF11D858D90E00895AE
:100F40008FEF9FEF08950E9479188EEE92E00E9435
:100F5000CA0121E0892B09F420E0822F08958BE853
:100F600093E00E94CA0121E0892B09F420E0822F3E
:100F7000089588E294E00E94CA0121E0892B09F4D7
:100F800020E0822F0895EF92FF920F931F93CF934B
:100F9000DF93EC0181E0888F9B8D8C8D981305C0C9
:100FA000E889F989808185FD26C0F62E0B8D10E039
:100FB0000F5F1F4F0F731127E02E8C8DE8120CC0AE
:100FC0000FB607FCFACFE889F989808185FFF5CF54
:100FD000CE010E942F02F1CF8B8DFE01E80FF11D93
:100FE000E35AFF4FF0829FB7F8940B8FEA89FB8991
:100FF000808180620AC09FB7F894EE89FF89608380
:10100000E889F98980818370806480839FBF81E053
:1010100090E0DF91CF911F910F91FF90EF90089595
:10102000CF93DF93EC01888D8823C9F0EA89FB898F
:10103000808185FD05C0A889B9898C9186FD0FC086
:101040000FB607FCF5CF808185FFF2CFA889B9895B
:101050008C9185FFEDCFCE010E942F02E7CFDF916B
:10106000CF9108951F920F920FB60F9211240BB6D5
:101070000F922F933F934F935F936F937F938F9331
:101080009F93AF93BF93EF93FF9380918F029091C3
:101090009002A0919102B0919202892B8A2B8B2B06
:1010A00049F190918E028091000089278093000081
:1010B00080918F0290919002A0919102B091920242
:1010C000181619061A061B060CF056C080918F02DE
:1010D00090919002A0919102B09192020197A10982
:1010E000B10980938F0290939002A0939102B093E4
:1010F000920242C080910002E8E0F2E0E4919FEFAA
:1011000090930002E230C9F050F4EE2399F0E13000
:1011100081F590916F009D7F90936F002AC0E4301D
:1011200019F1E0F0E53029F5909173009D7F9093DF
:1011300073001FC010926E001CC0909170009D7FC4
:101140009093700091E09093B0009091B100987FDF
:1011500094609093B1001092B3000BC09091710015
:101160009D7F9093710005C0909172009D7F909338
:10117000720060E00E94260EFF91EF91BF91AF9147
:101180009F918F917F916F915F914F913F912F919F
:101190000F900BBE0F900FBE0F901F9018951F92CF
:1011A0000F920FB60F9211240BB60F922F933F930D
:1011B0004F935F936F937F938F939F93AF93BF935F
:1011C000EF93FF938EEE92E00E942F02FF91EF913A
:1011D000BF91AF919F918F917F916F915F914F914F
:1011E0003F912F910F900BBE0F900FBE0F901F904D
:1011F00018951F920F920FB60F9211240BB60F92F3
:101200002F933F934F935F936F937F938F939F930E
:10121000AF93BF93EF93FF938EEE92E00E94A80CE2
:10122000FF91EF91BF91AF919F918F917F916F91BE
:101230005F914F913F912F910F900BBE0F900FBE7A
:101240000F901F9018951F920F920FB60F921124B6
:101250000BB60F922F933F934F935F936F937F93B0
:101260008F939F93AF93BF93EF93FF938BE893E09C
:101270000E942F02FF91EF91BF91AF919F918F91AB
:101280007F916F915F914F913F912F910F900BBE86
:101290000F900FBE0F901F9018951F920F920FB6D0
:1012A0000F9211240BB60F922F933F934F935F939E
:1012B0006F937F938F939F93AF93BF93EF93FF931E
:1012C0008BE893E00E94A80CFF91EF91BF91AF9142
:1012D0009F918F917F916F915F914F913F912F914E
:1012E0000F900BBE0F900FBE0F901F9018951F927E
:1012F0000F920FB60F9211240BB60F922F933F93BC
:101300004F935F936F937F938F939F93AF93BF930D
:10131000EF93FF9388E294E00E942F02FF91EF91F8
:10132000BF91AF919F918F917F916F915F914F91FD
:101330003F912F910F900BBE0F900FBE0F901F90FB
:1013400018951F920F920FB60F9211240BB60F92A1
:101350002F933F934F935F936F937F938F939F93BD
:10136000AF93BF93EF93FF9388E294E00E94A80CA1
:10137000FF91EF91BF91AF919F918F917F916F916D
:101380005F914F913F912F910F900BBE0F900FBE29
:101390000F901F9018953091E102313208F04BC048
:1013A0008091BE028111FCCF90911D0622E0209316
:1013B000BE0221E02093BD022FEF2093BC021092C9
:1013C000BB023093BA02E1ECF2E0AAE9B2E020E01D
:1013D000321721F041914D932F5FFACF109299026D
:1013E00020919902990F922B9093990290919802D3
:1013F000913061F410929802909199029093BB0001
:101400009091BC0093FDF8CF95EC01C095EE9093C0
:10141000BC009091BE029230E1F39091BC029F3FDC
:1014200079F08091BC02803241F08091BC0280331F
:1014300031F084E005C081E003C082E001C083E0B8
:101440001092C0021092E1021092BF020895E8E2E9
:10145000F4E0A089B18982E08C93A485B5851C92C3
:10146000A685B7858FEC8C93108EA489B58986E00C
:101470008C93A289B3898C9180618C93A289B38962
:101480008C9188608C93A289B3898C9180688C93AD
:101490000288F389E02D80818F7D808308950097F5
:1014A00069F0FC0101900020E9F73197AF01481B7A
:1014B000590BBC0188E294E00C94480780E090E06E
:1014C0000895CF93DF930E944F0AEC018FE392E0DF
:1014D0000E944F0A8C0F9D1FDF91CF9108958F922C
:1014E0009F92AF92BF920F931F93CF93DF93CDB78D
:1014F000DEB7A1970FB6F894DEBF0FBECDBF19A21D
:10150000423008F44AE08E010F5D1F4F842E912C6B
:10151000A12CB12CA50194010E942315E62FB9013D
:10152000CA0101501109EA3014F4E05D01C0E95C20
:10153000D801EC93232B242B252B61F7C8010E94A3
:101540004F0AA1960FB6F894DEBF0FBECDBFDF9154
:10155000CF911F910F91BF90AF909F908F90089562
:10156000CF92DF92EF92FF92CF93DF936B017C01DA
:101570006DE288E294E00E94C307EC0166277727BA
:10158000CB016C197D098E099F094AE00E946F0A00
:101590008C0F9D1FDF91CF91FF90EF90DF90CF9048
:1015A00008950F931F93CF93DF93162F072FC6EE47
:1015B000D5E09C8521E02093BF0290931D061092F8
:1015C000C0021092E102AA85BB85ED91FC911197B2
:1015D0000190F081E02D682FCD0119958A859B85BA
:1015E000DC01ED91FC910190F081E02D602F1995C7
:1015F0008A859B85DC01ED91FC910190F081E02DC5
:10160000612F1995DF91CF911F910F910C94CB0908
:101610008091D4058823E1F12FB7F894809194024A
:1016200090919502A0919602B09197022FBF4091A0
:10163000D5055091D6056091D7057091D805841BCA
:10164000950BA60BB70B4091D9055091DA05609127
:10165000DB057091DC0584179507A607B707C0F076
:101660002FB7F8948091940290919502A0919602E0
:10167000B09197022FBF8093D5059093D605A09384
:10168000D705B093D805E091DD05F091DE051994FA
:101690000895FC01248131E03093BF0220931D06A0
:1016A0001092C0021092E1028485682B82EE92E0D3
:1016B0000E94E90B0C94CB0985ED8093BC008091CE
:1016C000BC0084FDFCCF1092BE02089540912B0710
:1016D000262F30E0240F311D21323105DCF420911A
:1016E000BE022430C9F4FC0180E090E0861758F473
:1016F00030912B072191DC01A55FB84FA30FB11DDD
:101700002C930196F3CF80912B07680F60932B07E2
:1017100080E0089581E0089582E008950895089595
:101720000895E091E1068091E006E81730F4F0E0DA
:10173000E551F94F808190E008958FEF9FEF089574
:101740009091E1068091E006981750F4E92FF0E0BF
:10175000E551F94F208130E09F5F9093E10602C090
:101760002FEF3FEFC90108958091E00690E02091AE
:10177000E106821B91090895CF92DF92EF92FF92CA
:101780000F931F93CF93DF937C01CB018A012091AC
:10179000BF02222389F0EB016B01C40ED51ECC15CC
:1017A000DD0569F06991D701ED91FC910190F0811F
:1017B000E02DC7011995F3CF642F0E94660BC80175
:1017C000DF91CF911F910F91FF90EF90DF90CF901D
:1017D0000895CF93DF931F92CDB7DEB76983209131
:1017E000BF022223D1F02091E102203240F021E01B
:1017F00030E0FC013383228380E090E015C08091CB
:10180000C002E82FF0E0EF53FD4F998190838F5F86
:101810008093C0028093E10205C061E0CE01019691
:101820000E94660B81E090E00F90DF91CF910895C8
:1018300090E0FC013197E231F10508F04EC08827B5
:10184000EC57FF4F8F4F0C945115809180008F778C
:1018500003C0809180008F7D8093800008958091E7
:101860008000877FF9CF84B58F7702C084B58F7DE4
:1018700084BD08958091B0008F7703C08091B0003F
:101880008F7D8093B0000895809190008F7707C07E
:10189000809190008F7D03C080919000877F80931E
:1018A000900008958091A0008F7707C08091A000DC
:1018B0008F7D03C08091A000877F8093A000089552
:1018C000809120018F7707C0809120018F7D03C018
:1018D00080912001877F8093200108953FB7F8947D
:1018E0008091E7069091E806A091E906B091EA069A
:1018F00026B5A89B05C02F3F19F00196A11DB11D6B
:101900003FBFBA2FA92F982F8827820F911DA11DA5
:10191000B11DBC01CD0142E0660F771F881F991FE2
:101920004A95D1F708950F931F93CF938C01C62F3B
:1019300064600E94490B6C2F6B7FC8010E94490BA9
:1019400083EC90E00197F1F7CF911F910F910895EB
:10195000FC01A089B1898C91A689B78982FD0FC04D
:101960009C91818D8F5F8F73228D821749F0218D1D
:10197000DF01A20FB11D5D969C93818F08958C911C
:1019800008951F920F920FB60F9211240F900FBE61
:101990000F901F9018951F920F920FB60F9211245F
:1019A0000BB60F922F933F934F935F936F937F9359
:1019B0008F939F93AF93BF93EF93FF938091B90061
:1019C000887F803609F49CC068F5883209F45BC0D2
:1019D00090F4803109F454C038F4882309F4F6C037
:1019E000883009F44DC0F6C0883109F44CC080320B
:1019F00009F45DC0EFC0803409F468C048F4803356
:101A000009F455C0883309F0E5C08093BC02D8C002
:101A1000803509F44FC0883509F45DC0883409F079
:101A2000D9C0D6C0883909F4C7C0A8F4883709F4EA
:101A300067C038F4883609F463C0803709F460C0A1
:101A4000C9C0883809F4B8C0803909F45FC080384B
:101A500009F0C0C05BC0803B09F486C038F4803A0E
:101A600009F466C0883A09F47FC0B4C0803C09F428
:101A7000A7C0883C09F4A4C0883B09F48AC0AAC066
:101A80008091990210C09091BB028091BA02981780
:101A900070F5E091BB0281E08E0F8093BB02F0E015
:101AA000E656FD4F80818093BB0085EC86C0809315
:101AB000BC028EC0E091BB0281E08E0F8093BB021E
:101AC0008091BB00F0E0E656FD4F80839091BB0211
:101AD0008091BA026EC0E091BB0281E08E0F8093CC
:101AE000BB028091BB00F0E0E656FD4F8083809101
:101AF000BD0281116DC081E08093980284EA61C0CB
:101B000083E08093BE0210924D07CFCF80914D07A6
:101B1000803208F051C0E0914D0781E08E0F809334
:101B20004D078091BB00F0E0E35DF84F8083BDCFAF
:101B300085EC8093BC001092BE0280914D078032EC
:101B400030F4E0914D07F0E0E35DF84F10826091D2
:101B50004D0770E0E091E406F091E5068DE297E034
:101B6000199510924D0736C084E08093BE02109202
:101B70002C0710922B07E091E206F091E3061995ED
:101B800080912B07811105C081E080932B07109273
:101B90000B07E0912C0781E08E0F80932C07F0E07B
:101BA000E55FF84F80818093BB0090912C07809176
:101BB0002B07981708F479CF85E88093BC000AC0FA
:101BC00085EC8093BC001092BE0204C01092BC024F
:101BD0000E945C0BFF91EF91BF91AF919F918F910C
:101BE0007F916F915F914F913F912F910F900BBE1D
:101BF0000F900FBE0F901F901895CF93DF93282F53
:101C000030E0F901ED51FD4F8491F901E356FD4FAC
:101C1000D491F901E95AFD4FC491CC2391F081117F
:101C20000E94180CEC2FF0E0EE0FFF1FE35CFD4F5D
:101C3000A591B491EC91ED2381E090E021F480E056
:101C400002C080E090E0DF91CF9108951F93CF9381
:101C5000DF93282F30E0F901ED51FD4F8491F90118
:101C6000E356FD4FD491F901E95AFD4FC491CC23BD
:101C7000C1F0162F81110E94180CEC2FF0E0EE0F2E
:101C8000FF1FED5DFD4FA591B4919FB7F894111121
:101C900004C08C91D095D82302C0EC91DE2BDC934C
:101CA0009FBFDF91CF911F910895CF93DF9390E075
:101CB000FC01E356FD4F2491FC01E95AFD4F84914C
:101CC000882361F190E0880F991FFC01E75FFD4FC9
:101CD000C591D491FC01ED5DFD4FA591B4916111C9
:101CE00009C09FB7F8948881209582238883EC915E
:101CF0002E230BC0623061F49FB7F8948881322F95
:101D0000309583238883EC912E2B2C939FBF06C0A4
:101D10008FB7F894E8812E2B28838FBFDF91CF9166
:101D200008958F929F92AF92BF92CF92DF92EF92DF
:101D3000FF926B017C010E946E0C4B015C01C1148F
:101D4000D104E104F104F1F00E946E0CDC01CB013E
:101D500088199909AA09BB09883E9340A105B105D4
:101D600070F321E0C21AD108E108F10888EE880E6C
:101D700083E0981EA11CB11CC114D104E104F1043C
:101D800019F7DDCFFF90EF90DF90CF90BF90AF902D
:101D90009F908F9008951F920F920FB60F9211246B
:101DA0002F933F938F939F93AF93BF938091940210
:101DB00090919502A0919602B09197023091E6061B
:101DC00023E0230F2D3720F40196A11DB11D05C07E
:101DD00026E8230F0296A11DB11D2093E6068093ED
:101DE000940290939502A0939602B09397028091EB
:101DF000E7069091E806A091E906B091EA060196FF
:101E0000A11DB11D8093E7069093E806A093E90613
:101E1000B093EA06BF91AF919F918F913F912F911F
:101E20000F900FBE0F901F9018958091DF05909135
:101E3000E0050C940B17789484B5826084BD84B55A
:101E4000816084BD85B5826085BD85B5816085BDB5
:101E500080916E00816080936E001092810080916D
:101E600081008260809381008091810081608093F5
:101E70008100809180008160809380008091B1001A
:101E800084608093B1008091B00081608093B00045
:101E90008091910082608093910080919100816097
:101EA0008093910080919000816080939000809158
:101EB000A10082608093A1008091A1008160809345
:101EC000A1008091A00081608093A00080912101F9
:101ED00082608093210180912101816080932101A2
:101EE0008091200181608093200180917A0084603C
:101EF00080937A0080917A00826080937A0080914A
:101F00007A00816080937A0080917A008068809363
:101F10007A001092C1000E94270A61E08091E705D3
:101F20000E94550E60E08091E7050E94260E60E059
:101F30008091E6050E94550E82EE92E09093F105A5
:101F40008093F0051092E1061092E0061092C00214
:101F50001092E1021092BE0281E08093BD021092C5
:101F6000980261E084E10E94260E61E085E10E9412
:101F7000260E8091B9008E7F8093B9008091B900C0
:101F80008D7F8093B90088E48093B80085E48093C6
:101F9000BC008EE89BE09093E3068093E2068FE816
:101FA0009BE09093E5068093E40680E090E1A0E05A
:101FB000B0E08093F3059093F405A093F505B093FA
:101FC000F6058AE090E0A0E0B0E08093F7059093FA
:101FD000F805A093F905B093FA0580E090E0A0E041
:101FE000B0E48093FB059093FC05A093FD05B093AE
:101FF000FE0560E070E185E00E94D10A6FE979E3B7
:1020000080E00E94D10AC6EED5E08E0152E0F52EA6
:102010006CE8262E62E0362E72ED872E72E0972E47
:10202000EBECCE2EE7E0DE2EF80194818281898FE1
:102030009A8F61E00E94550E61E08A8D0E94550ED4
:10204000F801908586815E01FDE1AF0EB11C8D8F98
:102050009E8F61E00E94550E60E08E8D0E94550EAD
:1020600061E08D8D0E94260EEFB6F8948091930268
:10207000811125C0F1019491F4018491E92FF0E0E0
:10208000EE0FFF1FE75FFD4FA591B4919C9189234F
:1020900021F461E085E30E94260E61E085E30E9461
:1020A000550E8CB580618CBD8CB580648CBD61E0B3
:1020B00084E30E94550E61E083E30E94550E8091F7
:1020C00093028F5F80939302EFBEC6010197F1F7F1
:1020D00060E08D8D0E94260E88E80E941C0583E03A
:1020E0000E941C0561E08D8D0E94260EC60101979D
:1020F000F1F7C5010E942305FA940F5F1F4F229646
:10210000F11092CF0BE016E0CFE0D6E060E0F801EE
:1021100081918F010E94550EC017D107B9F707E0D2
:1021200016E095E0F92E2CE0D22E32E0E32EC99095
:102130008F818C3008F045C061E08C2D0E94550ED7
:102140008F81F89EF0011124E956FA4F9C2D9F7360
:102150002081207CC22EC92AC082138214826D2D58
:102160000E944515FCE08F9FB001112420E030E073
:10217000FB01E20FF31FFE9EA001FF9E500D1124F4
:10218000FA01E956FA4F908196FD12C02F5F3F4F3A
:102190002C30310569F781110BC010928000E0925C
:1021A00081001092850010928400E6BAE0926F00E0
:1021B000EF81FE9EF0011124E956FA4F8081806480
:1021C00080839D818B81F801828B938B60E00E94DC
:1021D000550E61E0F80183890E94550E60E0F80118
:1021E00083890E94260E0E5F1F4FF6E0C131DF0784
:1021F00009F09DCFF8941092200189E0809321018D
:1022000080E293E0909329018093280110922501A8
:102210001092240182E08093730078948093C50427
:102220001092C9048091C60460E00E94550E8DE6AC
:1022300092E00E94610A85E20E94FD0D892BE1F483
:102240006AE070E080E090E00E94910E0E94080B2E
:1022500085E20E94FD0DBC01990F880B990B97FF39
:1022600003C00E94B00A03C04AE00E946F0A8FE3D5
:1022700092E00E944F0ADFCF68E57BE180E090E0CA
:102280000E94910E2DEC3CEC4CEC5DEB6DEC7CEC8B
:102290008CEC9EEB0E94DF0583E096E00E94230514
:1022A00085E096E00E9423054DEC5CEC6CEC7EEB47
:1022B00080E00E94B30546EC5AEF60E57EEB81E0DA
:1022C0000E94B30520E030E446E755ECC301B201BB
:1022D0000E946E16181624F56AE070E080E090E027
:1022E0000E94910E0E94080B80E00E94C3050E948C
:1022F00006142B013C0181E00E94C3050E940614D4
:1023000020E030E44BEF54EC0E94FF131816D4F297
:10231000412C80E5582E86E7682E85EC782ED2CFAA
:1023200040E050E0BA018FEF95E00E940F0340E0DB
:1023300050E060E070E881E096E00E940F030E94A8
:10234000270A2DEC3CEC4CE45EE36AE979E989E983
:102350009EE30E94DF0564E670E080E090E00E946A
:10236000910E0E94080B2AE939E949E95EEBCA019E
:10237000B9010E94DF0564E670E080E090E00E9411
:10238000910E2DEC3CEC4CEC5DE36AE979E989E9CE
:102390009EE30E94DF058FB7F8948090940290909E
:1023A0009502A0909602B09097028FBF0E94080BF2
:1023B0008FB7F894C0909402D0909502E090960266
:1023C000F09097028FBFC818D908EA08FB086AE0A6
:1023D00070E080E090E00E94910E29EBC2162BE0A5
:1023E000D206E104F10410F30E94080B0E94D90107
:1023F000A8CF1092E5021092E40288EE93E0A0E0EC
:10240000B0E08093E6029093E702A093E802B093D5
:10241000E90223E132E03093E3022093E2021092DA
:10242000F1021092F0028093F2029093F302A093D3
:10243000F402B093F50225E232E03093EF022093EC
:10244000EE0245E351E05093FB024093FA0244E36D
:1024500051E05093FD024093FC0240E351E0509361
:10246000FF024093FE0241E351E050930103409389
:10247000000342E351E0509303034093020346E319
:1024800051E0509305034093040310920703109208
:1024900008031092090310920A0310928E031092FF
:1024A0008D0380938F0390939003A0939103B09337
:1024B000920330938C0320938B0345ED50E05093AF
:1024C00098034093970344ED50E050939A03409350
:1024D000990340ED50E050939C0340939B0341EDE2
:1024E00050E050939E0340939D0342ED50E0509383
:1024F000A00340939F0346ED50E05093A203409306
:10250000A1031092A4031092A5031092A6031092A7
:10251000A70310922B0410922A0480932C0490930A
:102520002D04A0932E04B0932F04309329042093FC
:10253000280485EC90E0909335048093340484EC77
:1025400090E0909337048093360480EC90E0909371
:1025500039048093380481EC90E090933B0480939D
:102560003A0482EC90E090933D0480933C0486EC26
:1025700090E090933F0480933E04109241041092A7
:1025800042041092430410924404809107029091F7
:102590000802A0910902B0910A0280930706909365
:1025A0000806A0930906B0930A0680910B02909149
:1025B0000C02A0910D02B0910E0280930B06909335
:1025C0000C06A0930D06B0930E0684E080930F06D0
:1025D00087E0809310061092110684EB8093120618
:1025E00086E18093130688E18093140687E1809347
:1025F000150689E180931606E091D305EC3020F0B2
:102600008FEF8093170610C081E08E0F8093D30563
:10261000E093170685E0E89FF0011124E956FA4F90
:1026200088EB9BE092838183E091D305EC3020F02E
:102630008FEF8093180610C081E08E0F8093D30532
:10264000E093180685E0E89FF0011124E956FA4F5F
:1026500088EB9BE0928381838CE08093E60584E2A3
:102660008093E70586E08093E80585E08093E9059F
:102670008FE18093EA058EE18093EB0583E28093FE
:10268000EC0582E28093ED0585E48093EE0584E419
:102690008093EF0580E48093F2051092F705109285
:1026A000F8051092F9051092FA051092FB051092A8
:1026B000FC051092FD051092FE05E2E2F6E020EE28
:1026C00036E08FEF9FEFDC011282138214821582B5
:1026D000168217821086118683879487A587B6870E
:1026E0008787908BA18BB28B128611821082739692
:1026F0002E173F0749F78DE090E00E947316FC010A
:102700001382128287E392E091838083118687E2AD
:10271000848384E1828784E083871486F0931F0694
:10272000E0931E06109220061092210685E2809307
:10273000C6041092C8041092E0051092DF051092B2
:10274000E2051092E1051092E4051092E30561E0C4
:1027500070E080E090E00E949417009789F09093D9
:10276000E0058093DF051092E2051092E1052091CB
:10277000E3053091E405232BA9F5FC01108232C05A
:102780008091DF059091E005009711F00E940B17F2
:102790001092E0051092DF051092E4051092E30517
:1027A0001092E2051092E10581E08093D405109229
:1027B000D5051092D6051092D7051092D80588EE4F
:1027C00093E0A0E0B0E08093D9059093DA05A09360
:1027D000DB05B093DC0589E294E09093DE058093FD
:1027E000DD0508951092E4051092E30561E472E0BE
:1027F0008091DF059091E0050E948718D5CF0E9457
:10280000411408F481E00895E89409C097FB3EF470
:1028100090958095709561957F4F8F4F9F4F99232D
:10282000A9F0F92F96E9BB279395F69587957795AB
:102830006795B795F111F8CFFAF4BB0F11F460FF6B
:102840001BC06F5F7F4F8F4F9F4F16C0882311F0C3
:1028500096E911C0772321F09EE8872F762F05C0D7
:10286000662371F096E8862F70E060E02AF09A9572
:10287000660F771F881FDAF7880F9695879597F967
:102880000895990F0008550FAA0BE0E8FEEF161601
:102890001706E807F907C0F012161306E407F50754
:1028A00098F0621B730B840B950B39F40A2661F0C8
:1028B000232B242B252B21F408950A2609F4A1406B
:1028C000A6958FEF811D811D08950E9478140C94A8
:1028D000E9140E94DB1438F00E94E21420F09523E2
:1028E00011F00C94D2140C94D81411240C941D15CE
:1028F0000E94FA1470F3959FC1F3950F50E0551F95
:10290000629FF001729FBB27F00DB11D639FAA2744
:10291000F00DB11DAA1F649F6627B00DA11D661F93
:10292000829F2227B00DA11D621F739FB00DA11DB4
:10293000621F839FA00D611D221F749F3327A00D6E
:10294000611D231F849F600D211D822F762F6A2F0A
:1029500011249F5750409AF0F1F088234AF0EE0F6F
:10296000FF1FBB1F661F771F881F91505040A9F79C
:102970009E3F510580F00C94D2140C941D155F3FBE
:10298000E4F3983ED4F3869577956795B795F795D8
:10299000E7959F5FC1F7FE2B880F911D9695879550
:1029A00097F9089597F99F6780E870E060E00895CF
:1029B0009FEF80EC089500240A9416161706180657
:1029C0000906089500240A94121613061406050633
:1029D0000895092E0394000C11F4882352F0BB0FC4
:1029E00040F4BF2B11F460FF04C06F5F7F4F8F4F27
:1029F0009F4F089557FD9058440F551F59F05F3F62
:102A000071F04795880F97FB991F61F09F3F79F010
:102A100087950895121613061406551FF2CF469592
:102A2000F1DF08C0161617061806991FF1CF869514
:102A30007105610508940895E894BB2766277727F8
:102A4000CB0197F90895A1E21A2EAA1BBB1BFD0129
:102A50000DC0AA1FBB1FEE1FFF1FA217B307E4077D
:102A6000F50720F0A21BB30BE40BF50B661F771FD5
:102A7000881F991F1A9469F76095709580959095B5
:102A80009B01AC01BD01CF010895991B79E004C001
:102A9000991F961708F0961B881F7A95C9F780959D
:102AA0000895EE0FFF1F881F8BBF0790F691E02D52
:102AB00019945058BB27AA270E9471150C94E91449
:102AC0000E94DB1438F00E94E21420F039F49F3F9A
:102AD00019F426F40C94D8140EF4E095E7FB0C944A
:102AE000D214E92F0E94FA1458F3BA176207730739
:102AF0008407950720F079F4A6F50C941C150EF4C4
:102B0000E0950B2EBA2FA02D0B01B90190010C01FD
:102B1000CA01A0011124FF27591B99F0593F50F415
:102B2000503E68F11A16F040A22F232F342F44276D
:102B3000585FF3CF469537952795A795F040539565
:102B4000C9F77EF41F16BA0B620B730B840BBAF035
:102B50009150A1F0FF0FBB1F661F771F881FC2F7A0
:102B60000EC0BA0F621F731F841F48F487957795B4
:102B70006795B795F7959E3F08F0B0CF9395880F6E
:102B800008F09927EE0F9795879508950E94DA151A
:102B90000C94E9140E94E21458F00E94DB1440F0F7
:102BA00029F45F3F29F00C94D21451110C941D1597
:102BB0000C94D8140E94FA1468F39923B1F35523A6
:102BC00091F3951B550BBB27AA2762177307840740
:102BD00038F09F5F5F4F220F331F441FAA1FA9F3D6
:102BE00035D00E2E3AF0E0E832D091505040E695C4
:102BF000001CCAF72BD0FE2F29D0660F771F881F25
:102C0000BB1F261737074807AB07B0E809F0BB0B17
:102C1000802DBF01FF2793585F4F3AF09E3F51052B
:102C200078F00C94D2140C941D155F3FE4F3983E99
:102C3000D4F3869577956795B795F7959F5FC9F714
:102C4000880F911D9695879597F90895E1E0660F95
:102C5000771F881FBB1F621773078407BA0720F00E
:102C6000621B730B840BBA0BEE1F88F7E095089577
:102C70000E943F166894B1110C941D1508950E948E
:102C8000021588F09F5798F0B92F9927B751B0F0E7
:102C9000E1F0660F771F881F991F1AF0BA95C9F7E0
:102CA00014C0B13091F00E941C15B1E008950C944D
:102CB0001C15672F782F8827B85F39F0B93FCCF300
:102CC000869577956795B395D9F73EF4909580955D
:102CD000709561957F4F8F4F9F4F08950E944114CB
:102CE00008F48FEF08950F931F93CF93DF938230F3
:102CF000910510F482E090E0E0915207F0915307C3
:102D000020E030E0A0E0B0E0309719F1408151813F
:102D10000281138148175907C8F08417950769F491
:102D2000109731F012960C93129713961C9327C0AC
:102D3000009352071093530722C02115310519F053
:102D40004217530718F49A01BD01EF01DF01F801A2
:102D5000DBCF21153105F9F0281B390B2430310563
:102D600080F48A819B816115710521F0FB019383B9
:102D7000828304C09093530780935207FE013296DA
:102D800044C0FE01E20FF31F819391932250310959
:102D9000398328833AC02091500730915107232B63
:102DA00041F42091030230910402309351072093A3
:102DB000500720910102309102022115310541F4A2
:102DC0002DB73EB74091050250910602241B350BEA
:102DD000E0915007F0915107E217F307A0F42E1B82
:102DE0003F0B2817390778F0AC014E5F5F4F24176F
:102DF000350748F04E0F5F1F50935107409350071F
:102E00008193919302C0E0E0F0E0CF01DF91CF9198
:102E10001F910F910895CF93DF93009709F481C01C
:102E2000FC01329713821282A0915207B09153078E
:102E3000109781F420813181820F931F20915007D8
:102E4000309151072817390751F5F0935107E09356
:102E5000500767C0ED0120E030E0CE17DF0740F4F7
:102E60004A815B819E0141155105F1F0EA01F5CFE0
:102E7000D383C28340815181840F951FC817D9071E
:102E800059F488819981840F951F029691838083DC
:102E90008A819B81938382832115310529F4F093E4
:102EA0005307E09352073DC0E901FB83EA83499150
:102EB0005991C40FD51FEC17FD0761F480819181F2
:102EC000840F951F0296E9019983888382819381FB
:102ED0009B838A83E0E0F0E012968D919C9113979A
:102EE000009719F0FD01DC01F7CF8D919C911197AE
:102EF0009D012E5F3F4F820F931F2091500730910D
:102F000051072817390769F4309729F410925307AD
:102F10001092520702C013821282B0935107A093FD
:102F20005007DF91CF9108956F927F928F929F9279
:102F3000AF92BF92CF92DF92EF92FF920F931F93C7
:102F4000CF93DF93009789F4CB01DF91CF911F914D
:102F50000F91FF90EF90DF90CF90BF90AF909F9038
:102F60008F907F906F900C947316FC01E60FF71F03
:102F70009C0122503109E217F30708F4A9C0EC01C3
:102F8000D9010D911C91119706171707B0F0053064
:102F9000110508F49BC0C80104978617970708F429
:102FA00095C002501109061B170B019311936D93E5
:102FB0007C93CF010E940B1789C05B01A01AB10A54
:102FC0004C01800E911EA0915207B0915307612CC5
:102FD000712CE12CF12C109709F446C08D919C9135
:102FE0001197A815B905B1F56C0142E0C40ED11CCA
:102FF000CA14DB0478F14C018A189B08640142E092
:10300000C40ED11C1296BC9012971396AC91B5E0E9
:10301000CB16D10440F0B282A38391828082D90181
:103020006D937C9309C00E5F1F4F800F911FF901B4
:1030300091838083EB2DFA2FE114F10431F0D70155
:103040001396FC93EE93129741C0F0935307E093CD
:1030500052073CC06816790608F43C017D011296BF
:103060000D90BC91A02DB7CF809150079091510742
:1030700088169906E1F466167706C8F48091010275
:1030800090910202009741F48DB79EB740910502DE
:1030900050910602841B950BE817F907C8F4F093CA
:1030A0005107E0935007F901718360830FC0CB0192
:1030B0000E9473167C01009759F0A801BE010E947E
:1030C0007E18CE010E940B17C70104C0CE0102C0BA
:1030D00080E090E0DF91CF911F910F91FF90EF90F2
:1030E000DF90CF90BF90AF909F908F907F906F9028
:1030F000089581E090E0F8940C948E18FB01DC01B7
:1031000002C001900D9241505040D8F70895FB0144
:10311000DC0101900D920020E1F7089511E0C6E96D
:10312000D1E000E006C0802FFE010E9451152196DB
:10313000011DC739D10780E00807A9F7F894FFCF30
:10314000FF000054078000363738391B1D1A1C0059
:10315000000000E90BBC0B0702900BB40BA00B9115
:103160000B00000000C307480772071008CA01815E
:10317000079507000000000A024807070206020D33
:103180000A0053544F5000496E76616C6964206D9B
:103190006F746F722069642100496E76616C696496
:1031A00020656E636F6465722069642100537461E9
:0431B0007274000035
:00000001FF
