:100000000C94A3010C94D4010C94D4010C94D4014D
:100010000C94D4010C94D4010C94D4010C94D4010C
:100020000C94D4010C94370B0C94370B0C94370BB5
:100030000C94D4010C94A1060C94D4010C94D4011A
:100040000C94D4010C9423090C94D4010C94D40185
:100050000C94D4010C94D4010C94D4010C94570644
:100060000C94D4010C9412080C94E8070C94D4015D
:100070000C94D4010C94D4010C94D4010C94D401AC
:100080000C94D4010C94D4010C94D4010C94D4019C
:100090000C94D4010C94D4010C94D4010C94410B15
:1000A0000C94D4010C94D4010C94D4010C94D4017C
:1000B0000C94D4010C94D4010C94D4010C943C08FD
:1000C0000C94D4010C94D4010C94D4010C94BE076C
:1000D0000C9494070C94D4010C946A070C94400778
:1000E0000C94D401DE04E304E804F204FC04750576
:1000F00006050E05160520052A05340543054D05A0
:100100007505570561056B058E0C910C800C840CF0
:100110008A0CC80C950C990C9F0CA30CA70CAD0C69
:10012000B10CB50CC80CBB0CBF0CC30C0C94DD029D
:100130000C94B10C0C94AD0C0C94010A0C94340585
:100140000C944D050C9420050C94B0030C944B02B8
:100150000C940E050C946B050C9429020C9461050B
:100160000C94250F0C9496020C9454040C943B0AA6
:100170000C9406050C94FD090C94AF030C94C30C6D
:100180000C94F2040C94A70C0C942A050C94BB0C50
:100190000C94D6010C941A020C94950C0C94C80C77
:1001A0000C94910C0C9457050C941C0E0C94750532
:1001B0000C9469040C942D040C948E0C0C94A30CD8
:1001C0000C94E3040C940B0A0C94800C0C948E0D8C
:1001D0000C9411060C9416050C9497050C94FE09CA
:1001E0000C94B50C0C94840C0C94BF0C0C943D0234
:1001F0000C94DE040C949F0C0C945F0F0C94C405BB
:100200000C94FC040C942F030C9452040C9443059E
:100210000C94E8040C948A0C0C94990C0C94040A29
:10022000000020002300260029002C002F003200AF
:100230000001000003010601090102000021002461
:100240000027002A002D00300033000101000004C7
:100250000107010A0100002200250028002B002EC2
:10026000003100340002010000050108010B010506
:10027000050505070508080808020202020A0A081F
:100280000804040404010101010101010103030345
:100290000303030303040707070C0C0C0C0C0C0CE2
:1002A0000C0202020206060606060606060B0B0BE9
:1002B0000B0B0B0B0B010210202008081020401024
:1002C000204080020102010804020101020408101A
:1002D0002040808040201008040201800402018038
:1002E0004020100804020108040201010204081061
:1002F000204080010204081020408000000A0B0208
:10030000090C0D0E080703040100000000000000A6
:1003100000000000000000000000000000000000DD
:10032000000000000000001211100000000000009A
:1003300000000000000000000000000000000000BD
:1003400000005F0F250F11241FBECFEFD1E2DEBFEB
:10035000CDBF00E00CBF12E0A0E0B2E0E0E6FAE2C0
:1003600000E00BBF02C007900D92A837B107D9F784
:1003700027E0A8E7B2E001C01D92AD35B207E1F772
:1003800011E0C2EAD1E000E006C021970109802F08
:10039000FE010E94B012C13AD10780E00807A9F718
:1003A0000E94270E0C941E150C940000CF92DF9231
:1003B000EF92FF920F931F93CF93DF936C017A011B
:1003C0008B01C0E0D0E0CE15DF0589F0D8016D913A
:1003D0008D01D601ED91FC910190F081E02DC601D7
:1003E0001995892B11F47E0102C02196ECCFC7012B
:1003F000DF91CF911F910F91FF90EF90DF90CF9001
:100400000895FC01A089B1898C91A689B78982FDE4
:100410000FC09C91818D8F5F8F73228D821749F061
:10042000218DDF01A20FB11D5D969C93818F0895F0
:100430008C910895FC01538D448D252F30E0842F3D
:1004400090E0821B930B541710F0CF9608950197FC
:100450000895FC01918D828D981761F0828DDF01E6
:10046000A80FB11D5D968C91928D9F5F9F73928FA7
:1004700090E008958FEF9FEF0895FC01918D828D9C
:10048000981731F0828DE80FF11D858D90E0089569
:100490008FEF9FEF0895FC01918D228D892F90E0C1
:1004A000805C9F4F821B91098F739927089589E083
:1004B00093E00E944B0221E0892B09F420E0822F77
:1004C000089586EA93E00E944B0221E0892B09F40B
:1004D00020E0822F089583E494E00E944B0221E003
:1004E000892B09F420E0822F0895FC01848DDF011F
:1004F000A80FB11DA35ABF4F2C91848D90E0019697
:100500008F739927848FA689B7892C93A089B18985
:100510008C9180648C93938D848D981306C002888F
:10052000F389E02D80818F7D80830895EF92FF9283
:100530000F931F93CF93DF93EC0181E0888F9B8D06
:100540008C8D981305C0E889F989808185FD24C0C8
:10055000F62E0B8D10E00F5F1F4F0F731127E02E4B
:100560008C8DE8120CC00FB607FCFACFE889F98928
:10057000808185FFF5CFCE010E947502F1CF8B8D72
:10058000FE01E80FF11DE35AFF4FF0820B8FEA895D
:10059000FB898081806207C0EE89FF896083E889DA
:1005A000F98980818064808381E090E0DF91CF9140
:1005B0001F910F91FF90EF900895CF93DF93EC017F
:1005C000888D8823C9F0EA89FB89808185FD05C073
:1005D000A889B9898C9186FD0FC00FB607FCF5CFAD
:1005E000808185FFF2CFA889B9898C9185FFEDCFF5
:1005F000CE010E947502E7CFDF91CF910895E0E030
:10060000F0E0199480E090E0892B21F00E946B02C9
:10061000811119C080E090E0892B41F080E090E0EA
:10062000892B21F00E940000811110C00E946102FC
:1006300081110FC080E090E0892B81F00E94570269
:1006400081110AC008950E940000E4CF0E940000BA
:10065000EDCF0E94FF02EECF0C9400000895DF92D0
:10066000EF92FF920F931F93CF93DF93CDB7DEB737
:10067000EE970FB6F894DEBF0FBECDBF8C017B01A5
:10068000D42E8FEF840FD801ED91FC91823020F4AD
:100690000480F581E02D05C0411105C00280F38181
:1006A000E02DC8011995D801ED91FC910084F185E8
:1006B000E02D20E041E0B701C8011995B5E0DB1657
:1006C00009F43FC0D801ED91FC910280F381E02D47
:1006D000C8011995B2E0DB1234C0D801ED91FC914C
:1006E0000084F185E02D20E041E0BE016F5F7F4F87
:1006F000C801199540E0D8011C968C91481708F55F
:10070000842F90E0880F991FF701E80FF91F21E06F
:1007100030E02C0F3D1F820F931FD8011E962D91A4
:100720003C911F97DC018D919C91B901681B790B5D
:10073000CB0120813181820F931F918380834F5F92
:10074000DACFEE960FB6F894DEBF0FBECDBFDF91C5
:10075000CF911F910F91FF90EF90DF900895089532
:1007600080E090E00895CF93FC01C48121E02093C4
:10077000D102C09391021092CF021092D0028485D0
:10078000682B8DEF92E00E943B0A8091D00281326B
:1007900008F046C09091D3029111FCCF92E0909363
:1007A000D30291E09093D5029FEF9093D2021092E2
:1007B000F7028093F602AFEAB2E026ED32E0F901EB
:1007C0009E2F921B981718F49D919193F9CF109238
:1007D000F8028091F802CC0FC82BC093F8028091E8
:1007E000D402813061F41092D4028091F802809397
:1007F000BB008091BC0083FDF8CF85EC01C085EE85
:100800008093BC008091D3028230E1F38091D202C8
:100810008F3F31F08091D202803211F08091D2026C
:100820001092CF021092D0021092D102CF9108956F
:100830000F931F93CF938C01C62F64600E94B30364
:100840006C2F6B7FC8010E94B30383EC90E001978B
:10085000F1F7CF911F910F9108950F931F93CF93AD
:10086000DF938C01C62FD62FD07FD1606D2F0E94D1
:10087000B3036D2FC8010E94180480E1C89FB00126
:100880001124C62FC1606C2FC8010E94B3036C2FC6
:10089000C8010E94180481E090E0DF91CF911F9180
:1008A0000F9108950E940915CF93DF93FC01858570
:1008B0008F3F61F0EF0161E00E94F90C61E08D85EE
:1008C0000E94C90C8BE193E00197F1F7DF91CF9182
:1008D0000895CF93DF93FC0185858F3F61F0EF0191
:1008E00061E00E94F90C60E08D850E94C90C8BE1EB
:1008F00093E00197F1F7DF91CF9108958F929F9246
:10090000AF92BF92CF92DF92EF92FF920F931F931D
:10091000CF93DF93EC016A017B0120E030E04FE7E9
:1009200053E4C701B6010E94A8114B015C0120E00D
:1009300030E0A9010E94EE1218161CF4C501B401A2
:1009400003C0C501B40190580E94B8128B0120E089
:1009500030E0A901C701B6010E94EE12181614F486
:1009600060E001C061E089810E94C90C0F3F110560
:1009700009F014F4112702C00FEF10E0C88161E004
:100980008C2F0E94F90C0115110509F4B1C00F3F1D
:10099000110509F4AFC0EC2FF0E0E550FD4FE491F4
:1009A0004E2F50E0FA013197E231F10508F09DC079
:1009B0008827EE58FF4F8F4F0C94B01284B5806893
:1009C00084BD07BDA7C084B5806284BD08BDA2C038
:1009D000809180008068809380001093890000934C
:1009E000880098C08091800080628093800010937E
:1009F0008B0000938A008EC0809180008860809375
:100A0000800010938D0000938C0084C08091B00012
:100A100080688093B0000093B3007CC08091B000E8
:100A200080628093B0000093B40074C08091900005
:100A300080688093900010939900009398006AC09A
:100A40008091900080628093900010939B000093AF
:100A50009A0060C08091900088608093900010930D
:100A60009D0000939C0056C08091A00080688093F8
:100A7000A0008091A0008F7B8093A0001093A9001C
:100A80000093A80047C08091A00080628093A000DE
:100A90001093AB000093AA003DC08091A000886035
:100AA0008093A0001093AD000093AC0033C0809100
:100AB0002001806880932001109329010093280170
:100AC00029C08091200180628093200110932B0126
:100AD00000932A011FC0809120018860809320012B
:100AE00010932D0100932C0115C00038110514F44A
:100AF00060E001C061E08C2FDF91CF911F910F91D9
:100B0000FF90EF90DF90CF90BF90AF909F908F902D
:100B10000C94C90CDF91CF911F910F91FF90EF9032
:100B2000DF90CF90BF90AF909F908F900895CF931C
:100B3000DF938EE30E94350DEC010E94BD0AC1399E
:100B4000D140FCF040E050E0BA0181EF96E00E9415
:100B50007E0440E050E060E070E883EF96E00E94A1
:100B60007E048FE692E00E946A0A84E792E00E9487
:100B70006A0A60E177E280E090E0DF91CF910C9427
:100B8000540DDF91CF910895EF92FF920F931F9331
:100B9000CF93DF931F92CDB7DEB77C018B01FC01B1
:100BA0001382128215821482178216821186108691
:100BB000118A108A403218F08FE1848702C0FC014C
:100BC0004487F70182859385892B11F080E00DC061
:100BD000F701848590E029830E94F312F70193873F
:100BE00082872981892B91F714C0F7019485891791
:100BF00078F4482F50E0F801E40FF51F9081F701D9
:100C000062857385FB01E40FF51F90838F5FEDCF45
:100C100025870F90DF91CF911F910F91FF90EF905B
:100C200008950F931F93CF93DF93EC01122F202F82
:100C3000E881F9813697808191818C0F9D1F0E94F8
:100C4000C4051A83E881F981369780819181C80FA4
:100C5000D91F8FEF93E09F878E87DF91CF911F91F0
:100C60000F9108953FB7F8948091AB029091AC0238
:100C7000A091AD02B091AE0226B5A89B05C02F3F52
:100C800019F00196A11DB11D3FBFBA2FA92F982FB2
:100C90008827820F911DA11DB11DBC01CD0142E02D
:100CA000660F771F881F991F4A95D1F708951F92E5
:100CB0000F920FB60F9211242F933F938F939F9310
:100CC000AF93BF938091F9029091FA02A091FB0239
:100CD000B091FC023091AA0223E0230F2D3720F4BB
:100CE0000196A11DB11D05C026E8230F0296A11D86
:100CF000B11D2093AA028093F9029093FA02A09367
:100D0000FB02B093FC028091AB029091AC02A091E7
:100D1000AD02B091AE020196A11DB11D8093AB0250
:100D20009093AC02A093AD02B093AE02BF91AF918D
:100D30009F918F913F912F910F900FBE0F901F9019
:100D400018951F920F920FB60F9211240BB60F92A7
:100D50002F933F934F935F936F937F938F939F93C3
:100D6000AF93BF93EF93FF93809196029091970278
:100D7000A0919802B0919902892B8A2B8B2B59F163
:100D800080919502E0919302F091940290818927DD
:100D900080838091960290919702A0919802B091E1
:100DA0009902181619061A061B060CF056C08091F7
:100DB000960290919702A0919802B09199020197A2
:100DC000A109B1098093960290939702A09398028B
:100DD000B093990242C080910002EAE3F2E0E4910C
:100DE0009FEF90930002E230C9F050F4EE2399F0A7
:100DF000E13081F590916F009D7F90936F002AC044
:100E0000E43019F1E0F0E53029F5909173009D7F11
:100E1000909373001FC010926E001CC090917000E0
:100E20009D7F9093700091E09093B0009091B100FD
:100E3000987F94609093B1001092B3000BC0909192
:100E400071009D7F9093710005C0909172009D7F0D
:100E50009093720060E00E94C90CFF91EF91BF91E6
:100E6000AF919F918F917F916F915F914F913F9142
:100E70002F910F900BBE0F900FBE0F901F901895E3
:100E80001F920F920FB60F9211240BB60F922F9351
:100E90003F934F935F936F937F938F939F93AF9302
:100EA000BF93EF93FF9389E093E00E947502FF9157
:100EB000EF91BF91AF919F918F917F916F915F91D2
:100EC0004F913F912F910F900BBE0F900FBE0F903F
:100ED0001F9018951F920F920FB60F9211240BB608
:100EE0000F922F933F934F935F936F937F938F93C3
:100EF0009F93AF93BF93EF93FF9389E093E00E949A
:100F00000102FF91EF91BF91AF919F918F917F91DE
:100F10006F915F914F913F912F910F900BBE0F906A
:100F20000FBE0F901F9018951F920F920FB60F9241
:100F300011240BB60F922F933F934F935F936F93B0
:100F40007F938F939F93AF93BF93EF93FF9386EA23
:100F500093E00E947502FF91EF91BF91AF919F9135
:100F60008F917F916F915F914F913F912F910F9052
:100F70000BBE0F900FBE0F901F9018951F920F92EF
:100F80000FB60F9211240BB60F922F933F934F93EE
:100F90005F936F937F938F939F93AF93BF93EF93E1
:100FA000FF9386EA93E00E940102FF91EF91BF91C7
:100FB000AF919F918F917F916F915F914F913F91F1
:100FC0002F910F900BBE0F900FBE0F901F90189592
:100FD0001F920F920FB60F9211240BB60F922F9300
:100FE0003F934F935F936F937F938F939F93AF93B1
:100FF000BF93EF93FF9383E494E00E947502FF9107
:10100000EF91BF91AF919F918F917F916F915F9180
:101010004F913F912F910F900BBE0F900FBE0F90ED
:101020001F9018951F920F920FB60F9211240BB6B6
:101030000F922F933F934F935F936F937F938F9371
:101040009F93AF93BF93EF93FF9383E494E00E9449
:101050000102FF91EF91BF91AF919F918F917F918D
:101060006F915F914F913F912F910F900BBE0F9019
:101070000FBE0F901F9018951F920F920FB60F92F0
:1010800011240BB60F922F933F934F935F936F935F
:101090007F938F939F93AF93BF93CF93DF93EF9300
:1010A000FF932091E10430E0F901E550FD4F849178
:1010B000F901EB54FD4FD491F901E159FD4FC49171
:1010C000CC23A1F081110E94730CEC2FF0E0EE0F05
:1010D000FF1FE05EFD4FA591B491EC91ED2331E04F
:1010E00020E009F430E0832F922F02C080E090E0EE
:1010F0002091E5043091E6042F5F3F4F3093E604E2
:101100002093E5042091E404253618F026E020938E
:10111000E0042091E0042430D9F128F4223069F071
:101120002330D9F060C0253009F453C0263009F0CF
:101130005AC021E02093B10553C0009709F053C075
:101140002091E5043091E6042436310508F443C0CB
:101150001092B1051092E4041DC08130910509F090
:1011600042C0E091E40421E02E0F2093E404F0E07B
:101170002091E5043091E604EE0FFF1FE052FB4F93
:10118000308727831092E6041092E50424E029C0FA
:101190000097B9F4E091E40421E02E0F2093E404D9
:1011A000F0E02091E5043091E604EE0FFF1FE052DD
:1011B000FB4F308727831092E6041092E50423E06A
:1011C00010C02091E5043091E6042536310558F031
:1011D00007C0009741F41092E6041092E50403C0A2
:1011E00025E02093E0042091E3042223B9F0892B29
:1011F00051F48091E204882321F08091E20461E0BF
:1012000009C02F9A0BC08091E204882331F08091AD
:10121000E20460E00E94C90C01C02F98FF91EF9199
:10122000DF91CF91BF91AF919F918F917F916F91FE
:101230005F914F913F912F910F900BBE0F900FBE7A
:101240000F901F9018951F920F920FB60F921124B6
:101250000BB60F922F933F934F935F936F937F93B0
:101260008F939F93AF93BF93EF93FF9380919202DD
:1012700087FF05C0109285001092840016C020914F
:101280009202022E000C330B8091EE0590E028179D
:1012900039075CF43091920225E03203F001112409
:1012A000EE54FA4F808186FD15C0809192028F5FC7
:1012B0008093920220919202022E000C330B8091B7
:1012C000EE0590E02817390794F4809192028C3053
:1012D0002CF10DC0309192023203F0011124EE5432
:1012E000FA4F808160E08F730E94C90CDECF80913D
:1012F00084009091850084349C4918F480E49CE932
:1013000005C0809184009091850004969093890097
:10131000809388008FEF809392022AC040918400CE
:10132000509185003091920225E03203F0011124A2
:10133000EE54FA4F81819281840F951F909389001A
:1013400080938800309192023203F0011124EE5410
:10135000FA4F808186FF0CC0309192023203F00177
:101360001124EE54FA4F808161E08F730E94C90C02
:10137000FF91EF91BF91AF919F918F917F916F916D
:101380005F914F913F912F910F900BBE0F900FBE29
:101390000F901F90189585ED8093BC008091BC0044
:1013A00084FDFCCF1092D302089540913207262F7E
:1013B00030E0240F311D21323105DCF42091D302BD
:1013C0002430C9F4FC0180E090E0861758F4309195
:1013D00032072191DC01A05FB84FA30FB11D2C9300
:1013E0000196F3CF80913207680F6093320780E057
:1013F000089581E0089582E0089508958FEF9FEFAA
:1014000008958FEF9FEF089580910F0790E09195D9
:10141000819591090895CF92DF92EF92FF920F93F9
:101420001F93CF93DF937C01262F972F8A01809102
:10143000D102882391F0C62FD72F6E01C40ED51E7E
:10144000CC15DD0571F06991D701ED91FC9101900A
:10145000F081E02DC7011995F3CF642F822F0E94F0
:10146000D509C801DF91CF911F910F91FF90EF90A7
:10147000DF90CF900895CF93DF931F92CDB7DEB763
:1014800069832091D1022223D1F02091D002203211
:1014900040F021E030E0FC013383228380E090E0E3
:1014A00015C08091CF02E82FF0E0E155FD4F998102
:1014B00090838F5F8093CF028093D00205C061E05C
:1014C000CE0101960E94D50981E090E00F90DF9156
:1014D000CF910895009769F0FC0101900020E9F791
:1014E0003197AF01481B590BBC0183E494E00C9485
:1014F000D60180E090E008958F929F92AF92BF92C4
:101500000F931F93CF93DF93CDB7DEB7A1970FB69D
:10151000F894DEBF0FBECDBF19A2423008F44AE0F6
:101520008E010F5D1F4F842E912CA12CB12CA50193
:1015300094010E946612E62FB901CA0101501109F7
:10154000EA3014F4E05D01C0E95CD801EC93232B90
:10155000242B252B61F7C8010E946A0AA1960FB6B9
:10156000F894DEBF0FBECDBFDF91CF911F910F91D9
:10157000BF90AF909F908F900895CF92DF92EF929F
:10158000FF92CF93DF936C01990FEE08FF08F7FEEF
:101590001AC0E0914304F09144040190F081E02DE1
:1015A0006DE283E494E01995EC0166277727CB017F
:1015B0006C197D098E099F094AE00E947C0A7C0112
:1015C000EC0EFD1E06C04AE0C701B6010E947C0A6F
:1015D0007C0184E792E00E946A0A8E0D9F1DDF91D4
:1015E000CF91FF90EF90DF90CF9008958091EF051D
:1015F0008823E1F12FB7F8948091F9029091FA02D3
:10160000A091FB02B091FC022FBF4091F0055091D8
:10161000F1056091F2057091F305841B950BA60B03
:10162000B70B4091F4055091F5056091F605709166
:10163000F70584179507A607B707C0F02FB7F894EA
:101640008091F9029091FA02A091FB02B091FC0204
:101650002FBF8093F0059093F105A093F205B0930E
:10166000F305E091F805F091F905199408951F929A
:101670000F920FB60F9211240F900FBE0F901F9074
:1016800018951F920F920FB60F9211240BB60F925E
:101690002F933F934F935F936F937F938F939F937A
:1016A000AF93BF93EF93FF938091B900887F80360B
:1016B00009F49CC068F5883209F45BC090F480316D
:1016C00009F454C038F4882309F4F6C0883009F4CA
:1016D0004DC0F6C0883109F44CC0803209F45DC0B9
:1016E000EFC0803409F468C048F4803309F455C071
:1016F000883309F0E5C08093D202D8C0803509F460
:101700004FC0883509F45DC0883409F0D9C0D6C00F
:10171000883909F4C7C0A8F4883709F467C038F4D9
:10172000883609F463C0803709F460C0C9C08838BE
:1017300009F4B8C0803909F45FC0803809F0C0C02E
:101740005BC0803B09F486C038F4803A09F466C077
:10175000883A09F47FC0B4C0803C09F4A7C0883C33
:1017600009F4A4C0883B09F48AC0AAC08091F80299
:1017700010C09091F7028091F602981770F5E091F1
:10178000F70281E08E0F8093F702F0E0EA52FD4FFE
:1017900080818093BB0085EC86C08093D2028EC08E
:1017A000E091F70281E08E0F8093F7028091BB00F9
:1017B000F0E0EA52FD4F80839091F7028091F602AB
:1017C0006EC0E091F70281E08E0F8093F702809166
:1017D000BB00F0E0EA52FD4F80838091D502811179
:1017E0006DC081E08093D40284EA61C083E080937D
:1017F000D30210925607CFCF80915607803208F05F
:1018000051C0E091560781E08E0F8093560780917A
:10181000BB00F0E0EA5CF84F8083BDCF85EC80939D
:10182000BC001092D30280915607803230F4E091D0
:101830005607F0E0EA5CF84F10826091560770E0BE
:10184000E0913407F091350786E397E019951092FF
:10185000560736C084E08093D3021092330710926B
:101860003207E0913007F0913107199580913207E6
:10187000811105C081E08093320710921007E0913A
:10188000330781E08E0F80933307F0E0E05FF84F7D
:1018900080818093BB009091330780913207981725
:1018A00008F479CF85E88093BC000AC085EC80936A
:1018B000BC001092D30204C01092D2020E94CB0945
:1018C000FF91EF91BF91AF919F918F917F916F9118
:1018D0005F914F913F912F910F900BBE0F900FBED4
:1018E0000F901F90189590E0FC013197E231F105BF
:1018F00008F04EC08827EC57FF4F8F4F0C94B01262
:10190000809180008F7703C0809180008F7D8093CD
:101910008000089580918000877FF9CF84B58F770C
:1019200002C084B58F7D84BD08958091B0008F770B
:1019300003C08091B0008F7D8093B00008958091A6
:1019400090008F7707C0809190008F7D03C08091B9
:101950009000877F8093900008958091A0008F77FA
:1019600007C08091A0008F7D03C08091A000877F79
:101970008093A0000895809120018F7707C0809107
:1019800020018F7D03C080912001877F80932001FB
:1019900008951F93CF93DF93282F30E0F901E5508E
:1019A000FD4F8491F901EB54FD4FD491F901E159B8
:1019B000FD4FC491CC23C9F0162F81110E94730CE6
:1019C000EC2FF0E0EE0FFF1FEB5AFD4FA591B49105
:1019D0008FB7F894111105C09C91ED2FE095E92384
:1019E00002C0EC91ED2BEC938FBFDF91CF911F9153
:1019F0000895CF93DF9390E0FC01EB54FD4F2491C9
:101A0000FC01E159FD4F8491882361F190E0880F3A
:101A1000991FFC01E55CFD4FC591D491FC01EB5A87
:101A2000FD4FA591B491611109C09FB7F8948881C9
:101A3000209582238883EC912E230BC0623061F4C1
:101A40009FB7F8943881822F809583238883EC9107
:101A50002E2B2C939FBF06C08FB7F894E8812E2BB6
:101A600028838FBFDF91CF910895863308F0865386
:101A700090917B00282F2870977F922B90937B006A
:101A80008770806480937C0080917A00806480936A
:101A90007A0080917A0086FDFCCF809178002091B9
:101AA000790090E0922B08958F929F92AF92BF920F
:101AB000CF92DF92EF92FF926B017C010E9432067F
:101AC0004B015C01C114D104E104F104F1F00E9466
:101AD0003206DC01CB0188199909AA09BB09883EA5
:101AE0009340A105B10570F321E0C21AD108E108C5
:101AF000F10888EE880E83E0981EA11CB11CC11469
:101B0000D104E104F10419F7DDCFFF90EF90DF90ED
:101B1000CF90BF90AF909F908F900895AF92BF925B
:101B2000CF92DF92EF92FF920F931F93CF93DF93A9
:101B30001F921F92CDB7DEB75C017B01FC01A08133
:101B4000B1811697ED91FC911197E80FF91F8285ED
:101B50009385892B09F463C0822FED91FC91119735
:101B6000EA0DFB1D9485891748F4F701E80FF11D74
:101B7000E80FF11D11821082840FEFCFC12CF50107
:101B80008281C81650F5D22ED501ED91FC91369781
:101B90000190F081E02DEA0DFB1D8485D816D8F464
:101BA0000D2D10E00284F385E02DE00FF11F808100
:101BB0002A8349830E94350D000F111FF701E00FA2
:101BC000F11F60817181860F971F91838083498106
:101BD000D40E2A81D9CFC394D2CF0081118106506F
:101BE0001109D801ED91FC91EA0DFB1D84852817A0
:101BF000B0F4F701E20FF11DE20FF11DD5011296CD
:101C00006C9170E0DB01B595A795808191818A0F79
:101C10009B1F0E94881271836083240FE2CF0F9074
:101C20000F90DF91CF911F910F91FF90EF90DF9078
:101C3000CF90BF90AF900895DC01ED91FC913E975D
:101C40000190F081E02D8E0F9F1F0C948E0D7894E3
:101C500084B5826084BD84B5816084BD85B58260B1
:101C600085BD85B5816085BD80916E008160809362
:101C70006E001092810080918100826080938100CB
:101C800080918100816080938100809180008160DB
:101C9000809380008091B10084608093B100809136
:101CA000B00081608093B000809191008260809349
:101CB00091008091910081608093910080919000CB
:101CC0008160809390008091A10082608093A10048
:101CD0008091A10081608093A1008091A00081602B
:101CE0008093A000809121018260809321018091E6
:101CF0002101816080932101809120018160809386
:101D0000200180917A00846080937A0080917A002B
:101D1000826080937A0080917A00816080937A005B
:101D200080917A00806880937A001092C100E091DF
:101D30005304F091540482E08083E0914F04F091C9
:101D400050041082E0915104F09152048FEC808392
:101D500010925B04E0915704F091580486E0808370
:101D6000E0915504F0915604808180618083E09178
:101D70005504F0915604808188608083E091550479
:101D8000F0915604808180688083E0915504F09141
:101D9000560480818F7D80830E94F60A41E06AE9C3
:101DA00072E08DEF95E00E942F030AE912E0C0E097
:101DB000D0E0C12CD12CE12CF12C0E94F60AF801C4
:101DC00080819181CC59DF4F8D32914040F0D18399
:101DD000C0838FEFE81AF80ACC0EDD1E02C0118214
:101DE00010820E5F1F4F6081718180E090E04AE0B9
:101DF0000E947C0AE0914304F09144040190F08138
:101E0000E02D69E083E494E01995C032B3E0DB078C
:101E1000A1F684E792E00E946A0AE114F10441F01D
:101E2000C601B7010E949C12CB01825C914002C0A6
:101E300080E090E00E94BD0A6AEF70E080E090E0F0
:101E40000E94540D0E940203A7CF87E492E0909372
:101E5000FB058093FA0587E392E09093FE0580935B
:101E6000FD058091070690910806009711F00E94E9
:101E700088138091010690910206009711F00E944C
:101E800088138091050690910606009711F00E9434
:101E900088138091FF0590910006009711F00E9431
:101EA00088138091030690910406009711F00E9418
:101EB000881380910F06909110060C9488130F934D
:101EC000109200031092FF0288EE93E0A0E0B0E0D1
:101ED0008093010390930203A0930303B093040340
:101EE00023E132E03093FE022093FD0210920C03B6
:101EF00010920B0380930D0390930E03A0930F0396
:101F0000B093100325E232E030930A0320930903D3
:101F100045E351E0509316034093150344E351E029
:101F2000509318034093170340E351E050931A0372
:101F30004093190341E351E050931C0340931B036A
:101F400042E351E050931E0340931D0346E351E0EA
:101F50005093200340931F031092220310922303F7
:101F600010922403109225031092A9031092A80343
:101F70008093AA039093AB03A093AC03B093AD03FB
:101F80003093A7032093A60345ED50E05093B3038D
:101F90004093B20344ED50E05093B5034093B40333
:101FA00040ED50E05093B7034093B60341ED50E04D
:101FB0005093B9034093B80342ED50E05093BB03F4
:101FC0004093BA0346ED50E05093BD034093BC03E9
:101FD0001092BF031092C0031092C1031092C2036B
:101FE000109246041092450480934704909348044D
:101FF000A0934904B0934A043093440420934304CB
:1020000085EC90E09093500480934F0484EC90E032
:10201000909352048093510480EC90E09093540488
:102020008093530481EC90E0909356048093550480
:1020300082EC90E0909358048093570486EC90E0F3
:1020400090935A048093590410925C0410925D049A
:1020500010925E0410925F0486E38093F90687E392
:102060008093FA0688E38093FB0689E38093FC065D
:102070008BE18093FD068DE18093FE068AE18093DB
:10208000FF068CE18093000784E08093010787E0DE
:10209000809302071092030784EB8093040786E184
:1020A0008093050788E18093060787E180930707FF
:1020B00089E180930807E091EE05EC3020F08FEF86
:1020C0008093090710C081E08E0F8093EE05E093A6
:1020D000090725E0E29FF0011124EE54FA4F88EB46
:1020E0009BE092838183E091EE05EC3020F08FEF4E
:1020F00080930A0710C081E08E0F8093EE05E09375
:102100000A0785E0E89FF0011124EE54FA4F88EBAE
:102110009BE0928381838CE08093D80684E2809355
:10212000D90686E08093DA0685E08093DB068FE1AE
:102130008093DC068EE18093DD0683E28093DE06E9
:1021400082E28093DF0685E48093E00684E4809356
:10215000E10680E48093E4061092E9061092EA0614
:102160001092EB061092EC061092ED061092EE061D
:102170001092EF061092F006EAE1F6E08FEF9FEF83
:10218000DC01128213821482158216821782108655
:10219000118683879487A587B6878787908BA18BC5
:1021A000B28B128611821082739626E0E83DF20708
:1021B00041F78DE090E00E94F312FC01138212823D
:1021C00087E692E091838083118687E2848384E1AD
:1021D000828784E083871486F0931706E0931606BF
:1021E000109218061092190685E28093E10410926D
:1021F000E3041092100610920F061092120610922D
:102200001106109214061092130661E070E080E04F
:1022100090E00E942014009791F090931006809314
:102220000F0610921206109211062091130630919B
:102230001406232B09F05FC0FC0110825CC0809162
:102240000F0690911006009711F00E9488131092CB
:10225000100610920F061092140610921306109298
:10226000120610921106109200061092FF051092AD
:1022700002061092010610920406109203061092B4
:10228000060610920506109208061092070687E4CB
:1022900092E09093FB058093FA0589E592E0909394
:1022A000FE058093FD0502E024E048E061E072E075
:1022B0008AEF95E00E94110681E08093EF0510926D
:1022C000F0051092F1051092F2051092F30584E1E9
:1022D00095E0A0E0B0E08093F4059093F505A0931D
:1022E000F605B093F70587E995E09093F90580939B
:1022F000F8050F910895109214061092130666E7E0
:1023000072E00E941715AFCF990F0008550FAA0B66
:10231000E0E8FEEF16161706E807F907C0F01216F8
:102320001306E407F50798F0621B730B840B950BFB
:1023300039F40A2661F0232B242B252B21F4089550
:102340000A2609F4A140A6958FEF811D811D0895ED
:102350000E94BB110C942C120E941E1238F00E9495
:10236000251220F0952311F00C9415120C941B12D9
:1023700011240C9460120E943D1270F3959FC1F3DA
:10238000950F50E0551F629FF001729FBB27F00D23
:10239000B11D639FAA27F00DB11DAA1F649F662778
:1023A000B00DA11D661F829F2227B00DA11D621FC7
:1023B000739FB00DA11D621F839FA00D611D221F81
:1023C000749F3327A00D611D231F849F600D211D65
:1023D000822F762F6A2F11249F5750409AF0F1F0E8
:1023E00088234AF0EE0FFF1FBB1F661F771F881F51
:1023F00091505040A9F79E3F510580F00C94151262
:102400000C9460125F3FE4F3983ED4F38695779581
:102410006795B795F795E7959F5FC1F7FE2B880FF6
:10242000911D9695879597F9089597F99F6780E88C
:1024300070E060E008959FEF80EC089500240A9416
:102440001616170618060906089500240A9412168F
:102450001306140605060895092E0394000C11F4C2
:10246000882352F0BB0F40F4BF2B11F460FF04C06F
:102470006F5F7F4F8F4F9F4F089557FD9058440FC8
:10248000551F59F05F3F71F04795880F97FB991FD3
:1024900061F09F3F79F08795089512161306140690
:1024A000551FF2CF4695F1DF08C01616170618061D
:1024B000991FF1CF86957105610508940895E894F8
:1024C000BB2766277727CB0197F90895A1E21A2E3B
:1024D000AA1BBB1BFD010DC0AA1FBB1FEE1FFF1FC8
:1024E000A217B307E407F50720F0A21BB30BE40B18
:1024F000F50B661F771F881F991F1A9469F760955F
:102500007095809590959B01AC01BD01CF01089518
:10251000AA1BBB1B51E107C0AA1FBB1FA617B70709
:1025200010F0A61BB70B881F991F5A95A9F7809525
:102530009095BC01CD01089597FB072E16F40094E9
:1025400007D077FD09D00E94881207FC05D03EF421
:10255000909581959F4F0895709561957F4F08954F
:10256000EE0FFF1F881F8BBF0790F691E02D199487
:102570000E94BF126894B1110C94601208950E94D9
:10258000451288F09F5798F0B92F9927B751B0F0AE
:10259000E1F0660F771F881F991F1AF0BA95C9F7E7
:1025A00014C0B13091F00E945F12B1E008950C9414
:1025B0005F12672F782F8827B85F39F0B93FCCF3C7
:1025C000869577956795B395D9F73EF49095809564
:1025D000709561957F4F8F4F9F4F08950E94841192
:1025E00008F48FEF0895CF93DF938230910510F4B4
:1025F00082E090E0E0915B07F0915C0720E030E042
:10260000C0E0D0E0309711F140815181481759075F
:10261000C0F04817590761F482819381209719F01F
:102620009B838A832BC090935C0780935B0726C0B3
:102630002115310519F04217530718F49A01BE010C
:10264000DF01EF010280F381E02DDCCF21153105A0
:1026500009F1281B390B2430310590F412968D9125
:102660009C9113976115710521F0FB01938382837F
:1026700004C090935C0780935B07FD01329644C0D1
:10268000FD01E20FF31F81939193225031092D93A5
:102690003C933AC02091590730915A07232B41F4BB
:1026A00020910B0230910C0230935A072093590766
:1026B0002091090230910A022115310541F42DB70C
:1026C0003EB740910D0250910E02241B350BE09154
:1026D0005907F0915A07E217F307A0F42E1B3F0B9E
:1026E0002817390778F0AC014E5F5F4F2417350784
:1026F00048F04E0F5F1F50935A074093590781933C
:10270000919302C0E0E0F0E0CF01DF91CF91089516
:102710000F931F93CF93DF93009709F48CC0FC01B4
:1027200032971382128200915B0710915C070115AA
:10273000110581F420813181820F931F2091590767
:1027400030915A072817390779F5F0935A07E09323
:10275000590771C0D80140E050E0AE17BF0750F4F0
:1027600012962D913C911397AD012115310509F178
:10277000D901F3CF9D01DA01338322836081718116
:10278000860F971F8217930769F4EC01288139811E
:10279000260F371F2E5F3F4F318320838A819B8115
:1027A00093838283452B29F4F0935C07E0935B07C6
:1027B00042C01396FC93EE931297ED014991599103
:1027C0009E01240F351FE217F30771F48081918178
:1027D000840F951F029611969C938E93828193810C
:1027E00013969C938E931297E0E0F0E0D801129636
:1027F0008D919C911397009719F0F8018C01F6CFF9
:102800008D919C9198012E5F3F4F820F931F2091D5
:10281000590730915A072817390769F4309729F476
:1028200010925C0710925B0702C013821282109311
:102830005A0700935907DF91CF911F910F91089587
:102840006F927F928F929F92AF92BF92CF92DF92C0
:10285000EF92FF920F931F93CF93DF93EC010097BA
:1028600089F4CB01DF91CF911F910F91FF90EF90F1
:10287000DF90CF90BF90AF909F908F907F906F90A0
:102880000C94F312FC01E60FF71F9C012250310952
:10289000E217F30708F4ACC0D9010D911C91119710
:1028A00006171707B0F00530110508F49FC0C801DE
:1028B00004978617970708F499C002501109061B60
:1028C000170B019311936D937C93CF010E94881392
:1028D0008DC05B01A01AB10A4C01800E911EA0911F
:1028E0005B07B0915C0740E050E0E12CF12C1097C1
:1028F00009F44AC0A815B905D1F56D907C901197DF
:10290000630182E0C80ED11CCA14DB0480F1A3016C
:102910004A195B096A0182E0C80ED11C1296BC906C
:1029200012971396AC91B5E0CB16D10440F0B28269
:10293000A38351834083D9016D937C930AC00E5FBA
:102940001F4FC301800F911FF90191838083EB2DED
:10295000FA2FE114F10431F0D7011396FC93EE93B2
:10296000129744C0F0935C07E0935B073FC08D91E2
:102970009C9111974817590708F4AC017D011296F4
:102980000D90BC91A02DB3CF8091590790915A071B
:1029900088159905E1F446175707C8F48091090294
:1029A00090910A02009741F48DB79EB740910D02B5
:1029B00050910E02841B950BE817F907C8F4F093A9
:1029C0005A07E0935907F901718360830FC0CB0167
:1029D0000E94F3127C01009759F0A801BE010E94E9
:1029E0000E15CE010E948813C70104C0CE0102C09B
:1029F00080E090E0DF91CF911F910F91FF90EF90D9
:102A0000DF90CF90BF90AF909F908F907F906F900E
:102A1000089581E090E0F8940C941E15FB01DC0110
:102A200002C001900D9241505040D8F70895FB012B
:102A3000DC0101900D920020E1F7089511E0C2EA57
:102A4000D1E000E006C0802FFE010E94B012219666
:102A5000011DC33AD10780E00807A9F7F894FFCF1A
:102A6000FF000102030405060700005D07200000C7
:102A70000000003B0A0B0AB003FD09040A010AFE2C
:102A800009000000009602D6011A02DD024B02295D
:102A9000023D02000000002F0369045404C40552E3
:102AA0000403000000000011068E0DFDFF00000071
:102AB0000000000000FDFF00002F0369045404C45F
:102AC000051C0E000000002D04D601B003AF035317
:082AD000544F50000D0A0000F4
:00000001FF
