:100000000C94A5010C94D6010C94D6010C94D60145
:100010000C94D6010C94D6010C94D6010C94D60104
:100020000C94D6010C94FD0A0C94FD0A0C94FD0A64
:100030000C94D6010C942D0E0C94D6010C94D60180
:100040000C94D6010C94C9070C94D6010C94D601DB
:100050000C94D6010C94D6010C94D6010C94E30DAB
:100060000C94D6010C94D1030C941C040C94D6016E
:100070000C94D6010C94D6010C94D6010C94D601A4
:100080000C94D6010C94D6010C94D6010C94D60194
:100090000C94D6010C94D6010C94D6010C94070B49
:1000A0000C94D6010C94D6010C94D6010C94D60174
:1000B0000C94D6010C94D6010C94D6010C94E30454
:1000C0000C94D6010C94D6010C94D6010C944A0FD2
:1000D0000C94200F0C94D6010C94F60E0C94CC0EBC
:1000E0000C94D601010606060B0615061F06980697
:1000F00029063106390643064D0657066606700680
:1001000098067A0684068E06130D160D050D090D48
:100110000F0D4D0D1A0D1E0D240D280D2C0D320D39
:10012000360D3A0D4D0D400D440D480D0C94130D38
:100130000C9429060C9401060C9470060C94440D42
:100140000C9432090C9415060C94740F0C94021044
:100150000C94D0020C94A2080C9498060C94160DE2
:100160000C948E060C94BA060C9484060C94240D00
:100170000C941E0D0C9493030C94E20C0C94E80266
:100180000C9406060C9457090C94FD020C941F065F
:100190000C94CF020C944D0D0C94360D0C94430628
:1001A0000C944D060C944F020C9457060C94E701E6
:1001B0000C9440090C94320D0C94B70C0C941A0D4D
:1001C0000C94090D0C94050D0C94280D0C940B0641
:1001D0000C9447100C94D8010C9466060C94FB0107
:1001E0000C940F0D0C943A0D0C9431090C94480D9D
:1001F0000C944A030C9446040C947A060C94390629
:100200000C944F090C9487090C940D100C942C0D30
:100210000C948D040C94400D0C94D3020C94310674
:100220000C94090200002200250028002B002E005B
:100230003100340002010000050108010B0100003B
:1002400020002300260029002C002F00320000018E
:100250000000030106010901050505050705080859
:100260000808020202020A0A080804040404010140
:100270000101010101010303030303030303040755
:1002800007070C0C0C0C0C0C0C0C020202020606EC
:100290000606060606060B0B0B0B0B0B0B0B0102DF
:1002A0001020200808102040102040800201020188
:1002B0000804020101020408102040808040201040
:1002C0000804020180040201804020100804020199
:1002D0000804020101020408102040800102040801
:1002E0001020408000000A0B02090C0D0E080703C5
:1002F00004010000000000000000000000000000F9
:1003000000000000000000000000000000000000ED
:1003100012111000000000000000000000000000AA
:100320000000000000000000000002000021002486
:100330000027002A002D00300033000101000004D6
:100340000107010A010047100D1011241FBECFEF55
:10035000D1E2DEBFCDBF00E00CBF12E0A0E0B2E012
:10036000EAE1F6E300E00BBF02C007900D92A43A69
:10037000B107D9F727E0A4EAB2E001C01D92A23A82
:10038000B207E1F711E0C4EAD1E000E006C021972E
:100390000109802FFE010E94AE17C33AD10780E009
:1003A0000807A9F70E9488120C94FB1A0C9400000D
:1003B000FC01538D448D252F30E0842F90E0821B6B
:1003C000930B541710F0CF96089501970895FC01F0
:1003D000918D828D981761F0828DDF01A80FB11D7C
:1003E0005D968C91928D9F5F9F73928F90E00895A0
:1003F0008FEF9FEF0895FC01918D828D981731F05A
:10040000828DE80FF11D858D90E008958FEF9FEFAD
:100410000895FC01918D228D892F90E0805C9F4F83
:10042000821B91098F73992708958FE094E00E94B1
:10043000090221E0892B09F420E0822F0895E0E0F1
:10044000F0E0199480E090E0892B21F00E941502E1
:10045000811119C080E090E0892B41F080E090E0AC
:10046000892B21F00E940000811110C00E94EE0C27
:1004700081110FC080E090E0892B81F00E94E40C94
:1004800081110AC008950E940000E4CF0E9400007C
:10049000EDCF0E941F02EECF0C9400000895DF9272
:1004A000EF92FF920F931F93CF93DF93CDB7DEB7F9
:1004B000EE970FB6F894DEBF0FBECDBF8C017B0167
:1004C000D42E8FEF840FD801ED91FC91823020F46F
:1004D0000480F581E02D05C0411105C00280F38143
:1004E000E02DC8011995D801ED91FC910084F185AA
:1004F000E02D20E041E0B701C8011995B5E0DB1619
:1005000009F43FC0D801ED91FC910280F381E02D08
:10051000C8011995B2E0DB1234C0D801ED91FC910D
:100520000084F185E02D20E041E0BE016F5F7F4F48
:10053000C801199540E0D8011C968C91481708F520
:10054000842F90E0880F991FF701E80FF91F21E031
:1005500030E02C0F3D1F820F931FD8011E962D9166
:100560003C911F97DC018D919C91B901681B790B1F
:10057000CB0120813181820F931F918380834F5F54
:10058000DACFEE960FB6F894DEBF0FBECDBFDF9187
:10059000CF911F910F91FF90EF90DF9008950895F4
:1005A00080E090E00895CF93DF93FC0185858F3F35
:1005B00061F0EF0161E00E944E0D61E08D850E94C7
:1005C000620C8BE193E00197F1F7DF91CF910895F1
:1005D000CF93DF93FC0185858F3F61F0EF0161E0F0
:1005E0000E944E0D60E08D850E94620C8BE193E0CD
:1005F0000197F1F7DF91CF910895EF92FF920F935A
:100600001F93CF93DF931F92CDB7DEB77C018B0191
:10061000FC011382128215821482178216821186BF
:100620001086118A108A403218F08FE1848702C048
:10063000FC014487F70182859385892B11F080E0C6
:100640000DC0F701848590E029830E94D018F7013E
:10065000938782872981892B91F714C0F7019485AC
:10066000891778F4482F50E0F801E40FF51F9081C6
:10067000F70162857385FB01E40FF51F90838F5F9F
:10068000EDCF25870F90DF91CF911F910F91FF90B4
:10069000EF9008950F931F93CF93DF93EC01122FE8
:1006A000202FE881F9813697808191818C0F9D1FE1
:1006B0000E94FD021A83E881F98136978081918139
:1006C000C80FD91F8FEF93E09F878E87DF91CF915F
:1006D0001F910F910895FC01248131E03093C502F0
:1006E0002093C7021092C6021092C8028485682B1C
:1006F00089EC92E00E9487090C94590A0F931F938A
:10070000CF938C01C62F64600E946B036C2F6B7FAC
:10071000C8010E946B0383EC90E00197F1F7CF9141
:100720001F910F9108950F931F93CF93DF938C0127
:10073000C62FD62FD07FD1606D2F0E946B036D2FF7
:10074000C8010E947E0380E1C89FB0011124C62F1A
:10075000C1606C2FC8010E946B036C2FC8010E94FE
:100760007E0381E090E0DF91CF911F910F9108957A
:10077000FC01A089B1898C91A689B78982FD0FC03F
:100780009C91818D8F5F8F73228D821749F0218D0F
:10079000DF01A20FB11D5D969C93818F08958C910E
:1007A00008951F920F920FB60F9211240BB60F925D
:1007B0002F933F934F935F936F937F938F939F9369
:1007C000AF93BF93EF93FF938FE094E00E94B80341
:1007D000FF91EF91BF91AF919F918F917F916F9119
:1007E0005F914F913F912F910F900BBE0F900FBED5
:1007F0000F901F901895FC01848DDF01A80FB11D8B
:10080000A35ABF4F2C91848D90E001968F73992746
:10081000848FA689B7892C93A089B1898C91806433
:100820008C93938D848D981306C00288F389E02DF4
:1008300080818F7D808308951F920F920FB60F9253
:1008400011240BB60F922F933F934F935F936F93A7
:100850007F938F939F93AF93BF93EF93FF938FE01B
:1008600094E00E94FB03FF91EF91BF91AF919F91A4
:100870008F917F916F915F914F913F912F910F9049
:100880000BBE0F900FBE0F901F901895EF92FF9226
:100890000F931F93CF93DF93EC0181E0888F9B8DA3
:1008A0008C8D981305C0E889F989808185FD24C065
:1008B000F62E0B8D10E00F5F1F4F0F731127E02EE8
:1008C0008C8DE8120CC00FB607FCFACFE889F989C5
:1008D000808185FFF5CFCE010E94FB03F1CF8B8D88
:1008E000FE01E80FF11DE35AFF4FF0820B8FEA89FA
:1008F000FB898081806207C0EE89FF896083E88977
:10090000F98980818064808381E090E0DF91CF91DC
:100910001F910F91FF90EF900895CF93DF93EC011B
:10092000888D8823C9F0EA89FB89808185FD05C00F
:10093000A889B9898C9186FD0FC00FB607FCF5CF49
:10094000808185FFF2CFA889B9898C9185FFEDCF91
:10095000CE010E94FB03E7CFDF91CF910895FC0108
:100960008081882379F12FB7F89480917307909153
:100970007407A0917507B09176072FBF418152810E
:1009800063817481841B950BA60BB70B458156813F
:100990006781708584179507A607B70798F02FB76A
:1009A000F8948091730790917407A0917507B091A6
:1009B00076072FBF81839283A383B4830184F2855A
:1009C000E02D199408951F920F920FB60F921124E3
:1009D0000BB60F922F933F934F935F936F937F9339
:1009E0008F939F93AF93BF93EF93FF938091AD0449
:1009F0000E94390C2091B1043091B2042F5F3F4F17
:100A00003093B2042093B1049091B004953618F05D
:100A100096E09093AC049091AC049430C9F128F422
:100A2000923069F09330D1F05EC0953009F451C036
:100A3000963009F058C091E090937D0551C0811126
:100A400052C02091B1043091B2042436310508F42B
:100A500042C010927D051092B0041CC0813009F094
:100A600042C0E091B00491E09E0F9093B004F0E09A
:100A70002091B1043091B204EE0FFF1FE455FB4FFB
:100A8000308727831092B2041092B10494E029C0F9
:100A9000811117C0E091B00491E09E0F9093B004D3
:100AA000F0E02091B1043091B204EE0FFF1FE45545
:100AB000FB4F308727831092B2041092B10493E069
:100AC00010C02091B1043091B2042536310558F0A0
:100AD00007C0811108C01092B2041092B10403C083
:100AE00095E09093AC049091AF049923B9F08111F3
:100AF0000AC08091AE04882321F08091AE0461E0A9
:100B000009C02F9A0BC08091AE04882331F08091E8
:100B1000AE0460E00E94620C01C02F98FF91EF913B
:100B2000BF91AF919F918F917F916F915F914F9105
:100B30003F912F910F900BBE0F900FBE0F901F9003
:100B400018958F929F92AF92BF92CF92DF92EF92C1
:100B5000FF920F931F93CF93DF93EC016A017B0108
:100B600020E030E04FE753E4C701B6010E94591678
:100B70004B015C0120E030E0A9010E94CB1818165F
:100B80001CF4C501B40103C0C501B40190580E9412
:100B900095188B0120E030E0A901C701B6010E9441
:100BA000CB18181614F460E001C061E089810E943E
:100BB000620C0F3F110509F014F4112702C00FEF6A
:100BC00010E0C88161E08C2F0E944E0D01151105C7
:100BD00009F4B1C00F3F110509F4AFC0EC2FF0E0EC
:100BE000EC51FD4FE4914E2F50E0FA013197E23184
:100BF000F10508F09DC08827EE58FF4F8F4F0C94E9
:100C0000AE1784B5806884BD07BDA7C084B5806277
:100C100084BD08BDA2C08091800080688093800060
:100C2000109389000093880098C0809180008062B2
:100C30008093800010938B0000938A008EC0809177
:100C4000800088608093800010938D0000938C005A
:100C500084C08091B00080688093B0000093B3009E
:100C60007CC08091B00080628093B0000093B4009B
:100C700074C08091900080688093900010939900D8
:100C8000009398006AC080919000806280939000E9
:100C900010939B0000939A0060C080919000886040
:100CA0008093900010939D0000939C0056C080910B
:100CB000A00080688093A0008091A0008F7B80932B
:100CC000A0001093A9000093A80047C08091A00045
:100CD00080628093A0001093AB000093AA003DC0F7
:100CE0008091A00088608093A0001093AD000093D5
:100CF000AC0033C080912001806880932001109364
:100D000029010093280129C08091200180628093ED
:100D1000200110932B0100932A011FC08091200114
:100D200088608093200110932D0100932C0115C041
:100D30000038110514F460E001C061E08C2FDF91F0
:100D4000CF911F910F91FF90EF90DF90CF90BF90C8
:100D5000AF909F908F900C94620CDF91CF911F9178
:100D60000F91FF90EF90DF90CF90BF90AF909F904A
:100D70008F9008958F929F92AF92BF92CF92DF9201
:100D8000EF92FF920F931F93CF93DF93CDB7DEB710
:100D9000A1970FB6F894DEBF0FBECDBF80E40E94CE
:100DA0008A0D8C016C01990FEE08FF08F7FE2BC02D
:100DB000E0910F04F09110040190F081E02D6DE2BC
:100DC0008FE094E0199522273327A9012C193D09BA
:100DD0004E095F0919A2CE0181967C019AE0892E05
:100DE000912CA12CB12CCA01B901A50194010E943A
:100DF0004917605DF70162937F01211531054105B7
:100E0000510589F71AC0A701960119A2CE01819652
:100E10007C018AE0882E912CA12CB12CCA01B90149
:100E2000A50194010E944917605DF70162937F015B
:100E3000211531054105510589F7C7010E94DE09D9
:100E40008FE692E00E94DE0907381140CCF040E0C6
:100E500050E0BA0188EC96E00E94A10540E050E025
:100E600060E070E88AEC96E00E94A10582E792E0DB
:100E70000E94F00960E177E280E090E00E94A90D15
:100E8000A1960FB6F894DEBF0FBECDBFDF91CF9114
:100E90001F910F91FF90EF90DF90CF90BF90AF9098
:100EA0009F908F900895CF92DF92EF92FF92CF9311
:100EB000DF93FC01C081CC3008F064C0D0E085E055
:100EC0008C9FF0018D9FF00D1124E258FA4F838121
:100ED00028E830E06901C81AD10887FDD394CC0C0A
:100EE000DD1CCC0CDD1C683C71053CF50D2C000CA8
:100EF000EE08FF08848128E532E0281B310987FDD0
:100F00003395220F331F220F331FC901330FAA0B52
:100F1000BB0B9C01AD012C193D094E095F09DB019A
:100F20000E94411724EB30E040E050E00E94171788
:100F3000C20ED31EE41EF51E13C06C157D0584F091
:100F4000848128E532E06901C81AD10887FDD3946D
:100F5000CC0CDD1CCC0CDD1C6C157D050CF46B0180
:100F60008FB7F89495E09C9FF0019D9FF00D1124A0
:100F7000E258FA4F96E0C91AD108CC0CDD1CD28297
:100F8000C1828FBFDF91CF91FF90EF90DF90CF9024
:100F900008951F920F920FB60F9211240BB60F9265
:100FA0002F933F934F935F936F937F938F939F9371
:100FB000AF93BF93EF93FF938091BF0287FF05C06C
:100FC000109285001092840016C02091BF02022E5C
:100FD000000C330B8091BA0590E0281739075CF4B8
:100FE0003091BF0225E03203F0011124E258FA4F9C
:100FF000808186FD15C08091BF028F5F8093BF0204
:101000002091BF02022E000C330B8091BA0590E0B4
:101010002817390794F48091BF028C302CF10DC051
:101020003091BF023203F0011124E258FA4F80815F
:1010300060E08F730E94620CDECF809184009091FB
:10104000850084349C4918F480E49CE905C08091B3
:101050008400909185000496909389008093880085
:101060008FEF8093BF022AC0409184005091850089
:101070003091BF0225E03203F0011124E258FA4F0B
:1010800081819281840F951F9093890080938800BD
:101090003091BF023203F0011124E258FA4F8081EF
:1010A00086FF0CC03091BF023203F0011124E258D8
:1010B000FA4F808161E08F730E94620CFF91EF9183
:1010C000BF91AF919F918F917F916F915F914F9160
:1010D0003F912F910F900BBE0F900FBE0F901F905E
:1010E00018958EBD00000DB407FEFDCF8EB5089596
:1010F000853038F087E792E00E94F00980E090E0C8
:1011000007C09927FC01E053F94F80810E948A0DA6
:10111000BC0180E090E00E94F81520E030E040EA59
:101120005BE30E9459169B01AC0160E070E080E82F
:101130009FE30E94231820E030E040EE51E40E943B
:1011400059160895CF93DF9381E090E00E947808CC
:1011500020E030E040EF51E40E94F31587FF48C0E3
:10116000C091BD02D091BE02C630D105B4F040E0BE
:1011700050E060E07FEB88EC96E00E94A10540E043
:1011800050E060E07FE38AEC96E00E94A10564EF06
:1011900071E080E090E00E94A90D40E050E060E046
:1011A0007FE388EC96E00E94A10540E050E060E01B
:1011B0007FE38AEC96E00E94A10564EF71E080E095
:1011C00090E00E94A90D40E050E0BA0188EC96E062
:1011D0000E94A10540E050E060E070E88AEC96E0F3
:1011E0000E94A1052196D093BE02C093BD0204C007
:1011F0001092BE021092BD02DF91CF91089585ED4D
:101200008093BC008091BC0084FDFCCF1092C4028E
:10121000089540910807262F30E0240F311D213218
:101220003105DCF42091C4022430C9F4FC0180E0D3
:1012300090E0861758F4309108072191DC01AA51FB
:10124000B94FA30FB11D2C930196F3CF80910807DE
:10125000680F6093080780E0089581E0089582E0B8
:101260000895089581E090E03091C1022091C0027C
:10127000321710F480E090E09195819591090895DE
:101280008091C1029091C002891730F48F5F8093E2
:10129000C10280E090E008958FEF9FEF0895809164
:1012A000C00290E02091C102821B91090895CF9263
:1012B000DF92EF92FF920F931F93CF93DF937C0106
:1012C000262F972F8A018091C502882391F0C62F7F
:1012D000D72F6E01C40ED51ECC15DD0571F06991B6
:1012E000D701ED91FC910190F081E02DC701199596
:1012F000F3CF642F822F0E940909C801DF91CF919B
:101300001F910F91FF90EF90DF90CF900895CF93B2
:10131000DF931F92CDB7DEB769832091C5022223E8
:10132000D1F02091C802203240F021E030E0FC01F1
:101330003383228380E090E015C08091C602E82FBD
:10134000F0E0ED5AF84F998190838F5F8093C60249
:101350008093C80205C061E0CE0101960E94090990
:1013600081E090E00F90DF91CF910895EFE0F4E0FD
:10137000A089B18982E08C93A485B5851C92A6854D
:10138000B7858FEC8C93108EA489B58986E08C93F9
:10139000A289B3898C9180618C93A289B3898C9145
:1013A00088608C93A289B3898C9180688C93028821
:1013B000F389E02D80818F7D80830895009769F007
:1013C000FC0101900020E9F73197AF01481B590B50
:1013D000BC018FE094E00C94B70C80E090E008959D
:1013E000CF93DF930E94DE09EC018FE692E00E942A
:1013F000DE098C0F9D1FDF91CF9108951F93CF932E
:10140000DF93EC01162F88818C3008F04DC061E02D
:10141000812F0E944E0DE88195E09E9FF0011124DE
:10142000E258FA4F1F738081807C182B108313823F
:10143000E8819E9FF0011124E258FA4F14828881BE
:101440006CE00E947A179CE0899FA001112420E0A3
:1014500030E095E0B901640F751F969FF001979FEA
:10146000F00D1124E258FA4F608166FD13C02F5F22
:101470003F4F2C30310571F781110CC01092800064
:1014800082E080938100109285001092840086BBD8
:1014900080936F00E88185E0E89FF0011124E25815
:1014A000FA4F8081806480838881DF91CF911F9182
:1014B00008952091C8029091C702213208F04AC0D5
:1014C0008091C4028111FCCF32E03093C40231E03C
:1014D0003093C3023FEF309352071092510720938D
:1014E0005007A3E5B7E040E357E0FA013E2F341B75
:1014F000321718F43D913193F9CF10922F072091B4
:101500002F07990F922B90932F079091C202913041
:1015100061F41092C20290912F079093BB009091BA
:10152000BC0093FDF8CF95EC01C095EE9093BC0004
:101530009091C4029230E1F3909152079F3F79F06D
:1015400080915207803241F080915207803331F010
:1015500084E005C081E003C082E001C083E0109216
:10156000C6021092C8021092C5020895EF92FF922F
:101570001F93CF93DF931F92CDB7DEB7162F9FEA4D
:10158000E92E96E0F92ED7011C969C911C9721E03C
:101590002093C5029093C7021092C6021092C8020F
:1015A0001A960D90BC91A02DED91FC911197019090
:1015B000F081E02D682FCD0179831995F70182859F
:1015C0009385DC01ED91FC910190F081E02D798112
:1015D000672F1995F70182859385DC01ED91FC91C8
:1015E0000190F081E02D612F19950F90DF91CF913F
:1015F0001F91FF90EF900C94590A1F920F920FB613
:101600000F9211240F900FBE0F901F9018951F92EC
:101610000F920FB60F9211240BB60F922F933F9398
:101620004F935F936F937F938F939F93AF93BF93EA
:10163000EF93FF938091B900887F803609F49CC0B6
:1016400068F5883209F45BC090F4803109F454C025
:1016500038F4882309F4F6C0883009F44DC0F6C088
:10166000883109F44CC0803209F45DC0EFC0803489
:1016700009F468C048F4803309F455C0883309F090
:10168000E5C080935207D8C0803509F44FC0883533
:1016900009F45DC0883409F0D9C0D6C0883909F48E
:1016A000C7C0A8F4883709F467C038F4883609F44D
:1016B00063C0803709F460C0C9C0883809F4B8C075
:1016C000803909F45FC0803809F0C0C05BC0803B3E
:1016D00009F486C038F4803A09F466C0883A09F4FF
:1016E0007FC0B4C0803C09F4A7C0883C09F4A4C002
:1016F000883B09F48AC0AAC080912F0710C090913E
:10170000510780915007981770F5E091510781E0DB
:101710008E0F80935107F0E0E05DF84F8081809359
:10172000BB0085EC86C0809352078EC0E0915107C4
:1017300081E08E0F809351078091BB00F0E0E05D67
:10174000F84F808390915107809150076EC0E091CF
:10175000510781E08E0F809351078091BB00F0E02C
:10176000E05DF84F80838091C30281116DC081E0FC
:101770008093C20284EA61C083E08093C402109225
:101780002C07CFCF80912C07803208F051C0E09118
:101790002C0781E08E0F80932C078091BB00F0E036
:1017A000E45FF84F8083BDCF85EC8093BC0010923E
:1017B000C40280912C07803230F4E0912C07F0E0D5
:1017C000E45FF84F108260912C0770E0E0910A0707
:1017D000F0910B078CE097E0199510922C0736C01A
:1017E00084E08093C4021092090710920807E091E8
:1017F0000607F0910707199580910807811105C028
:1018000081E0809308071092E606E091090781E0E5
:101810008E0F80930907F0E0EA51F94F80818093A1
:10182000BB009091090780910807981708F479CFB9
:1018300085E88093BC000AC085EC8093BC001092C0
:10184000C40204C0109252070E94FF08FF91EF915A
:10185000BF91AF919F918F917F916F915F914F91C8
:101860003F912F910F900BBE0F900FBE0F901F90C6
:101870001895CF93DF93282F30E0F901EC51FD4FFD
:101880008491F901E256FD4FD491F901E85AFD4FD8
:10189000C491CC2391F081110E94F80CEC2FF0E060
:1018A000EE0FFF1FE25CFD4FA591B491EC91ED238B
:1018B00081E090E021F480E002C080E090E0DF91E0
:1018C000CF9108951F93CF93DF93282F30E0F90134
:1018D000EC51FD4F8491F901E256FD4FD491F9018D
:1018E000E85AFD4FC491CC23C9F0162F81110E94F4
:1018F000F80CEC2FF0E0EE0FFF1FEC5DFD4FA59113
:10190000B4918FB7F894111105C09C91ED2FE0951B
:10191000E92302C0EC91ED2BEC938FBFDF91CF91C7
:101920001F9108953FB7F89480919A0790919B0773
:10193000A0919C07B0919D0726B5A89B05C02F3F9D
:1019400019F00196A11DB11D3FBFBA2FA92F982FE5
:101950008827820F911DA11DB11DBC01CD0142E060
:10196000660F771F881F991F4A95D1F70895CF9268
:10197000DF92EF92FF920F931F93CF93DF936C014F
:101980007A018B01C0E0D0E0CE15DF0589F0D801E7
:101990006D918D01D601ED91FC910190F081E02DCA
:1019A000C6011995892B11F47E0102C02196ECCF56
:1019B000C701DF91CF911F910F91FF90EF90DF90C2
:1019C000CF9008950E94E61A85ED92E00E940902E8
:1019D00021E0892B09F420E0822F089582E793E02B
:1019E0000E94090221E0892B09F420E0822F08954A
:1019F00090E0FC013197E231F10508F04EC08827F4
:101A0000EC57FF4F8F4F0C94AE17809180008F776B
:101A100003C0809180008F7D809380000895809125
:101A20008000877FF9CF84B58F7702C084B58F7D22
:101A300084BD08958091B0008F7703C08091B0007D
:101A40008F7D8093B0000895809190008F7707C0BC
:101A5000809190008F7D03C080919000877F80935C
:101A6000900008958091A0008F7707C08091A0001A
:101A70008F7D03C08091A000877F8093A000089590
:101A8000809120018F7707C0809120018F7D03C056
:101A900080912001877F809320010895CF93DF9369
:101AA00090E0FC01E256FD4F2491FC01E85AFD4F05
:101AB0008491882361F190E0880F991FFC01E55D16
:101AC000FC4FC591D491FC01EC5DFD4FA591B49103
:101AD000611109C09FB7F89488812095822388837B
:101AE000EC912E230BC0623061F49FB7F8943881DB
:101AF000822F809583238883EC912E2B2C939FBF7C
:101B000006C08FB7F894E8812E2B28838FBFDF9112
:101B1000CF910895863308F0865390917B00282F4B
:101B20002870977F922B90937B00877080648093BE
:101B30007C0080917A00806480937A0080917A00A2
:101B400086FDFCCF809178002091790090E0922B67
:101B500008958F929F92AF92BF92CF92DF92EF92B1
:101B6000FF926B017C010E94920C4B015C01C1143D
:101B7000D104E104F104F1F00E94920CDC01CB01EC
:101B800088199909AA09BB09883E9340A105B105A6
:101B900070F321E0C21AD108E108F10888EE880E3E
:101BA00083E0981EA11CB11CC114D104E104F1040E
:101BB00019F7DDCFFF90EF90DF90CF90BF90AF90FF
:101BC0009F908F9008951F920F920FB60F9211243D
:101BD0002F933F938F939F93AF93BF9380917307FE
:101BE00090917407A0917507B0917607309199078D
:101BF00023E0230F2D3720F40196A11DB11D05C050
:101C000026E8230F0296A11DB11D2093990780930A
:101C1000730790937407A0937507B093760780912C
:101C20009A0790919B07A0919C07B0919D07019600
:101C3000A11DB11D80939A0790939B07A0939C07C9
:101C4000B0939D07BF91AF919F918F913F912F913D
:101C50000F900FBE0F901F9018951F920F920FB606
:101C60000F9211240BB60F922F933F934F935F93D4
:101C70006F937F938F939F93AF93BF93EF93FF9354
:101C800080917A0790917B07A0917C07B0917D07A6
:101C9000892B8A2B8B2B59F180917907E09177075B
:101CA000F091780790818927808380917A079091BD
:101CB0007B07A0917C07B0917D07181619061A06BC
:101CC0001B060CF056C080917A0790917B07A0917B
:101CD0007C07B0917D070197A109B10980937A072C
:101CE00090937B07A0937C07B0937D0742C08091BF
:101CF0000802EAE2F3E0E4919FEF90930802E230F9
:101D0000C9F050F4EE2399F0E13081F590916F0025
:101D10009D7F90936F002AC0E43019F1E0F0E53028
:101D200029F5909173009D7F909373001FC01092CE
:101D30006E001CC0909170009D7F9093700091E0A8
:101D40009093B0009091B100987F94609093B1000F
:101D50001092B3000BC0909171009D7F9093710021
:101D600005C0909172009D7F9093720060E00E9488
:101D7000620CFF91EF91BF91AF919F918F917F91F5
:101D80006F915F914F913F912F910F900BBE0F90EC
:101D90000FBE0F901F9018951F920F920FB60F92C3
:101DA00011240BB60F922F933F934F935F936F9332
:101DB0007F938F939F93AF93BF93EF93FF9385EDA3
:101DC00092E00E94FB03FF91EF91BF91AF919F9131
:101DD0008F917F916F915F914F913F912F910F90D4
:101DE0000BBE0F900FBE0F901F9018951F920F9271
:101DF0000FB60F9211240BB60F922F933F934F9370
:101E00005F936F937F938F939F93AF93BF93EF9362
:101E1000FF9385ED92E00E94B803FF91EF91BF918F
:101E2000AF919F918F917F916F915F914F913F9172
:101E30002F910F900BBE0F900FBE0F901F90189513
:101E40001F920F920FB60F9211240BB60F922F9381
:101E50003F934F935F936F937F938F939F93AF9332
:101E6000BF93EF93FF9382E793E00E94FB03FF9100
:101E7000EF91BF91AF919F918F917F916F915F9102
:101E80004F913F912F910F900BBE0F900FBE0F906F
:101E90001F9018951F920F920FB60F9211240BB638
:101EA0000F922F933F934F935F936F937F938F93F3
:101EB0009F93AF93BF93EF93FF9382E793E00E94CA
:101EC000B803FF91EF91BF91AF919F918F917F9157
:101ED0006F915F914F913F912F910F900BBE0F909B
:101EE0000FBE0F901F901895AF92BF92CF92DF92C6
:101EF000EF92FF920F931F93CF93DF931F921F9246
:101F0000CDB7DEB75C017B01FC01A081B1811697E2
:101F1000ED91FC911197E80FF91F82859385892B2C
:101F200009F463C0822FED91FC911197EA0DFB1D1E
:101F30009485891748F4F701E80FF11DE80FF11DAA
:101F400011821082840FEFCFC12CF5018281C81657
:101F500050F5D22ED501ED91FC9136970190F0818C
:101F6000E02DEA0DFB1D8485D816D8F40D2D10E068
:101F70000284F385E02DE00FF11F80812A834983DD
:101F80000E948A0D000F111FF701E00FF11F608101
:101F90007181860F971F918380834981D40E2A8196
:101FA000D9CFC394D2CF0081118106501109D80135
:101FB000ED91FC91EA0DFB1D84852817B0F4F70123
:101FC000E20FF11DE20FF11DD50112966C9170E048
:101FD000DB01B595A795808191818A0F9B1F0E9497
:101FE000861771836083240FE2CF0F900F90DF91EB
:101FF000CF911F910F91FF90EF90DF90CF90BF9006
:10200000AF900895DC01ED91FC913E970190F08135
:10201000E02D8E0F9F1F0C94740F87E492E0909335
:10202000D2058093D10587E392E09093D505809304
:10203000D4058091DE059091DF05009711F00E9494
:1020400065198091D8059091D905009711F00E94EB
:1020500065198091DC059091DD05009711F00E94D3
:1020600065198091D6059091D705009711F00E94CF
:1020700065198091DA059091DB05009711F00E94B7
:1020800065198091E6059091E7050C9465190F9309
:102090001092CC021092CB0288EE93E0A0E0B0E068
:1020A0008093CD029093CE02A093CF02B093D00242
:1020B00023E132E03093CA022093C9021092D80281
:1020C0001092D7028093D9029093DA02A093DB0298
:1020D000B093DC0225E232E03093D6022093D502A1
:1020E00045E351E05093E2024093E10244E351E0C2
:1020F0005093E4024093E30240E351E05093E60240
:102100004093E50241E351E05093E8024093E70237
:1021100042E351E05093EA024093E90246E351E082
:102120005093EC024093EB021092EE021092EF02F9
:102130001092F0021092F102109275031092740343
:102140008093760390937703A0937803B0937903F9
:10215000309373032093720345ED50E050937F0357
:1021600040937E0344ED50E05093810340938003FD
:1021700040ED50E0509383034093820341ED50E0E3
:10218000509385034093840342ED50E050938703BE
:102190004093860346ED50E05093890340938803B3
:1021A00010928B0310928C0310928D0310928E0369
:1021B000109212041092110480931304909314044B
:1021C000A0931504B09316043093100420930F04C9
:1021D00085EC90E090931C0480931B0484EC90E0C9
:1021E00090931E0480931D0480EC90E09093200453
:1021F00080931F0481EC90E090932204809321044B
:1022000082EC90E0909324048093230486EC90E089
:102210009093260480932504109228041092290498
:1022200010922A0410922B0486E38093D00687E351
:102230008093D10688E38093D20689E38093D30606
:102240008BE18093D4068DE18093D5068AE180935B
:10225000D6068CE18093D70684E08093D80687E089
:102260008093D9061092DA0684EB8093DB0686E130
:102270008093DC0688E18093DD0687E18093DE06AB
:1022800089E18093DF06E091BA05EC3020F08FEF12
:102290008093E00610C081E08E0F8093BA05E09332
:1022A000E00625E0E29FF0011124E258FA4F88EBA6
:1022B0009BE092838183E091BA05EC3020F08FEFB0
:1022C0008093E10610C081E08E0F8093BA05E09301
:1022D000E10685E0E89FF0011124E258FA4F88EB0F
:1022E0009BE0928381838CE08093AF0684E28093AD
:1022F000B00686E08093B10685E08093B2068FE158
:102300008093B3068EE18093B40683E28093B50692
:1023100082E28093B60685E48093B70684E48093D6
:10232000B80680E48093BB061092C0061092C106E6
:102330001092C2061092C3061092C4061092C506EF
:102340001092C6061092C706E1EFF5E08FEF9FEFFF
:10235000DC01128213821482158216821782108683
:10236000118683879487A587B6878787908BA18BF3
:10237000B28B128611821082739626E0EF3AF20732
:1023800041F78DE090E00E94D018FC011382128288
:1023900087E692E091838083118687E2848384E1DB
:1023A000828784E083871486F093EE05E093ED0541
:1023B0001092EF051092F00585E28093AD04109223
:1023C000AF041092E7051092E6051092E90510920D
:1023D000E8051092EB051092EA0561E070E080E0FC
:1023E00090E00E94FD19009791F09093E70580938B
:1023F000E6051092E9051092E8052091EA05309172
:10240000EB05232B09F07BC0FC01108278C0809182
:10241000E6059091E705009711F00E94651910926A
:10242000E7051092E6051092EB051092EA0510926E
:10243000E9051092E8051092D7051092D605109282
:10244000D9051092D8051092DB051092DA0510928A
:10245000DD051092DC051092DF051092DE0587E4A1
:1024600092E09093D2058093D10589E592E0909314
:10247000D5058093D40502E024E048E060E072E0F6
:1024800081ED95E00E944A0381E08093C605109299
:10249000C7051092C8051092C9051092CA0548ECEC
:1024A00050E060E070E04093CB055093CC05609322
:1024B000CD057093CE052AEB36E03093D0052093FE
:1024C000CF058093BB051092BC051092BD051092FC
:1024D000BE051092BF0584E690E0A0E0B0E08093D6
:1024E000C0059093C105A093C205B093C30582EACD
:1024F00098E09093C5058093C4050F9108951092BC
:10250000EB051092EA0561E772E00E94F41A93CF9E
:10251000CF93DF9300D000D0CDB7DEB7789484B5E9
:10252000826084BD84B5816084BD85B5826085BDCF
:1025300085B5816085BD80916E00816080936E005D
:10254000109281008091810082608093810080914F
:102550008100816080938100809180008160809300
:1025600080008091B10084608093B1008091B000C0
:1025700081608093B000809191008260809391008F
:1025800080919100816080939100809190008160A2
:10259000809390008091A10082608093A10080913F
:1025A000A10081608093A1008091A0008160809350
:1025B000A0008091210182608093210180912101FE
:1025C00081608093210180912001816080932001AE
:1025D00080917A00846080937A0080917A00826092
:1025E00080937A0080917A00816080937A00809154
:1025F0007A00806880937A001092C1000E94B60928
:1026000061E08091B0060E944E0D60E08091B006BE
:102610000E94620C60E08091AF060E944E0D89EC32
:1026200092E09093BA068093B9061092C10210927C
:10263000C0021092C6021092C8021092C40281E039
:102640008093C3021092C20261E084E10E94620C96
:1026500061E085E10E94620C8091B9008E7F8093D9
:10266000B9008091B9008D7F8093B90088E4809390
:10267000B80085E48093BC0080E090E1A0E0B0E089
:102680008093BC069093BD06A093BE06B093BF0690
:102690008AE090E0A0E0B0E08093C0069093C1068D
:1026A000A093C206B093C30680E090E0A0E0B0E43F
:1026B0008093C4069093C506A093C606B093C70640
:1026C00060E070E185E00E94B60A6FE979E380E09E
:1026D0000E94B60A8CEC96E09E838D83C12CD12C8F
:1026E000E12CF12CEDE82E2EE2E03E2EF3ED4F2E04
:1026F000F2E05F2EABECAA2EA7E0BA2EBBE88B2E41
:1027000099249394F701E155F94F3F019481828117
:1027100086010155194FF801818F928F61E00E9467
:102720004E0D61E0F801828D0E944E0DF3019085FF
:102730008681ED81FE818083F801968F61E00E94A1
:102740004E0D60E0F801868D0E944E0D61E0ED8136
:10275000FE8180810E94620C1FB7F89480917E07F1
:10276000811125C0F1018491F2019491E82FF0E0EC
:10277000EE0FFF1FE55DFC4FA591B4918C9198235E
:1027800021F461E085E30E94620C61E085E30E9430
:102790004E0D8CB580618CBD8CB580648CBD61E0C4
:1027A00084E30E944E0D61E083E30E944E0D809110
:1027B0007E078F5F80937E071FBFC5010197F1F7EA
:1027C00060E0ED81FE8180810E94620C88E80E94B9
:1027D000710883E00E94710861E0ED81FE818081D3
:1027E0000E94620CC5010197F1F760E0ED81FE8166
:1027F00080810E94620C88E90E94710880E00E943A
:10280000710880E00E94710880E00E94710880E0F9
:102810000E94710861E0ED81FE8180810E94620C5E
:10282000C4010197F1F760E0ED81FE8180810E9493
:10283000620C80EE0E94710861E0ED81FE81808172
:102840000E94620CF2E0CF0ED11C8D819E81029617
:102850009E838D83EA94EF2821F0EE24E394F12CFB
:1028600051CF54EDE52E56E0F52E14E01E0D60E03C
:10287000F70181917F010E944E0D1E11F8CF03EEEA
:1028800016E03EEDC32E36E0D32E42E0F42EFC0CD3
:10289000F6013697608170E0C60102960E94FE093B
:1028A000F60191916F0133978081F8013197808310
:1028B000F801908360E00E944E0D61E0F801808194
:1028C0000E944E0D60E0F80180810E94620C0E5F54
:1028D0001F4FFC10DDCFF8941092200189E0809307
:1028E000210180E293E090932901809328011092C6
:1028F00025011092240182E08093730078948093E4
:10290000AC041092B0048091AD0460E00E944E0DC2
:102910000E94B6096091D80670E080EE96E00E94B1
:10292000FE098091D7060E94390C892B39F46AE0A0
:1029300070E080E090E00E94A90DF3CF68E873E1B9
:1029400080E090E00E94A90D86EC95E00E94AF0423
:102950008BEB95E00E94AF0480E090E00E94780845
:102960006B017C0181E090E00E947808A70196014C
:102970000E94B61720E030E040EF51E40E94CB18EF
:1029800018160CF049C020E030E040E751E4C701E0
:10299000B6010E94F31587FF32C08091DA068338B2
:1029A00020F48091DB06823828F486E892E00E94C9
:1029B000F00906C062E870E080EE96E00E945307DE
:1029C00064E670E080E090E00E94A90D8091DA0654
:1029D0008B3520F48091DB068A3528F486E892E076
:1029E0000E94F00906C06AE570E080EE96E00E9461
:1029F000530764E670E080E090E00E94A90D40E09B
:102A000050E060E07FE388EC96E00E94A10540E0A2
:102A100050E060E07FEBDAC041E069E877E084ED08
:102A200095E00E944F0229E8E22E27E0F22E04E60C
:102A300010E0C12CD12CA12CB12C86EC95E00E9489
:102A4000AF048BEB95E00E94AF04F7018081918188
:102A50008D32914048F0F70111830083FFEFAF1AE8
:102A6000BF0AC00ED11E03C0F70111821082F2E02E
:102A7000EF0EF11C0C591F4F043823E01207E9F642
:102A8000A114B10451F088E0A816B10449F0C601C0
:102A9000B5010E949A177B0106C0E12CF12C03C0FE
:102AA000EE24E394F12C8FE7682E87E0782E8301E3
:102AB00086EC95E00E94AF048BEB95E00E94AF049A
:102AC000F801819191918F0191838083F7E009381A
:102AD0001F0771F7F0928007E0927F07C12CD12C7D
:102AE00076014601570186EC95E00E94AF048BEB1E
:102AF00095E00E94AF04F301819191913F0100970D
:102B0000C1F0BC01990F880B990B0E94FA159B012B
:102B1000AC01C501B4010E94B7174B015C0120E074
:102B200030E040E85FE3C701B6010E94B7176B01D0
:102B30007C01F9E86F16F7E07F06A9F620E030E0A7
:102B4000A901C701B6010E94CB1818164CF4A701C1
:102B50009601C501B4010E9423189B01AC0103C07A
:102B600020E030E0A90180917F0790918007BC01AF
:102B7000990F880B990B29833A834B835C830E94BE
:102B8000FA1529813A814B815C810E94B61720E0B9
:102B900030E04AEF53E40E9423186B017C012DECD6
:102BA0003CEC4CEC5EE30E94B717AB01BC0188EC37
:102BB00096E00E94A105A70196016DEC7CEC8CECDF
:102BC0009EE30E94B617AB01BC0170588AEC96E0F8
:102BD0000E94A10562E370E080E090E00E94A90DF0
:102BE0000E942202B1CE0E94351608F481E00895B9
:102BF000E89409C097FB3EF4909580957095619597
:102C00007F4F8F4F9F4F9923A9F0F92F96E9BB274C
:102C10009395F695879577956795B795F111F8CFC8
:102C2000FAF4BB0F11F460FF1BC06F5F7F4F8F4F33
:102C30009F4F16C0882311F096E911C0772321F029
:102C40009EE8872F762F05C0662371F096E8862FC1
:102C500070E060E02AF09A95660F771F881FDAF718
:102C6000880F9695879597F90895990F0008550F45
:102C7000AA0BE0E8FEEF16161706E807F907C0F002
:102C800012161306E407F50798F0621B730B840B0A
:102C9000950B39F40A2661F0232B242B252B21F4E4
:102CA00008950A2609F4A140A6958FEF811D811D84
:102CB00008950E946C160C94DD160E94CF1638F011
:102CC0000E94D61620F0952311F00C94C6160C9491
:102CD000CC1611240C9411170E94EE1670F3959FD8
:102CE000C1F3950F50E0551F629FF001729FBB2703
:102CF000F00DB11D639FAA27F00DB11DAA1F649F9F
:102D00006627B00DA11D661F829F2227B00DA11D51
:102D1000621F739FB00DA11D621F839FA00D611DD7
:102D2000221F749F3327A00D611D231F849F600DF8
:102D3000211D822F762F6A2F11249F5750409AF021
:102D4000F1F088234AF0EE0FFF1FBB1F661F771FAD
:102D5000881F91505040A9F79E3F510580F00C9478
:102D6000C6160C9411175F3FE4F3983ED4F3869592
:102D700077956795B795F795E7959F5FC1F7FE2B18
:102D8000880F911D9695879597F9089597F99F67F4
:102D900080E870E060E008959FEF80EC08950024E3
:102DA0000A941616170618060906089500240A94B0
:102DB00012161306140605060895092E0394000C36
:102DC00011F4882352F0BB0F40F4BF2B11F460FFC5
:102DD00004C06F5F7F4F8F4F9F4F089557FD9058EE
:102DE000440F551F59F05F3F71F04795880F97FBCF
:102DF000991F61F09F3F79F0879508951216130689
:102E00001406551FF2CF4695F1DF08C016161706B7
:102E10001806991FF1CF86957105610508940895EC
:102E2000E894BB2766277727CB0197F90895052EED
:102E300097FB1EF400940E942E1757FD07D00E94A6
:102E4000491707FC03D04EF40C942E17509540956B
:102E5000309521953F4F4F4F5F4F08959095809546
:102E6000709561957F4F8F4F9F4F08950E946B170C
:102E7000A59F900DB49F900DA49F800D911D1124CE
:102E80000895B7FF0C9436170E943617821B930BD8
:102E90000895A1E21A2EAA1BBB1BFD010DC0AA1F9B
:102EA000BB1FEE1FFF1FA217B307E407F50720F0B3
:102EB000A21BB30BE40BF50B661F771F881F991F2E
:102EC0001A9469F760957095809590959B01AC0177
:102ED000BD01CF010895A29FB001B39FC001A39F80
:102EE000700D811D1124911DB29F700D811D112443
:102EF000911D0895991B79E004C0991F961708F059
:102F0000961B881F7A95C9F780950895AA1BBB1B4D
:102F100051E107C0AA1FBB1FA617B70710F0A61BD9
:102F2000B70B881F991F5A95A9F780959095BC01FA
:102F3000CD01089597FB072E16F4009407D077FD76
:102F400009D00E94861707FC05D03EF49095819524
:102F50009F4F0895709561957F4F0895EE0FFF1F65
:102F6000881F8BBF0790F691E02D19945058BB270E
:102F7000AA270E94CE170C94DD160E94CF1638F0B7
:102F80000E94D61620F039F49F3F19F426F40C94D1
:102F9000CC160EF4E095E7FB0C94C616E92F0E94C0
:102FA000EE1658F3BA17620773078407950720F0E7
:102FB00079F4A6F50C9410170EF4E0950B2EBA2FA9
:102FC000A02D0B01B90190010C01CA01A00111242F
:102FD000FF27591B99F0593F50F4503E68F11A16DB
:102FE000F040A22F232F342F4427585FF3CF46956C
:102FF00037952795A795F0405395C9F77EF41F168E
:10300000BA0B620B730B840BBAF09150A1F0FF0F57
:10301000BB1F661F771F881FC2F70EC0BA0F621F43
:10302000731F841F48F4879577956795B795F79533
:103030009E3F08F0B0CF9395880F08F09927EE0FC8
:103040009795879508950E9437180C94DD160E9475
:10305000D61658F00E94CF1640F029F45F3F29F0B1
:103060000C94C61651110C9411170C94CC160E9496
:10307000EE1668F39923B1F3552391F3951B550B85
:10308000BB27AA2762177307840738F09F5F5F4F3B
:10309000220F331F441FAA1FA9F335D00E2E3AF07A
:1030A000E0E832D091505040E695001CCAF72BD092
:1030B000FE2F29D0660F771F881FBB1F26173707E3
:1030C0004807AB07B0E809F0BB0B802DBF01FF2715
:1030D00093585F4F3AF09E3F510578F00C94C61616
:1030E0000C9411175F3FE4F3983ED4F386957795DF
:1030F0006795B795F7959F5FC9F7880F911D9695CE
:10310000879597F90895E1E0660F771F881FBB1F29
:10311000621773078407BA0720F0621B730B840BD6
:10312000BA0BEE1F88F7E09508950E949C186894EA
:10313000B1110C94111708950E94F61688F09F574C
:1031400098F0B92F9927B751B0F0E1F0660F771FCB
:10315000881F991F1AF0BA95C9F714C0B13091F0C1
:103160000E941017B1E008950C941017672F782F64
:103170008827B85F39F0B93FCCF386957795679586
:10318000B395D9F73EF490958095709561957F4FF2
:103190008F4F9F4F08950E94351608F48FEF0895C2
:1031A000CF93DF938230910510F482E090E0E091BC
:1031B000A007F091A10720E030E0C0E0D0E0309718
:1031C00011F14081518148175907C0F0481759073C
:1031D00061F482819381209719F09B838A832BC0AD
:1031E0009093A1078093A00726C02115310519F0FF
:1031F0004217530718F49A01BE01DF01EF01028064
:10320000F381E02DDCCF2115310509F1281B390BA5
:103210002430310590F412968D919C91139761158D
:10322000710521F0FB019383828304C09093A10771
:103230008093A007FD01329644C0FD01E20FF31F09
:1032400081939193225031092D933C933AC0209160
:103250009E0730919F07232B41F420910B02309160
:103260000C0230939F0720939E0720910902309112
:103270000A022115310541F42DB73EB740910D02E8
:1032800050910E02241B350BE0919E07F0919F0791
:10329000E217F307A0F42E1B3F0B2817390778F02D
:1032A000AC014E5F5F4F2417350748F04E0F5F1F8C
:1032B00050939F0740939E078193919302C0E0E053
:1032C000F0E0CF01DF91CF9108950F931F93CF933B
:1032D000DF93009709F48CC0FC01329713821282AD
:1032E0000091A0071091A1070115110581F420811B
:1032F0003181820F931F20919E0730919F072817DD
:10330000390779F5F0939F07E0939E0771C0D801C4
:1033100040E050E0AE17BF0750F412962D913C915B
:103320001397AD012115310509F1D901F3CF9D01A5
:10333000DA013383228360817181860F971F8217A0
:10334000930769F4EC0128813981260F371F2E5F1E
:103350003F4F318320838A819B8193838283452BD6
:1033600029F4F093A107E093A00742C01396FC93C1
:10337000EE931297ED01499159919E01240F351F4B
:10338000E217F30771F480819181840F951F0296F3
:1033900011969C938E938281938113969C938E9326
:1033A0001297E0E0F0E0D80112968D919C9113976E
:1033B000009719F0F8018C01F6CF8D919C9198013E
:1033C0002E5F3F4F820F931F20919E0730919F07E2
:1033D0002817390769F4309729F41092A107109241
:1033E000A00702C01382128210939F0700939E07CA
:1033F000DF91CF911F910F9108956F927F928F92DD
:103400009F92AF92BF92CF92DF92EF92FF920F9373
:103410001F93CF93DF93EC01009789F4CB01DF91E9
:10342000CF911F910F91FF90EF90DF90CF90BF90C1
:10343000AF909F908F907F906F900C94D018FC016C
:10344000E60FF71F9C0122503109E217F30708F439
:10345000ACC0D9010D911C91119706171707B0F058
:103460000530110508F49FC0C80104978617970717
:1034700008F499C002501109061B170B0193119310
:103480006D937C93CF010E9465198DC05B01A01ADA
:10349000B10A4C01800E911EA091A007B091A10726
:1034A00040E050E0E12CF12C109709F44AC0A81537
:1034B000B905D1F56D907C901197630182E0C80E3B
:1034C000D11CCA14DB0480F1A3014A195B096A010B
:1034D00082E0C80ED11C1296BC9012971396AC9144
:1034E000B5E0CB16D10440F0B282A3835183408370
:1034F000D9016D937C930AC00E5F1F4FC301800FEB
:10350000911FF90191838083EB2DFA2FE114F104CF
:1035100031F0D7011396FC93EE93129744C0F093C9
:10352000A107E093A0073FC08D919C911197481788
:10353000590708F4AC017D0112960D90BC91A02DA5
:10354000B3CF80919E0790919F0788159905E1F46C
:1035500046175707C8F48091090290910A02009714
:1035600041F48DB79EB740910D0250910E02841B1D
:10357000950BE817F907C8F4F0939F07E0939E07AF
:10358000F901718360830FC0CB010E94D0187C01C8
:10359000009759F0A801BE010E94EB1ACE010E94CB
:1035A0006519C70104C0CE0102C080E090E0DF9140
:1035B000CF911F910F91FF90EF90DF90CF90BF9030
:1035C000AF909F908F907F906F90089581E090E0F2
:1035D000F8940C94FB1AFB01DC0102C001900D92DF
:1035E00041505040D8F70895FB01DC0101900D9245
:1035F0000020E1F7089511E0C4EAD1E000E006C040
:10360000802FFE010E94AE172196011DC53AD107F9
:0A36100080E00807A9F7F894FFCF47
:10361A000203040506070809FF0000A207200000AC
:10362A0000000087095709D00231094F09400932C1
:10363A0009000000004604B70CD8018D040902E70E
:10364A0001FB01000000004F02E802D302FD02E282
:10365A000C0300000000004A03740FFDFF00000085
:10366A000000000000FDFF00004F02E802D302FD47
:10367A00020210000000009303B70CD002CF020D23
:10368A000A0053544F5000496E76616C69642049B0
:10369A00522069642100536572766F20616E676CEF
:1036AA0065206973206F7574206F662072616E677A
:0436BA006521000086
:00000001FF
