:100000000C9497010C94C8010C94C8010C94C8017D
:100010000C94C8010C94C8010C94C8010C94C8013C
:100020000C94C8010C949D0B0C949D0B0C949D0B8F
:100030000C94C8010C948C080C94C8010C94C80151
:100040000C94C8010C94CE040C94C8010C94C80103
:100050000C94C8010C94C8010C94C8010C94A70D11
:100060000C94C8010C94FB090C94D1090C94C801A0
:100070000C94C8010C94C8010C94C8010C94C801DC
:100080000C94C8010C94C8010C94C8010C94C801CC
:100090000C94C8010C94C8010C94C8010C94A70BD3
:1000A0000C94C8010C94C8010C94C8010C94C801AC
:1000B0000C94C8010C94C8010C94C8010C94100451
:1000C0000C94C8010C94C8010C94C8010C94A709A5
:1000D0000C947D090C94C8010C9453090C942909C3
:1000E0000C94C8016B02700275027F028902020340
:1000F00093029B02A302AD02B702C102D002DA0250
:100100000203E402EE02F802FC0AFF0AEE0AF20A17
:10011000F80A360B030B070B0D0B110B150B1B0B02
:100120001F0B230B360B290B2D0B310B0C94F80FE7
:100130000C94EE0A0C94E4020C9475020C945A0A86
:100140000C94AD020C9424030C94EE020C94150B49
:100150000C94310B0C94070B0C942D0B0C94F8029F
:100160000C94F80A0C94CA010C940D0B0C94230BFC
:100170000C94360B0C94580A0C94B7020C949B0206
:100180000C9407020C9406020C94DA020C946A0890
:100190000C9402030C94F20A0C9449030C94890207
:1001A0000C94FF0A0C94110B0C94DB070C94850A39
:1001B0000C941B0B0C941F0B0C94CC070C94EF07A6
:1001C0000C94C1020C94B20A0C94FC0A0C946B02BD
:1001D0000C94A3020C947F020C94A2070C94881236
:1001E0000C94030B0C94570A0C94290B0C94930257
:1001F0000C947D0A0C94D0020C94690A0C94590A50
:100200000C9470020C941D080200002100240027A9
:10021000002A002D00300033000101000004010716
:10022000010A0100002200250028002B002E0031C9
:1002300000340002010000050108010B010000204C
:10024000002300260029002C002F003200000100AE
:100250000003010601090105050505070508080851
:1002600008020202020A0A08080404040401010147
:10027000010101010103030303030303030407074F
:10028000070C0C0C0C0C0C0C0C02020202060606ED
:1002900006060606060B0B0B0B0B0B0B0B010210D5
:1002A0002020080810204010204080020102010890
:1002B0000402010102040810204080804020100840
:1002C0000402018004020180402010080402010899
:1002D00004020101020408102040800102040810F9
:1002E00020408000000A0B02090C0D0E08070304D1
:1002F00001000000000000000000000000000000FD
:1003000000000000000000000000000000000012DB
:1003100011100000000000000000000000000000BC
:10032000000000000000000000008812F80F1124F7
:100330001FBECFEFD1E2DEBFCDBF00E00CBF12E0A9
:10034000A0E0B2E0EEE5F2E300E00BBF02C00790F0
:100350000D92A437B107D9F727E0A4E7B2E001C0B6
:100360001D92A435B207E1F711E0C6E9D1E000E043
:1003700006C021970109802FFE010E94E015C539B2
:10038000D10780E00807A9F70E94FE0F0C941D1901
:100390000C940000FC01918D228D892F90E0805CEF
:1003A0009F4F821B91098F7399270895E0E0F0E039
:1003B000199480E090E0892B21F00E9413088111AC
:1003C00019C080E090E0892B41F080E090E0892B1B
:1003D00021F00E940000811110C00E9409088111C3
:1003E0000FC080E090E0892B81F00E94FF0781110F
:1003F0000AC008950E940000E4CF0E940000EDCFE3
:100400000E94D601EECF0C9400000895089580E07C
:1004100090E008958F929F92AF92BF92CF92DF9219
:10042000EF92FF920F931F93CF93DF938C016A019A
:100430007B0120E030E04FE753E4C701B6010E94A2
:10044000F4144B015C0120E030E0A9010E94FD168C
:1004500018161CF4C501B40103C0C501B4019058BD
:100460000E94C716EB0120E030E0A901C701B601E8
:100470000E94FD16181614F460E001C061E0F80156
:1004800081810E94020DCF3FD10509F014F4DD27D0
:1004900002C0CFEFD0E0F801108161E0812F0E940F
:1004A000310D209709F4B1C0CF3FD10509F4AFC099
:1004B000E12FF0E0ED51FD4FE4918E2F90E0FC0133
:1004C0003197E231F10508F09DC08827EE58FF4FC3
:1004D0008F4F0C94E01584B5806884BDC7BDA7C05C
:1004E00084B5806284BDC8BDA2C080918000806850
:1004F00080938000D0938900C093880098C0809139
:100500008000806280938000D0938B00C0938A002B
:100510008EC080918000886080938000D0938D0091
:10052000C0938C0084C08091B00080688093B0003C
:10053000C093B3007CC08091B00080628093B00013
:10054000C093B40074C08091900080688093900044
:10055000D0939900C09398006AC080919000806207
:1005600080939000D0939B00C0939A0060C08091CC
:100570009000886080939000D0939D00C0939C0071
:1005800056C08091A00080688093A0008091A00058
:100590008F7B8093A000D093A900C093A80047C090
:1005A0008091A00080628093A000D093AB00C093A4
:1005B000AA003DC08091A00088608093A000D093E5
:1005C000AD00C093AC0033C080912001806880935F
:1005D0002001D0932901C093280129C080912001D6
:1005E000806280932001D0932B01C0932A011FC009
:1005F00080912001886080932001D0932D01C093C9
:100600002C0115C0C038D10514F460E001C061E0D0
:10061000812FDF91CF911F910F91FF90EF90DF908D
:10062000CF90BF90AF909F908F900C94020DDF9170
:10063000CF911F910F91FF90EF90DF90CF90BF90DF
:10064000AF909F908F9008950F931F93CF93DF9358
:100650008C01C62FD62FD07FD1606D2F0E945C0BEE
:100660006D2FC8010E946F0B80E1C89FB00111245B
:10067000C62FC1606C2FC8010E945C0B6C2FC80193
:100680000E946F0B81E090E0DF91CF911F910F915D
:1006900008958F929F92AF92BF92EF92FF920F9325
:1006A0001F93CF93DF93CDB7DEB7A1970FB6F89422
:1006B000DEBF0FBECDBF80917B00877F80937B0024
:1006C00081E480937C0080917A00806480937A003A
:1006D00080917A0086FDFCCFE090780080917900CF
:1006E000F12CF82A47010F2C000CAA08BB08F7FED2
:1006F00025C06DE289E994E00E941D082227332776
:10070000A901281939094A095B0919A28E010F5D4F
:100710001F4F9AE0892E912CA12CB12CCA01B9014E
:10072000A50194010E94B215605DF80162938F01EA
:10073000211531054105510589F71AC0A50194011C
:1007400019A28E010F5D1F4F8AE0882E912CA12CDB
:10075000B12CCA01B901A50194010E94B215605DD6
:10076000F80162938F01211531054105510589F783
:10077000C8010E94190E8FE392E00E94190EF7E85B
:10078000EF16F1E0FF06CCF040E050E0BA0180E760
:1007900096E00E940A0240E050E060E070E882E7E4
:1007A00096E00E940A0282E492E00E942B0E60E131
:1007B00077E280E090E00E946D0DA1960FB6F8946C
:1007C000DEBF0FBECDBFDF91CF911F910F91FF9084
:1007D000EF90BF90AF909F908F900895FC01848D13
:1007E000DF01A80FB11DA35ABF4F2C91848D90E05B
:1007F00001968F739927848FA689B7892C93A08936
:10080000B1898C91837080648C93938D848D9813BF
:1008100006C00288F389E02D80818F7D8083089552
:100820001F920F920FB60F9211240BB60F922F93B7
:100830003F934F935F936F937F938F939F93AF9368
:10084000BF93EF93FF93809137050E94D90C2091BD
:100850003B0530913C052F5F3F4F30933C05209383
:100860003B0590913A05953618F096E09093360541
:10087000909136059430C9F128F4923069F09330A4
:10088000D1F05EC0953009F451C0963009F058C0DF
:1008900091E09093070651C0811152C020913B0511
:1008A00030913C052436310508F442C01092070609
:1008B00010923A051CC0813009F042C0E0913A051F
:1008C00091E09E0F90933A05F0E020913B05309126
:1008D0003C05EE0FFF1FEA5CFA4F3087278310922A
:1008E0003C0510923B0594E029C0811117C0E091AE
:1008F0003A0591E09E0F90933A05F0E020913B0578
:1009000030913C05EE0FFF1FEA5CFA4F30872783DA
:1009100010923C0510923B0593E010C020913B05DE
:1009200030913C052536310558F007C0811108C0CB
:1009300010923C0510923B0503C095E0909336055C
:10094000909139059923B9F081110AC08091380539
:10095000882321F08091380561E009C02F9A0BC0EF
:1009600080913805882331F08091380560E00E943D
:10097000020D01C02F98FF91EF91BF91AF919F9110
:100980008F917F916F915F914F913F912F910F9038
:100990000BBE0F900FBE0F901F9018951F920F92D5
:1009A0000FB60F9211240BB60F922F933F934F93D4
:1009B0005F936F937F938F939F93AF93BF93EF93C7
:1009C000FF9380918D0287FF05C0109285001092E1
:1009D000840016C020918D02022E000C330B8091F2
:1009E000440690E0281739075CF430918D0225E029
:1009F0003203F0011124E85FF94F808186FD15C0B4
:100A000080918D028F5F80938D0220918D02022E46
:100A1000000C330B8091440690E02817390794F4BA
:100A200080918D028C302CF10DC030918D023203FB
:100A3000F0011124E85FF94F808160E08F730E941C
:100A4000020DDECF809184009091850084349C4912
:100A500018F480E49CE905C08091840090918500A1
:100A6000049690938900809388008FEF80938D0285
:100A70002AC0409184005091850030918D0225E07C
:100A80003203F0011124E85FF94F81819281840FD4
:100A9000951F909389008093880030918D023203D6
:100AA000F0011124E85FF94F808186FF0CC030917E
:100AB0008D023203F0011124E85FF94F808161E07B
:100AC0008F730E94020DFF91EF91BF91AF919F91A3
:100AD0008F917F916F915F914F913F912F910F90E7
:100AE0000BBE0F900FBE0F901F9018958EBD00008B
:100AF0000DB407FEFDCF8EB50895CF93DF93EC01C3
:100B000060E088810E94020D88E90E94760580E0FD
:100B10000E94760580E00E94760580E00E947605BE
:100B200080E00E94760561E088810E94020D8BE8DA
:100B300091E00197F1F760E088810E94020D80EE5C
:100B40000E94760561E08881DF91CF910C94020DBF
:100B5000AF92BF92CF92DF92EF92FF920F931F93CB
:100B6000CF93DF93CDB7DEB760970FB6F894DEBFB3
:100B70000FBECDBF5C0160E0FC0180810E94020DD0
:100B800080E60E9476058E010F5F1F4F7E01F1E126
:100B9000EF0EF11C680180E00E94760590E0A0E075
:100BA000B0E0F60181939193A193B1936F01EE159B
:100BB000FF0589F761E0F50180810E94020D80E068
:100BC00090E0DC01F80141915191619171918F01A7
:100BD000BA2FA92F982F8827840F951FA61FB71FFC
:100BE000EE15FF0579F79C01AD0166277727CB014C
:100BF000621B730B840B950B60960FB6F894DEBFE7
:100C00000FBECDBFDF91CF911F910F91FF90EF905D
:100C1000DF90CF90BF90AF900895823020F087E4AE
:100C200092E00C942B0E813009F4705890E0880FFC
:100C3000991F8059994F0C940A02823040F089E53F
:100C400092E00E942B0E60E070E0CB0108958111CC
:100C50000CC084E796E00E94A80590958095709559
:100C600061957F4F8F4F9F4F089586E796E00C94D4
:100C7000A8054F925F926F927F928F929F92AF9250
:100C8000BF92CF92DF92EF92FF920F931F93CF9379
:100C9000DF93CDB7DEB72A970FB6F894DEBF0FBE4D
:100CA000CDBF162F7A878987092F29013A0180E065
:100CB0000E941D060E94CC0E84E796E00E947D05EE
:100CC00086E796E00E947D05E12CF12C0E94CC0E77
:100CD000B7010F2C000C880B990B0E949514212F43
:100CE0003A854985502F0E94F41420E030E040E21C
:100CF00052E40E9455164B015C01AB01BC0180E738
:100D000096E00E940A02B501A40181E00E940D064E
:100D10006AE070E080E090E00E946D0D8FEFE81ACD
:100D2000F80A89E2E816F10489F620E030E0A9012A
:100D3000612F7A858985902F0E948E1487FD08C0C7
:100D4000C12EDA84E984F02E812C912C54012EC01E
:100D500060E070E0CB01A30192010E94FD1687FFC5
:100D600004C088E2E82EF12C9CC060E570E080E0D1
:100D700090E00E946D0D0E94CC0E80E00E941D0646
:100D80006B017C0181E00E941D06C701B6010E9433
:100D9000951426EC3DE744E75EE30E94F41420E05E
:100DA00030E048E455E40E945516D5CFA3019201E6
:100DB000C501B4010E948E1418169CF20E94CC0E3C
:100DC000412F5A856985702F80E796E00E940A02BC
:100DD000A601B70181E00E940D0660E570E080E0A9
:100DE00090E00E946D0D80E00E941D060E94951407
:100DF0006B017C0186E796E00E94A8050E9495148D
:100E000069837A838B839C8326EC3DE744E75EE32A
:100E1000C701B6010E94F41420E030E048E455E434
:100E20000E9455164B015C012DEC3CEC4CE45FE359
:100E300069817A818B819C810E94F414A7019601BB
:100E40000E94E8152CEA35EC47E257E30E94F414BF
:100E50006D837E838F83988729813A814B815C8162
:100E6000C701B6010E94E8152AE037ED43EA5DE3C9
:100E70000E94551627E137EB41E559E30E94F4142F
:100E80009B01AC016D817E818F8198850E94E9155F
:100E9000212F3A854985502F0E94E9156B017C016D
:100EA00085CFB7010F2C000C880B990B0E9495146D
:100EB000212F3A854985502F0E94F41420E030E01C
:100EC00040E252E40E9455164B015C010E94CC0E98
:100ED000B501A40180E796E00E940A02B501A401D1
:100EE00081E00E940D066AE070E080E090E00E94E0
:100EF0006D0D81E0E81AF108A0F640E050E0BA017B
:100F000080E796E00E940A0240E050E060E070E86E
:100F100082E796E02A960FB6F894DEBF0FBECDBFEB
:100F2000DF91CF911F910F91FF90EF90DF90CF90C5
:100F3000BF90AF909F908F907F906F905F904F90F9
:100F40000C940A02CF92DF92EF92FF920F931F93BD
:100F5000CF93DF936C017A018B01C0E0D0E0CE1516
:100F6000DF0581F0D8016D918D01D601ED91FC91E5
:100F70000190F081E02DC6011995892B11F0219681
:100F8000EECF7E01C701DF91CF911F910F91FF90AE
:100F9000EF90DF90CF900895FC01538D448D252F65
:100FA00030E0842F90E0821B930B541710F0CF9603
:100FB000089501970895FC01918D828D981761F035
:100FC000828DDF01A80FB11D5D968C91928D9F5F80
:100FD0009F73928F90E008958FEF9FEF0895FC012B
:100FE000918D828D981731F0828DE80FF11D858DDE
:100FF00090E008958FEF9FEF08950E9408198FE504
:1010000093E00E94CA0121E0892B09F420E0822F9D
:1010100008958CEF93E00E94CA0121E0892B09F426
:1010200020E0822F089589E994E00E94CA0121E01E
:10103000892B09F420E0822F0895EF92FF920F93FD
:101040001F93CF93DF93EC0181E0888F9B8D8C8D74
:10105000981305C0E889F989808185FD26C0F62EA0
:101060000B8D10E00F5F1F4F0F731127E02E8C8D3B
:10107000E8120CC00FB607FCFACFE889F989808125
:1010800085FFF5CFCE010E94EE03F1CF8B8DFE01DF
:10109000E80FF11DE35AFF4FF0829FB7F8940B8FD2
:1010A000EA89FB89808180620AC09FB7F894EE8943
:1010B000FF896083E889F9898081837080648083F7
:1010C0009FBF81E090E0DF91CF911F910F91FF9042
:1010D000EF900895CF93DF93EC01888D8823C9F0BA
:1010E000EA89FB89808185FD05C0A889B9898C9131
:1010F00086FD0FC00FB607FCF5CF808185FFF2CFCC
:10110000A889B9898C9185FFEDCFCE010E94EE03AD
:10111000E7CFDF91CF9108951F920F920FB60F92F4
:1011200011240BB60F922F933F934F935F936F93BE
:101130007F938F939F93AF93BF93EF93FF93809190
:101140008F0290919002A0919102B0919202892B0E
:101150008A2B8B2B49F190918E0280910000892778
:101160008093000080918F0290919002A091910253
:10117000B0919202181619061A061B060CF056C0FA
:1011800080918F0290919002A0919102B091920271
:101190000197A109B10980938F0290939002A093C7
:1011A0009102B093920242C080910002E8E0F2E026
:1011B000E4919FEF90930002E230C9F050F4EE23E7
:1011C00099F0E13081F590916F009D7F90936F00D1
:1011D0002AC0E43019F1E0F0E53029F59091730070
:1011E0009D7F909373001FC010926E001CC0909161
:1011F00070009D7F9093700091E09093B00090916B
:10120000B100987F94609093B1001092B3000BC02E
:10121000909171009D7F9093710005C09091720034
:101220009D7F9093720060E00E94020DFF91EF910C
:10123000BF91AF919F918F917F916F915F914F91EE
:101240003F912F910F900BBE0F900FBE0F901F90EC
:1012500018951F920F920FB60F9211240BB60F9292
:101260002F933F934F935F936F937F938F939F93AE
:10127000AF93BF93EF93FF938FE593E00E94EE034C
:10128000FF91EF91BF91AF919F918F917F916F915E
:101290005F914F913F912F910F900BBE0F900FBE1A
:1012A0000F901F9018951F920F920FB60F92112456
:1012B0000BB60F922F933F934F935F936F937F9350
:1012C0008F939F93AF93BF93EF93FF938FE593E03B
:1012D0000E94840BFF91EF91BF91AF919F918F91ED
:1012E0007F916F915F914F913F912F910F900BBE26
:1012F0000F900FBE0F901F9018951F920F920FB670
:101300000F9211240BB60F922F933F934F935F933D
:101310006F937F938F939F93AF93BF93EF93FF93BD
:101320008CEF93E00E94EE03FF91EF91BF91AF919C
:101330009F918F917F916F915F914F913F912F91ED
:101340000F900BBE0F900FBE0F901F9018951F921D
:101350000F920FB60F9211240BB60F922F933F935B
:101360004F935F936F937F938F939F93AF93BF93AD
:10137000EF93FF938CEF93E00E94840BFF91EF912A
:10138000BF91AF919F918F917F916F915F914F919D
:101390003F912F910F900BBE0F900FBE0F901F909B
:1013A00018951F920F920FB60F9211240BB60F9241
:1013B0002F933F934F935F936F937F938F939F935D
:1013C000AF93BF93EF93FF9389E994E00E94EE03FC
:1013D000FF91EF91BF91AF919F918F917F916F910D
:1013E0005F914F913F912F910F900BBE0F900FBEC9
:1013F0000F901F9018951F920F920FB60F92112405
:101400000BB60F922F933F934F935F936F937F93FE
:101410008F939F93AF93BF93EF93FF9389E994E0EA
:101420000E94840BFF91EF91BF91AF919F918F919B
:101430007F916F915F914F913F912F910F900BBED4
:101440000F900FBE0F901F90189585ED8093BC00F4
:101450008091BC0084FDFCCF10922E030895409132
:10146000DF02262F30E0240F311D21323105DCF45C
:1014700020912E032430C9F4FC0180E090E086170F
:1014800058F43091DF022191DC01A154BD4FA30F2C
:10149000B11D2C930196F3CF8091DF02680F60930A
:1014A000DF0280E0089581E0089582E008950895C4
:1014B00008950895E091950280919402E81730F420
:1014C000F0E0E156FD4F808190E008958FEF9FEFAF
:1014D00008959091950280919402981750F4E92F05
:1014E000F0E0E156FD4F208130E09F5F9093950240
:1014F00002C02FEF3FEFC90108958091940290E060
:1015000020919502821B91090895CF92DF92EF926C
:10151000FF920F931F93CF93DF937C01CB018A013E
:1015200020912F03222389F0EB016B01C40ED51EFD
:10153000CC15DD0569F06991D701ED91FC91019021
:10154000F081E02DC7011995F3CF642F0E942F0A77
:10155000C801DF91CF911F910F91FF90EF90DF9025
:10156000CF900895CF93DF931F92CDB7DEB76983F5
:1015700020912F032223D1F020915203203240F0FA
:1015800021E030E0FC013383228380E090E015C04D
:1015900080913003E82FF0E0EF5CFC4F998190835D
:1015A0008F5F809330038093520305C061E0CE01CA
:1015B00001960E942F0A81E090E00F90DF91CF9179
:1015C000089590E0FC013197E231F10508F04EC03A
:1015D0008827EC57FF4F8F4F0C94E01580918000C7
:1015E0008F7703C0809180008F7D80938000089565
:1015F00080918000877FF9CF84B58F7702C084B552
:101600008F7D84BD08958091B0008F7703C0809155
:10161000B0008F7D8093B0000895809190008F7707
:1016200007C0809190008F7D03C080919000877FDC
:101630008093900008958091A0008F7707C08091DB
:10164000A0008F7D03C08091A000877F8093A000C1
:101650000895809120018F7707C0809120018F7DB0
:1016600003C080912001877F8093200108953FB7B8
:10167000F89480919B0290919C02A0919D02B09160
:101680009E0226B5A89B05C02F3F19F00196A11D0B
:10169000B11D3FBFBA2FA92F982F8827820F911D08
:1016A000A11DB11DBC01CD0142E0660F771F881F4F
:1016B000991F4A95D1F70895FC01248131E03093B8
:1016C0002F0320935103109230031092520384850C
:1016D000682B83E593E00E94B20A0C94390E0F93B5
:1016E0001F93CF938C01C62F64600E945C0B6C2FFC
:1016F0006B7FC8010E945C0B83EC90E00197F1F7CF
:10170000CF911F910F910895FC01A089B1898C910F
:10171000A689B78982FD0FC09C91818D8F5F8F73E1
:10172000228D821749F0218DDF01A20FB11D5D9638
:101730009C93818F08958C9108951F920F920FB6FC
:101740000F9211240F900FBE0F901F9018951F92AB
:101750000F920FB60F9211240BB60F922F933F9357
:101760004F935F936F937F938F939F93AF93BF93A9
:10177000EF93FF938091B900887F803609F49CC075
:1017800068F5883209F45BC090F4803109F454C0E4
:1017900038F4882309F4F6C0883009F44DC0F6C047
:1017A000883109F44CC0803209F45DC0EFC0803448
:1017B00009F468C048F4803309F455C0883309F04F
:1017C000E5C080932C03D8C0803509F44FC088351C
:1017D00009F45DC0883409F0D9C0D6C0883909F44D
:1017E000C7C0A8F4883709F467C038F4883609F40C
:1017F00063C0803709F460C0C9C0883809F4B8C034
:10180000803909F45FC0803809F0C0C05BC0803BFC
:1018100009F486C038F4803A09F466C0883A09F4BD
:101820007FC0B4C0803C09F4A7C0883C09F4A4C0C0
:10183000883B09F48AC0AAC08091090310C0909126
:101840002B0380912A03981770F5E0912B0381E018
:101850008E0F80932B03F0E0E65FFC4F8081809336
:10186000BB0085EC86C080932C038EC0E0912B03D7
:1018700081E08E0F80932B038091BB00F0E0E65F48
:10188000FC4F808390912B0380912A036EC0E091DE
:101890002B0381E08E0F80932B038091BB00F0E03F
:1018A000E65FFC4F808380912D0381116DC081E044
:1018B0008093080384EA61C083E080932E03109232
:1018C0000103CFCF80910103803208F051C0E09135
:1018D000010381E08E0F809301038091BB00F0E053
:1018E000EF51FD4F8083BDCF85EC8093BC001092FB
:1018F0002E0380910103803230F4E0910103F0E087
:10190000EF51FD4F10826091010370E0E091980269
:10191000F091990281EE92E019951092010336C080
:1019200084E080932E031092E0021092DF02E09197
:101930009602F091970219958091DF02811105C0FE
:1019400081E08093DF021092BF02E091E00281E02B
:101950008E0F8093E002F0E0E154FD4F8081809390
:10196000BB009091E0028091DF02981708F479CFD4
:1019700085E88093BC000AC085EC8093BC0010927F
:101980002E0304C010922C030E94250AFF91EF91B0
:10199000BF91AF919F918F917F916F915F914F9187
:1019A0003F912F910F900BBE0F900FBE0F901F9085
:1019B0001895CF93DF93282F30E0F901ED51FD4FBB
:1019C0008491F901E356FD4FD491F901E95AFD4F95
:1019D000C491CC2391F081110E94E10AEC2FF0E038
:1019E000EE0FFF1FE35CFD4FA591B491EC91ED2349
:1019F00081E090E021F480E002C080E090E0DF919F
:101A0000CF9108951F93CF93DF93282F30E0F901F2
:101A1000ED51FD4F8491F901E356FD4FD491F90149
:101A2000E95AFD4FC491CC23C1F0162F81110E94B9
:101A3000E10AEC2FF0E0EE0FFF1FED5DFD4FA591E9
:101A4000B4919FB7F894111104C08C91D095D8230C
:101A500002C0EC91DE2BDC939FBFDF91CF911F91F1
:101A60000895CF93DF9390E0FC01E356FD4F24915E
:101A7000FC01E95AFD4F8491882361F190E0880FC1
:101A8000991FFC01E75FFD4FC591D491FC01ED5D0D
:101A9000FD4FA591B491611109C09FB7F894888159
:101AA000209582238883EC912E230BC0623061F451
:101AB0009FB7F8948881322F309583238883EC91E7
:101AC0002E2B2C939FBF06C08FB7F894E8812E2B46
:101AD00028838FBFDF91CF9108958F929F92AF920D
:101AE000BF92CF92DF92EF92FF926B017C010E9436
:101AF000370B4B015C01C114D104E104F104F1F096
:101B00000E94370BDC01CB0188199909AA09BB098E
:101B1000883E9340A105B10570F321E0C21AD108B7
:101B2000E108F10888EE880E83E0981EA11CB11C24
:101B3000C114D104E104F10419F7DDCFFF90EF9057
:101B4000DF90CF90BF90AF909F908F9008951F929D
:101B50000F920FB60F9211242F933F938F939F9361
:101B6000AF93BF938091040390910503A091060366
:101B7000B091070330919A0223E0230F2D3720F410
:101B80000196A11DB11D05C026E8230F0296A11DD7
:101B9000B11D20939A028093040390930503A093B0
:101BA0000603B093070380919B0290919C02A09141
:101BB0009D02B0919E020196A11DB11D80939B02D2
:101BC00090939C02A0939D02B0939E02BF91AF910F
:101BD0009F918F913F912F910F900FBE0F901F906B
:101BE0001895E9E9F4E0A089B18982E08C93A48595
:101BF000B5851C92A685B7858FEC8C93108EA48931
:101C0000B58986E08C93A289B3898C9180618C938D
:101C1000A289B3898C9188608C93A289B3898C91B5
:101C200080688C930288F389E02D80818F7D80838A
:101C30000895009769F0FC0101900020E9F73197C1
:101C4000AF01481B590BBC0189E994E00C94A20731
:101C500080E090E00895CF93DF930E94190EEC018D
:101C60008FE392E00E94190E8C0F9D1FDF91CF91A0
:101C7000089530915203313208F04BC080912E0309
:101C80008111FCCF9091510322E020932E0321E09B
:101C900020932D032FEF20932C0310922B033093CE
:101CA0002A03E1E3F3E0AAE0B3E020E0321721F0F9
:101CB00041914D932F5FFACF1092090320910903B0
:101CC000990F922B9093090390910803913061F43E
:101CD00010920803909109039093BB009091BC006F
:101CE00093FDF8CF95EC01C095EE9093BC009091D8
:101CF0002E039230E1F390912C039F3F79F0809175
:101D00002C03803241F080912C03803331F084E049
:101D100005C081E003C082E001C083E0109230037F
:101D20001092520310922F0308950F931F93CF9395
:101D3000DF93162F072FC7E5D6E09C8521E020937F
:101D40002F03909351031092300310925203AA85EF
:101D5000BB85ED91FC9111970190F081E02D682FEA
:101D6000CD0119958A859B85DC01ED91FC9101904F
:101D7000F081E02D602F19958A859B85DC01ED911E
:101D8000FC910190F081E02D612F1995DF91CF91A9
:101D90001F910F910C94390E809145068823E1F133
:101DA0002FB7F8948091040390910503A091060346
:101DB000B09107032FBF40914606509147066091AE
:101DC000480670914906841B950BA60BB70B4091F2
:101DD0004A0650914B0660914C0670914D0684174F
:101DE0009507A607B707C0F02FB7F89480910403B2
:101DF00090910503A0910603B09107032FBF809334
:101E0000460690934706A0934806B0934906E09192
:101E10004E06F0914F06199408954F925F926F927B
:101E20007F928F929F92AF92BF92CF92DF92EF926A
:101E3000FF92CF93DF93CDB7DEB72A970FB6F89412
:101E4000DEBF0FBECDBF6B017C0184E796E00E9430
:101E50007D0586E796E00E947D0528ED37EC48E792
:101E60005CE3C701B6010E94F4142B013C012CE88D
:101E700037ED47E95CE3C701B6010E94F4144B015A
:101E80005C012DEC3CEC4CEC5EE3C301B2010E9422
:101E9000F414A50194010E9455166D837E838F83EF
:101EA000988720E030E0A901C701B6010E948E1496
:101EB00087FF04C081E089871A8603C0198681E004
:101EC0008A874DEC5CEC6CEC7EE389850E940D0604
:101ED0004D815E816F8178858A850E940D0620E0A4
:101EE00030E048E455E4C301B2010E94F41420E05C
:101EF00030E040E850E40E94F4140E94C7169B01B1
:101F000077FF04C022273327261B370BB901330F75
:101F1000880B990B0E9495146B017C0120E030E046
:101F200048E455E4C501B4010E94F41420E030E017
:101F300040E850E40E94F4140E94C7169B0177FF0A
:101F400004C022273327261B370BB901330F880B18
:101F5000990B0E9495144B015C0129813A814B81B8
:101F60005C81C501B4010E94FD16181664F56AE093
:101F700070E080E090E00E946D0D0E94CC0E89859B
:101F80000E941D062B013C018A850E941D060E94AD
:101F900095149B01AC01C701B6010E948E1418165E
:101FA0004CF4C301B2010E94951469837A838B8338
:101FB0009C83D3CF20E030E040E85FE3C501B4016B
:101FC0000E94E915F2CF2A960FB6F894DEBF0FBE35
:101FD000CDBFDF91CF91FF90EF90DF90CF90BF907A
:101FE000AF909F908F907F906F905F904F900895EB
:101FF00080915006909151060C949A17789484B56C
:10200000826084BD84B5816084BD85B5826085BDF4
:1020100085B5816085BD80916E00816080936E0082
:102020001092810080918100826080938100809174
:102030008100816080938100809180008160809325
:1020400080008091B10084608093B1008091B000E5
:1020500081608093B00080919100826080939100B4
:1020600080919100816080939100809190008160C7
:10207000809390008091A10082608093A100809164
:10208000A10081608093A1008091A0008160809375
:10209000A000809121018260809321018091210123
:1020A00081608093210180912001816080932001D3
:1020B00080917A00846080937A0080917A008260B7
:1020C00080937A0080917A00816080937A00809179
:1020D0007A00806880937A001092C1000E94F10D0E
:1020E00061E0809158060E94310D60E080915806B1
:1020F0000E94020D60E0809157060E94310D83E539
:1021000093E090936206809361061092950210927C
:102110009402109230031092520310922E0381E029
:1021200080932D031092080361E084E10E94020D68
:1021300061E085E10E94020D8091B9008E7F80935D
:10214000B9008091B9008D7F8093B90088E48093B5
:10215000B80085E48093BC0087E59AE090939702ED
:102160008093960288E59AE0909399028093980272
:1021700080E090E1A0E0B0E0809364069093650673
:10218000A0936606B09367068AE090E0A0E0B0E016
:102190008093680690936906A0936A06B0936B06D5
:1021A00080E090E0A0E0B0E480936C0690936D0630
:1021B000A0936E06B0936F0660E070E185E00E9428
:1021C000950E6FE979E380E00E94950EC7E5D6E0B1
:1021D0008E0152E0752E6CE8A62E62E0B62E72EDEE
:1021E000872E72E0972EEBECEE2EE7E0FE2EF80144
:1021F00094818281898F9A8F61E00E94310D61E024
:102200008A8D0E94310DF801908586816E01FDE175
:10221000CF0ED11C8D8F9E8F61E00E94310D60E04A
:102220008E8D0E94310D61E08D8D0E94020D6FB682
:10223000F89480919302811126C0F5018491F401F4
:102240002491E82FF0E0EE0FFF1FE75FFD4FA5910F
:10225000B4919C91822F892321F461E085E30E944F
:10226000020D61E085E30E94310D8CB580618CBD6B
:102270008CB580648CBD61E084E30E94310D61E027
:1022800083E30E94310D809193028F5F80939302CC
:102290006FBEC7010197F1F760E08D8D0E94020DBE
:1022A00088E80E94760583E00E94760561E08D8DC6
:1022B0000E94020DC7010197F1F7C6010E947D053A
:1022C0007A940F5F1F4F2296711091CF0CE716E0A2
:1022D000C0E8D6E060E0F80181918F010E94310DE5
:1022E000C017D107B9F708E716E082E8E82E86E0C4
:1022F000F82E95E0D92E2CE0B22E32E0C32EA99014
:102300008F818C3008F044C061E08A2D0E94310D2D
:102310008F81D89EF0011124E85FF94F9A2D9F73A9
:102320002081207CA22EA92AA082138214826B2DE8
:102330000E94D415FCE08F9FA001112420E030E022
:10234000BA01620F731FD69EF001D79EF00D1124C3
:10235000E85FF94F908196FD12C02F5F3F4F2C3000
:10236000310571F781110BC010928000C09281007D
:102370001092850010928400C6BAC0926F00EF815F
:10238000DE9EF0011124E85FF94F80818064808334
:102390009D818B81F801828B938B60E00E94310DCF
:1023A00061E0F80183890E94310D60E0F8018389C2
:1023B0000E94020D0E5F1F4FEC16FD0609F09FCF25
:1023C000F8941092200189E08093210180E293E04B
:1023D00090932901809328011092250110922401E5
:1023E00082E08093730078948093360510923A05CA
:1023F0008091370560E00E94310D8DE692E00E94E9
:102400002B0E80917F060E94D90C892B49F46AE03B
:1024100070E080E090E00E946D0D0E94CC0EF1CF44
:1024200068E873E180E090E00E946D0D0E94F10D7C
:102430008FB7F8948090040390900503A090060352
:10244000B09007038FBF8FB7F894C0900403D0906B
:102450000503E0900603F09007038FBFC818D90862
:10246000EA08FB0828EB3EE145E85EE360E070E047
:1024700080E09FE30E94390668EE73E080E090E020
:102480000E946D0D0E94CC0E28EB3EE145E85EEB0C
:1024900060E070E080E09FEB0E94390668EE73E038
:1024A00080E090E00E946D0DF1EECF16FEE2DF06B7
:1024B000E104F10440F22DEC3CEC4CE45DE360E01F
:1024C00070E080E09FE30E94390660E070E084EBFA
:1024D00092EC0E940D0F60E070E084EB92EC0E94A1
:1024E0000D0F60E070E084EB92EC0E940D0F60E055
:1024F00070E080EA92EC0E940D0F0E94CC0E62E325
:1025000070E080E090E00E946D0D0E94D90190CFB4
:10251000109256031092550388EE93E0A0E0B0E0CD
:102520008093570390935803A0935903B0935A0391
:1025300023E132E03093540320935303109262035B
:10254000109261038093630390936403A0936503E7
:10255000B093660325E232E03093600320935F037B
:1025600045E351E050936C0340936B0344E351E027
:1025700050936E0340936D0340E351E0509370031A
:1025800040936F0341E351E0509372034093710312
:1025900042E351E0509374034093730346E351E0E8
:1025A0005093760340937503109278031092790349
:1025B00010927A0310927B031092FF031092FE0395
:1025C0008093000490930104A0930204B093030449
:1025D0003093FD032093FC0345ED50E05093090434
:1025E0004093080444ED50E050930B0440930A04D8
:1025F00040ED50E050930D0440930C0441ED50E049
:1026000050930F0440930E0442ED50E05093110498
:102610004093100446ED50E050931304409312048D
:1026200010921504109216041092170410921804B8
:1026300010929C0410929B0480939D0490939E049E
:10264000A0939F04B093A00430939A04209399041C
:1026500085EC90E09093A6048093A50484EC90E030
:102660009093A8048093A70480EC90E09093AA0430
:102670008093A90481EC90E09093AC048093AB0428
:1026800082EC90E09093AE048093AD0486EC90E0F1
:102690009093B0048093AF041092B2041092B304EC
:1026A0001092B4041092B504809107029091080230
:1026B000A0910902B0910A0280937806909379065E
:1026C000A0937A06B0937B0680910B0290910C0246
:1026D000A0910D02B0910E0280937C0690937D062E
:1026E000A0937E06B0937F0684E08093800687E007
:1026F000809381061092820684EB8093830686E1A4
:102700008093840688E18093850687E1809386061E
:1027100089E180938706E0914406EC3020F08FEF4A
:102720008093880610C081E08E0F80934406E0936A
:10273000880685E0E89FF0011124E85FF94F88EBF7
:102740009BE092838183E0914406EC3020F08FEF90
:102750008093890610C081E08E0F80934406E09339
:10276000890685E0E89FF0011124E85FF94F88EBC6
:102770009BE0928381838CE08093570684E2809370
:10278000580686E08093590685E080935A068FE1CB
:1027900080935B068EE180935C0683E280935D0606
:1027A00082E280935E0685E480935F0684E48093F2
:1027B000600680E4809363061092680610926906B2
:1027C00010926A0610926B0610926C0610926D06BB
:1027D00010926E0610926F06E2E9F6E020E537E00F
:1027E0008FEF9FEFDC011282138214821582168212
:1027F00017821086118683879487A587B687878777
:10280000908BA18BB28B12861182108273962E1739
:102810003F0749F78DE090E00E940217FC01138208
:10282000128287E392E091838083118687E284831A
:1028300084E1828784E083871486F0938F06E09397
:102840008E06109290061092910685E280933705CD
:1028500010923905109251061092500610925306AC
:1028600010925206109255061092540661E070E0E4
:1028700080E090E00E942318009789F09093510621
:1028800080935006109253061092520620915406DF
:1028900030915506232BA9F5FC01108232C080919E
:1028A000500690915106009711F00E949A171092CD
:1028B000510610925006109255061092540610922E
:1028C00053061092520681E0809345061092460608
:1028D00010924706109248061092490688EE93E03F
:1028E000A0E0B0E080934A0690934B06A0934C067C
:1028F000B0934D0689E493E090934F0680934E0683
:102900000895109255061092540661E472E0809189
:102910005006909151060E941619D5CF0E94D014EE
:1029200008F481E00895E89409C097FB3EF490957F
:102930008095709561957F4F8F4F9F4F9923A9F098
:10294000F92F96E9BB279395F69587957795679527
:10295000B795F111F8CFFAF4BB0F11F460FF1BC06B
:102960006F5F7F4F8F4F9F4F16C0882311F096E9FE
:1029700011C0772321F09EE8872F762F05C06623AC
:1029800071F096E8862F70E060E02AF09A95660F65
:10299000771F881FDAF7880F9695879597F908951E
:1029A000990F0008550FAA0BE0E8FEEF1616170660
:1029B000E807F907C0F012161306E407F50798F0C8
:1029C000621B730B840B950B39F40A2661F0232BE1
:1029D000242B252B21F408950A2609F4A140A6955D
:1029E0008FEF811D811D08950E9407150C947815A5
:1029F0000E946A1538F00E94711520F0952311F09D
:102A00000C9461150C94671511240C94AC150E945C
:102A1000891570F3959FC1F3950F50E0551F629F84
:102A2000F001729FBB27F00DB11D639FAA27F00D27
:102A3000B11DAA1F649F6627B00DA11D661F829F4E
:102A40002227B00DA11D621F739FB00DA11D621F33
:102A5000839FA00D611D221F749F3327A00D611D50
:102A6000231F849F600D211D822F762F6A2F112432
:102A70009F5750409AF0F1F088234AF0EE0FFF1F65
:102A8000BB1F661F771F881F91505040A9F79E3FBC
:102A9000510580F00C9461150C94AC155F3FE4F384
:102AA000983ED4F3869577956795B795F795E79512
:102AB0009F5FC1F7FE2B880F911D9695879597F91B
:102AC000089597F99F6780E870E060E008959FEFB0
:102AD00080EC089500240A941616170618060906B5
:102AE000089500240A941216130614060506089584
:102AF000092E0394000C11F4882352F0BB0F40F40C
:102B0000BF2B11F460FF04C06F5F7F4F8F4F9F4F4B
:102B1000089557FD9058440F551F59F05F3F71F0CD
:102B20004795880F97FB991F61F09F3F79F0879534
:102B30000895121613061406551FF2CF4695F1DFBD
:102B400008C0161617061806991FF1CF869571054D
:102B5000610508940895E894BB2766277727CB0181
:102B600097F90895A1E21A2EAA1BBB1BFD010DC007
:102B7000AA1FBB1FEE1FFF1FA217B307E407F5072D
:102B800020F0A21BB30BE40BF50B661F771F881F09
:102B9000991F1A9469F760957095809590959B019F
:102BA000AC01BD01CF010895991B79E004C0991FC4
:102BB000961708F0961B881F7A95C9F78095089597
:102BC000EE0FFF1F881F8BBF0790F691E02D199421
:102BD0005058BB27AA270E9400160C9478150E9413
:102BE0006A1538F00E94711520F039F49F3F19F4EE
:102BF00026F40C9467150EF4E095E7FB0C94611530
:102C0000E92F0E94891558F3BA17620773078407E2
:102C1000950720F079F4A6F50C94AB150EF4E09529
:102C20000B2EBA2FA02D0B01B90190010C01CA0186
:102C3000A0011124FF27591B99F0593F50F4503E31
:102C400068F11A16F040A22F232F342F4427585F23
:102C5000F3CF469537952795A795F0405395C9F73B
:102C60007EF41F16BA0B620B730B840BBAF09150F3
:102C7000A1F0FF0FBB1F661F771F881FC2F70EC092
:102C8000BA0F621F731F841F48F487957795679565
:102C9000B795F7959E3F08F0B0CF9395880F08F051
:102CA0009927EE0F9795879508950E9469160C94C1
:102CB00078150E94711558F00E946A1540F029F4A9
:102CC0005F3F29F00C94611551110C94AC150C94D4
:102CD00067150E94891568F39923B1F3552391F381
:102CE000951B550BBB27AA2762177307840738F07B
:102CF0009F5F5F4F220F331F441FAA1FA9F335D0D8
:102D00000E2E3AF0E0E832D091505040E695001C8B
:102D1000CAF72BD0FE2F29D0660F771F881FBB1F45
:102D2000261737074807AB07B0E809F0BB0B802D23
:102D3000BF01FF2793585F4F3AF09E3F510578F04F
:102D40000C9461150C94AC155F3FE4F3983ED4F3FA
:102D5000869577956795B795F7959F5FC9F7880F23
:102D6000911D9695879597F90895E1E0660F771F75
:102D7000881FBB1F621773078407BA0720F0621B06
:102D8000730B840BBA0BEE1F88F7E09508950E9431
:102D9000CE166894B1110C94AC1508950E9491154B
:102DA00088F09F5798F0B92F9927B751B0F0E1F00C
:102DB000660F771F881F991F1AF0BA95C9F714C0BC
:102DC000B13091F00E94AB15B1E008950C94AB15B1
:102DD000672F782F8827B85F39F0B93FCCF38695F5
:102DE00077956795B395D9F73EF490958095709552
:102DF00061957F4F8F4F9F4F08950E94D01408F424
:102E00008FEF08950F931F93CF93DF938230910537
:102E100010F482E090E0E0915207F091530720E037
:102E200030E0A0E0B0E0309719F14081518102819B
:102E3000138148175907C8F08417950769F410974C
:102E400031F012960C93129713961C9327C000939F
:102E500052071093530722C02115310519F042176C
:102E6000530718F49A01BD01EF01DF01F801DBCF30
:102E700021153105F9F0281B390B2430310580F478
:102E80008A819B816115710521F0FB019383828307
:102E900004C09093530780935207FE01329644C0BA
:102EA000FE01E20FF31F8193919322503109398380
:102EB00028833AC02091500730915107232B41F4C9
:102EC0002091030230910402309351072093500760
:102ED00020910102309102022115310541F42DB7F4
:102EE0003EB74091050250910602241B350BE0913C
:102EF0005007F0915107E217F307A0F42E1B3F0B88
:102F00002817390778F0AC014E5F5F4F241735075B
:102F100048F04E0F5F1F5093510740935007819325
:102F2000919302C0E0E0F0E0CF01DF91CF911F91DB
:102F30000F910895CF93DF93009709F481C0FC01AE
:102F4000329713821282A0915207B09153071097C3
:102F500081F420813181820F931F2091500730919D
:102F600051072817390751F5F0935107E09350079F
:102F700067C0ED0120E030E0CE17DF0740F44A8162
:102F80005B819E0141155105F1F0EA01F5CFD38334
:102F9000C28340815181840F951FC817D90759F406
:102FA00088819981840F951F0296918380838A81FD
:102FB0009B81938382832115310529F4F093530774
:102FC000E09352073DC0E901FB83EA83499159919F
:102FD000C40FD51FEC17FD0761F480819181840F28
:102FE000951F0296E90199838883828193819B834F
:102FF0008A83E0E0F0E012968D919C911397009700
:1030000019F0FD01DC01F7CF8D919C9111979D0185
:103010002E5F3F4F820F931F209150073091510731
:103020002817390769F4309729F410925307109242
:10303000520702C013821282B0935107A093500727
:10304000DF91CF9108956F927F928F929F92AF926E
:10305000BF92CF92DF92EF92FF920F931F93CF9385
:10306000DF93009789F4CB01DF91CF911F910F91EE
:10307000FF90EF90DF90CF90BF90AF909F908F9098
:103080007F906F900C940217FC01E60FF71F9C01D4
:1030900022503109E217F30708F4A9C0EC01D90165
:1030A0000D911C91119706171707B0F00530110507
:1030B00008F49BC0C80104978617970708F495C0C9
:1030C00002501109061B170B019311936D937C930A
:1030D000CF010E949A1789C05B01A01AB10A4C0166
:1030E000800E911EA0915207B0915307612C712C54
:1030F000E12CF12C109709F446C08D919C91119709
:10310000A815B905B1F56C0142E0C40ED11CCA1472
:10311000DB0478F14C018A189B08640142E0C40E7C
:10312000D11C1296BC9012971396AC91B5E0CB16B9
:10313000D10440F0B282A38391828082D9016D9341
:103140007C9309C00E5F1F4F800F911FF90191837F
:103150008083EB2DFA2FE114F10431F0D70113969F
:10316000FC93EE93129741C0F0935307E0935207FC
:103170003CC06816790608F43C017D0112960D905A
:10318000BC91A02DB7CF8091500790915107881620
:103190009906E1F466167706C8F4809101029091D1
:1031A0000202009741F48DB79EB7409105025091FD
:1031B0000602841B950BE817F907C8F4F093510732
:1031C000E0935007F901718360830FC0CB010E9427
:1031D00002177C01009759F0A801BE010E940D1949
:1031E000CE010E949A17C70104C0CE0102C080E040
:1031F00090E0DF91CF911F910F91FF90EF90DF90C2
:10320000CF90BF90AF909F908F907F906F900895D8
:1032100081E090E0F8940C941D19FB01DC0102C0E0
:1032200001900D9241505040D8F70895FB01DC0108
:1032300001900D920020E1F7089511E0C6E9D1E078
:1032400000E006C0802FFE010E94E0152196011DBE
:0E325000C739D10780E00807A9F7F894FFCF2F
:10325E00FF000054078000363738391B1D1A1C003A
:10326E00000000B20A850A0702590A7D0A690A5A45
:10327E000A000000001D08A207CC076A08CA01DB7D
:10328E0007EF07000000002403A207070206020D45
:10329E000A0053544F5000496E76616C6964206D7C
:1032AE006F746F722069642100496E76616C696477
:1032BE0020656E636F6465722069642100537461CA
:0432CE007274000016
:00000001FF
