:100000000C946F010C94A0010C94A0010C94A0011D
:100010000C94A0010C94A0010C94A0010C94A001DC
:100020000C94A0010C9478090C9478090C9478092C
:100030000C94A0010C9496040C94A0010C94A001C3
:100040000C94A0010C940E070C94A0010C94A00138
:100050000C94A0010C94A0010C94A0010C944C04ED
:100060000C94A0010C9405060C94DB050C94A001E3
:100070000C94A0010C94A0010C94A0010C94A0017C
:100080000C94A0010C94A0010C94A0010C94A0016C
:100090000C94A0010C94A0010C94A0010C94820972
:1000A0000C94A0010C94A0010C94A0010C94A0014C
:1000B0000C94A0010C94A0010C94A0010C942F06A8
:1000C0000C94A0010C94A0010C94A0010C94B10517
:1000D0000C9487050C94A0010C945D050C943305D9
:1000E0000C94A001CB0ACE0ABD0AC10AC70A050BAF
:1000F000D20AD60ADC0AE00AE40AEA0AEE0AF20A9E
:10010000050BF80AFC0A000B0C94D20A0C94CE0AD8
:100110000C94050B0C94C70A0C9449020C94EF073D
:100120000C94CB0A0C94FD010C94EF010C94F80A8A
:100130000C94C10A0C94E8070C9423080C94BD0A93
:100140000C94EA0A0C9466030C94E8020C94A20145
:100150000C94730D0C946A030C94E40A0C94000B39
:100160000C94C4030C94DB010C9467030C94DC0A1C
:100170000C9406040C94C7030C94390D0C94FA0BE0
:100180000C94FC0A0C94EC070C94CC010C94F6072C
:100190000C94E00A0C94F20A0C946C030C94EE0A92
:1001A0000C9498030C94E9070C94790B0C94D60AE0
:1001B0000C9427040C9496020000200023002600D3
:1001C00029002C002F00320000010000030106016D
:1001D000090100002100240027002A002D00300022
:1001E000330001010000040107010A01020000229E
:1001F00000250028002B002E0031003400020100F1
:1002000000050108010B010505050507050808089B
:1002100008020202020A0A08080404040401010197
:10022000010101010103030303030303030407079F
:10023000070C0C0C0C0C0C0C0C020202020606063D
:1002400006060606060B0B0B0B0B0B0B0B01021025
:1002500020200808102040102040800201020108E0
:100260000402010102040810204080804020100890
:1002700004020180040201804020100804020108E9
:100280000402010102040810204080010204081049
:1002900020408000000A0B02090C0D0E0807030421
:1002A000010000000000000000000000000000004D
:1002B000000000000000000000000000000000122C
:1002C000111000000000000000000000000000000D
:1002D00000000000000000000000730D390D112423
:1002E0001FBECFEFD1E2DEBFCDBF00E00CBF12E0FA
:1002F000A0E0B2E0E8E4F4E200E00BBF02C0079047
:100300000D92AA37B107D9F727E0AAE7B2E001C0FA
:100310001D92A835B207E1F711E0CEE6D1E000E08A
:1003200006C021970109802FFE010E94EF0FCD36F4
:10033000D10780E00807A9F70E94050C0C9412125F
:100340000C940000CF92DF92EF92FF920F931F93D5
:10035000CF93DF936C017A018B01C0E0D0E0CE1522
:10036000DF0581F0D8016D918D01D601ED91FC91F1
:100370000190F081E02DC6011995892B11F021968D
:10038000EECF7E01C701DF91CF911F910F91FF90BA
:10039000EF90DF90CF900895FC01538D448D252F71
:1003A00030E0842F90E0821B930B541710F0CF960F
:1003B000089501970895FC01918D828D981761F041
:1003C000828DDF01A80FB11D5D968C91928D9F5F8C
:1003D0009F73928F90E008958FEF9FEF0895FC0137
:1003E000918D828D981731F0828DE80FF11D858DEA
:1003F00090E008958FEF9FEF0895FC01918D228D7D
:10040000892F90E0805C9F4F821B91098F73992701
:10041000089582EB92E00E94FD0121E0892B09F40E
:1004200020E0822F08958FE493E00E94FD0121E0F7
:10043000892B09F420E0822F08958CEE93E00E942E
:10044000FD0121E0892B09F420E0822F0895FC01B1
:10045000848DDF01A80FB11DA35ABF4F2C91848D4D
:1004600090E001968F739927848FA689B7892C9382
:10047000A089B1898C91837080648C93938D848DD5
:10048000981306C00288F389E02D80818F7D8083D8
:100490000895EF92FF920F931F93CF93DF93EC0198
:1004A00081E0888F9B8D8C8D981305C0E889F98930
:1004B000808185FD26C0F62E0B8D10E00F5F1F4F4B
:1004C0000F731127E02E8C8DE8120CC00FB607FCBD
:1004D000FACFE889F989808185FFF5CFCE010E94A6
:1004E0002702F1CF8B8DFE01E80FF11DE35AFF4F7C
:1004F000F0829FB7F8940B8FEA89FB898081806234
:100500000AC09FB7F894EE89FF896083E889F9896A
:1005100080818370806480839FBF81E090E0DF9161
:10052000CF911F910F91FF90EF900895CF93DF939C
:10053000EC01888D8823C9F0EA89FB89808185FDDB
:1005400005C0A889B9898C9186FD0FC00FB607FC3C
:10055000F5CF808185FFF2CFA889B9898C9185FF7D
:10056000EDCFCE010E942702E7CFDF91CF91089512
:10057000E0E0F0E0199480E090E0892B21F00E9407
:100580001D02811119C080E090E0892B41F080E0CC
:1005900090E0892B21F00E940000811110C00E9480
:1005A000130281110FC080E090E0892B81F00E943E
:1005B000090281110AC008950E940000E4CF0E9440
:1005C0000000EDCF0E94B802EECF0C940000089519
:1005D000DF92EF92FF920F931F93CF93DF93CDB7EC
:1005E000DEB7EE970FB6F894DEBF0FBECDBF8C011D
:1005F0007B01D42E8FEF840FD801ED91FC918230D6
:1006000020F40480F581E02D05C0411105C0028071
:10061000F381E02DC8011995D801ED91FC9100847A
:10062000F185E02D20E041E0B701C8011995B5E062
:10063000DB16F1F1D801ED91FC910280F381E02D00
:10064000C8011995B2E0DB1233C0D801ED91FC91DD
:100650000084F185E02D20E041E0BE016F5F7F4F17
:10066000C801199540E0F8018485481708F5842FE2
:1006700090E0880F991FF701E80FF91F21E030E0A3
:100680002C0F3D1F820F931FD8011E962D913C9178
:100690001F97DC018D919C91B901681B790BCB01EF
:1006A00020813181820F931F918380834F5FDBCF45
:1006B000EE960FB6F894DEBF0FBECDBFDF91CF919F
:1006C0001F910F91FF90EF90DF900895089580E0C3
:1006D00090E008950E94FD11FC0125852F3F39F11E
:1006E00030E0F901E35BFD4F4491F901E95FFD4F13
:1006F0002491222399F030E0220F331FF901EE52AA
:10070000FE4FA591B491F901E351FE4F259134912B
:100710002FB7F894EC91E42BEC932FBFFC0161E030
:1007200085850E94060B8BE193E00197F1F7089510
:10073000FC0125852F3F39F130E0F901E35BFD4FE6
:100740004491F901E95FFD4F2491222399F030E0B3
:10075000220F331FF901EE52FE4FA591B491F9011A
:10076000E351FE4F259134912FB7F894EC91E42B8F
:10077000EC932FBFFC0160E085850E94060B8BE1A6
:1007800093E00197F1F708958EE30C94350BFF92F7
:100790000F931F93CF93DF93EC018B01F22E1B82FB
:1007A0001A821D821C821F821E8219861886198A4F
:1007B000188A403218F08FE18C8701C04C878A85F7
:1007C0009B85892B11F080E009C08C8590E00E9408
:1007D000F70F9B878A87892BB1F712C09C858917F1
:1007E00070F4282F30E0F801E20FF31F90814A8562
:1007F0005B85FA01E20FF31F90838F5FEFCFFD86D9
:10080000DF91CF911F910F91FF9008950F931F9348
:10081000CF93DF93EC01122F202FE881F9813697D7
:10082000808191818C0F9D1F0E94C7031A83E881EC
:10083000F981369780819181C80FD91F8FEF93E09E
:100840009F878E87DF91CF911F910F9108950F930E
:100850001F93CF93DF938C01C62FD62FD07FD1600B
:100860006D2F0E94E6086D2FC8010E944A0980E1A1
:10087000C89FB0011124C62FC1606C2FC8010E940F
:10088000E6086C2FC8010E944A0981E090E0DF91E0
:10089000CF911F910F9108951F920F920FB60F9253
:1008A00011242F933F938F939F93AF93BF93809186
:1008B000AE029091AF02A091B002B091B10230911E
:1008C000A90223E0230F2D3720F40196A11DB11DAD
:1008D00005C026E8230F0296A11DB11D2093A90291
:1008E0008093AE029093AF02A093B002B093B10296
:1008F0008091AA029091AB02A091AC02B091AD029E
:100900000196A11DB11D8093AA029093AB02A09302
:10091000AC02B093AD02BF91AF919F918F913F9187
:100920002F910F900FBE0F901F9018951F920F924E
:100930000FB60F9211240BB60F922F933F934F9344
:100940005F936F937F938F939F93AF93BF93EF9337
:10095000FF938091950290919602A0919702B09199
:100960009802892B8A2B8B2B49F1909194028091CC
:100970000000892780930000809195029091960253
:10098000A0919702B0919802181619061A061B0634
:100990000CF056C08091950290919602A09197021A
:1009A000B09198020197A109B109809395029093A3
:1009B0009602A0939702B093980242C080910002E1
:1009C000ECEEF1E0E4919FEF90930002E230C9F089
:1009D00050F4EE2399F0E13081F590916F009D7F06
:1009E00090936F002AC0E43019F1E0F0E53029F56A
:1009F000909173009D7F909373001FC010926E00C2
:100A00001CC0909170009D7F9093700091E0909336
:100A1000B0009091B100987F94609093B1001092D3
:100A2000B3000BC0909171009D7F9093710005C041
:100A3000909172009D7F9093720060E00E94060B7F
:100A4000FF91EF91BF91AF919F918F917F916F91A6
:100A50005F914F913F912F910F900BBE0F900FBE62
:100A60000F901F9018951F920F920FB60F9211249E
:100A70000BB60F922F933F934F935F936F937F9398
:100A80008F939F93AF93BF93EF93FF9382EB92E08B
:100A90000E942702FF91EF91BF91AF919F918F919B
:100AA0007F916F915F914F913F912F910F900BBE6E
:100AB0000F900FBE0F901F9018951F920F920FB6B8
:100AC0000F9211240BB60F922F933F934F935F9386
:100AD0006F937F938F939F93AF93BF93EF93FF9306
:100AE00082EB92E00E945F09FF91EF91BF91AF917D
:100AF0009F918F917F916F915F914F913F912F9136
:100B00000F900BBE0F900FBE0F901F9018951F9265
:100B10000F920FB60F9211240BB60F922F933F93A3
:100B20004F935F936F937F938F939F93AF93BF93F5
:100B3000EF93FF938FE493E00E942702FF91EF91E0
:100B4000BF91AF919F918F917F916F915F914F91E5
:100B50003F912F910F900BBE0F900FBE0F901F90E3
:100B600018951F920F920FB60F9211240BB60F9289
:100B70002F933F934F935F936F937F938F939F93A5
:100B8000AF93BF93EF93FF938FE493E00E945F09CD
:100B9000FF91EF91BF91AF919F918F917F916F9155
:100BA0005F914F913F912F910F900BBE0F900FBE11
:100BB0000F901F9018951F920F920FB60F9211244D
:100BC0000BB60F922F933F934F935F936F937F9347
:100BD0008F939F93AF93BF93EF93FF938CEE93E02C
:100BE0000E942702FF91EF91BF91AF919F918F914A
:100BF0007F916F915F914F913F912F910F900BBE1D
:100C00000F900FBE0F901F9018951F920F920FB666
:100C10000F9211240BB60F922F933F934F935F9334
:100C20006F937F938F939F93AF93BF93EF93FF93B4
:100C30008CEE93E00E945F09FF91EF91BF91AF911D
:100C40009F918F917F916F915F914F913F912F91E4
:100C50000F900BBE0F900FBE0F901F9018951F9214
:100C60000F920FB60F9211240BB60F922F933F9352
:100C70004F935F936F937F938F939F93AF93BF93A4
:100C8000CF93DF93EF93FF9320918A0430E0F90133
:100C9000ED56FD4F8491F901E35BFD4FD491F901CD
:100CA000E95FFD4FC491CC2379F081110E94B00A15
:100CB000EC2FF0E0EE0FFF1FE854FE4FA591B4912A
:100CC000EC91ED2381E009F480E020918E043091D5
:100CD0008F042F5F3F4F30938F0420938E049091A9
:100CE0008D04953618F096E09093890490918904CC
:100CF0009430C9F128F4923069F09330D1F05EC09D
:100D0000953009F451C0963009F058C091E09093A5
:100D10005A0551C0811152C020918E0430918F0428
:100D20002436310508F442C010925A0510928D0401
:100D30001CC0813009F042C0E0918D0491E09E0F0B
:100D400090938D04F0E020918E0430918F04EE0F8B
:100D5000FF1FE757FB4F3087278310928F041092B5
:100D60008E0494E029C0811117C0E0918D0491E0B8
:100D70009E0F90938D04F0E020918E0430918F04AB
:100D8000EE0FFF1FE757FB4F3087278310928F042A
:100D900010928E0493E010C020918E0430918F0445
:100DA0002536310558F007C0811108C010928F0414
:100DB00010928E0403C095E09093890490918C0466
:100DC0009923B9F081110AC080918B04882321F006
:100DD00080918B0461E009C02F9A0BC080918B0435
:100DE000882331F080918B0460E00E94060B01C0E3
:100DF0002F98FF91EF91DF91CF91BF91AF919F918C
:100E00008F917F916F915F914F913F912F910F90B3
:100E10000BBE0F900FBE0F901F9018951F920F9250
:100E20000FB60F9211240BB60F922F933F934F934F
:100E30005F936F937F938F939F93AF93BF93EF9342
:100E4000FF938091930287FF05C010928500109256
:100E5000840016C020919302022E000C330B809167
:100E6000970590E0281739075CF43091930225E04C
:100E70003203F0011124E55AFA4F808186FD15C036
:100E8000809193028F5F8093930220919302022EB0
:100E9000000C330B8091970590E02817390794F4E4
:100EA000809193028C302CF10DC03091930232036B
:100EB000F0011124E55AFA4F808160E08F730E949F
:100EC000060BDECF809184009091850084349C498C
:100ED00018F480E49CE905C080918400909185001D
:100EE000049690938900809388008FEF80939302FB
:100EF0002AC040918400509185003091930225E0F2
:100F00003203F0011124E55AFA4F81819281840F56
:100F1000951F90938900809388003091930232034B
:100F2000F0011124E55AFA4F808186FF0CC0309100
:100F300093023203F0011124E55AFA4F808161E0F7
:100F40008F730E94060BFF91EF91BF91AF919F911C
:100F50008F917F916F915F914F913F912F910F9062
:100F60000BBE0F900FBE0F901F90189585ED8093CC
:100F7000BC008091BC0084FDFCCF10922A0608952D
:100F80004091DF05262F30E0240F311D213231053D
:100F9000DCF420912A062430C9F4FC0180E090E0C2
:100FA000861758F43091DF052191DC01A154BA4F26
:100FB000A30FB11D2C930196F3CF8091DF05680F2D
:100FC0006093DF0580E0089581E0089582E0089550
:100FD00008958FEF9FEF08958FEF9FEF0895809111
:100FE000BE0590E09195819591090895CF92DF9289
:100FF000EF92FF920F931F93CF93DF937C01CB016E
:101000008A0120914E06222389F0EB016B01C40E68
:10101000D51ECC15DD0569F06991D701ED91FC91E4
:101020000190F081E02DC7011995F3CF642F0E9444
:10103000C007C801DF91CF911F910F91FF90EF90F2
:10104000DF90CF900895CF93DF931F92CDB7DEB797
:10105000698320914E062223D1F020914B06203245
:1010600040F021E030E0FC013383228380E090E017
:1010700015C080914C06E82FF0E0E55DF94F9981AD
:1010800090838F5F80934C0680934B0605C061E090
:10109000CE0101960E94C00781E090E00F90DF91A1
:1010A000CF910895009769F0FC0101900020E9F7C5
:1010B0003197AF01481B590BBC018CEE93E00C94A7
:1010C000A20180E090E008958F929F92AF92BF922C
:1010D0000F931F93CF93DF93CDB7DEB7A1970FB6D2
:1010E000F894DEBF0FBECDBF19A2423008F44AE02B
:1010F0008E010F5D1F4F842E912CA12CB12CA501C8
:1011000094010E94A50FE62FB901CA0101501109EF
:10111000EA3014F4E05D01C0E95CD801EC93232BC4
:10112000242B252B61F7C8010E945208A1960FB607
:10113000F894DEBF0FBECDBFDF91CF911F910F910D
:10114000BF90AF909F908F900895809198058823CD
:10115000E1F12FB7F8948091AE029091AF02A09187
:10116000B002B091B1022FBF4091990550919A05FC
:1011700060919B0570919C05841B950BA60BB70B8A
:1011800040919D0550919E0560919F057091A0052D
:1011900084179507A607B707C0F02FB7F89480917A
:1011A000AE029091AF02A091B002B091B1022FBFF8
:1011B0008093990590939A05A0939B05B0939C0505
:1011C000E091A105F091A20519940895CF93FC0137
:1011D000C48121E020934E06C0934D0610924C0628
:1011E00010924B068485682B8FE496E00E942308BA
:1011F00090914B06913208F045C080912A068111EA
:10120000FCCF82E080932A0681E0809329068FEF4D
:10121000809328061092270690932606ABE2B6E04C
:10122000E6E0F6E080E0981721F02D9121938F5FA2
:10123000FACF1092050680910506CC0FC82BC093FB
:10124000050680910406813061F4109204068091B5
:1012500005068093BB008091BC0083FDF8CF85EC30
:1012600001C085EE8093BC0080912A068230E1F3B4
:10127000809128068F3F31F080912806803211F04E
:101280008091280610924C0610924B0610924E0642
:10129000CF9108950F931F93CF938C01C62F646055
:1012A0000E94E6086C2F6B7FC8010E94E60883EC61
:1012B00090E00197F1F7CF911F910F910895FC01F4
:1012C000A089B1898C91A689B78982FD0FC09C91B4
:1012D000818D8F5F8F73228D821749F0218DDF0101
:1012E000A20FB11D5D969C93818F08958C910895F6
:1012F0001F920F920FB60F9211240F900FBE0F90F6
:101300001F9018951F920F920FB60F9211240BB6D3
:101310000F922F933F934F935F936F937F938F938E
:101320009F93AF93BF93EF93FF938091B900887F12
:10133000803609F49CC068F5883209F45BC090F4EB
:10134000803109F454C038F4882309F4F2C088309D
:1013500009F44DC0F2C0883109F44CC0803209F460
:101360005DC0EBC0803409F468C048F4803309F4F0
:1013700055C0883309F0E1C080932806D4C0803579
:1013800009F44FC0883509F45DC0883409F0D5C030
:10139000D2C0883909F4C3C0A8F4883709F467C0FB
:1013A00038F4883609F463C0803709F460C0C5C0DA
:1013B000883809F4B4C0803909F45FC0803809F076
:1013C000BCC05BC0803B09F484C038F4803A09F4A7
:1013D00066C0883A09F47DC0B0C0803C09F4A3C05F
:1013E000883C09F4A0C0883B09F486C0A6C080915F
:1013F000050610C09091270680912606981770F573
:10140000E091270681E08E0F80932706F0E0EA5FE7
:10141000F94F80818093BB0085EC82C080932806C1
:101420008AC0E091270681E08E0F80932706809185
:10143000BB00F0E0EA5FF94F80839091270680912E
:1014400026066AC0E091270681E08E0F809327066A
:101450008091BB00F0E0EA5FF94F8083809129061C
:10146000811169C081E08093040684EA5DC083E055
:1014700080932A0610920106CFCF80910106803218
:1014800008F04DC0E091010681E08E0F80930106C7
:101490008091BB00F0E0EF51FA4F8083BDCF85EC27
:1014A0008093BC0010922A0680910106803230F4AD
:1014B000E0910106F0E0EF51FA4F108260910106D1
:1014C00070E081EE95E0E0E0F0E019951092010601
:1014D00034C084E080932A061092E0051092DF0564
:1014E000E0E0F0E019958091DF05811105C081E011
:1014F0008093DF051092BF05E091E00581E08E0F3B
:101500008093E005F0E0E154FA4F80818093BB00C6
:101510009091E0058091DF05981708F47DCF85E86C
:101520008093BC000AC085EC8093BC0010922A0610
:1015300004C0109228060E94B607FF91EF91BF9158
:10154000AF919F918F917F916F915F914F913F915B
:101550002F910F900BBE0F900FBE0F901F901895FC
:1015600090E0FC013197E231F10508F04EC0882788
:10157000EE58FF4F8F4F0C94EF0F809180008F77C4
:1015800003C0809180008F7D8093800008958091BA
:101590008000877FF9CF84B58F7702C084B58F7DB7
:1015A00084BD08958091B0008F7703C08091B00012
:1015B0008F7D8093B0000895809190008F7707C051
:1015C000809190008F7D03C080919000877F8093F1
:1015D000900008958091A0008F7707C08091A000AF
:1015E0008F7D03C08091A000877F8093A000089525
:1015F000809120018F7707C0809120018F7D03C0EB
:1016000080912001877F8093200108951F93CF93BD
:10161000DF93282F30E0F901ED56FD4F8491F90159
:10162000E35BFD4FD491F901E95FFD4FC491CC23F9
:10163000C1F0162F81110E94B00AEC2FF0E0EE0FDE
:10164000FF1FE351FE4FA591B4919FB7F89411117C
:1016500004C08C91D095D82302C0EC91DE2BDC9392
:101660009FBFDF91CF911F910895863308F0865375
:1016700090917B00282F2870977F922B90937B006E
:101680008770806480937C0080917A00806480936E
:101690007A0080917A0086FDFCCF809178002091BD
:1016A000790090E0922B08953FB7F8948091AA02B8
:1016B0009091AB02A091AC02B091AD0226B5A89B6F
:1016C00005C02F3F19F00196A11DB11D3FBFBA2FD4
:1016D000A92F982F8827820F911DA11DB11DBC0134
:1016E000CD0142E0660F771F881F991F4A95D1F7F9
:1016F0000895AF92BF92CF92DF92EF92FF920F9335
:101700001F93CF93DF93EC016B01042F122FA8815D
:10171000B9811697ED91FC911197E80FF91F828519
:101720009385892B09F45BC0822FED91FC91119771
:10173000EC0FFD1F9485891710F0A12C0AC0F6014B
:10174000E80FF11DE80FF11D11821082800FEDCF1F
:10175000A3948A81A81618F5B12EE881F9813697ED
:101760000190F081E02DEC0FFD1F8485B81680F705
:10177000EB2CF12C0284F385E02DEE0DFF1D808112
:101780000E94350BEE0CFF1CF601EE0DFF1D2081B3
:101790003181820F931F91838083B00EDECF288129
:1017A000398126503109D901ED91FC91EC0FFD1FD3
:1017B00084851817A0F4F601E10FF11DE10FF11D6A
:1017C0006A8170E0AB015595479580819181840FC6
:1017D000951F0E94C70F71836083100FE4CFDF91C4
:1017E000CF911F910F91FF90EF90DF90CF90BF901E
:1017F000AF900895DC01ED91FC913E970190F0814E
:10180000E02D8E0F9F1F0C94790B789484B5826025
:1018100084BD84B5816084BD85B5826085BD85B594
:10182000816085BD80916E00816080936E00109212
:10183000810080918100826080938100809181008D
:10184000816080938100809180008160809380001E
:101850008091B10084608093B1008091B00081607C
:101860008093B0008091910082608093910080917C
:1018700091008160809391008091900081608093BD
:1018800090008091A10082608093A1008091A100CE
:1018900081608093A1008091A00081608093A0006E
:1018A00080912101826080932101809121018160DA
:1018B000809321018091200181608093200180919B
:1018C0007A00846080937A0080917A0082608093AD
:1018D0007A0080917A00816080937A0080917A000A
:1018E000806880937A001092C100E091FC03F0912F
:1018F000FD0382E08083E091F803F091F903108208
:10190000E091FA03F091FB038FEC808310920404C2
:10191000E0910004F091010486E08083E091FE03F1
:10192000F091FF03808180618083E091FE03F0915C
:10193000FF03808188608083E091FE03F091FF03C4
:10194000808180688083E091FE03F091FF038081B5
:101950008F7D80830E94A50841E069E972E086EAF4
:1019600095E00E94E802C9E9D2E004E610E0C12C4B
:10197000D12CE12CF12C0E94A508FE0188819981CF
:101980008D32914040F0198308838FEFE81AF80AEE
:10199000C00ED11E02C01982188222966081718108
:1019A00080E090E04AE00E94640869E08CEE93E0F9
:1019B0000E9449020C591F4F043823E01207D9F640
:1019C00087E792E00E945208E114F10451F0C60149
:1019D000B7010E94DB0F6B0182ECC81A81E0D80AC4
:1019E00002C0C12CD12C0D2C000CEE08FF08F7FE14
:1019F0000EC06DE28CEE93E00E94490266277727C5
:101A0000CB016C197D098E099F094AE003C04AE0A9
:101A1000C701B6010E94640887E792E00E9452085D
:101A20000E94540B4B015C018AEFC82ED12CE12C93
:101A3000F12C0E94540BDC01CB0188199909AA09E9
:101A4000BB09883E9340A105B10598F321E0C21A75
:101A5000D108E108F10888EE880E83E0981EA11CE9
:101A6000B11CC114D104E104F10419F70E94BB02B6
:101A700071CF8FE492E09093A4058093A3058FE348
:101A800092E09093A7058093A6058091B005909170
:101A9000B105009711F00E948F108091AA059091D6
:101AA000AB05009711F00E948F108091AE059091C8
:101AB000AF05009711F00E948F108091A8059091BA
:101AC000A905009711F00E948F108091AC059091AC
:101AD000AD05009711F00E948F108091B80590918C
:101AE000B9050C948F100F93109252061092510664
:101AF00088EE93E0A0E0B0E0809353069093540604
:101B0000A0935506B09356062BE132E03093500671
:101B100020934F061092B5021092B4028093B60241
:101B20009093B702A093B802B093B9022DE232E0CD
:101B30003093B3022093B20245E351E05093BF02C9
:101B40004093BE0244E351E05093C1024093C0026F
:101B500040E351E05093C3024093C20241E351E09D
:101B60005093C5024093C40242E351E05093C70230
:101B70004093C60246E351E05093C9024093C80225
:101B80001092CB021092CC021092CD021092CE0293
:101B90001092520310925103809353039093540375
:101BA000A0935503B09356033093500320934F03F3
:101BB00045ED50E050935C0340935B0344ED50E0EF
:101BC00050935E0340935D0340ED50E050936003FB
:101BD00040935F0341ED50E05093620340936103F3
:101BE00042ED50E0509364034093630346ED50E0B0
:101BF0005093660340936503109268031092690343
:101C000010926A0310926B031092EF031092EE038E
:101C10008093F0039093F103A093F203B093F30346
:101C20003093ED032093EC0385EC90E09093F9035F
:101C30008093F80384EC90E09093FB038093FA0385
:101C400080EC90E09093FD038093FC0381EC90E0A6
:101C50009093FF038093FE0382EC90E09093010445
:101C60008093000486EC90E0909303048093020438
:101C700010920504109206041092070410920804B2
:101C800080910F0290911002A0911102B091120266
:101C900080933E0790933F07A0934007B09341077E
:101CA0008091130290911402A0911502B091160236
:101CB0008093420790934307A0934407B09345074E
:101CC00084E08093460787E0809347071092480797
:101CD00084EB8093490786E180934A0788E18093EB
:101CE0004B0787E180934C0789E180934D07E09192
:101CF0009705EC3020F08FEF80934E0710C081E005
:101D00008E0F80939705E0934E0785E0E89FF001E2
:101D10001124E55AFA4F88EB9BE092838183E0918E
:101D20009705EC3020F08FEF80934F0710C081E0D3
:101D30008E0F80939705E0934F0785E0E89FF001B1
:101D40001124E55AFA4F88EB9BE0928381838CE063
:101D500080931D0784E280931E0786E080931F070F
:101D600085E0809320078FE1809321078EE18093A7
:101D7000220783E28093230782E28093240785E48D
:101D80008093250784E48093260780E480932907C5
:101D900010922E0710922F071092300710923107E1
:101DA00010923207109233071092340710923507C1
:101DB000EFE5F6E02DE137E08FEF9FEFDC011282D7
:101DC00013821482158216821782108611868387E9
:101DD0009487A587B6878787908BA18BB28B128655
:101DE0001182108273962E173F0749F78DE090E01D
:101DF0000E94F70FFC01138212828FE692E091831A
:101E00008083118687E2848384E1828784E08387EC
:101E10001486F0935C06E0935B0610925D061092C8
:101E20005E0685E280938A0410928C041092B905B4
:101E30001092B8051092BB051092BA051092BD051C
:101E40001092BC0561E070E080E090E00E94181103
:101E5000009791F09093B9058093B8051092BB0557
:101E60001092BA052091BC053091BD05232B09F0D5
:101E70005FC0FC0110825CC08091B8059091B905EB
:101E8000009711F00E948F101092B9051092B805BA
:101E90001092BD051092BC051092BB051092BA05B8
:101EA0001092A9051092A8051092AB051092AA05F0
:101EB0001092AD051092AC051092AF051092AE05D0
:101EC0001092B1051092B0058FE492E09093A405B2
:101ED0008093A30581E692E09093A7058093A605E1
:101EE00002E024E048E061E072E083EA95E00E94CD
:101EF000060481E0809398051092990510929A0546
:101F000010929B0510929C0584E195E0A0E0B0E062
:101F100080939D0590939E05A0939F05B093A00587
:101F200084EC93E09093A2058093A1050F9108950E
:101F30001092BD051092BC0569E772E08091B8056A
:101F40009091B9050E940B12ABCFA1E21A2EAA1BE9
:101F5000BB1BFD010DC0AA1FBB1FEE1FFF1FA21759
:101F6000B307E407F50720F0A21BB30BE40BF50B56
:101F7000661F771F881F991F1A9469F760957095DF
:101F8000809590959B01AC01BD01CF010895AA1BDE
:101F9000BB1B51E107C0AA1FBB1FA617B70710F054
:101FA000A61BB70B881F991F5A95A9F78095909586
:101FB000BC01CD01089597FB072E16F4009407D0BD
:101FC00077FD09D00E94C70F07FC05D03EF490951D
:101FD00081959F4F0895709561957F4F0895EE0FFD
:101FE000FF1F881F8BBF0790F691E02D19940F9368
:101FF0001F93CF93DF938230910510F482E090E03D
:10200000E0915607F091570720E030E0A0E0B0E003
:10201000309719F140815181028113814817590786
:10202000C8F08417950769F4109731F012960C9355
:10203000129713961C9327C00093560710935707C7
:1020400022C02115310519F04217530718F49A01DF
:10205000BD01EF01DF01F801DBCF21153105F9F0FA
:10206000281B390B2430310580F48A819B8161154E
:10207000710521F0FB019383828304C0909357077D
:1020800080935607FE01329644C0FE01E20FF31F13
:102090008193919322503109398328833AC020914A
:1020A000540730915507232B41F420910B023091B6
:1020B0000C02309355072093540720910902309168
:1020C0000A022115310541F42DB73EB740910D02AA
:1020D00050910E02241B350BE0915407F0915507E7
:1020E000E217F307A0F42E1B3F0B2817390778F0EF
:1020F000AC014E5F5F4F2417350748F04E0F5F1F4E
:1021000050935507409354078193919302C0E0E0A8
:10211000F0E0CF01DF91CF911F910F910895CF9300
:10212000DF93009709F481C0FC0132971382128279
:10213000A0915607B0915707109781F42081318103
:10214000820F931F209154073091550728173907A4
:1021500051F5F0935507E093540767C0ED0120E077
:1021600030E0CE17DF0740F44A815B819E014115C4
:102170005105F1F0EA01F5CFD383C283408151814B
:10218000840F951FC817D90759F488819981840F46
:10219000951F0296918380838A819B81938382839A
:1021A0002115310529F4F0935707E09356073DC0F8
:1021B000E901FB83EA8349915991C40FD51FEC17BC
:1021C000FD0761F480819181840F951F0296E901DA
:1021D00099838883828193819B838A83E0E0F0E006
:1021E00012968D919C911397009719F0FD01DC01D7
:1021F000F7CF8D919C9111979D012E5F3F4F820FDC
:10220000931F20915407309155072817390769F417
:10221000309729F4109257071092560702C0138284
:102220001282B0935507A0935407DF91CF91089580
:102230006F927F928F929F92AF92BF92CF92DF92D6
:10224000EF92FF920F931F93CF93DF93009789F440
:10225000CB01DF91CF911F910F91FF90EF90DF9015
:10226000CF90BF90AF909F908F907F906F900C9485
:10227000F70FFC01E60FF71F9C0122503109E2170E
:10228000F30708F4A9C0EC01D9010D911C91119735
:1022900006171707B0F00530110508F49BC0C801F8
:1022A00004978617970708F495C002501109061B7A
:1022B000170B019311936D937C93CF010E948F10A4
:1022C00089C05B01A01AB10A4C01800E911EA09139
:1022D0005607B0915707612C712CE12CF12C109707
:1022E00009F446C08D919C911197A815B905B1F5D7
:1022F0006C0142E0C40ED11CCA14DB0478F14C011D
:102300008A189B08640142E0C40ED11C1296BC904E
:1023100012971396AC91B5E0CB16D10440F0B2827F
:10232000A38391828082D9016D937C9309C00E5F53
:102330001F4F800F911FF90191838083EB2DFA2F9E
:10234000E114F10431F0D7011396FC93EE93129748
:1023500041C0F0935707E09356073CC068167906D2
:1023600008F43C017D0112960D90BC91A02DB7CFD1
:10237000809154079091550788169906E1F46616E6
:102380007706C8F48091090290910A02009741F4FF
:102390008DB79EB740910D0250910E02841B950B94
:1023A000E817F907C8F4F0935507E0935407F901CB
:1023B000718360830FC0CB010E94F70F7C010097EF
:1023C00059F0A801BE010E940212CE010E948F1096
:1023D000C70104C0CE0102C080E090E0DF91CF9140
:1023E0001F910F91FF90EF90DF90CF90BF90AF9033
:1023F0009F908F907F906F90089581E090E0F89487
:102400000C941212FB01DC0102C001900D924150AC
:102410005040D8F70895FB01DC0101900D92002097
:10242000E1F7089511E0CEE6D1E000E006C0802F8C
:10243000FE010E94EF0F2196011DCF36D10780E0EB
:082440000807A9F7F894FFCF8B
:10244800FF00010203040506070000580780003654
:102458003738391B1D1A1C000000002308F60767CF
:1024680003E807EF07EC07E907000000004902A2AC
:1024780001CC019602FD01DB01EF0100000000E83C
:102488000298036C03C7036A0303000000000006F8
:1024980004790BFDFF0000000000000000FDFF00B4
:1024A80000E80298036C03C703FA0B00000000273A
:0A24B80004A201670366030D0A0089
:00000001FF
