:100000000C9497010C94C8010C94C8010C94C8017D
:100010000C94C8010C94C8010C94C8010C94C8013C
:100020000C94C8010C94CA0C0C94CA0C0C94CA0C05
:100030000C94C8010C9413090C94C8010C94C801C9
:100040000C94C8010C948D040C94C8010C94C80144
:100050000C94C8010C94C8010C94C8010C94C908F4
:100060000C94C8010C94820A0C94580A0C94C80190
:100070000C94C8010C94C8010C94C8010C94C801DC
:100080000C94C8010C94C8010C94C8010C94C801CC
:100090000C94C8010C94C8010C94C8010C94D40CA5
:1000A0000C94C8010C94C8010C94C8010C94C801AC
:1000B0000C94C8010C94C8010C94C8010C94CF0393
:1000C0000C94C8010C94C8010C94C8010C942E0A1D
:1000D0000C94040A0C94C8010C94DA090C94B0092D
:1000E0000C94C8016B02700275027F028902020340
:1000F00093029B02A302AD02B702C102D002DA0250
:100100000203E402EE02F802830B860B750B790BF7
:100110007F0BBD0B8A0B8E0B940B980B9C0BA20BC9
:10012000A60BAA0BBD0BB00BB40BB80B0C94311083
:100130000C94750B0C94E4020C9475020C94E10A77
:100140000C94AD020C9424030C94EE020C949C0BC2
:100150000C94B80B0C948E0B0C94B40B0C94F8020A
:100160000C947F0B0C94CA010C94940B0C94AA0B66
:100170000C94BD0B0C94DF0A0C94B7020C949B02F8
:100180000C9407020C9406020C94DA020C94820878
:100190000C9402030C94790B0C9449030C9489027F
:1001A0000C94860B0C94980B0C94F3070C940C0B8A
:1001B0000C94A20B0C94A60B0C94E4070C94070867
:1001C0000C94C1020C94390B0C94830B0C946B02AD
:1001D0000C94A3020C947F020C94BA070C948A0B23
:1001E0000C94DE0A0C94B00B0C94F6120C9493024F
:1001F0000C94040B0C94D0020C94F00A0C94E00ABA
:100200000C9470020C943508020000210024002791
:10021000002A002D00300033000101000004010716
:10022000010A0100002200250028002B002E0031C9
:1002300000340002010000050108010B010000204C
:10024000002300260029002C002F003200000100AE
:100250000003010601090105050505070508080851
:1002600008020202020A0A08080404040401010147
:10027000010101010103030303030303030407074F
:10028000070C0C0C0C0C0C0C0C02020202060606ED
:1002900006060606060B0B0B0B0B0B0B0B010210D5
:1002A0002020080810204010204080020102010890
:1002B0000402010102040810204080804020100840
:1002C0000402018004020180402010080402010899
:1002D00004020101020408102040800102040810F9
:1002E00020408000000A0B02090C0D0E08070304D1
:1002F00001000000000000000000000000000000FD
:1003000000000000000000000000000000000012DB
:1003100011100000000000000000000000000000BC
:1003200000000000000000000000F612311011244F
:100330001FBECFEFD1E2DEBFCDBF00E00CBF12E0A9
:10034000A0E0B2E0E4E4F3E300E00BBF02C00790FA
:100350000D92A038B107D9F727E0A0E8B2E001C0BC
:100360001D92A036B207E1F711E0C6E9D1E000E046
:1003700006C021970109802FFE010E944E16C53943
:10038000D10780E00807A9F70E9437100C94901954
:100390000C940000FC01918D228D892F90E0805CEF
:1003A0009F4F821B91098F7399270895E0E0F0E039
:1003B000199480E090E0892B21F00E942B08811194
:1003C00019C080E090E0892B41F080E090E0892B1B
:1003D00021F00E940000811110C00E9421088111AB
:1003E0000FC080E090E0892B81F00E9417088111F6
:1003F0000AC008950E940000E4CF0E940000EDCFE3
:100400000E94D601EECF0C9400000895089580E07C
:1004100090E008958F929F92AF92BF92CF92DF9219
:10042000EF92FF920F931F93CF93DF938C016A019A
:100430007B0120E030E04FE753E4C701B6010E94A2
:1004400062154B015C0120E030E0A9010E946B17AE
:1004500018161CF4C501B40103C0C501B4019058BD
:100460000E943517EB0120E030E0A901C701B60179
:100470000E946B17181614F460E001C061E0F801E7
:1004800081810E942F0ECF3FD10509F014F4DD27A2
:1004900002C0CFEFD0E0F801108161E0812F0E940F
:1004A0005E0E209709F4B1C0CF3FD10509F4AFC06B
:1004B000E12FF0E0ED51FD4FE4918E2F90E0FC0133
:1004C0003197E231F10508F09DC08827EE58FF4FC3
:1004D0008F4F0C944E1684B5806884BDC7BDA7C0ED
:1004E00084B5806284BDC8BDA2C080918000806850
:1004F00080938000D0938900C093880098C0809139
:100500008000806280938000D0938B00C0938A002B
:100510008EC080918000886080938000D0938D0091
:10052000C0938C0084C08091B00080688093B0003C
:10053000C093B3007CC08091B00080628093B00013
:10054000C093B40074C08091900080688093900044
:10055000D0939900C09398006AC080919000806207
:1005600080939000D0939B00C0939A0060C08091CC
:100570009000886080939000D0939D00C0939C0071
:1005800056C08091A00080688093A0008091A00058
:100590008F7B8093A000D093A900C093A80047C090
:1005A0008091A00080628093A000D093AB00C093A4
:1005B000AA003DC08091A00088608093A000D093E5
:1005C000AD00C093AC0033C080912001806880935F
:1005D0002001D0932901C093280129C080912001D6
:1005E000806280932001D0932B01C0932A011FC009
:1005F00080912001886080932001D0932D01C093C9
:100600002C0115C0C038D10514F460E001C061E0D0
:10061000812FDF91CF911F910F91FF90EF90DF908D
:10062000CF90BF90AF909F908F900C942F0EDF9142
:10063000CF911F910F91FF90EF90DF90CF90BF90DF
:10064000AF909F908F9008950F931F93CF93DF9358
:100650008C01C62FD62FD07FD1606D2F0E94890CC0
:100660006D2FC8010E949C0C80E1C89FB00111242D
:10067000C62FC1606C2FC8010E94890C6C2FC80165
:100680000E949C0C81E090E0DF91CF911F910F912F
:100690000895CF92DF92EF92FF92CF93DF938091F4
:1006A0007B00886080937B0080E480937C00809155
:1006B0007A00806480937A0080917A0086FDFCCF76
:1006C000C091780080917900D0E0D82B6E010D2E7A
:1006D000000CEE08FF08D7FF0EC06DE285EA94E03B
:1006E0000E94350866277727CB016C197D098E0992
:1006F0009F094AE003C04AE0C701B6010E941C0FEF
:100700008FE392E00E94FC0ECF34D240FCF040E038
:1007100050E0BA018CE796E00E940A0240E050E007
:1007200060E070E88EE796E00E940A0282E492E0C0
:100730000E940E0F60E177E280E090E0DF91CF91C0
:10074000FF90EF90DF90CF900C949A0EDF91CF91B5
:10075000FF90EF90DF90CF900895FC01848DDF0132
:10076000A80FB11DA35ABF4F2C91848D90E0019624
:100770008F739927848FA689B7892C93A089B18913
:100780008C91837080648C93938D848D981306C0B4
:100790000288F389E02D80818F7D808308951F92E8
:1007A0000F920FB60F9211240BB60F922F933F9317
:1007B0004F935F936F937F938F939F93AF93BF9369
:1007C000EF93FF93809143050E94060E2091470509
:1007D000309148052F5F3F4F3093480520934705E0
:1007E00090914605953618F096E0909342059091C9
:1007F00042059430C9F128F4923069F09330D1F079
:100800005EC0953009F451C0963009F058C091E0AF
:100810009093130651C0811152C020914705309129
:1008200048052436310508F442C010921306109290
:1008300046051CC0813009F042C0E091460591E0B8
:100840009E0F90934605F0E02091470530914805B2
:10085000EE0FFF1FEE5BFA4F30872783109248059B
:100860001092470594E029C0811117C0E091460518
:1008700091E09E0F90934605F0E02091470530915E
:100880004805EE0FFF1FEE5BFA4F3087278310926B
:1008900048051092470593E010C02091470530911C
:1008A00048052536310558F007C0811108C010925F
:1008B00048051092470503C095E09093420590913A
:1008C00045059923B9F081110AC080914405882318
:1008D00021F08091440561E009C02F9A0BC08091FE
:1008E0004405882331F08091440560E00E942F0E7A
:1008F00001C02F98FF91EF91BF91AF919F918F9180
:100900007F916F915F914F913F912F910F900BBE0F
:100910000F900FBE0F901F9018951F920F920FB659
:100920000F9211240BB60F922F933F934F935F9327
:100930006F937F938F939F93AF93BF93EF93FF93A7
:100940008091990287FF05C0109285001092840063
:1009500016C020919902022E000C330B8091500694
:1009600090E0281739075CF43091990225E03203B2
:10097000F0011124EC5EF94F808186FD15C0809155
:1009800099028F5F8093990220919902022E000CA8
:10099000330B8091500690E02817390794F480912A
:1009A00099028C302CF10DC0309199023203F00184
:1009B0001124EC5EF94F808160E08F730E942F0E4E
:1009C000DECF809184009091850084349C4918F496
:1009D00080E49CE905C08091840090918500049694
:1009E00090938900809388008FEF809399022AC0AA
:1009F00040918400509185003091990225E03203A6
:100A0000F0011124EC5EF94F81819281840F951FD2
:100A10009093890080938800309199023203F0010D
:100A20001124EC5EF94F808186FF0CC03091990251
:100A30003203F0011124EC5EF94F808161E08F7385
:100A40000E942F0EFF91EF91BF91AF919F918F91D7
:100A50007F916F915F914F913F912F910F900BBEBE
:100A60000F900FBE0F901F9018958EBD00000DB413
:100A700007FEFDCF8EB50895CF93DF93EC0160E0C4
:100A800088810E942F0E88E90E94350580E00E942F
:100A9000350580E00E94350580E00E94350580E044
:100AA0000E94350561E088810E942F0E8BE891E05D
:100AB0000197F1F760E088810E942F0E80EE0E947E
:100AC000350561E08881DF91CF910C942F0EAF92B4
:100AD000BF92CF92DF92EF92FF920F931F93CF932B
:100AE000DF93CDB7DEB760970FB6F894DEBF0FBEC9
:100AF000CDBF5C0160E0FC0180810E942F0E80E68A
:100B00000E9435058E010F5F1F4F7E01F1E1EF0E50
:100B1000F11C680180E00E94350590E0A0E0B0E0A3
:100B2000F60181939193A193B1936F01EE15FF05A7
:100B300089F761E0F50180810E942F0E80E090E04E
:100B4000DC01F80141915191619171918F01BA2FAE
:100B5000A92F982F8827840F951FA61FB71FEE1562
:100B6000FF0579F79C01AD0166277727CB01621B52
:100B7000730B840B950B60960FB6F894DEBF0FBE17
:100B8000CDBFDF91CF911F910F91FF90EF90DF903C
:100B9000CF90BF90AF900895823020F087E492E02C
:100BA0000C940E0F813009F4705890E0880F991F53
:100BB0008458994F0C940A02823040F089E592E003
:100BC0000E940E0F60E070E0CB01089581110CC00F
:100BD00080E896E00E9467059095809570956195F4
:100BE0007F4F8F4F9F4F089582E896E00C946705E2
:100BF0002F923F924F925F926F927F928F929F922D
:100C0000AF92BF92CF92DF92EF92FF920F931F931A
:100C1000CF93DF93CDB7DEB72A970FB6F894DEBF38
:100C20000FBECDBF162F7A878987092F49015A0138
:100C300080E00E94DC050E94F00F80E896E00E94B0
:100C40003C0582E896E00E943C05E12CF12C0E94D4
:100C5000F00FB7010F2C000C880B990B0E940315A5
:100C6000212F3A854985502F0E94621520E030E0FF
:100C700040E252E40E94C3162B013C01AB01BC01CF
:100C80008CE796E00E940A02B301A20181E00E9473
:100C9000CC056AE070E080E090E00E949A0E8FEF51
:100CA000E81AF80A89E2E816F10489F620E030E053
:100CB000A901612F7A858985902F0E94FC1487FDF8
:100CC00009C0212E3A84898589830D83412C512CBA
:100CD000320173C0412C512C3201A5019401C30192
:100CE000B2010E946B1787FF04C088E2E82EF12C46
:100CF000EEC060E570E080E090E00E949A0E0E94F5
:100D0000F00F80E00E94DC050E9403156B017C015E
:100D100082E896E00E9467050E94031569837A8342
:100D20008B839C8326EC3DE744E75EE3C701B60175
:100D30000E94621520E030E048E455E40E94C316AA
:100D40002B013C01C701B6010E94BE0B2DEC3CEC0F
:100D50004CE45FE369817A818B819C810E946215FA
:100D6000A70196010E9456162CEA35EC47E257E39C
:100D70000E9462156D837E838F83988729813A81D3
:100D80004B815C81C701B6010E9456162AE037EDFF
:100D900043EA5DE30E94C31627E137EB41E559E3DF
:100DA0000E9462159B01AC016D817E818F819885C7
:100DB0000E9457160E94BE0B90CFA5019401C3015B
:100DC000B2010E94FC1418160CF48FCF0E94F00F91
:100DD000412F5A856985702F8CE796E00E940A02A0
:100DE000A10169817D8181E00E94CC0560E570E010
:100DF00080E090E00E949A0E80E00E94DC050E9454
:100E000003156B017C0182E896E00E9467050E9451
:100E1000031569837A838B839C8326EC3DE744E743
:100E20005EE3C701B6010E94621520E030E048E4AD
:100E300055E40E94C3162B013C01C701B6010E9474
:100E4000BE0B2DEC3CEC4CE45FE369817A818B8135
:100E50009C810E946215A70196010E9456162CEAF9
:100E600035EC47E257E30E9462156D837E838F83E2
:100E7000988729813A814B815C81C701B6010E9424
:100E800056162AE037ED43EA5DE30E94C31627E1D8
:100E900037EB41E559E30E9462159B01AC016D817E
:100EA0007E818F8198850E9457166B017C019B0182
:100EB000AC01612F7A858985902F0E9457161B01FE
:100EC00089839D83C701B6010E94BE0B76CFB7010F
:100ED0000F2C000C880B990B0E940315212F3A85CB
:100EE0004985502F0E94621520E030E040E252E434
:100EF0000E94C3164B015C010E94F00FB501A401D2
:100F00008CE796E00E940A02B501A40181E00E94EC
:100F1000CC056AE070E080E090E00E949A0E81E0EB
:100F2000E81AF108A0F640E050E0BA018CE796E03C
:100F30000E940A0240E050E060E070E88EE796E030
:100F40002A960FB6F894DEBF0FBECDBFDF91CF91CA
:100F50001F910F91FF90EF90DF90CF90BF90AF90D7
:100F60009F908F907F906F905F904F903F902F90C9
:100F70000C940A02CF92DF92EF92FF920F931F938D
:100F8000CF93DF936C017A018B01C0E0D0E0CE15E6
:100F9000DF0581F0D8016D918D01D601ED91FC91B5
:100FA0000190F081E02DC6011995892B11F0219651
:100FB000EECF7E01C701DF91CF911F910F91FF907E
:100FC000EF90DF90CF900895FC01538D448D252F35
:100FD00030E0842F90E0821B930B541710F0CF96D3
:100FE000089501970895FC01918D828D981761F005
:100FF000828DDF01A80FB11D5D968C91928D9F5F50
:101000009F73928F90E008958FEF9FEF0895FC01FA
:10101000918D828D981731F0828DE80FF11D858DAD
:1010200090E008958FEF9FEF08950E947B198BE663
:1010300093E00E94CA0121E0892B09F420E0822F6D
:10104000089588E094E00E94CA0121E0892B09F408
:1010500020E0822F089585EA94E00E94CA0121E0F1
:10106000892B09F420E0822F0895EF92FF920F93CD
:101070001F93CF93DF93EC0181E0888F9B8D8C8D44
:10108000981305C0E889F989808185FD26C0F62E70
:101090000B8D10E00F5F1F4F0F731127E02E8C8D0B
:1010A000E8120CC00FB607FCFACFE889F9898081F5
:1010B00085FFF5CFCE010E94AD03F1CF8B8DFE01F0
:1010C000E80FF11DE35AFF4FF0829FB7F8940B8FA2
:1010D000EA89FB89808180620AC09FB7F894EE8913
:1010E000FF896083E889F9898081837080648083C7
:1010F0009FBF81E090E0DF91CF911F910F91FF9012
:10110000EF900895CF93DF93EC01888D8823C9F089
:10111000EA89FB89808185FD05C0A889B9898C9100
:1011200086FD0FC00FB607FCF5CF808185FFF2CF9B
:10113000A889B9898C9185FFEDCFCE010E94AD03BE
:10114000E7CFDF91CF9108953FB7F8948091A10246
:101150009091A202A091A302B091A40226B5A89BEF
:1011600005C02F3F19F00196A11DB11D3FBFBA2F39
:10117000A92F982F8827820F911DA11DB11DBC0199
:10118000CD0142E0660F771F881F991F4A95D1F75E
:1011900008951F920F920FB60F9211242F933F9331
:1011A0008F939F93AF93BF938091100390911103FE
:1011B000A0911203B09113033091A00223E0230FFA
:1011C0002D3720F40196A11DB11D05C026E8230F7F
:1011D0000296A11DB11D2093A0028093100390934D
:1011E0001103A0931203B09313038091A102909175
:1011F000A202A091A302B091A4020196A11DB11D6B
:101200008093A1029093A202A093A302B093A402A0
:10121000BF91AF919F918F913F912F910F900FBEF2
:101220000F901F9018951F920F920FB60F921124D6
:101230000BB60F922F933F934F935F936F937F93D0
:101240008F939F93AF93BF93EF93FF9380919B02F4
:1012500090919C02A0919D02B0919E02892B8A2BB5
:101260008B2B49F190919A028091000089278093FD
:10127000000080919B0290919C02A0919D02B091F0
:101280009E02181619061A061B060CF056C080910D
:101290009B0290919C02A0919D02B0919E020197A9
:1012A000A109B10980939B0290939C02A0939D0297
:1012B000B0939E0242C080910002E8E0F2E0E49127
:1012C0009FEF90930002E230C9F050F4EE2399F0C2
:1012D000E13081F590916F009D7F90936F002AC05F
:1012E000E43019F1E0F0E53029F5909173009D7F2D
:1012F000909373001FC010926E001CC090917000FC
:101300009D7F9093700091E09093B0009091B10018
:10131000987F94609093B1001092B3000BC09091AD
:1013200071009D7F9093710005C0909172009D7F28
:101330009093720060E00E942F0EFF91EF91BF9199
:10134000AF919F918F917F916F915F914F913F915D
:101350002F910F900BBE0F900FBE0F901F901895FE
:101360001F920F920FB60F9211240BB60F922F936C
:101370003F934F935F936F937F938F939F93AF931D
:10138000BF93EF93FF938BE693E00E94AD03FF9131
:10139000EF91BF91AF919F918F917F916F915F91ED
:1013A0004F913F912F910F900BBE0F900FBE0F905A
:1013B0001F9018951F920F920FB60F9211240BB623
:1013C0000F922F933F934F935F936F937F938F93DE
:1013D0009F93AF93BF93EF93FF938BE693E00E94AD
:1013E000B10CFF91EF91BF91AF919F918F917F9140
:1013F0006F915F914F913F912F910F900BBE0F9086
:101400000FBE0F901F9018951F920F920FB60F925C
:1014100011240BB60F922F933F934F935F936F93CB
:101420007F938F939F93AF93BF93EF93FF9388E046
:1014300094E00E94AD03FF91EF91BF91AF919F9116
:101440008F917F916F915F914F913F912F910F906D
:101450000BBE0F900FBE0F901F9018951F920F920A
:101460000FB60F9211240BB60F922F933F934F9309
:101470005F936F937F938F939F93AF93BF93EF93FC
:10148000FF9388E094E00E94B10CFF91EF91BF912F
:10149000AF919F918F917F916F915F914F913F910C
:1014A0002F910F900BBE0F900FBE0F901F901895AD
:1014B0001F920F920FB60F9211240BB60F922F931B
:1014C0003F934F935F936F937F938F939F93AF93CC
:1014D000BF93EF93FF9385EA94E00E94AD03FF91E1
:1014E000EF91BF91AF919F918F917F916F915F919C
:1014F0004F913F912F910F900BBE0F900FBE0F9009
:101500001F9018951F920F920FB60F9211240BB6D1
:101510000F922F933F934F935F936F937F938F938C
:101520009F93AF93BF93EF93FF9385EA94E00E945C
:10153000B10CFF91EF91BF91AF919F918F917F91EE
:101540006F915F914F913F912F910F900BBE0F9034
:101550000FBE0F901F90189585ED8093BC00809171
:10156000BC0084FDFCCF10923A0308954091EB0239
:10157000262F30E0240F311D21323105DCF420917B
:101580003A032430C9F4FC0180E090E0861758F457
:101590003091EB022191DC01A553BD4FA30FB11D8A
:1015A0002C930196F3CF8091EB02680F6093EB02CE
:1015B00080E0089581E0089582E0089508950895F7
:1015C0000895E091A6028091A502E81730F4F0E0BA
:1015D000E555FD4F808190E008958FEF9FEF0895CE
:1015E0009091A6028091A502981750F4E92FF0E09F
:1015F000E555FD4F208130E09F5F9093A60202C029
:101600002FEF3FEFC90108958091A50290E020914E
:10161000A602821B91090895CF92DF92EF92FF926A
:101620000F931F93CF93DF937C01CB018A0120910D
:101630003B03222389F0EB016B01C40ED51ECC15B0
:10164000DD0569F06991D701ED91FC910190F08180
:10165000E02DC7011995F3CF642F0E94B60AC80187
:10166000DF91CF911F910F91FF90EF90DF90CF907E
:101670000895CF93DF931F92CDB7DEB76983209192
:101680003B032223D1F020915E03203240F021E081
:1016900030E0FC013383228380E090E015C080912C
:1016A0003C03E82FF0E0E35CFC4F998190838F5F6F
:1016B00080933C0380935E0305C061E0CE010196F8
:1016C0000E94B60A81E090E00F90DF91CF910895DB
:1016D00090E0FC013197E231F10508F04EC0882717
:1016E000EC57FF4F8F4F0C944E16809180008F77F0
:1016F00003C0809180008F7D809380000895809149
:101700008000877FF9CF84B58F7702C084B58F7D45
:1017100084BD08958091B0008F7703C08091B000A0
:101720008F7D8093B0000895809190008F7707C0DF
:10173000809190008F7D03C080919000877F80937F
:10174000900008958091A0008F7707C08091A0003D
:101750008F7D03C08091A000877F8093A0000895B3
:10176000809120018F7707C0809120018F7D03C079
:1017700080912001877F8093200108954F925F928E
:101780006F927F928F929F92AF92BF92CF92DF9291
:10179000EF92FF926B017C019B01AC010E947017DC
:1017A000882319F083E792E01AC046015701E894B4
:1017B000B7F82FEF3FEF4FE75FE7C501B4010E9495
:1017C0007017811110C02FEF3FEF4FE75FE7C501A2
:1017D000B4010E94FC14181634F487E792E00E94CA
:1017E000FC0E7C0183C02FEF3FEF4FE75FE4C701A2
:1017F000B6010E946B1718161CF48BE792E0EFCF2E
:101800002FEF3FEF4FE75FECC701B6010E94FC14DA
:1018100087FDF3CF20E030E0A901C701B6010E94A7
:10182000FC1487FF0BC06DE285EA94E00E94350846
:101830005C01F7FAF094F7F8F09402C0A12CB12CF7
:101840002AE037ED43EA5BE3C701B6010E94571671
:101850002B013C010E943C176B017C010E94011589
:101860009B01AC01C301B2010E9456162B013C0141
:101870004AE0C701B6010E941C0F7C01EA0CFB1C68
:101880006EE285EA94E00E943508E80EF91E20E039
:1018900030E040E251E4C301B2010E9462152B0125
:1018A0003C010E943C174B01A12CB12C4AE0C50120
:1018B000B4010E941C0FE80EF91EC501B4010E947C
:1018C00001159B01AC01C301B2010E94561620E034
:1018D00030E040E251E40E9462150E943C1780E033
:1018E00090E04AE00E941C0FE80EF91E8FE392E0A0
:1018F0000E94FC0E8E0D9F1DFF90EF90DF90CF9009
:10190000BF90AF909F908F907F906F905F904F901F
:101910000895FC01248131E030933B0320935D0363
:1019200010923C0310925E038485682B8FE593E050
:101930000E94390B0C945D0F0F931F93CF938C0172
:10194000C62F64600E94890C6C2F6B7FC8010E94B7
:10195000890C83EC90E00197F1F7CF911F910F91E3
:101960000895FC01A089B1898C91A689B78982FD6F
:101970000FC09C91818D8F5F8F73228D821749F0EC
:10198000218DDF01A20FB11D5D969C93818F08957B
:101990008C9108951F920F920FB60F9211240F9001
:1019A0000FBE0F901F9018951F920F920FB60F92B7
:1019B00011240BB60F922F933F934F935F936F9326
:1019C0007F938F939F93AF93BF93EF93FF938091F8
:1019D000B900887F803609F49CC068F5883209F424
:1019E0005BC090F4803109F454C038F4882309F4C2
:1019F000F6C0883009F44DC0F6C0883109F44CC0F7
:101A0000803209F45DC0EFC0803409F468C048F446
:101A1000803309F455C0883309F0E5C0809338035A
:101A2000D8C0803509F44FC0883509F45DC08834CA
:101A300009F0D9C0D6C0883909F4C7C0A8F48837DE
:101A400009F467C038F4883609F463C0803709F4B4
:101A500060C0C9C0883809F4B8C0803909F45FC0D3
:101A6000803809F0C0C05BC0803B09F486C038F400
:101A7000803A09F466C0883A09F47FC0B4C0803C5B
:101A800009F4A7C0883C09F4A4C0883B09F48AC0C3
:101A9000AAC08091150310C090913703809136033E
:101AA000981770F5E091370381E08E0F809337032C
:101AB000F0E0EA5EFC4F80818093BB0085EC86C03D
:101AC000809338038EC0E091370381E08E0F8093BE
:101AD00037038091BB00F0E0EA5EFC4F8083909179
:101AE0003703809136036EC0E091370381E08E0F9B
:101AF000809337038091BB00F0E0EA5EFC4F808367
:101B00008091390381116DC081E08093140384EAD0
:101B100061C083E080933A0310920D03CFCF809190
:101B20000D03803208F051C0E0910D0381E08E0F6B
:101B300080930D038091BB00F0E0E351FD4F808363
:101B4000BDCF85EC8093BC0010923A0380910D03C9
:101B5000803230F4E0910D03F0E0E351FD4F10824C
:101B600060910D0370E0E091A902F091AA028DEE60
:101B700092E0199510920D0336C084E080933A03E9
:101B80001092EC021092EB02E091A702F091A802F1
:101B900019958091EB02811105C081E08093EB02E1
:101BA0001092CB02E091EC0281E08E0F8093EC0268
:101BB000F0E0E553FD4F80818093BB009091EC02F3
:101BC0008091EB02981708F479CF85E88093BC00E8
:101BD0000AC085EC8093BC0010923A0304C01092B6
:101BE00038030E94AC0AFF91EF91BF91AF919F9192
:101BF0008F917F916F915F914F913F912F910F90B6
:101C00000BBE0F900FBE0F901F901895CF93DF93D0
:101C1000282F30E0F901ED51FD4F8491F901E35691
:101C2000FD4FD491F901E95AFD4FC491CC2391F0B5
:101C300081110E94680BEC2FF0E0EE0FFF1FE35CB8
:101C4000FD4FA591B491EC91ED2381E090E021F45A
:101C500080E002C080E090E0DF91CF9108951F9373
:101C6000CF93DF93282F30E0F901ED51FD4F8491A0
:101C7000F901E356FD4FD491F901E95AFD4FC491A2
:101C8000CC23C1F0162F81110E94680BEC2FF0E0DD
:101C9000EE0FFF1FED5DFD4FA591B4919FB7F89436
:101CA000111104C08C91D095D82302C0EC91DE2B89
:101CB000DC939FBFDF91CF911F910895CF93DF9366
:101CC00090E0FC01E356FD4F2491FC01E95AFD4FE1
:101CD0008491882361F190E0880F991FFC01E75FF0
:101CE000FD4FC591D491FC01ED5DFD4FA591B491DF
:101CF000611109C09FB7F894888120958223888359
:101D0000EC912E230BC0623061F49FB7F894888168
:101D1000322F309583238883EC912E2B2C939FBFF9
:101D200006C08FB7F894E8812E2B28838FBFDF91F0
:101D3000CF9108958F929F92AF92BF92CF92DF92F0
:101D4000EF92FF926B017C010E94A4084B015C01A1
:101D5000C114D104E104F104F1F00E94A408DC01F3
:101D6000CB0188199909AA09BB09883E9340A105AE
:101D7000B10570F321E0C21AD108E108F10888EE3C
:101D8000880E83E0981EA11CB11CC114D104E1048B
:101D9000F10419F7DDCFFF90EF90DF90CF90BF9067
:101DA000AF909F908F900895E5EAF4E0A089B18903
:101DB00082E08C93A485B5851C92A685B7858FECAF
:101DC0008C93108EA489B58986E08C93A289B389FF
:101DD0008C9180618C93A289B3898C9188608C935B
:101DE000A289B3898C9180688C930288F389E02D55
:101DF00080818F7D80830895009769F0FC010190B8
:101E00000020E9F73197AF01481B590BBC0185EA67
:101E100094E00C94BA0780E090E00895CF93DF93AC
:101E20000E94FC0EEC018FE392E00E94FC0E8C0FEE
:101E30009D1FDF91CF9108958F929F92AF92BF9295
:101E40000F931F93CF93DF93CDB7DEB7A1970FB654
:101E5000F894DEBF0FBECDBF19A2423008F44AE0AD
:101E60008E010F5D1F4F842E912CA12CB12CA5014A
:101E700094010E942016E62FB901CA0101501109F0
:101E8000EA3014F4E05D01C0E95CD801EC93232B47
:101E9000242B252B61F7C8010E94FC0EA1960FB6DA
:101EA000F894DEBF0FBECDBFDF91CF911F910F9190
:101EB000BF90AF909F908F90089530915E03313224
:101EC00008F04BC080913A038111FCCF90915D03E3
:101ED00022E020933A0321E0209339032FEF20934F
:101EE00038031092370330933603EDE3F3E0A6E1B5
:101EF000B3E020E0321721F041914D932F5FFACFEC
:101F00001092150320911503990F922B90931503AE
:101F100090911403913061F4109214039091150381
:101F20009093BB009091BC0093FDF8CF95EC01C05D
:101F300095EE9093BC0090913A039230E1F390912A
:101F400038039F3F79F080913803803241F08091CF
:101F50003803803331F084E005C081E003C082E0C3
:101F600001C083E010923C0310925E0310923B0389
:101F700008950F931F93CF93DF93162F072FC3E678
:101F8000D6E09C8521E020933B0390935D03109263
:101F90003C0310925E03AA85BB85ED91FC911197DD
:101FA0000190F081E02D682FCD0119958A859B85E0
:101FB000DC01ED91FC910190F081E02D602F1995ED
:101FC0008A859B85DC01ED91FC910190F081E02DEB
:101FD000612F1995DF91CF911F910F910C945D0F97
:101FE000809151068823E1F12FB7F8948091100376
:101FF00090911103A0911203B09113032FBF409150
:102000005206509153066091540670915506841BF8
:10201000950BA60BB70B4091560650915706609151
:1020200058067091590684179507A607B707C0F0A0
:102030002FB7F8948091100390911103A09112038F
:10204000B09113032FBF8093520690935306A09331
:102050005406B0935506E0915A06F0915B06199428
:10206000089580915C0690915D060C940D1878940B
:1020700084B5826084BD84B5816084BD85B582608D
:1020800085BD85B5816085BD80916E00816080933E
:102090006E001092810080918100826080938100A7
:1020A00080918100816080938100809180008160B7
:1020B000809380008091B10084608093B100809112
:1020C000B00081608093B000809191008260809325
:1020D00091008091910081608093910080919000A7
:1020E0008160809390008091A10082608093A10024
:1020F0008091A10081608093A1008091A000816007
:102100008093A000809121018260809321018091C1
:102110002101816080932101809120018160809361
:10212000200180917A00846080937A0080917A0007
:10213000826080937A0080917A00816080937A0037
:1021400080917A00806880937A001092C1000E948A
:10215000D40E61E0809164060E945E0E60E0809182
:1021600064060E942F0E60E0809163060E945E0E5E
:102170008FE593E090936E0680936D061092A60211
:102180001092A50210923C0310925E0310923A0343
:1021900081E0809339031092140361E084E10E948E
:1021A0002F0E61E085E10E942F0E8091B9008E7F95
:1021B0008093B9008091B9008D7F8093B90088E445
:1021C0008093B80085E48093BC008EED9AE09093F4
:1021D000A8028093A7028FED9AE09093AA028093C1
:1021E000A90280E090E1A0E0B0E0809370069093B7
:1021F0007106A0937206B09373068AE090E0A0E0A7
:10220000B0E08093740690937506A0937606B09321
:10221000770680E090E0A0E0B0E4809378069093A9
:102220007906A0937A06B0937B0660E070E185E0C2
:102230000E94B90F6FE979E380E00E94B90FC3E60D
:10224000D6E08E0152E0552E6CE8262E62E0362E46
:1022500072ED672E72E0772EEBECEE2EE7E0FE2EAD
:10226000F80194818281898F9A8F61E00E945E0ECD
:1022700061E08A8D0E945E0EF801908586816E0174
:10228000FDE1CF0ED11C8D8F9E8F61E00E945E0E0E
:1022900060E08E8D0E945E0E61E08D8D0E942F0E9B
:1022A0004FB6F89480919F02811125C0F10194915D
:1022B000F3018491E92FF0E0EE0FFF1FE75FFD4F80
:1022C000A591B4919C91892321F461E085E30E945A
:1022D0002F0E61E085E30E945E0E8CB580618CBD9F
:1022E0008CB580648CBD61E084E30E945E0E61E089
:1022F00083E30E945E0E80919F028F5F80939F0216
:102300004FBEC7010197F1F760E08D8D0E942F0E3F
:1023100088E80E94350583E00E94350561E08D8DD7
:102320000E942F0EC7010197F1F7C6010E943C05DC
:102330005A940F5F1F4F2296511092CF08E816E073
:10234000CCE8D6E060E0F80181918F010E945E0E3A
:10235000C017D107B9F704E816E08EE8C82E86E06A
:10236000D82E95E0F92E2CE0722E32E0E32E699003
:102370008F818C3008F045C061E0862D0E945E0E92
:102380008F81F89EF0011124EC5EF94F962D9F731A
:102390002081207C622E692A608213821482672D3C
:1023A0000E944216FCE08F9FB001112420E030E033
:1023B000FB01E20FF31FFE9EA001FF9E500D1124B2
:1023C000FA01EC5EF94F908196FD12C02F5F3F4FEE
:1023D0002C30310569F781110BC010928000E0921A
:1023E00081001092850010928400E6BAE0926F009E
:1023F000EF81FE9EF0011124EC5EF94F8081806434
:1024000080839D818B81F801828B938B60E00E9499
:102410005E0E61E0F80183890E945E0E60E0F801C3
:1024200083890E942F0E0E5F1F4FCC16DD0609F028
:102430009ECFF8941092200189E08093210180E2E0
:1024400093E0909329018093280110922501109226
:10245000240182E080937300789480934205109267
:1024600046058091430560E00E945E0E8DE692E095
:102470000E940E0F80918B060E94060E892B49F454
:102480006AE070E080E090E00E949A0E0E94F00FF7
:10249000F1CF68E873E180E090E00E949A0E0E941C
:1024A000D40E00E315E78FB7F894409010035090D6
:1024B000110360901203709013038FBF8FB7F894CD
:1024C000C0901003D0901103E0901203F09013031A
:1024D0008FBFC418D508E608F70820E030E040E0D8
:1024E0005FE3CA01B9010E94F80568EE73E080E07D
:1024F00090E00E949A0E0E94F00F20E030E040E051
:102500005FEBCA01B9010E94F80568EE73E080E054
:1025100090E00E949A0EF1ECCF16F4EDDF06F1E0A8
:10252000EF06F10458F260E177E280E090E00E946B
:102530009A0E0E94F00F80E896E00E943C0582E827
:1025400096E00E943C0540E050E0BA0180E00E9425
:10255000CC0540E050E060E87FE380E00E94CC05DD
:10256000C0E0D0E0C09FB001C19F700DD09F700D42
:102570001124072E000C880B990B0E940315A5014E
:1025800094010E94571620E03EEF4FEF56E40E9460
:10259000FC1487FF22C06AE070E080E090E00E94B7
:1025A0009A0E0E94F00F80E00E94DC050E94031545
:1025B0004B015C0181E00E94DC0520E03CE44AEE36
:1025C00056E4C501B4010E946B1718165CF62196FB
:1025D00080E896E00E943C05C5CF62E370E080E0B1
:1025E00090E00E949A0E0E94D9015DCF1092620382
:1025F0001092610388EE93E0A0E0B0E08093630363
:1026000090936403A0936503B093660323E132E0E3
:102610003093600320935F0310926E0310926D035A
:1026200080936F0390937003A0937103B093720330
:1026300025E232E030936C0320936B0345E351E0D5
:10264000509378034093770344E351E050937A0327
:102650004093790340E351E050937C0340937B0324
:1026600041E351E050937E0340937D0342E351E008
:102670005093800340937F0346E351E050938203DD
:102680004093810310928403109285031092860375
:102690001092870310920B0410920A0480930C048A
:1026A00090930D04A0930E04B0930F04309309048B
:1026B0002093080445ED50E0509315044093140412
:1026C00044ED50E0509317044093160440ED50E061
:1026D000509319044093180441ED50E050931B04AB
:1026E00040931A0442ED50E050931D0440931C04A3
:1026F00046ED50E050931F0440931E0410922104B5
:102700001092220410922304109224041092A80420
:102710001092A7048093A9049093AA04A093AB04F9
:10272000B093AC043093A6042093A50485EC90E00C
:102730009093B2048093B10484EC90E09093B4043D
:102740008093B30480EC90E09093B6048093B5043A
:1027500081EC90E09093B8048093B70482EC90E011
:102760009093BA048093B90486EC90E09093BC04F3
:102770008093BB041092BE041092BF041092C00458
:102780001092C1048091070290910802A091090261
:10279000B0910A028093840690938506A0938606E2
:1027A000B093870680910B0290910C02A0910D02CC
:1027B000B0910E028093880690938906A0938A06B2
:1027C000B0938B0684E080938C0687E080938D061F
:1027D00010928E0684EB80938F0686E1809390069C
:1027E00088E18093910687E18093920689E1809346
:1027F0009306E0915006EC3020F08FEF8093940622
:1028000010C081E08E0F80935006E093940685E01F
:10281000E89FF0011124EC5EF94F88EB9BE0928376
:102820008183E0915006EC3020F08FEF8093950685
:1028300010C081E08E0F80935006E093950685E0EE
:10284000E89FF0011124EC5EF94F88EB9BE0928346
:1028500081838CE08093630684E28093640686E043
:102860008093650685E0809366068FE18093670616
:102870008EE18093680683E28093690682E280930A
:102880006A0685E480936B0684E480936C0680E49A
:1028900080936F0610927406109275061092760659
:1028A00010927706109278061092790610927A06A6
:1028B00010927B06EEE9F6E02CE537E08FEF9FEF14
:1028C000DC0112821382148215821682178210860E
:1028D000118683879487A587B6878787908BA18B7E
:1028E000B28B12861182108273962E173F0749F71A
:1028F0008DE090E00E947517FC011382128287E33D
:1029000092E091838083118687E2848384E18287C9
:1029100084E083871486F0939B06E0939A061092D6
:102920009C0610929D0685E2809343051092450512
:1029300010925D0610925C0610925F0610925E0681
:10294000109261061092600661E070E080E090E015
:102950000E949618009789F090935D0680935C061C
:1029600010925F0610925E0620916006309161061B
:10297000232BA9F5FC01108232C080915C06909156
:102980005D06009711F00E940D1810925D061092DE
:102990005C06109261061092600610925F0610921B
:1029A0005E0681E080935106109252061092530603
:1029B000109254061092550688EE93E0A0E0B0E025
:1029C0008093560690935706A0935806B0935906E5
:1029D00089E493E090935B0680935A0608951092E1
:1029E00061061092600661E472E080915C0690914D
:1029F0005D060E948919D5CF0E943E1508F481E03A
:102A00000895E89409C097FB3EF4909580957095E1
:102A100061957F4F8F4F9F4F9923A9F0F92F96E92A
:102A2000BB279395F695879577956795B795F1119F
:102A3000F8CFFAF4BB0F11F460FF1BC06F5F7F4F3C
:102A40008F4F9F4F16C0882311F096E911C077234E
:102A500021F09EE8872F762F05C0662371F096E857
:102A6000862F70E060E02AF09A95660F771F881F26
:102A7000DAF7880F9695879597F90895990F0008CA
:102A8000550FAA0BE0E8FEEF16161706E807F90740
:102A9000C0F012161306E407F50798F0621B730BDB
:102AA000840B950B39F40A2661F0232B242B252B5C
:102AB00021F408950A2609F4A140A6958FEF811DFF
:102AC000811D08950E9475150C94E6150E94D81575
:102AD00038F00E94DF1520F0952311F00C94CF15EB
:102AE0000C94D51511240C941A160E94F71570F346
:102AF000959FC1F3950F50E0551F629FF001729FA3
:102B0000BB27F00DB11D639FAA27F00DB11DAA1FB1
:102B1000649F6627B00DA11D661F829F2227B00DFE
:102B2000A11D621F739FB00DA11D621F839FA00D89
:102B3000611D221F749F3327A00D611D231F849FD9
:102B4000600D211D822F762F6A2F11249F57504030
:102B50009AF0F1F088234AF0EE0FFF1FBB1F661FAB
:102B6000771F881F91505040A9F79E3F510580F074
:102B70000C94CF150C941A165F3FE4F3983ED4F3EF
:102B8000869577956795B795F795E7959F5FC1F718
:102B9000FE2B880F911D9695879597F9089597F9C3
:102BA0009F6780E870E060E008959FEF80EC0895F3
:102BB00000240A941616170618060906089500241C
:102BC0000A9412161306140605060895092E039496
:102BD000000C11F4882352F0BB0F40F4BF2B11F40A
:102BE00060FF04C06F5F7F4F8F4F9F4F089557FD69
:102BF0009058440F551F59F05F3F71F04795880F6B
:102C000097FB991F61F09F3F79F087950895121601
:102C100013061406551FF2CF4695F1DF08C01616AD
:102C200017061806991FF1CF86957105610508945E
:102C30000895E894BB2766277727CB0197F9089575
:102C4000A1E21A2EAA1BBB1BFD010DC0AA1FBB1FB0
:102C5000EE1FFF1FA217B307E407F50720F0A21B22
:102C6000B30BE40BF50B661F771F881F991F1A948F
:102C700069F760957095809590959B01AC01BD01B9
:102C8000CF010895991B79E004C0991F961708F0A9
:102C9000961B881F7A95C9F780950895EE0FFF1F40
:102CA000881F8BBF0790F691E02D19945058BB27D1
:102CB000AA270E946E160C94E6150E94D81538F0CB
:102CC0000E94DF1520F039F49F3F19F426F40C948C
:102CD000D5150EF4E095E7FB0C94CF15E92F0E9473
:102CE000F71558F3BA17620773078407950720F0A2
:102CF00079F4A6F50C9419160EF4E0950B2EBA2F64
:102D0000A02D0B01B90190010C01CA01A0011124F1
:102D1000FF27591B99F0593F50F4503E68F11A169D
:102D2000F040A22F232F342F4427585FF3CF46952E
:102D300037952795A795F0405395C9F77EF41F1650
:102D4000BA0B620B730B840BBAF09150A1F0FF0F1A
:102D5000BB1F661F771F881FC2F70EC0BA0F621F06
:102D6000731F841F48F4879577956795B795F795F6
:102D70009E3F08F0B0CF9395880F08F09927EE0F8B
:102D80009795879508950E94D7160C94E6150E9492
:102D9000DF1558F00E94D81540F029F45F3F29F064
:102DA0000C94CF1551110C941A160C94D5150E9441
:102DB000F71568F39923B1F3552391F3951B550B40
:102DC000BB27AA2762177307840738F09F5F5F4FFE
:102DD000220F331F441FAA1FA9F335D00E2E3AF03D
:102DE000E0E832D091505040E695001CCAF72BD055
:102DF000FE2F29D0660F771F881FBB1F26173707A6
:102E00004807AB07B0E809F0BB0B802DBF01FF27D7
:102E100093585F4F3AF09E3F510578F00C94CF15D0
:102E20000C941A165F3FE4F3983ED4F38695779599
:102E30006795B795F7959F5FC9F7880F911D969590
:102E4000879597F90895E1E0660F771F881FBB1FEC
:102E5000621773078407BA0720F0621B730B840B99
:102E6000BA0BEE1F88F7E09508950E943C1768940E
:102E7000B1110C941A1608950E94FF1588F09F57FF
:102E800098F0B92F9927B751B0F0E1F0660F771F8E
:102E9000881F991F1AF0BA95C9F714C0B13091F084
:102EA0000E941916B1E008950C941916672F782F17
:102EB0008827B85F39F0B93FCCF386957795679549
:102EC000B395D9F73EF490958095709561957F4FB5
:102ED0008F4F9F4F08950E943E1508F48FEF08957D
:102EE0000E943E15880B990B08950F931F93CF9363
:102EF000DF938230910510F482E090E0E0915E076C
:102F0000F0915F0720E030E0A0E0B0E0309719F1E9
:102F1000408151810281138148175907C8F08417F5
:102F2000950769F4109731F012960C931297139647
:102F30001C9327C000935E0710935F0722C02115E2
:102F4000310519F04217530718F49A01BD01EF013A
:102F5000DF01F801DBCF21153105F9F0281B390B12
:102F60002430310580F48A819B816115710521F03F
:102F7000FB019383828304C090935F0780935E0775
:102F8000FE01329644C0FE01E20FF31F819391933C
:102F900022503109398328833AC020915C0730914F
:102FA0005D07232B41F420910302309104023093FA
:102FB0005D0720935C0720910102309102022115E8
:102FC000310541F42DB73EB74091050250910602FC
:102FD000241B350BE0915C07F0915D07E217F307C6
:102FE000A0F42E1B3F0B2817390778F0AC014E5F79
:102FF0005F4F2417350748F04E0F5F1F50935D0752
:1030000040935C078193919302C0E0E0F0E0CF0130
:10301000DF91CF911F910F910895CF93DF93009788
:1030200009F481C0FC01329713821282A0915E07DD
:10303000B0915F07109781F420813181820F931F37
:1030400020915C0730915D072817390751F5F093FF
:103050005D07E0935C0767C0ED0120E030E0CE172C
:10306000DF0740F44A815B819E0141155105F1F073
:10307000EA01F5CFD383C28340815181840F951F2C
:10308000C817D90759F488819981840F951F029632
:10309000918380838A819B8193838283211531056B
:1030A00029F4F0935F07E0935E073DC0E901FB83DD
:1030B000EA8349915991C40FD51FEC17FD0761F4BC
:1030C00080819181840F951F0296E90199838883FD
:1030D000828193819B838A83E0E0F0E012968D9158
:1030E0009C911397009719F0FD01DC01F7CF8D91AA
:1030F0009C9111979D012E5F3F4F820F931F20914E
:103100005C0730915D072817390769F4309729F477
:1031100010925F0710925E0702C013821282B09372
:103120005D07A0935C07DF91CF9108956F927F9226
:103130008F929F92AF92BF92CF92DF92EF92FF92C7
:103140000F931F93CF93DF93009789F4CB01DF9107
:10315000CF911F910F91FF90EF90DF90CF90BF9094
:10316000AF909F908F907F906F900C947517FC019B
:10317000E60FF71F9C0122503109E217F30708F40C
:10318000A9C0EC01D9010D911C91119706171707E1
:10319000B0F00530110508F49BC0C80104978617EC
:1031A000970708F495C002501109061B170B0193ED
:1031B00011936D937C93CF010E940D1889C05B0120
:1031C000A01AB10A4C01800E911EA0915E07B09129
:1031D0005F07612C712CE12CF12C109709F446C08B
:1031E0008D919C911197A815B905B1F56C0142E03C
:1031F000C40ED11CCA14DB0478F14C018A189B0858
:10320000640142E0C40ED11C1296BC901297139632
:10321000AC91B5E0CB16D10440F0B282A383918289
:103220008082D9016D937C9309C00E5F1F4F800F80
:10323000911FF90191838083EB2DFA2FE114F104A2
:1032400031F0D7011396FC93EE93129741C0F0939F
:103250005F07E0935E073CC06816790608F43C01FE
:103260007D0112960D90BC91A02DB7CF80915C0787
:1032700090915D0788169906E1F466167706C8F402
:103280008091010290910202009741F48DB79EB7A0
:103290004091050250910602841B950BE817F9072F
:1032A000C8F4F0935D07E0935C07F90171836083D4
:1032B0000FC0CB010E9475177C01009759F0A8013F
:1032C000BE010E948019CE010E940D18C70104C0E2
:1032D000CE0102C080E090E0DF91CF911F910F916D
:1032E000FF90EF90DF90CF90BF90AF909F908F9026
:1032F0007F906F90089581E090E0F8940C9490197D
:10330000FB01DC0102C001900D9241505040D8F702
:103310000895FB01DC0101900D920020E1F7089572
:1033200011E0C6E9D1E000E006C0802FFE010E9456
:103330004E162196011DC739D10780E00807A9F76D
:04334000F894FFCF2F
:10334400FF000060078000363738391B1D1A1C0047
:10335400000000390B0C0B0702E00A040BF00AE131
:103364000A000000003508BA07E4078208CA01F31E
:10337400070708000000002403BA07070206020D2D
:103384000A0053544F5000496E76616C6964206D95
:103394006F746F722069642100496E76616C696490
:1033A40020656E636F6465722069642100537461E3
:1033B4007274006E616E00696E66006F766600005E
:00000001FF
