:100000000C946D010C949E010C949E010C949E0125
:100010000C949E010C949E010C949E010C949E01E4
:100020000C949E010C942D0A0C942D0A0C942D0A0C
:100030000C949E010C94B2060C949E010C949E01AB
:100040000C949E010C9434090C949E010C949E0116
:100050000C949E010C949E010C949E010C946806D5
:100060000C949E010C9423080C94F9070C949E01A7
:100070000C949E010C949E010C949E010C949E0184
:100080000C949E010C949E010C949E010C949E0174
:100090000C949E010C949E010C949E010C94370AC2
:1000A0000C949E010C949E010C949E010C949E0154
:1000B0000C949E010C949E010C949E010C944D088E
:1000C0000C949E010C949E010C949E010C94CF07FD
:1000D0000C94A5070C949E010C947B070C9451077B
:1000E0000C949E0150025302420246024C028A02C4
:1000F00057025B026102650269026F0273027702B6
:100100008A027D02810285020C9473040C945002D1
:100110000C94EB050C9465020C94C5050C944C02F0
:100120000C948A020C946F020C948F030C94C801F7
:100130000C9406020C9453020C949F040C941A0322
:100140000C94EE050C9461020C94C9010C944602C7
:100150000C94CB040C9469020C9421040C94570267
:100160000C946D030C947D020C94110C0C94EA0514
:100170000C94340D0C94CC010C9481020C947302F9
:100180000C9485020C9442020C943D060C94F005EC
:100190000C945E030C94D6010C94CF010C94810353
:1001A0000C9477020C946E0D0C945B020C94690B0A
:1001B0000C94DA03000020002300260029002C0004
:1001C0002F003200000100000301060109010000B8
:1001D0002100240027002A002D00300033000101F7
:1001E0000000040107010A01020000220025002886
:1001F000002B002E00310034000201000005010830
:10020000010B01050505050705080808080202029B
:10021000020A0A08080404040401010101010101A1
:10022000010303030303030303040707070C0C0C78
:100230000C0C0C0C0C020202020606060606060650
:10024000060B0B0B0B0B0B0B0B01021020200808ED
:100250001020401020408002010201080402010128
:100260000204081020408080402010080402018011
:100270000402018040201008040201080402010168
:100280000204081020408001020408102040800071
:10029000000A0B02090C0D0E080703040100000000
:1002A000000000000000000000000000000000004E
:1002B000000000000000000000000012111000000B
:1002C000000000000000000000000000000000002E
:1002D0000000000000006E0D340D11241FBECFEF92
:1002E000D1E2DEBFCDBF00E00CBF12E0A0E0B2E083
:1002F000E2EEF3E200E00BBF02C007900D92A237DE
:10030000B107D9F727E0A2E7B2E001C01D92AC34F3
:10031000B207E1F711E0CCE6D1E000E006C021979A
:100320000109802FFE010E94AC0FCB36D10780E07F
:100330000807A9F70E941C0C0C94DF110C94000014
:100340004091F102262F30E0240F311D213231057A
:10035000DCF42091F3022430C9F4FC0180E090E049
:10036000861758F43091F1022191DC01AF52BD4F54
:10037000A30FB11D2C930196F3CF8091F102680F6A
:100380006093F10280E0089581E0089582E008958D
:1003900008958FEF9FEF08958FEF9FEF089580915D
:1003A000D00290E09195819591090895CF92DF92C6
:1003B000EF92FF920F931F93CF93DF937C01262F31
:1003C000972F8A018091CF02882391F0C62FD72FD3
:1003D0006E01C40ED51ECC15DD0571F06991D701F3
:1003E000ED91FC910190F081E02DC7011995F3CFBB
:1003F000642F822F0E94A001C801DF91CF911F912D
:100400000F91FF90EF90DF90CF900895CF93DF93FF
:100410001F92CDB7DEB769832091CF022223D1F09E
:100420002091CE02203240F021E030E0FC01338305
:10043000228380E090E015C08091CD02E82FF0E0AB
:10044000E355FD4F998190838F5F8093CD02809318
:10045000CE0205C061E0CE0101960E94A00181E0BC
:1004600090E00F90DF91CF91089590E0FC013197DB
:10047000E231F10508F04EC08827EE58FF4F8F4F4C
:100480000C94AC0F809180008F7703C08091800026
:100490008F7D80938000089580918000877FF9CFC1
:1004A00084B58F7702C084B58F7D84BD0895809117
:1004B000B0008F7703C08091B0008F7D8093B00033
:1004C0000895809190008F7707C0809190008F7D74
:1004D00003C080919000877F809390000895809161
:1004E000A0008F7707C08091A0008F7D03C080910E
:1004F000A000877F8093A0000895809120018F77CE
:1005000007C0809120018F7D03C080912001877FEB
:100510008093200108951F93CF93DF93282F30E01D
:10052000F901E157FD4F8491F901E75BFD4FD4914B
:10053000F901ED5FFD4FC491CC23C9F0162F811155
:100540000E943502EC2FF0E0EE0FFF1FE751FE4F47
:10055000A591B4918FB7F894111105C09C91ED2F1E
:10056000E095E92302C0EC91ED2BEC938FBFDF9176
:10057000CF911F9108953FB7F8948091A90290916F
:10058000AA02A091AB02B091AC0226B5A89B05C00F
:100590002F3F19F00196A11DB11D3FBFBA2FA92F02
:1005A000982F8827820F911DA11DB11DBC01CD017F
:1005B00042E0660F771F881F991F4A95D1F708956B
:1005C0008F929F92AF92BF92CF92DF92EF92FF9263
:1005D0006B017C010E94BB024B015C01C114D10480
:1005E000E104F104F1F00E94BB02DC01CB018819A7
:1005F0009909AA09BB09883E9340A105B10570F38A
:1006000021E0C21AD108E108F10888EE880E83E0E3
:10061000981EA11CB11CC114D104E104F10419F706
:10062000DDCFFF90EF90DF90CF90BF90AF909F9085
:100630008F900895CF92DF92EF92FF920F931F93C6
:10064000CF93DF936C017A018B01C0E0D0E0CE152F
:10065000DF0589F0D8016D918D01D601ED91FC91F6
:100660000190F081E02DC6011995892B11F47E01CE
:1006700002C02196ECCFC701DF91CF911F910F915E
:10068000FF90EF90DF90CF900895FC01A089B18991
:100690008C91A689B78982FD0FC09C91818D8F5F57
:1006A0008F73228D821749F0218DDF01A20FB11DBA
:1006B0005D969C93818F08958C910895FC01538DD4
:1006C000448D252F30E0842F90E0821B930B54172C
:1006D00010F0CF96089501970895FC01918D828DB9
:1006E000981761F0828DDF01A80FB11D5D968C9186
:1006F000928D9F5F9F73928F90E008958FEF9FEF91
:100700000895FC01918D828D981731F0828DE80F4C
:10071000F11D858D90E008958FEF9FEF0895FC0106
:10072000918D228D892F90E0805C9F4F821B9109D3
:100730008F739927089585E293E00E948F0321E04B
:10074000892B09F420E0822F089582EC93E00E9427
:100750008F0321E0892B09F420E0822F08958FE593
:1007600094E00E948F0321E0892B09F420E0822F7E
:100770000895FC01848DDF01A80FB11DA35ABF4F5E
:100780002C91848D90E001968F739927848FA68990
:10079000B7892C93A089B1898C9180648C93938DB7
:1007A000848D981306C00288F389E02D80818F7DA7
:1007B00080830895EF92FF920F931F93CF93DF935F
:1007C000EC0181E0888F9B8D8C8D981305C0E889A2
:1007D000F989808185FD24C0F62E0B8D10E00F5F16
:1007E0001F4F0F731127E02E8C8DE8120CC00FB62F
:1007F00007FCFACFE889F989808185FFF5CFCE0122
:100800000E94B903F1CF8B8DFE01E80FF11DE35A71
:10081000FF4FF0820B8FEA89FB898081806207C0DD
:10082000EE89FF896083E889F9898081806480830B
:1008300081E090E0DF91CF911F910F91FF90EF90B9
:100840000895CF93DF93EC01888D8823C9F0EA895E
:10085000FB89808185FD05C0A889B9898C9186FDB9
:100860000FC00FB607FCF5CF808185FFF2CFA889B6
:10087000B9898C9185FFEDCFCE010E94B903E7CFF6
:10088000DF91CF910895E0E0F0E0199480E090E0EE
:10089000892B21F00E94AF03811119C080E090E004
:1008A000892B41F080E090E0892B21F00E9400002C
:1008B000811110C00E94A50381110FC080E090E05B
:1008C000892B81F00E949B0381110AC008950E9428
:1008D0000000E4CF0E940000EDCF0E944304EECF61
:1008E0000C9400000895FC0125852F3F39F130E07C
:1008F000F901E75BFD4F4491F901ED5FFD4F249154
:10090000222399F030E0220F331FF901E253FE4F0A
:10091000A591B491F901E751FE4F259134912FB77C
:10092000F894EC91E42BEC932FBFFC0161E08585FA
:100930000E948B028BE193E00197F1F70895FC018F
:1009400025852F3F39F130E0F901E75BFD4F4491F8
:10095000F901ED5FFD4F2491222399F030E0220F41
:10096000331FF901E253FE4FA591B491F901E7510C
:10097000FE4F259134912FB7F894EC91E42BEC9332
:100980002FBFFC0160E085850E948B028BE193E024
:100990000197F1F70895DF92EF92FF920F931F9363
:1009A000CF93DF93CDB7DEB7EE970FB6F894DEBFE7
:1009B0000FBECDBF8C017B01D42E8FEF840FD801E9
:1009C000ED91FC91823020F40480F581E02D05C08A
:1009D000411105C00280F381E02DC8011995D801AD
:1009E000ED91FC910084F185E02D20E041E0B7011C
:1009F000C8011995B5E0DB1609F43FC0D801ED91A7
:100A0000FC910280F381E02DC8011995B2E0DB1260
:100A100034C0D801ED91FC910084F185E02D20E0F7
:100A200041E0BE016F5F7F4FC801199540E0D801DA
:100A30001C968C91481708F5842F90E0880F991F19
:100A4000F701E80FF91F21E030E02C0F3D1F820F66
:100A5000931FD8011E962D913C911F97DC018D911B
:100A60009C91B901681B790BCB0120813181820FE8
:100A7000931F918380834F5FDACFEE960FB6F89481
:100A8000DEBF0FBECDBFDF91CF911F910F91FF90C1
:100A9000EF90DF900895CF93FC01C48121E0209373
:100AA000CF02C0938B021092CD021092CE028485A9
:100AB000682B89E193E00E9406028091CE02813288
:100AC00008F046C09091F3029111FCCF92E0909310
:100AD000F30291E09093F5029FEF9093F20210924F
:100AE000170380931603ADEAB2E026EF32E0F90176
:100AF0009E2F921B981718F49D919193F9CF109205
:100B0000180380911803CC0FC82BC0931803809151
:100B1000F402813061F41092F40280911803809302
:100B2000BB008091BC0083FDF8CF85EC01C085EE51
:100B30008093BC008091F3028230E1F38091F20255
:100B40008F3F31F08091F202803211F08091F202F9
:100B50001092CD021092CE021092CF02CF91089542
:100B60000F931F93CF938C01C62F64600E944B0597
:100B70006C2F6B7FC8010E944B0583EC90E00197BE
:100B8000F1F7CF911F910F9108950F931F93CF937A
:100B9000DF938C01C62FD62FD07FD1606D2F0E949E
:100BA0004B056D2FC8010E94B00580E1C89FB001C0
:100BB0001124C62FC1606C2FC8010E944B056C2FF9
:100BC000C8010E94B00581E090E0DF91CF911F91B4
:100BD0000F910895089580E090E008950E94CA1151
:100BE000EF92FF920F931F93CF93DF931F92CDB796
:100BF000DEB77C018B01FC01138212821582148204
:100C00001782168211861086118A108A403218F0D7
:100C10008FE1848702C0FC014487F70182859385B8
:100C2000892B11F080E00DC0F701848590E02983C5
:100C30000E94B40FF701938782872981892B91F74E
:100C400014C0F7019485891778F4482F50E0F80113
:100C5000E40FF51F9081F70162857385FB01E40FB6
:100C6000F51F90838F5FEDCF25870F90DF91CF9198
:100C70001F910F91FF90EF9008950F931F93CF93C3
:100C8000DF93EC01122F202FE881F98136978081C4
:100C900091818C0F9D1F0E94F0051A83E881F981D4
:100CA000369780819181C80FD91F8FEF93E09F877E
:100CB0008E87DF91CF911F910F91089585ED8093DD
:100CC000BC008091BC0084FDFCCF1092F30208951B
:100CD0001F920F920FB60F9211242F933F938F9371
:100CE0009F93AF93BF938091A5029091A602A0918C
:100CF000A702B091A8023091A40223E0230F2D3760
:100D000020F40196A11DB11D05C026E8230F02960F
:100D1000A11DB11D2093A4028093A5029093A60269
:100D2000A093A702B093A8028091A9029091AA0271
:100D3000A091AB02B091AC020196A11DB11D8093B0
:100D4000A9029093AA02A093AB02B093AC02BF9108
:100D5000AF919F918F913F912F910F900FBE0F9068
:100D60001F9018951F920F920FB60F9211240BB679
:100D70000F922F933F934F935F936F937F938F9334
:100D80009F93AF93BF93EF93FF93809190029091C5
:100D90009102A0919202B0919302892B8A2B8B2B06
:100DA00059F180918F02E0918D02F0918E02908135
:100DB000892780838091900290919102A091920264
:100DC000B0919302181619061A061B060CF056C0AD
:100DD0008091900290919102A0919202B091930221
:100DE0000197A109B1098093900290939102A09379
:100DF0009202B093930242C080910002E8EEF1E0CB
:100E0000E4919FEF90930002E230C9F050F4EE239A
:100E100099F0E13081F590916F009D7F90936F0084
:100E20002AC0E43019F1E0F0E53029F59091730023
:100E30009D7F909373001FC010926E001CC0909114
:100E400070009D7F9093700091E09093B00090911E
:100E5000B100987F94609093B1001092B3000BC0E2
:100E6000909171009D7F9093710005C090917200E8
:100E70009D7F9093720060E00E948B02FF91EF9142
:100E8000BF91AF919F918F917F916F915F914F91A2
:100E90003F912F910F900BBE0F900FBE0F901F90A0
:100EA00018951F920F920FB60F9211240BB60F9246
:100EB0002F933F934F935F936F937F938F939F9362
:100EC000AF93BF93EF93FF9385E293E00E94B90342
:100ED000FF91EF91BF91AF919F918F917F916F9112
:100EE0005F914F913F912F910F900BBE0F900FBECE
:100EF0000F901F9018951F920F920FB60F9211240A
:100F00000BB60F922F933F934F935F936F937F9303
:100F10008F939F93AF93BF93EF93FF9385E293E0FB
:100F20000E944503FF91EF91BF91AF919F918F91E7
:100F30007F916F915F914F913F912F910F900BBED9
:100F40000F900FBE0F901F9018951F920F920FB623
:100F50000F9211240BB60F922F933F934F935F93F1
:100F60006F937F938F939F93AF93BF93EF93FF9371
:100F700082EC93E00E94B903FF91EF91BF91AF9192
:100F80009F918F917F916F915F914F913F912F91A1
:100F90000F900BBE0F900FBE0F901F9018951F92D1
:100FA0000F920FB60F9211240BB60F922F933F930F
:100FB0004F935F936F937F938F939F93AF93BF9361
:100FC000EF93FF9382EC93E00E944503FF91EF9132
:100FD000BF91AF919F918F917F916F915F914F9151
:100FE0003F912F910F900BBE0F900FBE0F901F904F
:100FF00018951F920F920FB60F9211240BB60F92F5
:101000002F933F934F935F936F937F938F939F9310
:10101000AF93BF93EF93FF938FE594E00E94B903E2
:10102000FF91EF91BF91AF919F918F917F916F91C0
:101030005F914F913F912F910F900BBE0F900FBE7C
:101040000F901F9018951F920F920FB60F921124B8
:101050000BB60F922F933F934F935F936F937F93B2
:101060008F939F93AF93BF93EF93FF938FE594E09C
:101070000E944503FF91EF91BF91AF919F918F9196
:101080007F916F915F914F913F912F910F900BBE88
:101090000F900FBE0F901F9018951F920F920FB6D2
:1010A0000F9211240BB60F922F933F934F935F93A0
:1010B0006F937F938F939F93AF93BF93CF93DF9360
:1010C000EF93FF932091FD0430E0F901E157FD4FCC
:1010D0008491F901E75BFD4FD491F901ED5FFD4F7C
:1010E000C491CC23A1F081110E943502EC2FF0E0D5
:1010F000EE0FFF1FEC54FE4FA591B491EC91ED2340
:1011000031E020E009F430E0832F922F02C080E02C
:1011100090E020910105309102052F5F3F4F309301
:1011200002052093010520910005253618F026E0E0
:101130002093FC042091FC042430D9F128F42230BF
:1011400069F02330D9F060C0253009F453C026304F
:1011500009F05AC021E02093CD0553C0009709F053
:1011600053C020910105309102052436310508F461
:1011700043C01092CD05109200051DC0813091052D
:1011800009F042C0E091000521E02E0F20930005F8
:10119000F0E02091010530910205EE0FFF1FE450B1
:1011A000FB4F30872783109202051092010524E03F
:1011B00029C00097B9F4E091000521E02E0F20939B
:1011C0000005F0E02091010530910205EE0FFF1FB0
:1011D000E450FB4F308727831092020510920105DF
:1011E00023E010C02091010530910205253631051C
:1011F00058F007C0009741F41092020510920105C3
:1012000003C025E02093FC042091FF042223B9F0C1
:10121000892B51F48091FE04882321F08091FE04F3
:1012200061E009C02F9A0BC08091FE04882331F041
:101230008091FE0460E00E948B0201C02F98FF9114
:10124000EF91DF91CF91BF91AF919F918F917F915E
:101250006F915F914F913F912F910F900BBE0F9027
:101260000FBE0F901F9018951F920F920FB60F92FE
:1012700011240BB60F922F933F934F935F936F936D
:101280007F938F939F93AF93BF93EF93FF9380913F
:101290008C0287FF05C0109285001092840016C052
:1012A00020918C02022E000C330B80910A0690E0F4
:1012B000281739075CF430918C0225E03203F001E5
:1012C0001124E253FA4F808186FD15C080918C0273
:1012D0008F5F80938C0220918C02022E000C330BC6
:1012E00080910A0690E02817390794F480918C02C7
:1012F0008C302CF10DC030918C023203F00111249E
:10130000E253FA4F808160E08F730E948B02DECF40
:10131000809184009091850084349C4918F480E485
:101320009CE905C08091840090918500049690937B
:101330008900809388008FEF80938C022AC04091AF
:1013400084005091850030918C0225E03203F00139
:101350001124E253FA4F81819281840F951F90935B
:1013600089008093880030918C023203F0011124AF
:10137000E253FA4F808186FF0CC030918C02320319
:10138000F0011124E253FA4F808161E08F730E94D3
:101390008B02FF91EF91BF91AF919F918F917F91C0
:1013A0006F915F914F913F912F910F900BBE0F90D6
:1013B0000FBE0F901F9018958F929F92AF92BF9281
:1013C0000F931F93CF93DF93CDB7DEB7A1970FB6DF
:1013D000F894DEBF0FBECDBF19A2423008F44AE038
:1013E0008E010F5D1F4F842E912CA12CB12CA501D5
:1013F00094010E94760FE62FB901CA01015011092C
:10140000EA3014F4E05D01C0E95CD801EC93232BD1
:10141000242B252B61F70115110571F0F8010190BE
:101420000020E9F73197AF01401B510BB8018FE560
:1014300094E00E941A0302C080E090E0A1960FB6EB
:10144000F894DEBF0FBECDBFDF91CF911F910F91FA
:10145000BF90AF909F908F9008951F920F920FB6FC
:101460000F9211240F900FBE0F901F9018951F928E
:101470000F920FB60F9211240BB60F922F933F933A
:101480004F935F936F937F938F939F93AF93BF938C
:10149000EF93FF938091B900887F803609F49CC058
:1014A00068F5883209F45BC090F4803109F454C0C7
:1014B00038F4882309F4F6C0883009F44DC0F6C02A
:1014C000883109F44CC0803209F45DC0EFC080342B
:1014D00009F468C048F4803309F455C0883309F032
:1014E000E5C08093F202D8C0803509F44FC088353A
:1014F00009F45DC0883409F0D9C0D6C0883909F430
:10150000C7C0A8F4883709F467C038F4883609F4EE
:1015100063C0803709F460C0C9C0883809F4B8C016
:10152000803909F45FC0803809F0C0C05BC0803BDF
:1015300009F486C038F4803A09F466C0883A09F4A0
:101540007FC0B4C0803C09F4A7C0883C09F4A4C0A3
:10155000883B09F48AC0AAC08091180310C09091FA
:10156000170380911603981770F5E091170381E037
:101570008E0F80931703F0E0EA50FD4F8081809337
:10158000BB0085EC86C08093F2028EC0E091170309
:1015900081E08E0F809317038091BB00F0E0EA504A
:1015A000FD4F808390911703809116036EC0E091E8
:1015B000170381E08E0F809317038091BB00F0E04A
:1015C000EA50FD4F80838091F50281116DC081E06A
:1015D0008093F40284EA61C083E08093F302109266
:1015E0004507CFCF80914507803208F051C0E09188
:1015F000450781E08E0F809345078091BB00F0E0A6
:10160000EB5DF84F8083BDCF85EC8093BC001092DA
:10161000F30280914507803230F4E0914507F0E015
:10162000EB5DF84F10826091450770E0E091230771
:10163000F091240785E297E019951092450736C08E
:1016400084E08093F302109222071092F102E0915D
:101650002007F091210719958091F102811105C0B1
:1016600081E08093F1021092D102E091220781E0A3
:101670008E0F80932207F0E0EF52FD4F8081809320
:10168000BB00909122078091F102981708F479CF5E
:1016900085E88093BC000AC085EC8093BC00109262
:1016A000F30204C01092F2020E945E06FF91EF91D5
:1016B000BF91AF919F918F917F916F915F914F916A
:1016C0003F912F910F900BBE0F900FBE0F901F9068
:1016D0001895CF92DF92EF92FF920F931F93CF93C3
:1016E000DF93FC01EB016081718166507109DB01C0
:1016F0008D919C91DC01AE0FBF1F1A968D919C912C
:101700001B97892B09F484C0822FDB010D911C915A
:10171000D801AE0FBF1F1C969C91891748F4DE01BB
:10172000A80FB11DA80FB11D1D921C92840FEDCF03
:1017300050E08281581708F046C0322FA081B18155
:1017400016978D919C918E0F9F1FDC011C966C91BA
:101750003617B8F5032F10E0DC011A968D919C9195
:101760001B97800F911FDC018C91863308F0865304
:1017700090917B00682F6870977F962B90937B00E9
:101780008770806480937C0080917A00806480936D
:101790007A0080917A0086FDFCCF8091780060917C
:1017A000790090E0962BD801AA0FBB1FAC0FBD1F8C
:1017B0006D917C911197860F971F8D939C93340F99
:1017C000BDCF5F5FB6CFE080F180B6E0EB1AF108E5
:1017D000D7018D919C91DC01AE0FBF1F1C968C919F
:1017E0002817B0F48E01020F111D020F111D628126
:1017F00070E06B01D594C794D8018D919C918C0DAC
:101800009D1D0E94980FD8016D937C93240FE0CF0B
:10181000DF91CF911F910F91FF90EF90DF90CF90CC
:101820000895DC01ED91FC913E970190F081E02D4F
:101830008E0F9F1F0C94690B789484B5826084BDD1
:1018400084B5816084BD85B5826085BD85B58160C4
:1018500085BD80916E00816080936E001092810042
:1018600080918100826080938100809181008160FD
:1018700080938100809180008160809380008091BE
:10188000B10084608093B1008091B000816080934A
:10189000B0008091910082608093910080919100CE
:1018A000816080939100809190008160809390008E
:1018B0008091A10082608093A1008091A10081604D
:1018C0008093A1008091A00081608093A00080910E
:1018D00021018260809321018091210181608093A8
:1018E00021018091200181608093200180917A0004
:1018F000846080937A0080917A00826080937A007D
:1019000080917A00816080937A0080917A0080686B
:1019100080937A001092C10064EF71E080E090E063
:101920000E94E002E0916F04F091700482E08083F5
:10193000E0916B04F0916C041082E0916D04F091E1
:101940006E048FEC808310927704E0917304F09121
:10195000740486E08083E0917104F09172048081C8
:1019600080618083E0917104F091720480818860CD
:101970008083E0917104F09172048081806880839B
:10198000E0917104F091720480818F7D808368EE14
:1019900073E080E090E00E94E002EE24E394F12CFA
:1019A00041E064E972E08EE096E00E94CB0404E935
:1019B00012E0E8016991799180E090E04AE00E94AC
:1019C000DC09E0915F04F09160040190F081E02D6A
:1019D00069E08FE594E0199522E0C43AD20751F707
:1019E000C4E9D2E0FE01888199818436910518F41A
:1019F0001982188202C0F982E88222966081718180
:101A000080E090E04AE00E94DC09E0915F04F09100
:101A100060040190F081E02D69E08FE594E0199574
:101A200082E0C43AD807F1F680E090E0F801219115
:101A300031918F01820F931FF2E0043A1F07B1F733
:101A40001816190674F442E050E06FE672E08FE574
:101A500094E00E941A0364E670E080E090E00E9447
:101A6000E0020E9446049CCF87E492E090930C062B
:101A700080930B0687E392E090930F0680930E0607
:101A80008091180690911906009711F00E94491054
:101A90008091120690911306009711F00E94491050
:101AA0008091160690911706009711F00E94491038
:101AB0008091100690911106009711F00E94491034
:101AC0008091140690911506009711F00E9449101C
:101AD00080912006909121060C9449100F9310924A
:101AE0001C0310921B0388EE93E0A0E0B0E080930B
:101AF0001D0390931E03A0931F03B093200323E1C3
:101B000032E030931A0320931903109228031092A5
:101B100027038093290390932A03A0932B03B09368
:101B20002C0325E232E0309326032093250345E37E
:101B300051E0509332034093310344E351E050931A
:101B400034034093330340E351E050933603409312
:101B5000350341E351E0509338034093370342E3A8
:101B600051E050933A034093390346E351E05093D8
:101B70003C0340933B0310923E0310923F031092AC
:101B80004003109241031092C5031092C403809346
:101B9000C6039093C703A093C803B093C9033093BF
:101BA000C3032093C20345ED50E05093CF0340930D
:101BB000CE0344ED50E05093D1034093D00340ED69
:101BC00050E05093D3034093D20341ED50E0509343
:101BD000D5034093D40342ED50E05093D703409394
:101BE000D60346ED50E05093D9034093D8031092AA
:101BF000DB031092DC031092DD031092DE031092DF
:101C00006204109261048093630490936404A0932F
:101C10006504B09366043093600420935F0485EC00
:101C200090E090936C0480936B0484EC90E090932C
:101C30006E0480936D0480EC90E090937004809328
:101C40006F0481EC90E0909372048093710482ECB5
:101C500090E0909374048093730486EC90E09093EA
:101C6000760480937504109278041092790410928F
:101C70007A0410927B0486E380930A0787E38093BB
:101C80000B0788E380930C0789E380930D078BE1B2
:101C900080930E078DE180930F078AE180931007F0
:101CA0008CE18093110784E08093120787E0809392
:101CB00013071092140784EB8093150786E1809335
:101CC000160788E18093170787E18093180789E159
:101CD00080931907E0910A06EC3020F08FEF809393
:101CE0001A0710C081E08E0F80930A06E0931A074E
:101CF00025E0E29FF0011124E253FA4F88EB9BE0CC
:101D000092838183E0910A06EC3020F08FEF80937C
:101D10001B0710C081E08E0F80930A06E0931B071B
:101D200085E0E89FF0011124E253FA4F88EB9BE035
:101D3000928381838CE08093E90684E28093EA06B3
:101D400086E08093EB0685E08093EC068FE180933C
:101D5000ED068EE18093EE0683E28093EF0682E249
:101D60008093F00685E48093F10684E48093F20684
:101D700080E48093F5061092FA061092FB0610920A
:101D8000FC061092FD061092FE061092FF061092BD
:101D9000000710920107EBE2F6E08FEF9FEFDC0106
:101DA000128213821482158216821782108611867F
:101DB00083879487A587B6878787908BA18BB28B03
:101DC000128611821082739626E0E93EF20741F7EF
:101DD0008DE090E00E94B40FFC011382128287E62E
:101DE00092E091838083118687E2848384E18287F5
:101DF00084E083871486F0932806E09327061092E8
:101E0000290610922A0685E28093FD041092FF04B1
:101E1000109221061092200610922306109222069C
:101E2000109225061092240661E070E080E090E0B8
:101E30000E94E110009791F0909321068093200674
:101E40001092230610922206209124063091250636
:101E5000232B09F042C0FC0110823FC08091200674
:101E600090912106009711F00E94491010922106CE
:101E70001092200610922506109224061092230636
:101E8000109222061092110610921006109213065C
:101E90001092120610921506109214061092170650
:101EA00010921606109219061092180687E492E016
:101EB00090930C0680930B0689E592E090930F06B1
:101EC00080930E0602E024E048E061E072E08BE0DF
:101ED00096E00E943D060F910895109225061092FB
:101EE000240661E772E00E94D811CCCFA1E21A2E3D
:101EF000AA1BBB1BFD010DC0AA1FBB1FEE1FFF1FAE
:101F0000A217B307E407F50720F0A21BB30BE40BFD
:101F1000F50B661F771F881F991F1A9469F7609544
:101F20007095809590959B01AC01BD01CF010895FE
:101F3000AA1BBB1B51E107C0AA1FBB1FA617B707EF
:101F400010F0A61BB70B881F991F5A95A9F780950B
:101F50009095BC01CD010895EE0FFF1F881F8BBF28
:101F60000790F691E02D1994CF93DF93823091057D
:101F700010F482E090E0E0914A07F0914B0720E0F6
:101F800030E0C0E0D0E0309711F140815181481736
:101F90005907C0F04817590761F48281938120974F
:101FA00019F09B838A832BC090934B0780934A0739
:101FB00026C02115310519F04217530718F49A016C
:101FC000BE01DF01EF010280F381E02DDCCF21159E
:101FD000310509F1281B390B2430310590F4129694
:101FE0008D919C9113976115710521F0FB019383ED
:101FF000828304C090934B0780934A07FD01329679
:1020000044C0FD01E20FF31F8193919322503109E7
:102010002D933C933AC02091480730914907232BD8
:1020200041F420910B0230910C0230934907209328
:1020300048072091090230910A022115310541F427
:102040002DB73EB740910D0250910E02241B350B67
:10205000E0914807F0914907E217F307A0F42E1B1F
:102060003F0B2817390778F0AC014E5F5F4F2417FC
:10207000350748F04E0F5F1F5093490740934807BC
:102080008193919302C0E0E0F0E0CF01DF91CF9126
:1020900008950F931F93CF93DF93009709F48CC09B
:1020A000FC0132971382128200914A0710914B076C
:1020B0000115110581F420813181820F931F209138
:1020C0004807309149072817390779F5F0934907F0
:1020D000E093480771C0D80140E050E0AE17BF0759
:1020E00050F412962D913C911397AD0121153105B5
:1020F00009F1D901F3CF9D01DA0133832283608195
:102100007181860F971F8217930769F4EC0128816C
:102110003981260F371F2E5F3F4F318320838A81FD
:102120009B8193838283452B29F4F0934B07E093A3
:102130004A0742C01396FC93EE931297ED01499122
:1021400059919E01240F351FE217F30771F4808126
:102150009181840F951F029611969C938E93828194
:10216000938113969C938E931297E0E0F0E0D80150
:1021700012968D919C911397009719F0F8018C019C
:10218000F6CF8D919C9198012E5F3F4F820F931F48
:1021900020914807309149072817390769F430978B
:1021A00029F410924B0710924A0702C01382128240
:1021B0001093490700934807DF91CF911F910F912A
:1021C00008956F927F928F929F92AF92BF92CF921B
:1021D000DF92EF92FF920F931F93CF93DF93EC0167
:1021E000009789F4CB01DF91CF911F910F91FF9060
:1021F000EF90DF90CF90BF90AF909F908F907F90A7
:102200006F900C94B40FFC01E60FF71F9C01225055
:102210003109E217F30708F4ACC0D9010D911C9104
:10222000119706171707B0F00530110508F49FC085
:10223000C80104978617970708F499C0025011093E
:10224000061B170B019311936D937C93CF010E9492
:1022500049108DC05B01A01AB10A4C01800E911E7D
:10226000A0914A07B0914B0740E050E0E12CF12CDF
:10227000109709F44AC0A815B905D1F56D907C9066
:102280001197630182E0C80ED11CCA14DB0480F1EF
:10229000A3014A195B096A0182E0C80ED11C12969B
:1022A000BC9012971396AC91B5E0CB16D10440F0D8
:1022B000B282A38351834083D9016D937C930AC07A
:1022C0000E5F1F4FC301800F911FF901918380831F
:1022D000EB2DFA2FE114F10431F0D7011396FC93A2
:1022E000EE93129744C0F0934B07E0934A073FC028
:1022F0008D919C9111974817590708F4AC017D0105
:1023000012960D90BC91A02DB3CF8091480790916B
:10231000490788159905E1F446175707C8F48091D5
:10232000090290910A02009741F48DB79EB740913F
:102330000D0250910E02841B950BE817F907C8F4A3
:10234000F0934907E0934807F901718360830FC058
:10235000CB010E94B40F7C01009759F0A801BE0187
:102360000E94CF11CE010E944910C70104C0CE01C6
:1023700002C080E090E0DF91CF911F910F91FF901C
:10238000EF90DF90CF90BF90AF909F908F907F9015
:102390006F90089581E090E0F8940C94DF11FB01B8
:1023A000DC0102C001900D9241505040D8F70895D1
:1023B000FB01DC0101900D920020E1F7089511E08E
:1023C000CCE6D1E000E006C0802FFE010E94AC0FF9
:1023D0002196011DCD36D10780E00807A9F7F894B2
:0223E000FFCF2D
:1023E200FF000102030405060700004C072000005D
:1023F2000000000602D601EB05C801CF01CC01C9DD
:102402000100000000DA031A035E0321048F036D4A
:1024120003810300000000CB049F047304F005EE67
:10242200050300000000003D06690BFDFF000000EF
:102432000000000000FDFF0000CB049F047304F0C5
:1024420005110C00000000C5051A03EB05EA050D95
:022452000A007E
:00000001FF
